{
	"contracts/TrippieceNFT.sol": {
		"TrippieceNFT": {
			"abi": [
				{
					"inputs": [],
					"stateMutability": "nonpayable",
					"type": "constructor"
				},
				{
					"anonymous": false,
					"inputs": [
						{
							"indexed": true,
							"internalType": "address",
							"name": "owner",
							"type": "address"
						},
						{
							"indexed": true,
							"internalType": "address",
							"name": "approved",
							"type": "address"
						},
						{
							"indexed": true,
							"internalType": "uint256",
							"name": "tokenId",
							"type": "uint256"
						}
					],
					"name": "Approval",
					"type": "event"
				},
				{
					"anonymous": false,
					"inputs": [
						{
							"indexed": true,
							"internalType": "address",
							"name": "owner",
							"type": "address"
						},
						{
							"indexed": true,
							"internalType": "address",
							"name": "operator",
							"type": "address"
						},
						{
							"indexed": false,
							"internalType": "bool",
							"name": "approved",
							"type": "bool"
						}
					],
					"name": "ApprovalForAll",
					"type": "event"
				},
				{
					"anonymous": false,
					"inputs": [
						{
							"indexed": true,
							"internalType": "address",
							"name": "from",
							"type": "address"
						},
						{
							"indexed": true,
							"internalType": "address",
							"name": "to",
							"type": "address"
						},
						{
							"indexed": true,
							"internalType": "uint256",
							"name": "tokenId",
							"type": "uint256"
						}
					],
					"name": "Transfer",
					"type": "event"
				},
				{
					"inputs": [
						{
							"internalType": "address",
							"name": "to",
							"type": "address"
						},
						{
							"internalType": "uint256",
							"name": "tokenId",
							"type": "uint256"
						}
					],
					"name": "approve",
					"outputs": [],
					"stateMutability": "nonpayable",
					"type": "function"
				},
				{
					"inputs": [
						{
							"internalType": "address",
							"name": "owner",
							"type": "address"
						}
					],
					"name": "balanceOf",
					"outputs": [
						{
							"internalType": "uint256",
							"name": "",
							"type": "uint256"
						}
					],
					"stateMutability": "view",
					"type": "function"
				},
				{
					"inputs": [
						{
							"internalType": "address",
							"name": "to",
							"type": "address"
						},
						{
							"internalType": "string",
							"name": "_tokenURI",
							"type": "string"
						}
					],
					"name": "create",
					"outputs": [
						{
							"internalType": "uint256",
							"name": "",
							"type": "uint256"
						}
					],
					"stateMutability": "nonpayable",
					"type": "function"
				},
				{
					"inputs": [
						{
							"internalType": "uint256",
							"name": "tokenId",
							"type": "uint256"
						}
					],
					"name": "getApproved",
					"outputs": [
						{
							"internalType": "address",
							"name": "",
							"type": "address"
						}
					],
					"stateMutability": "view",
					"type": "function"
				},
				{
					"inputs": [
						{
							"internalType": "address",
							"name": "walletAddress",
							"type": "address"
						}
					],
					"name": "getStickerList",
					"outputs": [
						{
							"components": [
								{
									"internalType": "uint256",
									"name": "tokenId",
									"type": "uint256"
								},
								{
									"internalType": "string",
									"name": "tokenURI",
									"type": "string"
								}
							],
							"internalType": "struct TrippieceNFT.Sticker[]",
							"name": "",
							"type": "tuple[]"
						}
					],
					"stateMutability": "view",
					"type": "function"
				},
				{
					"inputs": [
						{
							"internalType": "address",
							"name": "owner",
							"type": "address"
						},
						{
							"internalType": "address",
							"name": "operator",
							"type": "address"
						}
					],
					"name": "isApprovedForAll",
					"outputs": [
						{
							"internalType": "bool",
							"name": "",
							"type": "bool"
						}
					],
					"stateMutability": "view",
					"type": "function"
				},
				{
					"inputs": [],
					"name": "name",
					"outputs": [
						{
							"internalType": "string",
							"name": "",
							"type": "string"
						}
					],
					"stateMutability": "view",
					"type": "function"
				},
				{
					"inputs": [
						{
							"internalType": "uint256",
							"name": "tokenId",
							"type": "uint256"
						}
					],
					"name": "ownerOf",
					"outputs": [
						{
							"internalType": "address",
							"name": "",
							"type": "address"
						}
					],
					"stateMutability": "view",
					"type": "function"
				},
				{
					"inputs": [
						{
							"internalType": "address",
							"name": "from",
							"type": "address"
						},
						{
							"internalType": "address",
							"name": "to",
							"type": "address"
						},
						{
							"internalType": "uint256",
							"name": "tokenId",
							"type": "uint256"
						}
					],
					"name": "safeTransferFrom",
					"outputs": [],
					"stateMutability": "nonpayable",
					"type": "function"
				},
				{
					"inputs": [
						{
							"internalType": "address",
							"name": "from",
							"type": "address"
						},
						{
							"internalType": "address",
							"name": "to",
							"type": "address"
						},
						{
							"internalType": "uint256",
							"name": "tokenId",
							"type": "uint256"
						},
						{
							"internalType": "bytes",
							"name": "_data",
							"type": "bytes"
						}
					],
					"name": "safeTransferFrom",
					"outputs": [],
					"stateMutability": "nonpayable",
					"type": "function"
				},
				{
					"inputs": [
						{
							"internalType": "address",
							"name": "operator",
							"type": "address"
						},
						{
							"internalType": "bool",
							"name": "approved",
							"type": "bool"
						}
					],
					"name": "setApprovalForAll",
					"outputs": [],
					"stateMutability": "nonpayable",
					"type": "function"
				},
				{
					"inputs": [
						{
							"internalType": "bytes4",
							"name": "interfaceId",
							"type": "bytes4"
						}
					],
					"name": "supportsInterface",
					"outputs": [
						{
							"internalType": "bool",
							"name": "",
							"type": "bool"
						}
					],
					"stateMutability": "view",
					"type": "function"
				},
				{
					"inputs": [],
					"name": "symbol",
					"outputs": [
						{
							"internalType": "string",
							"name": "",
							"type": "string"
						}
					],
					"stateMutability": "view",
					"type": "function"
				},
				{
					"inputs": [
						{
							"internalType": "uint256",
							"name": "tokenId",
							"type": "uint256"
						}
					],
					"name": "tokenURI",
					"outputs": [
						{
							"internalType": "string",
							"name": "",
							"type": "string"
						}
					],
					"stateMutability": "view",
					"type": "function"
				},
				{
					"inputs": [
						{
							"internalType": "address",
							"name": "from",
							"type": "address"
						},
						{
							"internalType": "address",
							"name": "to",
							"type": "address"
						},
						{
							"internalType": "uint256",
							"name": "tokenId",
							"type": "uint256"
						}
					],
					"name": "transferFrom",
					"outputs": [],
					"stateMutability": "nonpayable",
					"type": "function"
				}
			],
			"devdoc": {
				"kind": "dev",
				"methods": {
					"approve(address,uint256)": {
						"details": "See {IERC721-approve}."
					},
					"balanceOf(address)": {
						"details": "See {IERC721-balanceOf}."
					},
					"getApproved(uint256)": {
						"details": "See {IERC721-getApproved}."
					},
					"isApprovedForAll(address,address)": {
						"details": "See {IERC721-isApprovedForAll}."
					},
					"name()": {
						"details": "See {IERC721Metadata-name}."
					},
					"ownerOf(uint256)": {
						"details": "See {IERC721-ownerOf}."
					},
					"safeTransferFrom(address,address,uint256)": {
						"details": "See {IERC721-safeTransferFrom}."
					},
					"safeTransferFrom(address,address,uint256,bytes)": {
						"details": "See {IERC721-safeTransferFrom}."
					},
					"setApprovalForAll(address,bool)": {
						"details": "See {IERC721-setApprovalForAll}."
					},
					"supportsInterface(bytes4)": {
						"details": "See {IERC165-supportsInterface}."
					},
					"symbol()": {
						"details": "See {IERC721Metadata-symbol}."
					},
					"tokenURI(uint256)": {
						"details": "See {IERC721Metadata-tokenURI}."
					},
					"transferFrom(address,address,uint256)": {
						"details": "See {IERC721-transferFrom}."
					}
				},
				"version": 1
			},
			"evm": {
				"assembly": "    /* \"contracts/TrippieceNFT.sol\":276:1750  contract TrippieceNFT is ERC721 {\r... */\n  mstore(0x40, 0x80)\n    /* \"contracts/TrippieceNFT.sol\":526:569  constructor() ERC721(\"MySticker\", \"MSK\") {} */\n  callvalue\n  dup1\n  iszero\n  tag_1\n  jumpi\n  0x00\n  dup1\n  revert\ntag_1:\n  pop\n    /* \"contracts/token/ERC721/ERC721.sol\":1267:1383  constructor(string memory name_, string memory symbol_) {\r... */\n  mload(0x40)\n  dup1\n  0x40\n  add\n  0x40\n  mstore\n  dup1\n  0x09\n  dup2\n  mstore\n  0x20\n  add\n  0x4d79537469636b65720000000000000000000000000000000000000000000000\n  dup2\n  mstore\n  pop\n  mload(0x40)\n  dup1\n  0x40\n  add\n  0x40\n  mstore\n  dup1\n  0x03\n  dup2\n  mstore\n  0x20\n  add\n  0x4d534b0000000000000000000000000000000000000000000000000000000000\n  dup2\n  mstore\n  pop\n    /* \"contracts/token/ERC721/ERC721.sol\":1342:1347  name_ */\n  dup2\n    /* \"contracts/token/ERC721/ERC721.sol\":1334:1339  _name */\n  0x00\n    /* \"contracts/token/ERC721/ERC721.sol\":1334:1347  _name = name_ */\n  swap1\n  dup1\n  mload\n  swap1\n  0x20\n  add\n  swap1\n  tag_5\n  swap3\n  swap2\n  swap1\n  tag_6\n  jump\t// in\ntag_5:\n  pop\n    /* \"contracts/token/ERC721/ERC721.sol\":1368:1375  symbol_ */\n  dup1\n    /* \"contracts/token/ERC721/ERC721.sol\":1358:1365  _symbol */\n  0x01\n    /* \"contracts/token/ERC721/ERC721.sol\":1358:1375  _symbol = symbol_ */\n  swap1\n  dup1\n  mload\n  swap1\n  0x20\n  add\n  swap1\n  tag_7\n  swap3\n  swap2\n  swap1\n  tag_6\n  jump\t// in\ntag_7:\n  pop\n    /* \"contracts/token/ERC721/ERC721.sol\":1267:1383  constructor(string memory name_, string memory symbol_) {\r... */\n  pop\n  pop\n    /* \"contracts/TrippieceNFT.sol\":276:1750  contract TrippieceNFT is ERC721 {\r... */\n  jump(tag_9)\ntag_6:\n  dup3\n  dup1\n  sload\n  tag_10\n  swap1\n  tag_11\n  jump\t// in\ntag_10:\n  swap1\n  0x00\n  mstore\n  keccak256(0x00, 0x20)\n  swap1\n  0x1f\n  add\n  0x20\n  swap1\n  div\n  dup2\n  add\n  swap3\n  dup3\n  tag_13\n  jumpi\n  0x00\n  dup6\n  sstore\n  jump(tag_12)\ntag_13:\n  dup3\n  0x1f\n  lt\n  tag_14\n  jumpi\n  dup1\n  mload\n  not(0xff)\n  and\n  dup4\n  dup1\n  add\n  or\n  dup6\n  sstore\n  jump(tag_12)\ntag_14:\n  dup3\n  dup1\n  add\n  0x01\n  add\n  dup6\n  sstore\n  dup3\n  iszero\n  tag_12\n  jumpi\n  swap2\n  dup3\n  add\ntag_15:\n  dup3\n  dup2\n  gt\n  iszero\n  tag_16\n  jumpi\n  dup3\n  mload\n  dup3\n  sstore\n  swap2\n  0x20\n  add\n  swap2\n  swap1\n  0x01\n  add\n  swap1\n  jump(tag_15)\ntag_16:\ntag_12:\n  pop\n  swap1\n  pop\n  tag_17\n  swap2\n  swap1\n  tag_18\n  jump\t// in\ntag_17:\n  pop\n  swap1\n  jump\t// out\ntag_18:\ntag_19:\n  dup1\n  dup3\n  gt\n  iszero\n  tag_20\n  jumpi\n  0x00\n  dup2\n  0x00\n  swap1\n  sstore\n  pop\n  0x01\n  add\n  jump(tag_19)\ntag_20:\n  pop\n  swap1\n  jump\t// out\n    /* \"#utility.yul\":7:327   */\ntag_11:\n    /* \"#utility.yul\":51:57   */\n  0x00\n    /* \"#utility.yul\":88:89   */\n  0x02\n    /* \"#utility.yul\":82:86   */\n  dup3\n    /* \"#utility.yul\":78:90   */\n  div\n    /* \"#utility.yul\":68:90   */\n  swap1\n  pop\n    /* \"#utility.yul\":135:136   */\n  0x01\n    /* \"#utility.yul\":129:133   */\n  dup3\n    /* \"#utility.yul\":125:137   */\n  and\n    /* \"#utility.yul\":156:174   */\n  dup1\n    /* \"#utility.yul\":146:227   */\n  tag_23\n  jumpi\n    /* \"#utility.yul\":212:216   */\n  0x7f\n    /* \"#utility.yul\":204:210   */\n  dup3\n    /* \"#utility.yul\":200:217   */\n  and\n    /* \"#utility.yul\":190:217   */\n  swap2\n  pop\n    /* \"#utility.yul\":146:227   */\ntag_23:\n    /* \"#utility.yul\":274:276   */\n  0x20\n    /* \"#utility.yul\":266:272   */\n  dup3\n    /* \"#utility.yul\":263:277   */\n  lt\n    /* \"#utility.yul\":243:261   */\n  dup2\n    /* \"#utility.yul\":240:278   */\n  eq\n    /* \"#utility.yul\":237:321   */\n  iszero\n  tag_24\n  jumpi\n    /* \"#utility.yul\":293:311   */\n  tag_25\n  tag_26\n  jump\t// in\ntag_25:\n    /* \"#utility.yul\":237:321   */\ntag_24:\n    /* \"#utility.yul\":58:327   */\n  pop\n    /* \"#utility.yul\":7:327   */\n  swap2\n  swap1\n  pop\n  jump\t// out\n    /* \"#utility.yul\":333:513   */\ntag_26:\n    /* \"#utility.yul\":381:458   */\n  0x4e487b7100000000000000000000000000000000000000000000000000000000\n    /* \"#utility.yul\":378:379   */\n  0x00\n    /* \"#utility.yul\":371:459   */\n  mstore\n    /* \"#utility.yul\":478:482   */\n  0x22\n    /* \"#utility.yul\":475:476   */\n  0x04\n    /* \"#utility.yul\":468:483   */\n  mstore\n    /* \"#utility.yul\":502:506   */\n  0x24\n    /* \"#utility.yul\":499:500   */\n  0x00\n    /* \"#utility.yul\":492:507   */\n  revert\n    /* \"contracts/TrippieceNFT.sol\":276:1750  contract TrippieceNFT is ERC721 {\r... */\ntag_9:\n  dataSize(sub_0)\n  dup1\n  dataOffset(sub_0)\n  0x00\n  codecopy\n  0x00\n  return\nstop\n\nsub_0: assembly {\n        /* \"contracts/TrippieceNFT.sol\":276:1750  contract TrippieceNFT is ERC721 {\r... */\n      mstore(0x40, 0x80)\n      callvalue\n      dup1\n      iszero\n      tag_1\n      jumpi\n      0x00\n      dup1\n      revert\n    tag_1:\n      pop\n      jumpi(tag_2, lt(calldatasize, 0x04))\n      shr(0xe0, calldataload(0x00))\n      dup1\n      0x6352211e\n      gt\n      tag_18\n      jumpi\n      dup1\n      0xa22cb465\n      gt\n      tag_19\n      jumpi\n      dup1\n      0xa22cb465\n      eq\n      tag_14\n      jumpi\n      dup1\n      0xb88d4fde\n      eq\n      tag_15\n      jumpi\n      dup1\n      0xc87b56dd\n      eq\n      tag_16\n      jumpi\n      dup1\n      0xe985e9c5\n      eq\n      tag_17\n      jumpi\n      jump(tag_2)\n    tag_19:\n      dup1\n      0x6352211e\n      eq\n      tag_10\n      jumpi\n      dup1\n      0x70a08231\n      eq\n      tag_11\n      jumpi\n      dup1\n      0x95d89b41\n      eq\n      tag_12\n      jumpi\n      dup1\n      0xa15ab08d\n      eq\n      tag_13\n      jumpi\n      jump(tag_2)\n    tag_18:\n      dup1\n      0x0954ecd0\n      gt\n      tag_20\n      jumpi\n      dup1\n      0x0954ecd0\n      eq\n      tag_6\n      jumpi\n      dup1\n      0x095ea7b3\n      eq\n      tag_7\n      jumpi\n      dup1\n      0x23b872dd\n      eq\n      tag_8\n      jumpi\n      dup1\n      0x42842e0e\n      eq\n      tag_9\n      jumpi\n      jump(tag_2)\n    tag_20:\n      dup1\n      0x01ffc9a7\n      eq\n      tag_3\n      jumpi\n      dup1\n      0x06fdde03\n      eq\n      tag_4\n      jumpi\n      dup1\n      0x081812fc\n      eq\n      tag_5\n      jumpi\n    tag_2:\n      0x00\n      dup1\n      revert\n        /* \"contracts/token/ERC721/ERC721.sol\":1453:1749  function supportsInterface(bytes4 interfaceId) public view virtual override(ERC165, IERC165) returns (bool) {\r... */\n    tag_3:\n      tag_21\n      0x04\n      dup1\n      calldatasize\n      sub\n      dup2\n      add\n      swap1\n      tag_22\n      swap2\n      swap1\n      tag_23\n      jump\t// in\n    tag_22:\n      tag_24\n      jump\t// in\n    tag_21:\n      mload(0x40)\n      tag_25\n      swap2\n      swap1\n      tag_26\n      jump\t// in\n    tag_25:\n      mload(0x40)\n      dup1\n      swap2\n      sub\n      swap1\n      return\n        /* \"contracts/token/ERC721/ERC721.sol\":2318:2418  function name() public view virtual override returns (string memory) {\r... */\n    tag_4:\n      tag_27\n      tag_28\n      jump\t// in\n    tag_27:\n      mload(0x40)\n      tag_29\n      swap2\n      swap1\n      tag_30\n      jump\t// in\n    tag_29:\n      mload(0x40)\n      dup1\n      swap2\n      sub\n      swap1\n      return\n        /* \"contracts/token/ERC721/ERC721.sol\":4257:4465  function getApproved(uint256 tokenId) public view virtual override returns (address) {\r... */\n    tag_5:\n      tag_31\n      0x04\n      dup1\n      calldatasize\n      sub\n      dup2\n      add\n      swap1\n      tag_32\n      swap2\n      swap1\n      tag_33\n      jump\t// in\n    tag_32:\n      tag_34\n      jump\t// in\n    tag_31:\n      mload(0x40)\n      tag_35\n      swap2\n      swap1\n      tag_36\n      jump\t// in\n    tag_35:\n      mload(0x40)\n      dup1\n      swap2\n      sub\n      swap1\n      return\n        /* \"contracts/TrippieceNFT.sol\":750:1433  function getStickerList(address walletAddress) public view returns(Sticker[] memory ){\r... */\n    tag_6:\n      tag_37\n      0x04\n      dup1\n      calldatasize\n      sub\n      dup2\n      add\n      swap1\n      tag_38\n      swap2\n      swap1\n      tag_39\n      jump\t// in\n    tag_38:\n      tag_40\n      jump\t// in\n    tag_37:\n      mload(0x40)\n      tag_41\n      swap2\n      swap1\n      tag_42\n      jump\t// in\n    tag_41:\n      mload(0x40)\n      dup1\n      swap2\n      sub\n      swap1\n      return\n        /* \"contracts/token/ERC721/ERC721.sol\":3849:4193  function approve(address to, uint256 tokenId) public virtual override {\r... */\n    tag_7:\n      tag_43\n      0x04\n      dup1\n      calldatasize\n      sub\n      dup2\n      add\n      swap1\n      tag_44\n      swap2\n      swap1\n      tag_45\n      jump\t// in\n    tag_44:\n      tag_46\n      jump\t// in\n    tag_43:\n      stop\n        /* \"contracts/token/ERC721/ERC721.sol\":5049:5649  function transferFrom(\r... */\n    tag_8:\n      tag_47\n      0x04\n      dup1\n      calldatasize\n      sub\n      dup2\n      add\n      swap1\n      tag_48\n      swap2\n      swap1\n      tag_49\n      jump\t// in\n    tag_48:\n      tag_50\n      jump\t// in\n    tag_47:\n      stop\n        /* \"contracts/token/ERC721/ERC721.sol\":5718:6141  function safeTransferFrom(\r... */\n    tag_9:\n      tag_51\n      0x04\n      dup1\n      calldatasize\n      sub\n      dup2\n      add\n      swap1\n      tag_52\n      swap2\n      swap1\n      tag_49\n      jump\t// in\n    tag_52:\n      tag_53\n      jump\t// in\n    tag_51:\n      stop\n        /* \"contracts/token/ERC721/ERC721.sol\":2057:2253  function ownerOf(uint256 tokenId) public view virtual override returns (address) {\r... */\n    tag_10:\n      tag_54\n      0x04\n      dup1\n      calldatasize\n      sub\n      dup2\n      add\n      swap1\n      tag_55\n      swap2\n      swap1\n      tag_33\n      jump\t// in\n    tag_55:\n      tag_56\n      jump\t// in\n    tag_54:\n      mload(0x40)\n      tag_57\n      swap2\n      swap1\n      tag_36\n      jump\t// in\n    tag_57:\n      mload(0x40)\n      dup1\n      swap2\n      sub\n      swap1\n      return\n        /* \"contracts/token/ERC721/ERC721.sol\":1811:1997  function balanceOf(address owner) public view virtual override returns (uint256) {\r... */\n    tag_11:\n      tag_58\n      0x04\n      dup1\n      calldatasize\n      sub\n      dup2\n      add\n      swap1\n      tag_59\n      swap2\n      swap1\n      tag_39\n      jump\t// in\n    tag_59:\n      tag_60\n      jump\t// in\n    tag_58:\n      mload(0x40)\n      tag_61\n      swap2\n      swap1\n      tag_62\n      jump\t// in\n    tag_61:\n      mload(0x40)\n      dup1\n      swap2\n      sub\n      swap1\n      return\n        /* \"contracts/token/ERC721/ERC721.sol\":2485:2589  function symbol() public view virtual override returns (string memory) {\r... */\n    tag_12:\n      tag_63\n      tag_64\n      jump\t// in\n    tag_63:\n      mload(0x40)\n      tag_65\n      swap2\n      swap1\n      tag_30\n      jump\t// in\n    tag_65:\n      mload(0x40)\n      dup1\n      swap2\n      sub\n      swap1\n      return\n        /* \"contracts/TrippieceNFT.sol\":1441:1747  function create(address to, string memory _tokenURI)\r... */\n    tag_13:\n      tag_66\n      0x04\n      dup1\n      calldatasize\n      sub\n      dup2\n      add\n      swap1\n      tag_67\n      swap2\n      swap1\n      tag_68\n      jump\t// in\n    tag_67:\n      tag_69\n      jump\t// in\n    tag_66:\n      mload(0x40)\n      tag_70\n      swap2\n      swap1\n      tag_62\n      jump\t// in\n    tag_70:\n      mload(0x40)\n      dup1\n      swap2\n      sub\n      swap1\n      return\n        /* \"contracts/token/ERC721/ERC721.sol\":4535:4751  function setApprovalForAll(address operator, bool approved) public virtual override {\r... */\n    tag_14:\n      tag_71\n      0x04\n      dup1\n      calldatasize\n      sub\n      dup2\n      add\n      swap1\n      tag_72\n      swap2\n      swap1\n      tag_73\n      jump\t// in\n    tag_72:\n      tag_74\n      jump\t// in\n    tag_71:\n      stop\n        /* \"contracts/token/ERC721/ERC721.sol\":6210:6665  function safeTransferFrom(\r... */\n    tag_15:\n      tag_75\n      0x04\n      dup1\n      calldatasize\n      sub\n      dup2\n      add\n      swap1\n      tag_76\n      swap2\n      swap1\n      tag_77\n      jump\t// in\n    tag_76:\n      tag_78\n      jump\t// in\n    tag_75:\n      stop\n        /* \"contracts/TrippieceNFT.sol\":577:742  function tokenURI(uint256 tokenId)\r... */\n    tag_16:\n      tag_79\n      0x04\n      dup1\n      calldatasize\n      sub\n      dup2\n      add\n      swap1\n      tag_80\n      swap2\n      swap1\n      tag_33\n      jump\t// in\n    tag_80:\n      tag_81\n      jump\t// in\n    tag_79:\n      mload(0x40)\n      tag_82\n      swap2\n      swap1\n      tag_30\n      jump\t// in\n    tag_82:\n      mload(0x40)\n      dup1\n      swap2\n      sub\n      swap1\n      return\n        /* \"contracts/token/ERC721/ERC721.sol\":4820:4984  function isApprovedForAll(address owner, address operator) public view virtual override returns (bool) {\r... */\n    tag_17:\n      tag_83\n      0x04\n      dup1\n      calldatasize\n      sub\n      dup2\n      add\n      swap1\n      tag_84\n      swap2\n      swap1\n      tag_85\n      jump\t// in\n    tag_84:\n      tag_86\n      jump\t// in\n    tag_83:\n      mload(0x40)\n      tag_87\n      swap2\n      swap1\n      tag_26\n      jump\t// in\n    tag_87:\n      mload(0x40)\n      dup1\n      swap2\n      sub\n      swap1\n      return\n        /* \"contracts/token/ERC721/ERC721.sol\":1453:1749  function supportsInterface(bytes4 interfaceId) public view virtual override(ERC165, IERC165) returns (bool) {\r... */\n    tag_24:\n        /* \"contracts/token/ERC721/ERC721.sol\":1555:1559  bool */\n      0x00\n        /* \"contracts/token/ERC721/ERC721.sol\":1594:1619  type(IERC165).interfaceId */\n      0x01ffc9a700000000000000000000000000000000000000000000000000000000\n        /* \"contracts/token/ERC721/ERC721.sol\":1579:1619  interfaceId == type(IERC165).interfaceId */\n      not(0xffffffffffffffffffffffffffffffffffffffffffffffffffffffff)\n      and\n        /* \"contracts/token/ERC721/ERC721.sol\":1579:1590  interfaceId */\n      dup3\n        /* \"contracts/token/ERC721/ERC721.sol\":1579:1619  interfaceId == type(IERC165).interfaceId */\n      not(0xffffffffffffffffffffffffffffffffffffffffffffffffffffffff)\n      and\n      eq\n        /* \"contracts/token/ERC721/ERC721.sol\":1579:1676  interfaceId == type(IERC165).interfaceId ||\r... */\n      dup1\n      tag_89\n      jumpi\n      pop\n        /* \"contracts/token/ERC721/ERC721.sol\":1651:1676  type(IERC721).interfaceId */\n      0x80ac58cd00000000000000000000000000000000000000000000000000000000\n        /* \"contracts/token/ERC721/ERC721.sol\":1636:1676  interfaceId == type(IERC721).interfaceId */\n      not(0xffffffffffffffffffffffffffffffffffffffffffffffffffffffff)\n      and\n        /* \"contracts/token/ERC721/ERC721.sol\":1636:1647  interfaceId */\n      dup3\n        /* \"contracts/token/ERC721/ERC721.sol\":1636:1676  interfaceId == type(IERC721).interfaceId */\n      not(0xffffffffffffffffffffffffffffffffffffffffffffffffffffffff)\n      and\n      eq\n        /* \"contracts/token/ERC721/ERC721.sol\":1579:1676  interfaceId == type(IERC165).interfaceId ||\r... */\n    tag_89:\n        /* \"contracts/token/ERC721/ERC721.sol\":1579:1741  interfaceId == type(IERC165).interfaceId ||\r... */\n      dup1\n      tag_90\n      jumpi\n      pop\n        /* \"contracts/token/ERC721/ERC721.sol\":1708:1741  type(IERC721Metadata).interfaceId */\n      0x5b5e139f00000000000000000000000000000000000000000000000000000000\n        /* \"contracts/token/ERC721/ERC721.sol\":1693:1741  interfaceId == type(IERC721Metadata).interfaceId */\n      not(0xffffffffffffffffffffffffffffffffffffffffffffffffffffffff)\n      and\n        /* \"contracts/token/ERC721/ERC721.sol\":1693:1704  interfaceId */\n      dup3\n        /* \"contracts/token/ERC721/ERC721.sol\":1693:1741  interfaceId == type(IERC721Metadata).interfaceId */\n      not(0xffffffffffffffffffffffffffffffffffffffffffffffffffffffff)\n      and\n      eq\n        /* \"contracts/token/ERC721/ERC721.sol\":1579:1741  interfaceId == type(IERC165).interfaceId ||\r... */\n    tag_90:\n        /* \"contracts/token/ERC721/ERC721.sol\":1572:1741  return interfaceId == type(IERC165).interfaceId ||\r... */\n      swap1\n      pop\n        /* \"contracts/token/ERC721/ERC721.sol\":1453:1749  function supportsInterface(bytes4 interfaceId) public view virtual override(ERC165, IERC165) returns (bool) {\r... */\n      swap2\n      swap1\n      pop\n      jump\t// out\n        /* \"contracts/token/ERC721/ERC721.sol\":2318:2418  function name() public view virtual override returns (string memory) {\r... */\n    tag_28:\n        /* \"contracts/token/ERC721/ERC721.sol\":2372:2385  string memory */\n      0x60\n        /* \"contracts/token/ERC721/ERC721.sol\":2405:2410  _name */\n      0x00\n        /* \"contracts/token/ERC721/ERC721.sol\":2398:2410  return _name */\n      dup1\n      sload\n      tag_92\n      swap1\n      tag_93\n      jump\t// in\n    tag_92:\n      dup1\n      0x1f\n      add\n      0x20\n      dup1\n      swap2\n      div\n      mul\n      0x20\n      add\n      mload(0x40)\n      swap1\n      dup2\n      add\n      0x40\n      mstore\n      dup1\n      swap3\n      swap2\n      swap1\n      dup2\n      dup2\n      mstore\n      0x20\n      add\n      dup3\n      dup1\n      sload\n      tag_94\n      swap1\n      tag_93\n      jump\t// in\n    tag_94:\n      dup1\n      iszero\n      tag_95\n      jumpi\n      dup1\n      0x1f\n      lt\n      tag_96\n      jumpi\n      0x0100\n      dup1\n      dup4\n      sload\n      div\n      mul\n      dup4\n      mstore\n      swap2\n      0x20\n      add\n      swap2\n      jump(tag_95)\n    tag_96:\n      dup3\n      add\n      swap2\n      swap1\n      0x00\n      mstore\n      keccak256(0x00, 0x20)\n      swap1\n    tag_97:\n      dup2\n      sload\n      dup2\n      mstore\n      swap1\n      0x01\n      add\n      swap1\n      0x20\n      add\n      dup1\n      dup4\n      gt\n      tag_97\n      jumpi\n      dup3\n      swap1\n      sub\n      0x1f\n      and\n      dup3\n      add\n      swap2\n    tag_95:\n      pop\n      pop\n      pop\n      pop\n      pop\n      swap1\n      pop\n        /* \"contracts/token/ERC721/ERC721.sol\":2318:2418  function name() public view virtual override returns (string memory) {\r... */\n      swap1\n      jump\t// out\n        /* \"contracts/token/ERC721/ERC721.sol\":4257:4465  function getApproved(uint256 tokenId) public view virtual override returns (address) {\r... */\n    tag_34:\n        /* \"contracts/token/ERC721/ERC721.sol\":4333:4340  address */\n      0x00\n        /* \"contracts/token/ERC721/ERC721.sol\":4389:4390  0 */\n      dup1\n        /* \"contracts/token/ERC721/ERC721.sol\":4361:4391  _owners[tokenId] != address(0) */\n      0xffffffffffffffffffffffffffffffffffffffff\n      and\n        /* \"contracts/token/ERC721/ERC721.sol\":4361:4368  _owners */\n      0x02\n        /* \"contracts/token/ERC721/ERC721.sol\":4361:4377  _owners[tokenId] */\n      0x00\n        /* \"contracts/token/ERC721/ERC721.sol\":4369:4376  tokenId */\n      dup5\n        /* \"contracts/token/ERC721/ERC721.sol\":4361:4377  _owners[tokenId] */\n      dup2\n      mstore\n      0x20\n      add\n      swap1\n      dup2\n      mstore\n      0x20\n      add\n      0x00\n      keccak256\n      0x00\n      swap1\n      sload\n      swap1\n      0x0100\n      exp\n      swap1\n      div\n      0xffffffffffffffffffffffffffffffffffffffff\n      and\n        /* \"contracts/token/ERC721/ERC721.sol\":4361:4391  _owners[tokenId] != address(0) */\n      0xffffffffffffffffffffffffffffffffffffffff\n      and\n      eq\n      iszero\n        /* \"contracts/token/ERC721/ERC721.sol\":4353:4415  require(_owners[tokenId] != address(0), \"token doesn't exist\") */\n      tag_99\n      jumpi\n      mload(0x40)\n      0x08c379a000000000000000000000000000000000000000000000000000000000\n      dup2\n      mstore\n      0x04\n      add\n      tag_100\n      swap1\n      tag_101\n      jump\t// in\n    tag_100:\n      mload(0x40)\n      dup1\n      swap2\n      sub\n      swap1\n      revert\n    tag_99:\n        /* \"contracts/token/ERC721/ERC721.sol\":4433:4448  _tokenApprovals */\n      0x04\n        /* \"contracts/token/ERC721/ERC721.sol\":4433:4457  _tokenApprovals[tokenId] */\n      0x00\n        /* \"contracts/token/ERC721/ERC721.sol\":4449:4456  tokenId */\n      dup4\n        /* \"contracts/token/ERC721/ERC721.sol\":4433:4457  _tokenApprovals[tokenId] */\n      dup2\n      mstore\n      0x20\n      add\n      swap1\n      dup2\n      mstore\n      0x20\n      add\n      0x00\n      keccak256\n      0x00\n      swap1\n      sload\n      swap1\n      0x0100\n      exp\n      swap1\n      div\n      0xffffffffffffffffffffffffffffffffffffffff\n      and\n        /* \"contracts/token/ERC721/ERC721.sol\":4426:4457  return _tokenApprovals[tokenId] */\n      swap1\n      pop\n        /* \"contracts/token/ERC721/ERC721.sol\":4257:4465  function getApproved(uint256 tokenId) public view virtual override returns (address) {\r... */\n      swap2\n      swap1\n      pop\n      jump\t// out\n        /* \"contracts/TrippieceNFT.sol\":750:1433  function getStickerList(address walletAddress) public view returns(Sticker[] memory ){\r... */\n    tag_40:\n        /* \"contracts/TrippieceNFT.sol\":817:833  Sticker[] memory */\n      0x60\n        /* \"contracts/TrippieceNFT.sol\":846:857  uint256 max */\n      0x00\n        /* \"contracts/TrippieceNFT.sol\":860:879  _tokenIds.current() */\n      tag_103\n        /* \"contracts/TrippieceNFT.sol\":860:869  _tokenIds */\n      0x06\n        /* \"contracts/TrippieceNFT.sol\":860:877  _tokenIds.current */\n      tag_104\n        /* \"contracts/TrippieceNFT.sol\":860:879  _tokenIds.current() */\n      jump\t// in\n    tag_103:\n        /* \"contracts/TrippieceNFT.sol\":846:879  uint256 max = _tokenIds.current() */\n      swap1\n      pop\n        /* \"contracts/TrippieceNFT.sol\":971:972  0 */\n      0x00\n        /* \"contracts/TrippieceNFT.sol\":945:969  balanceOf(walletAddress) */\n      tag_105\n        /* \"contracts/TrippieceNFT.sol\":955:968  walletAddress */\n      dup5\n        /* \"contracts/TrippieceNFT.sol\":945:954  balanceOf */\n      tag_60\n        /* \"contracts/TrippieceNFT.sol\":945:969  balanceOf(walletAddress) */\n      jump\t// in\n    tag_105:\n        /* \"contracts/TrippieceNFT.sol\":945:972  balanceOf(walletAddress)> 0 */\n      gt\n        /* \"contracts/TrippieceNFT.sol\":936:1012  require( balanceOf(walletAddress)> 0,\"you don't have any sticker Oopsie!!!\") */\n      tag_106\n      jumpi\n      mload(0x40)\n      0x08c379a000000000000000000000000000000000000000000000000000000000\n      dup2\n      mstore\n      0x04\n      add\n      tag_107\n      swap1\n      tag_108\n      jump\t// in\n    tag_107:\n      mload(0x40)\n      dup1\n      swap2\n      sub\n      swap1\n      revert\n    tag_106:\n        /* \"contracts/TrippieceNFT.sol\":1024:1053  Sticker[] memory stickerLists */\n      0x00\n        /* \"contracts/TrippieceNFT.sol\":1070:1094  balanceOf(walletAddress) */\n      tag_109\n        /* \"contracts/TrippieceNFT.sol\":1080:1093  walletAddress */\n      dup5\n        /* \"contracts/TrippieceNFT.sol\":1070:1079  balanceOf */\n      tag_60\n        /* \"contracts/TrippieceNFT.sol\":1070:1094  balanceOf(walletAddress) */\n      jump\t// in\n    tag_109:\n        /* \"contracts/TrippieceNFT.sol\":1056:1095  new Sticker[](balanceOf(walletAddress)) */\n      0xffffffffffffffff\n      dup2\n      gt\n      iszero\n      tag_110\n      jumpi\n      tag_111\n      tag_112\n      jump\t// in\n    tag_111:\n    tag_110:\n      mload(0x40)\n      swap1\n      dup1\n      dup3\n      mstore\n      dup1\n      0x20\n      mul\n      0x20\n      add\n      dup3\n      add\n      0x40\n      mstore\n      dup1\n      iszero\n      tag_113\n      jumpi\n      dup2\n      0x20\n      add\n    tag_114:\n      tag_115\n      tag_116\n      jump\t// in\n    tag_115:\n      dup2\n      mstore\n      0x20\n      add\n      swap1\n      0x01\n      swap1\n      sub\n      swap1\n      dup2\n      tag_114\n      jumpi\n      swap1\n      pop\n    tag_113:\n      pop\n        /* \"contracts/TrippieceNFT.sol\":1024:1095  Sticker[] memory stickerLists = new Sticker[](balanceOf(walletAddress)) */\n      swap1\n      pop\n        /* \"contracts/TrippieceNFT.sol\":1107:1120  uint256 index */\n      0x00\n        /* \"contracts/TrippieceNFT.sol\":1146:1155  uint256 t */\n      dup1\n        /* \"contracts/TrippieceNFT.sol\":1158:1159  1 */\n      0x01\n        /* \"contracts/TrippieceNFT.sol\":1146:1159  uint256 t = 1 */\n      swap1\n      pop\n        /* \"contracts/TrippieceNFT.sol\":1141:1389  for (uint256 t = 1; t <= max; t++) {\r... */\n    tag_117:\n        /* \"contracts/TrippieceNFT.sol\":1166:1169  max */\n      dup4\n        /* \"contracts/TrippieceNFT.sol\":1161:1162  t */\n      dup2\n        /* \"contracts/TrippieceNFT.sol\":1161:1169  t <= max */\n      gt\n        /* \"contracts/TrippieceNFT.sol\":1141:1389  for (uint256 t = 1; t <= max; t++) {\r... */\n      tag_118\n      jumpi\n        /* \"contracts/TrippieceNFT.sol\":1209:1222  walletAddress */\n      dup6\n        /* \"contracts/TrippieceNFT.sol\":1195:1222  ownerOf(t) == walletAddress */\n      0xffffffffffffffffffffffffffffffffffffffff\n      and\n        /* \"contracts/TrippieceNFT.sol\":1195:1205  ownerOf(t) */\n      tag_120\n        /* \"contracts/TrippieceNFT.sol\":1203:1204  t */\n      dup3\n        /* \"contracts/TrippieceNFT.sol\":1195:1202  ownerOf */\n      tag_56\n        /* \"contracts/TrippieceNFT.sol\":1195:1205  ownerOf(t) */\n      jump\t// in\n    tag_120:\n        /* \"contracts/TrippieceNFT.sol\":1195:1222  ownerOf(t) == walletAddress */\n      0xffffffffffffffffffffffffffffffffffffffff\n      and\n      eq\n        /* \"contracts/TrippieceNFT.sol\":1191:1378  if (ownerOf(t) == walletAddress) {\r... */\n      iszero\n      tag_121\n      jumpi\n        /* \"contracts/TrippieceNFT.sol\":1271:1272  t */\n      dup1\n        /* \"contracts/TrippieceNFT.sol\":1241:1253  stickerLists */\n      dup4\n        /* \"contracts/TrippieceNFT.sol\":1254:1259  index */\n      dup4\n        /* \"contracts/TrippieceNFT.sol\":1241:1260  stickerLists[index] */\n      dup2\n      mload\n      dup2\n      lt\n      tag_122\n      jumpi\n      tag_123\n      tag_124\n      jump\t// in\n    tag_123:\n    tag_122:\n      0x20\n      mul\n      0x20\n      add\n      add\n      mload\n        /* \"contracts/TrippieceNFT.sol\":1241:1268  stickerLists[index].tokenId */\n      0x00\n      add\n        /* \"contracts/TrippieceNFT.sol\":1241:1272  stickerLists[index].tokenId = t */\n      dup2\n      dup2\n      mstore\n      pop\n      pop\n        /* \"contracts/TrippieceNFT.sol\":1320:1329  tokenURIs */\n      0x07\n        /* \"contracts/TrippieceNFT.sol\":1320:1332  tokenURIs[t] */\n      0x00\n        /* \"contracts/TrippieceNFT.sol\":1330:1331  t */\n      dup3\n        /* \"contracts/TrippieceNFT.sol\":1320:1332  tokenURIs[t] */\n      dup2\n      mstore\n      0x20\n      add\n      swap1\n      dup2\n      mstore\n      0x20\n      add\n      0x00\n      keccak256\n        /* \"contracts/TrippieceNFT.sol\":1289:1332  stickerLists[index].tokenURI = tokenURIs[t] */\n      dup1\n      sload\n      tag_125\n      swap1\n      tag_93\n      jump\t// in\n    tag_125:\n      dup1\n      0x1f\n      add\n      0x20\n      dup1\n      swap2\n      div\n      mul\n      0x20\n      add\n      mload(0x40)\n      swap1\n      dup2\n      add\n      0x40\n      mstore\n      dup1\n      swap3\n      swap2\n      swap1\n      dup2\n      dup2\n      mstore\n      0x20\n      add\n      dup3\n      dup1\n      sload\n      tag_126\n      swap1\n      tag_93\n      jump\t// in\n    tag_126:\n      dup1\n      iszero\n      tag_127\n      jumpi\n      dup1\n      0x1f\n      lt\n      tag_128\n      jumpi\n      0x0100\n      dup1\n      dup4\n      sload\n      div\n      mul\n      dup4\n      mstore\n      swap2\n      0x20\n      add\n      swap2\n      jump(tag_127)\n    tag_128:\n      dup3\n      add\n      swap2\n      swap1\n      0x00\n      mstore\n      keccak256(0x00, 0x20)\n      swap1\n    tag_129:\n      dup2\n      sload\n      dup2\n      mstore\n      swap1\n      0x01\n      add\n      swap1\n      0x20\n      add\n      dup1\n      dup4\n      gt\n      tag_129\n      jumpi\n      dup3\n      swap1\n      sub\n      0x1f\n      and\n      dup3\n      add\n      swap2\n    tag_127:\n      pop\n      pop\n      pop\n      pop\n      pop\n        /* \"contracts/TrippieceNFT.sol\":1289:1301  stickerLists */\n      dup4\n        /* \"contracts/TrippieceNFT.sol\":1302:1307  index */\n      dup4\n        /* \"contracts/TrippieceNFT.sol\":1289:1308  stickerLists[index] */\n      dup2\n      mload\n      dup2\n      lt\n      tag_130\n      jumpi\n      tag_131\n      tag_124\n      jump\t// in\n    tag_131:\n    tag_130:\n      0x20\n      mul\n      0x20\n      add\n      add\n      mload\n        /* \"contracts/TrippieceNFT.sol\":1289:1317  stickerLists[index].tokenURI */\n      0x20\n      add\n        /* \"contracts/TrippieceNFT.sol\":1289:1332  stickerLists[index].tokenURI = tokenURIs[t] */\n      dup2\n      swap1\n      mstore\n      pop\n        /* \"contracts/TrippieceNFT.sol\":1361:1362  1 */\n      0x01\n        /* \"contracts/TrippieceNFT.sol\":1355:1360  index */\n      dup3\n        /* \"contracts/TrippieceNFT.sol\":1355:1362  index+1 */\n      tag_132\n      swap2\n      swap1\n      tag_133\n      jump\t// in\n    tag_132:\n        /* \"contracts/TrippieceNFT.sol\":1349:1362  index=index+1 */\n      swap2\n      pop\n        /* \"contracts/TrippieceNFT.sol\":1191:1378  if (ownerOf(t) == walletAddress) {\r... */\n    tag_121:\n        /* \"contracts/TrippieceNFT.sol\":1171:1174  t++ */\n      dup1\n      dup1\n      tag_134\n      swap1\n      tag_135\n      jump\t// in\n    tag_134:\n      swap2\n      pop\n      pop\n        /* \"contracts/TrippieceNFT.sol\":1141:1389  for (uint256 t = 1; t <= max; t++) {\r... */\n      jump(tag_117)\n    tag_118:\n      pop\n        /* \"contracts/TrippieceNFT.sol\":1413:1425  stickerLists */\n      dup2\n        /* \"contracts/TrippieceNFT.sol\":1406:1425  return stickerLists */\n      swap4\n      pop\n      pop\n      pop\n      pop\n        /* \"contracts/TrippieceNFT.sol\":750:1433  function getStickerList(address walletAddress) public view returns(Sticker[] memory ){\r... */\n      swap2\n      swap1\n      pop\n      jump\t// out\n        /* \"contracts/token/ERC721/ERC721.sol\":3849:4193  function approve(address to, uint256 tokenId) public virtual override {\r... */\n    tag_46:\n        /* \"contracts/token/ERC721/ERC721.sol\":3930:3943  address owner */\n      0x00\n        /* \"contracts/token/ERC721/ERC721.sol\":3946:3953  _owners */\n      0x02\n        /* \"contracts/token/ERC721/ERC721.sol\":3946:3962  _owners[tokenId] */\n      0x00\n        /* \"contracts/token/ERC721/ERC721.sol\":3954:3961  tokenId */\n      dup4\n        /* \"contracts/token/ERC721/ERC721.sol\":3946:3962  _owners[tokenId] */\n      dup2\n      mstore\n      0x20\n      add\n      swap1\n      dup2\n      mstore\n      0x20\n      add\n      0x00\n      keccak256\n      0x00\n      swap1\n      sload\n      swap1\n      0x0100\n      exp\n      swap1\n      div\n      0xffffffffffffffffffffffffffffffffffffffff\n      and\n        /* \"contracts/token/ERC721/ERC721.sol\":3930:3962  address owner = _owners[tokenId] */\n      swap1\n      pop\n        /* \"contracts/token/ERC721/ERC721.sol\":4009:4014  owner */\n      dup1\n        /* \"contracts/token/ERC721/ERC721.sol\":3995:4014  msg.sender == owner */\n      0xffffffffffffffffffffffffffffffffffffffff\n      and\n        /* \"contracts/token/ERC721/ERC721.sol\":3995:4005  msg.sender */\n      caller\n        /* \"contracts/token/ERC721/ERC721.sol\":3995:4014  msg.sender == owner */\n      0xffffffffffffffffffffffffffffffffffffffff\n      and\n      eq\n        /* \"contracts/token/ERC721/ERC721.sol\":3995:4055  msg.sender == owner || _operatorApprovals[owner][msg.sender] */\n      dup1\n      tag_137\n      jumpi\n      pop\n        /* \"contracts/token/ERC721/ERC721.sol\":4018:4036  _operatorApprovals */\n      0x05\n        /* \"contracts/token/ERC721/ERC721.sol\":4018:4043  _operatorApprovals[owner] */\n      0x00\n        /* \"contracts/token/ERC721/ERC721.sol\":4037:4042  owner */\n      dup3\n        /* \"contracts/token/ERC721/ERC721.sol\":4018:4043  _operatorApprovals[owner] */\n      0xffffffffffffffffffffffffffffffffffffffff\n      and\n      0xffffffffffffffffffffffffffffffffffffffff\n      and\n      dup2\n      mstore\n      0x20\n      add\n      swap1\n      dup2\n      mstore\n      0x20\n      add\n      0x00\n      keccak256\n        /* \"contracts/token/ERC721/ERC721.sol\":4018:4055  _operatorApprovals[owner][msg.sender] */\n      0x00\n        /* \"contracts/token/ERC721/ERC721.sol\":4044:4054  msg.sender */\n      caller\n        /* \"contracts/token/ERC721/ERC721.sol\":4018:4055  _operatorApprovals[owner][msg.sender] */\n      0xffffffffffffffffffffffffffffffffffffffff\n      and\n      0xffffffffffffffffffffffffffffffffffffffff\n      and\n      dup2\n      mstore\n      0x20\n      add\n      swap1\n      dup2\n      mstore\n      0x20\n      add\n      0x00\n      keccak256\n      0x00\n      swap1\n      sload\n      swap1\n      0x0100\n      exp\n      swap1\n      div\n      0xff\n      and\n        /* \"contracts/token/ERC721/ERC721.sol\":3995:4055  msg.sender == owner || _operatorApprovals[owner][msg.sender] */\n    tag_137:\n        /* \"contracts/token/ERC721/ERC721.sol\":3973:4097  require(\r... */\n      tag_138\n      jumpi\n      mload(0x40)\n      0x08c379a000000000000000000000000000000000000000000000000000000000\n      dup2\n      mstore\n      0x04\n      add\n      tag_139\n      swap1\n      tag_140\n      jump\t// in\n    tag_139:\n      mload(0x40)\n      dup1\n      swap2\n      sub\n      swap1\n      revert\n    tag_138:\n        /* \"contracts/token/ERC721/ERC721.sol\":4137:4139  to */\n      dup3\n        /* \"contracts/token/ERC721/ERC721.sol\":4110:4125  _tokenApprovals */\n      0x04\n        /* \"contracts/token/ERC721/ERC721.sol\":4110:4134  _tokenApprovals[tokenId] */\n      0x00\n        /* \"contracts/token/ERC721/ERC721.sol\":4126:4133  tokenId */\n      dup5\n        /* \"contracts/token/ERC721/ERC721.sol\":4110:4134  _tokenApprovals[tokenId] */\n      dup2\n      mstore\n      0x20\n      add\n      swap1\n      dup2\n      mstore\n      0x20\n      add\n      0x00\n      keccak256\n      0x00\n        /* \"contracts/token/ERC721/ERC721.sol\":4110:4139  _tokenApprovals[tokenId] = to */\n      0x0100\n      exp\n      dup2\n      sload\n      dup2\n      0xffffffffffffffffffffffffffffffffffffffff\n      mul\n      not\n      and\n      swap1\n      dup4\n      0xffffffffffffffffffffffffffffffffffffffff\n      and\n      mul\n      or\n      swap1\n      sstore\n      pop\n        /* \"contracts/token/ERC721/ERC721.sol\":4177:4184  tokenId */\n      dup2\n        /* \"contracts/token/ERC721/ERC721.sol\":4173:4175  to */\n      dup4\n        /* \"contracts/token/ERC721/ERC721.sol\":4157:4185  Approval(owner, to, tokenId) */\n      0xffffffffffffffffffffffffffffffffffffffff\n      and\n        /* \"contracts/token/ERC721/ERC721.sol\":4166:4171  owner */\n      dup3\n        /* \"contracts/token/ERC721/ERC721.sol\":4157:4185  Approval(owner, to, tokenId) */\n      0xffffffffffffffffffffffffffffffffffffffff\n      and\n      0x8c5be1e5ebec7d5bd14f71427d1e84f3dd0314c0f7b2291e5b200ac8c7c3b925\n      mload(0x40)\n      mload(0x40)\n      dup1\n      swap2\n      sub\n      swap1\n      log4\n        /* \"contracts/token/ERC721/ERC721.sol\":3919:4193  {\r... */\n      pop\n        /* \"contracts/token/ERC721/ERC721.sol\":3849:4193  function approve(address to, uint256 tokenId) public virtual override {\r... */\n      pop\n      pop\n      jump\t// out\n        /* \"contracts/token/ERC721/ERC721.sol\":5049:5649  function transferFrom(\r... */\n    tag_50:\n        /* \"contracts/token/ERC721/ERC721.sol\":5199:5206  _owners */\n      0x02\n        /* \"contracts/token/ERC721/ERC721.sol\":5199:5215  _owners[tokenId] */\n      0x00\n        /* \"contracts/token/ERC721/ERC721.sol\":5207:5214  tokenId */\n      dup3\n        /* \"contracts/token/ERC721/ERC721.sol\":5199:5215  _owners[tokenId] */\n      dup2\n      mstore\n      0x20\n      add\n      swap1\n      dup2\n      mstore\n      0x20\n      add\n      0x00\n      keccak256\n      0x00\n      swap1\n      sload\n      swap1\n      0x0100\n      exp\n      swap1\n      div\n      0xffffffffffffffffffffffffffffffffffffffff\n      and\n        /* \"contracts/token/ERC721/ERC721.sol\":5191:5215  from == _owners[tokenId] */\n      0xffffffffffffffffffffffffffffffffffffffff\n      and\n        /* \"contracts/token/ERC721/ERC721.sol\":5191:5195  from */\n      dup4\n        /* \"contracts/token/ERC721/ERC721.sol\":5191:5215  from == _owners[tokenId] */\n      0xffffffffffffffffffffffffffffffffffffffff\n      and\n      eq\n        /* \"contracts/token/ERC721/ERC721.sol\":5183:5233  require(from == _owners[tokenId], \"from != owner\") */\n      tag_142\n      jumpi\n      mload(0x40)\n      0x08c379a000000000000000000000000000000000000000000000000000000000\n      dup2\n      mstore\n      0x04\n      add\n      tag_143\n      swap1\n      tag_144\n      jump\t// in\n    tag_143:\n      mload(0x40)\n      dup1\n      swap2\n      sub\n      swap1\n      revert\n    tag_142:\n        /* \"contracts/token/ERC721/ERC721.sol\":5266:5267  0 */\n      0x00\n        /* \"contracts/token/ERC721/ERC721.sol\":5252:5268  to != address(0) */\n      0xffffffffffffffffffffffffffffffffffffffff\n      and\n        /* \"contracts/token/ERC721/ERC721.sol\":5252:5254  to */\n      dup3\n        /* \"contracts/token/ERC721/ERC721.sol\":5252:5268  to != address(0) */\n      0xffffffffffffffffffffffffffffffffffffffff\n      and\n      eq\n      iszero\n        /* \"contracts/token/ERC721/ERC721.sol\":5244:5297  require(to != address(0), \"transfer to zero address\") */\n      tag_145\n      jumpi\n      mload(0x40)\n      0x08c379a000000000000000000000000000000000000000000000000000000000\n      dup2\n      mstore\n      0x04\n      add\n      tag_146\n      swap1\n      tag_147\n      jump\t// in\n    tag_146:\n      mload(0x40)\n      dup1\n      swap2\n      sub\n      swap1\n      revert\n    tag_145:\n        /* \"contracts/token/ERC721/ERC721.sol\":5331:5335  from */\n      dup3\n        /* \"contracts/token/ERC721/ERC721.sol\":5317:5335  msg.sender == from */\n      0xffffffffffffffffffffffffffffffffffffffff\n      and\n        /* \"contracts/token/ERC721/ERC721.sol\":5317:5327  msg.sender */\n      caller\n        /* \"contracts/token/ERC721/ERC721.sol\":5317:5335  msg.sender == from */\n      0xffffffffffffffffffffffffffffffffffffffff\n      and\n      eq\n        /* \"contracts/token/ERC721/ERC721.sol\":5317:5389  msg.sender == from || \r... */\n      dup1\n      tag_148\n      jumpi\n      pop\n        /* \"contracts/token/ERC721/ERC721.sol\":5353:5371  _operatorApprovals */\n      0x05\n        /* \"contracts/token/ERC721/ERC721.sol\":5353:5377  _operatorApprovals[from] */\n      0x00\n        /* \"contracts/token/ERC721/ERC721.sol\":5372:5376  from */\n      dup5\n        /* \"contracts/token/ERC721/ERC721.sol\":5353:5377  _operatorApprovals[from] */\n      0xffffffffffffffffffffffffffffffffffffffff\n      and\n      0xffffffffffffffffffffffffffffffffffffffff\n      and\n      dup2\n      mstore\n      0x20\n      add\n      swap1\n      dup2\n      mstore\n      0x20\n      add\n      0x00\n      keccak256\n        /* \"contracts/token/ERC721/ERC721.sol\":5353:5389  _operatorApprovals[from][msg.sender] */\n      0x00\n        /* \"contracts/token/ERC721/ERC721.sol\":5378:5388  msg.sender */\n      caller\n        /* \"contracts/token/ERC721/ERC721.sol\":5353:5389  _operatorApprovals[from][msg.sender] */\n      0xffffffffffffffffffffffffffffffffffffffff\n      and\n      0xffffffffffffffffffffffffffffffffffffffff\n      and\n      dup2\n      mstore\n      0x20\n      add\n      swap1\n      dup2\n      mstore\n      0x20\n      add\n      0x00\n      keccak256\n      0x00\n      swap1\n      sload\n      swap1\n      0x0100\n      exp\n      swap1\n      div\n      0xff\n      and\n        /* \"contracts/token/ERC721/ERC721.sol\":5317:5389  msg.sender == from || \r... */\n    tag_148:\n        /* \"contracts/token/ERC721/ERC721.sol\":5317:5444  msg.sender == from || \r... */\n      dup1\n      tag_149\n      jumpi\n      pop\n        /* \"contracts/token/ERC721/ERC721.sol\":5420:5435  _tokenApprovals */\n      0x04\n        /* \"contracts/token/ERC721/ERC721.sol\":5420:5444  _tokenApprovals[tokenId] */\n      0x00\n        /* \"contracts/token/ERC721/ERC721.sol\":5436:5443  tokenId */\n      dup3\n        /* \"contracts/token/ERC721/ERC721.sol\":5420:5444  _tokenApprovals[tokenId] */\n      dup2\n      mstore\n      0x20\n      add\n      swap1\n      dup2\n      mstore\n      0x20\n      add\n      0x00\n      keccak256\n      0x00\n      swap1\n      sload\n      swap1\n      0x0100\n      exp\n      swap1\n      div\n      0xffffffffffffffffffffffffffffffffffffffff\n      and\n        /* \"contracts/token/ERC721/ERC721.sol\":5406:5444  msg.sender == _tokenApprovals[tokenId] */\n      0xffffffffffffffffffffffffffffffffffffffff\n      and\n        /* \"contracts/token/ERC721/ERC721.sol\":5406:5416  msg.sender */\n      caller\n        /* \"contracts/token/ERC721/ERC721.sol\":5406:5444  msg.sender == _tokenApprovals[tokenId] */\n      0xffffffffffffffffffffffffffffffffffffffff\n      and\n      eq\n        /* \"contracts/token/ERC721/ERC721.sol\":5317:5444  msg.sender == from || \r... */\n    tag_149:\n        /* \"contracts/token/ERC721/ERC721.sol\":5308:5464  require((msg.sender == from || \r... */\n      tag_150\n      jumpi\n      mload(0x40)\n      0x08c379a000000000000000000000000000000000000000000000000000000000\n      dup2\n      mstore\n      0x04\n      add\n      tag_151\n      swap1\n      tag_140\n      jump\t// in\n    tag_151:\n      mload(0x40)\n      dup1\n      swap2\n      sub\n      swap1\n      revert\n    tag_150:\n        /* \"contracts/token/ERC721/ERC721.sol\":5477:5486  _balances */\n      0x03\n        /* \"contracts/token/ERC721/ERC721.sol\":5477:5492  _balances[from] */\n      0x00\n        /* \"contracts/token/ERC721/ERC721.sol\":5487:5491  from */\n      dup5\n        /* \"contracts/token/ERC721/ERC721.sol\":5477:5492  _balances[from] */\n      0xffffffffffffffffffffffffffffffffffffffff\n      and\n      0xffffffffffffffffffffffffffffffffffffffff\n      and\n      dup2\n      mstore\n      0x20\n      add\n      swap1\n      dup2\n      mstore\n      0x20\n      add\n      0x00\n      keccak256\n      0x00\n        /* \"contracts/token/ERC721/ERC721.sol\":5477:5494  _balances[from]-- */\n      dup2\n      sload\n      dup1\n      swap3\n      swap2\n      swap1\n      tag_152\n      swap1\n      tag_153\n      jump\t// in\n    tag_152:\n      swap2\n      swap1\n      pop\n      sstore\n      pop\n        /* \"contracts/token/ERC721/ERC721.sol\":5505:5514  _balances */\n      0x03\n        /* \"contracts/token/ERC721/ERC721.sol\":5505:5518  _balances[to] */\n      0x00\n        /* \"contracts/token/ERC721/ERC721.sol\":5515:5517  to */\n      dup4\n        /* \"contracts/token/ERC721/ERC721.sol\":5505:5518  _balances[to] */\n      0xffffffffffffffffffffffffffffffffffffffff\n      and\n      0xffffffffffffffffffffffffffffffffffffffff\n      and\n      dup2\n      mstore\n      0x20\n      add\n      swap1\n      dup2\n      mstore\n      0x20\n      add\n      0x00\n      keccak256\n      0x00\n        /* \"contracts/token/ERC721/ERC721.sol\":5505:5520  _balances[to]++ */\n      dup2\n      sload\n      dup1\n      swap3\n      swap2\n      swap1\n      tag_154\n      swap1\n      tag_135\n      jump\t// in\n    tag_154:\n      swap2\n      swap1\n      pop\n      sstore\n      pop\n        /* \"contracts/token/ERC721/ERC721.sol\":5550:5552  to */\n      dup2\n        /* \"contracts/token/ERC721/ERC721.sol\":5531:5538  _owners */\n      0x02\n        /* \"contracts/token/ERC721/ERC721.sol\":5531:5547  _owners[tokenId] */\n      0x00\n        /* \"contracts/token/ERC721/ERC721.sol\":5539:5546  tokenId */\n      dup4\n        /* \"contracts/token/ERC721/ERC721.sol\":5531:5547  _owners[tokenId] */\n      dup2\n      mstore\n      0x20\n      add\n      swap1\n      dup2\n      mstore\n      0x20\n      add\n      0x00\n      keccak256\n      0x00\n        /* \"contracts/token/ERC721/ERC721.sol\":5531:5552  _owners[tokenId] = to */\n      0x0100\n      exp\n      dup2\n      sload\n      dup2\n      0xffffffffffffffffffffffffffffffffffffffff\n      mul\n      not\n      and\n      swap1\n      dup4\n      0xffffffffffffffffffffffffffffffffffffffff\n      and\n      mul\n      or\n      swap1\n      sstore\n      pop\n        /* \"contracts/token/ERC721/ERC721.sol\":5572:5587  _tokenApprovals */\n      0x04\n        /* \"contracts/token/ERC721/ERC721.sol\":5572:5596  _tokenApprovals[tokenId] */\n      0x00\n        /* \"contracts/token/ERC721/ERC721.sol\":5588:5595  tokenId */\n      dup3\n        /* \"contracts/token/ERC721/ERC721.sol\":5572:5596  _tokenApprovals[tokenId] */\n      dup2\n      mstore\n      0x20\n      add\n      swap1\n      dup2\n      mstore\n      0x20\n      add\n      0x00\n      keccak256\n      0x00\n        /* \"contracts/token/ERC721/ERC721.sol\":5565:5596  delete _tokenApprovals[tokenId] */\n      0x0100\n      exp\n      dup2\n      sload\n      swap1\n      0xffffffffffffffffffffffffffffffffffffffff\n      mul\n      not\n      and\n      swap1\n      sstore\n        /* \"contracts/token/ERC721/ERC721.sol\":5633:5640  tokenId */\n      dup1\n        /* \"contracts/token/ERC721/ERC721.sol\":5629:5631  to */\n      dup3\n        /* \"contracts/token/ERC721/ERC721.sol\":5614:5641  Transfer(from, to, tokenId) */\n      0xffffffffffffffffffffffffffffffffffffffff\n      and\n        /* \"contracts/token/ERC721/ERC721.sol\":5623:5627  from */\n      dup5\n        /* \"contracts/token/ERC721/ERC721.sol\":5614:5641  Transfer(from, to, tokenId) */\n      0xffffffffffffffffffffffffffffffffffffffff\n      and\n      0xddf252ad1be2c89b69c2b068fc378daa952ba7f163c4a11628f55a4df523b3ef\n      mload(0x40)\n      mload(0x40)\n      dup1\n      swap2\n      sub\n      swap1\n      log4\n        /* \"contracts/token/ERC721/ERC721.sol\":5049:5649  function transferFrom(\r... */\n      pop\n      pop\n      pop\n      jump\t// out\n        /* \"contracts/token/ERC721/ERC721.sol\":5718:6141  function safeTransferFrom(\r... */\n    tag_53:\n        /* \"contracts/token/ERC721/ERC721.sol\":5856:5887  transferFrom(from, to, tokenId) */\n      tag_156\n        /* \"contracts/token/ERC721/ERC721.sol\":5869:5873  from */\n      dup4\n        /* \"contracts/token/ERC721/ERC721.sol\":5875:5877  to */\n      dup4\n        /* \"contracts/token/ERC721/ERC721.sol\":5879:5886  tokenId */\n      dup4\n        /* \"contracts/token/ERC721/ERC721.sol\":5856:5868  transferFrom */\n      tag_50\n        /* \"contracts/token/ERC721/ERC721.sol\":5856:5887  transferFrom(from, to, tokenId) */\n      jump\t// in\n    tag_156:\n        /* \"contracts/token/ERC721/ERC721.sol\":5938:5939  0 */\n      0x00\n        /* \"contracts/token/ERC721/ERC721.sol\":5920:5922  to */\n      dup3\n        /* \"contracts/token/ERC721/ERC721.sol\":5920:5934  to.code.length */\n      0xffffffffffffffffffffffffffffffffffffffff\n      and\n      extcodesize\n        /* \"contracts/token/ERC721/ERC721.sol\":5920:5939  to.code.length == 0 */\n      eq\n        /* \"contracts/token/ERC721/ERC721.sol\":5920:6089  to.code.length == 0 ||\r... */\n      dup1\n      tag_157\n      jumpi\n      pop\n        /* \"contracts/token/ERC721/ERC721.sol\":6048:6089  IERC721Receiver.onERC721Received.selector */\n      shl(0xe0, 0x150b7a02)\n        /* \"contracts/token/ERC721/ERC721.sol\":5960:6089  IERC721Receiver(to).onERC721Received(msg.sender, from, tokenId, \"\") ==\r... */\n      not(0xffffffffffffffffffffffffffffffffffffffffffffffffffffffff)\n      and\n        /* \"contracts/token/ERC721/ERC721.sol\":5976:5978  to */\n      dup3\n        /* \"contracts/token/ERC721/ERC721.sol\":5960:5996  IERC721Receiver(to).onERC721Received */\n      0xffffffffffffffffffffffffffffffffffffffff\n      and\n      0x150b7a02\n        /* \"contracts/token/ERC721/ERC721.sol\":5997:6007  msg.sender */\n      caller\n        /* \"contracts/token/ERC721/ERC721.sol\":6009:6013  from */\n      dup7\n        /* \"contracts/token/ERC721/ERC721.sol\":6015:6022  tokenId */\n      dup6\n        /* \"contracts/token/ERC721/ERC721.sol\":5960:6027  IERC721Receiver(to).onERC721Received(msg.sender, from, tokenId, \"\") */\n      mload(0x40)\n      dup5\n      0xffffffff\n      and\n      0xe0\n      shl\n      dup2\n      mstore\n      0x04\n      add\n      tag_158\n      swap4\n      swap3\n      swap2\n      swap1\n      tag_159\n      jump\t// in\n    tag_158:\n      0x20\n      mload(0x40)\n      dup1\n      dup4\n      sub\n      dup2\n      0x00\n      dup8\n      dup1\n      extcodesize\n      iszero\n      dup1\n      iszero\n      tag_160\n      jumpi\n      0x00\n      dup1\n      revert\n    tag_160:\n      pop\n      gas\n      call\n      iszero\n      dup1\n      iszero\n      tag_162\n      jumpi\n      returndatasize\n      0x00\n      dup1\n      returndatacopy\n      revert(0x00, returndatasize)\n    tag_162:\n      pop\n      pop\n      pop\n      pop\n      mload(0x40)\n      returndatasize\n      not(0x1f)\n      0x1f\n      dup3\n      add\n      and\n      dup3\n      add\n      dup1\n      0x40\n      mstore\n      pop\n      dup2\n      add\n      swap1\n      tag_163\n      swap2\n      swap1\n      tag_164\n      jump\t// in\n    tag_163:\n        /* \"contracts/token/ERC721/ERC721.sol\":5960:6089  IERC721Receiver(to).onERC721Received(msg.sender, from, tokenId, \"\") ==\r... */\n      not(0xffffffffffffffffffffffffffffffffffffffffffffffffffffffff)\n      and\n      eq\n        /* \"contracts/token/ERC721/ERC721.sol\":5920:6089  to.code.length == 0 ||\r... */\n    tag_157:\n        /* \"contracts/token/ERC721/ERC721.sol\":5898:6133  require(\r... */\n      tag_165\n      jumpi\n      mload(0x40)\n      0x08c379a000000000000000000000000000000000000000000000000000000000\n      dup2\n      mstore\n      0x04\n      add\n      tag_166\n      swap1\n      tag_167\n      jump\t// in\n    tag_166:\n      mload(0x40)\n      dup1\n      swap2\n      sub\n      swap1\n      revert\n    tag_165:\n        /* \"contracts/token/ERC721/ERC721.sol\":5718:6141  function safeTransferFrom(\r... */\n      pop\n      pop\n      pop\n      jump\t// out\n        /* \"contracts/token/ERC721/ERC721.sol\":2057:2253  function ownerOf(uint256 tokenId) public view virtual override returns (address) {\r... */\n    tag_56:\n        /* \"contracts/token/ERC721/ERC721.sol\":2129:2136  address */\n      0x00\n        /* \"contracts/token/ERC721/ERC721.sol\":2185:2186  0 */\n      dup1\n        /* \"contracts/token/ERC721/ERC721.sol\":2157:2187  _owners[tokenId] != address(0) */\n      0xffffffffffffffffffffffffffffffffffffffff\n      and\n        /* \"contracts/token/ERC721/ERC721.sol\":2157:2164  _owners */\n      0x02\n        /* \"contracts/token/ERC721/ERC721.sol\":2157:2173  _owners[tokenId] */\n      0x00\n        /* \"contracts/token/ERC721/ERC721.sol\":2165:2172  tokenId */\n      dup5\n        /* \"contracts/token/ERC721/ERC721.sol\":2157:2173  _owners[tokenId] */\n      dup2\n      mstore\n      0x20\n      add\n      swap1\n      dup2\n      mstore\n      0x20\n      add\n      0x00\n      keccak256\n      0x00\n      swap1\n      sload\n      swap1\n      0x0100\n      exp\n      swap1\n      div\n      0xffffffffffffffffffffffffffffffffffffffff\n      and\n        /* \"contracts/token/ERC721/ERC721.sol\":2157:2187  _owners[tokenId] != address(0) */\n      0xffffffffffffffffffffffffffffffffffffffff\n      and\n      eq\n      iszero\n        /* \"contracts/token/ERC721/ERC721.sol\":2149:2211  require(_owners[tokenId] != address(0), \"token doesn't exist\") */\n      tag_169\n      jumpi\n      mload(0x40)\n      0x08c379a000000000000000000000000000000000000000000000000000000000\n      dup2\n      mstore\n      0x04\n      add\n      tag_170\n      swap1\n      tag_101\n      jump\t// in\n    tag_170:\n      mload(0x40)\n      dup1\n      swap2\n      sub\n      swap1\n      revert\n    tag_169:\n        /* \"contracts/token/ERC721/ERC721.sol\":2229:2236  _owners */\n      0x02\n        /* \"contracts/token/ERC721/ERC721.sol\":2229:2245  _owners[tokenId] */\n      0x00\n        /* \"contracts/token/ERC721/ERC721.sol\":2237:2244  tokenId */\n      dup4\n        /* \"contracts/token/ERC721/ERC721.sol\":2229:2245  _owners[tokenId] */\n      dup2\n      mstore\n      0x20\n      add\n      swap1\n      dup2\n      mstore\n      0x20\n      add\n      0x00\n      keccak256\n      0x00\n      swap1\n      sload\n      swap1\n      0x0100\n      exp\n      swap1\n      div\n      0xffffffffffffffffffffffffffffffffffffffff\n      and\n        /* \"contracts/token/ERC721/ERC721.sol\":2222:2245  return _owners[tokenId] */\n      swap1\n      pop\n        /* \"contracts/token/ERC721/ERC721.sol\":2057:2253  function ownerOf(uint256 tokenId) public view virtual override returns (address) {\r... */\n      swap2\n      swap1\n      pop\n      jump\t// out\n        /* \"contracts/token/ERC721/ERC721.sol\":1811:1997  function balanceOf(address owner) public view virtual override returns (uint256) {\r... */\n    tag_60:\n        /* \"contracts/token/ERC721/ERC721.sol\":1883:1890  uint256 */\n      0x00\n        /* \"contracts/token/ERC721/ERC721.sol\":1928:1929  0 */\n      dup1\n        /* \"contracts/token/ERC721/ERC721.sol\":1911:1930  owner != address(0) */\n      0xffffffffffffffffffffffffffffffffffffffff\n      and\n        /* \"contracts/token/ERC721/ERC721.sol\":1911:1916  owner */\n      dup3\n        /* \"contracts/token/ERC721/ERC721.sol\":1911:1930  owner != address(0) */\n      0xffffffffffffffffffffffffffffffffffffffff\n      and\n      eq\n      iszero\n        /* \"contracts/token/ERC721/ERC721.sol\":1903:1955  require(owner != address(0), \"owner = zero address\") */\n      tag_172\n      jumpi\n      mload(0x40)\n      0x08c379a000000000000000000000000000000000000000000000000000000000\n      dup2\n      mstore\n      0x04\n      add\n      tag_173\n      swap1\n      tag_174\n      jump\t// in\n    tag_173:\n      mload(0x40)\n      dup1\n      swap2\n      sub\n      swap1\n      revert\n    tag_172:\n        /* \"contracts/token/ERC721/ERC721.sol\":1973:1982  _balances */\n      0x03\n        /* \"contracts/token/ERC721/ERC721.sol\":1973:1989  _balances[owner] */\n      0x00\n        /* \"contracts/token/ERC721/ERC721.sol\":1983:1988  owner */\n      dup4\n        /* \"contracts/token/ERC721/ERC721.sol\":1973:1989  _balances[owner] */\n      0xffffffffffffffffffffffffffffffffffffffff\n      and\n      0xffffffffffffffffffffffffffffffffffffffff\n      and\n      dup2\n      mstore\n      0x20\n      add\n      swap1\n      dup2\n      mstore\n      0x20\n      add\n      0x00\n      keccak256\n      sload\n        /* \"contracts/token/ERC721/ERC721.sol\":1966:1989  return _balances[owner] */\n      swap1\n      pop\n        /* \"contracts/token/ERC721/ERC721.sol\":1811:1997  function balanceOf(address owner) public view virtual override returns (uint256) {\r... */\n      swap2\n      swap1\n      pop\n      jump\t// out\n        /* \"contracts/token/ERC721/ERC721.sol\":2485:2589  function symbol() public view virtual override returns (string memory) {\r... */\n    tag_64:\n        /* \"contracts/token/ERC721/ERC721.sol\":2541:2554  string memory */\n      0x60\n        /* \"contracts/token/ERC721/ERC721.sol\":2574:2581  _symbol */\n      0x01\n        /* \"contracts/token/ERC721/ERC721.sol\":2567:2581  return _symbol */\n      dup1\n      sload\n      tag_176\n      swap1\n      tag_93\n      jump\t// in\n    tag_176:\n      dup1\n      0x1f\n      add\n      0x20\n      dup1\n      swap2\n      div\n      mul\n      0x20\n      add\n      mload(0x40)\n      swap1\n      dup2\n      add\n      0x40\n      mstore\n      dup1\n      swap3\n      swap2\n      swap1\n      dup2\n      dup2\n      mstore\n      0x20\n      add\n      dup3\n      dup1\n      sload\n      tag_177\n      swap1\n      tag_93\n      jump\t// in\n    tag_177:\n      dup1\n      iszero\n      tag_178\n      jumpi\n      dup1\n      0x1f\n      lt\n      tag_179\n      jumpi\n      0x0100\n      dup1\n      dup4\n      sload\n      div\n      mul\n      dup4\n      mstore\n      swap2\n      0x20\n      add\n      swap2\n      jump(tag_178)\n    tag_179:\n      dup3\n      add\n      swap2\n      swap1\n      0x00\n      mstore\n      keccak256(0x00, 0x20)\n      swap1\n    tag_180:\n      dup2\n      sload\n      dup2\n      mstore\n      swap1\n      0x01\n      add\n      swap1\n      0x20\n      add\n      dup1\n      dup4\n      gt\n      tag_180\n      jumpi\n      dup3\n      swap1\n      sub\n      0x1f\n      and\n      dup3\n      add\n      swap2\n    tag_178:\n      pop\n      pop\n      pop\n      pop\n      pop\n      swap1\n      pop\n        /* \"contracts/token/ERC721/ERC721.sol\":2485:2589  function symbol() public view virtual override returns (string memory) {\r... */\n      swap1\n      jump\t// out\n        /* \"contracts/TrippieceNFT.sol\":1441:1747  function create(address to, string memory _tokenURI)\r... */\n    tag_69:\n        /* \"contracts/TrippieceNFT.sol\":1528:1535  uint256 */\n      0x00\n        /* \"contracts/TrippieceNFT.sol\":1553:1574  _tokenIds.increment() */\n      tag_182\n        /* \"contracts/TrippieceNFT.sol\":1553:1562  _tokenIds */\n      0x06\n        /* \"contracts/TrippieceNFT.sol\":1553:1572  _tokenIds.increment */\n      tag_183\n        /* \"contracts/TrippieceNFT.sol\":1553:1574  _tokenIds.increment() */\n      jump\t// in\n    tag_182:\n        /* \"contracts/TrippieceNFT.sol\":1587:1605  uint256 newTokenId */\n      0x00\n        /* \"contracts/TrippieceNFT.sol\":1608:1627  _tokenIds.current() */\n      tag_184\n        /* \"contracts/TrippieceNFT.sol\":1608:1617  _tokenIds */\n      0x06\n        /* \"contracts/TrippieceNFT.sol\":1608:1625  _tokenIds.current */\n      tag_104\n        /* \"contracts/TrippieceNFT.sol\":1608:1627  _tokenIds.current() */\n      jump\t// in\n    tag_184:\n        /* \"contracts/TrippieceNFT.sol\":1587:1627  uint256 newTokenId = _tokenIds.current() */\n      swap1\n      pop\n        /* \"contracts/TrippieceNFT.sol\":1638:1659  _mint(to, newTokenId) */\n      tag_185\n        /* \"contracts/TrippieceNFT.sol\":1644:1646  to */\n      dup5\n        /* \"contracts/TrippieceNFT.sol\":1648:1658  newTokenId */\n      dup3\n        /* \"contracts/TrippieceNFT.sol\":1638:1643  _mint */\n      tag_186\n        /* \"contracts/TrippieceNFT.sol\":1638:1659  _mint(to, newTokenId) */\n      jump\t// in\n    tag_185:\n        /* \"contracts/TrippieceNFT.sol\":1694:1703  _tokenURI */\n      dup3\n        /* \"contracts/TrippieceNFT.sol\":1670:1679  tokenURIs */\n      0x07\n        /* \"contracts/TrippieceNFT.sol\":1670:1691  tokenURIs[newTokenId] */\n      0x00\n        /* \"contracts/TrippieceNFT.sol\":1680:1690  newTokenId */\n      dup4\n        /* \"contracts/TrippieceNFT.sol\":1670:1691  tokenURIs[newTokenId] */\n      dup2\n      mstore\n      0x20\n      add\n      swap1\n      dup2\n      mstore\n      0x20\n      add\n      0x00\n      keccak256\n        /* \"contracts/TrippieceNFT.sol\":1670:1703  tokenURIs[newTokenId] = _tokenURI */\n      swap1\n      dup1\n      mload\n      swap1\n      0x20\n      add\n      swap1\n      tag_187\n      swap3\n      swap2\n      swap1\n      tag_188\n      jump\t// in\n    tag_187:\n      pop\n        /* \"contracts/TrippieceNFT.sol\":1729:1739  newTokenId */\n      dup1\n        /* \"contracts/TrippieceNFT.sol\":1722:1739  return newTokenId */\n      swap2\n      pop\n      pop\n        /* \"contracts/TrippieceNFT.sol\":1441:1747  function create(address to, string memory _tokenURI)\r... */\n      swap3\n      swap2\n      pop\n      pop\n      jump\t// out\n        /* \"contracts/token/ERC721/ERC721.sol\":4535:4751  function setApprovalForAll(address operator, bool approved) public virtual override {\r... */\n    tag_74:\n        /* \"contracts/token/ERC721/ERC721.sol\":4673:4681  approved */\n      dup1\n        /* \"contracts/token/ERC721/ERC721.sol\":4630:4648  _operatorApprovals */\n      0x05\n        /* \"contracts/token/ERC721/ERC721.sol\":4630:4660  _operatorApprovals[msg.sender] */\n      0x00\n        /* \"contracts/token/ERC721/ERC721.sol\":4649:4659  msg.sender */\n      caller\n        /* \"contracts/token/ERC721/ERC721.sol\":4630:4660  _operatorApprovals[msg.sender] */\n      0xffffffffffffffffffffffffffffffffffffffff\n      and\n      0xffffffffffffffffffffffffffffffffffffffff\n      and\n      dup2\n      mstore\n      0x20\n      add\n      swap1\n      dup2\n      mstore\n      0x20\n      add\n      0x00\n      keccak256\n        /* \"contracts/token/ERC721/ERC721.sol\":4630:4670  _operatorApprovals[msg.sender][operator] */\n      0x00\n        /* \"contracts/token/ERC721/ERC721.sol\":4661:4669  operator */\n      dup5\n        /* \"contracts/token/ERC721/ERC721.sol\":4630:4670  _operatorApprovals[msg.sender][operator] */\n      0xffffffffffffffffffffffffffffffffffffffff\n      and\n      0xffffffffffffffffffffffffffffffffffffffff\n      and\n      dup2\n      mstore\n      0x20\n      add\n      swap1\n      dup2\n      mstore\n      0x20\n      add\n      0x00\n      keccak256\n      0x00\n        /* \"contracts/token/ERC721/ERC721.sol\":4630:4681  _operatorApprovals[msg.sender][operator] = approved */\n      0x0100\n      exp\n      dup2\n      sload\n      dup2\n      0xff\n      mul\n      not\n      and\n      swap1\n      dup4\n      iszero\n      iszero\n      mul\n      or\n      swap1\n      sstore\n      pop\n        /* \"contracts/token/ERC721/ERC721.sol\":4724:4732  operator */\n      dup2\n        /* \"contracts/token/ERC721/ERC721.sol\":4697:4743  ApprovalForAll(msg.sender, operator, approved) */\n      0xffffffffffffffffffffffffffffffffffffffff\n      and\n        /* \"contracts/token/ERC721/ERC721.sol\":4712:4722  msg.sender */\n      caller\n        /* \"contracts/token/ERC721/ERC721.sol\":4697:4743  ApprovalForAll(msg.sender, operator, approved) */\n      0xffffffffffffffffffffffffffffffffffffffff\n      and\n      0x17307eab39ab6107e8899845ad3d59bd9653f200f220920489ca2b5937696c31\n        /* \"contracts/token/ERC721/ERC721.sol\":4734:4742  approved */\n      dup4\n        /* \"contracts/token/ERC721/ERC721.sol\":4697:4743  ApprovalForAll(msg.sender, operator, approved) */\n      mload(0x40)\n      tag_190\n      swap2\n      swap1\n      tag_26\n      jump\t// in\n    tag_190:\n      mload(0x40)\n      dup1\n      swap2\n      sub\n      swap1\n      log3\n        /* \"contracts/token/ERC721/ERC721.sol\":4535:4751  function setApprovalForAll(address operator, bool approved) public virtual override {\r... */\n      pop\n      pop\n      jump\t// out\n        /* \"contracts/token/ERC721/ERC721.sol\":6210:6665  function safeTransferFrom(\r... */\n    tag_78:\n        /* \"contracts/token/ERC721/ERC721.sol\":6377:6408  transferFrom(from, to, tokenId) */\n      tag_192\n        /* \"contracts/token/ERC721/ERC721.sol\":6390:6394  from */\n      dup5\n        /* \"contracts/token/ERC721/ERC721.sol\":6396:6398  to */\n      dup5\n        /* \"contracts/token/ERC721/ERC721.sol\":6400:6407  tokenId */\n      dup5\n        /* \"contracts/token/ERC721/ERC721.sol\":6377:6389  transferFrom */\n      tag_50\n        /* \"contracts/token/ERC721/ERC721.sol\":6377:6408  transferFrom(from, to, tokenId) */\n      jump\t// in\n    tag_192:\n        /* \"contracts/token/ERC721/ERC721.sol\":6459:6460  0 */\n      0x00\n        /* \"contracts/token/ERC721/ERC721.sol\":6441:6443  to */\n      dup4\n        /* \"contracts/token/ERC721/ERC721.sol\":6441:6455  to.code.length */\n      0xffffffffffffffffffffffffffffffffffffffff\n      and\n      extcodesize\n        /* \"contracts/token/ERC721/ERC721.sol\":6441:6460  to.code.length == 0 */\n      eq\n        /* \"contracts/token/ERC721/ERC721.sol\":6441:6613  to.code.length == 0 ||\r... */\n      dup1\n      tag_193\n      jumpi\n      pop\n        /* \"contracts/token/ERC721/ERC721.sol\":6572:6613  IERC721Receiver.onERC721Received.selector */\n      shl(0xe0, 0x150b7a02)\n        /* \"contracts/token/ERC721/ERC721.sol\":6481:6613  IERC721Receiver(to).onERC721Received(msg.sender, from, tokenId, _data) ==\r... */\n      not(0xffffffffffffffffffffffffffffffffffffffffffffffffffffffff)\n      and\n        /* \"contracts/token/ERC721/ERC721.sol\":6497:6499  to */\n      dup4\n        /* \"contracts/token/ERC721/ERC721.sol\":6481:6517  IERC721Receiver(to).onERC721Received */\n      0xffffffffffffffffffffffffffffffffffffffff\n      and\n      0x150b7a02\n        /* \"contracts/token/ERC721/ERC721.sol\":6518:6528  msg.sender */\n      caller\n        /* \"contracts/token/ERC721/ERC721.sol\":6530:6534  from */\n      dup8\n        /* \"contracts/token/ERC721/ERC721.sol\":6536:6543  tokenId */\n      dup7\n        /* \"contracts/token/ERC721/ERC721.sol\":6545:6550  _data */\n      dup7\n        /* \"contracts/token/ERC721/ERC721.sol\":6481:6551  IERC721Receiver(to).onERC721Received(msg.sender, from, tokenId, _data) */\n      mload(0x40)\n      dup6\n      0xffffffff\n      and\n      0xe0\n      shl\n      dup2\n      mstore\n      0x04\n      add\n      tag_194\n      swap5\n      swap4\n      swap3\n      swap2\n      swap1\n      tag_195\n      jump\t// in\n    tag_194:\n      0x20\n      mload(0x40)\n      dup1\n      dup4\n      sub\n      dup2\n      0x00\n      dup8\n      dup1\n      extcodesize\n      iszero\n      dup1\n      iszero\n      tag_196\n      jumpi\n      0x00\n      dup1\n      revert\n    tag_196:\n      pop\n      gas\n      call\n      iszero\n      dup1\n      iszero\n      tag_198\n      jumpi\n      returndatasize\n      0x00\n      dup1\n      returndatacopy\n      revert(0x00, returndatasize)\n    tag_198:\n      pop\n      pop\n      pop\n      pop\n      mload(0x40)\n      returndatasize\n      not(0x1f)\n      0x1f\n      dup3\n      add\n      and\n      dup3\n      add\n      dup1\n      0x40\n      mstore\n      pop\n      dup2\n      add\n      swap1\n      tag_199\n      swap2\n      swap1\n      tag_164\n      jump\t// in\n    tag_199:\n        /* \"contracts/token/ERC721/ERC721.sol\":6481:6613  IERC721Receiver(to).onERC721Received(msg.sender, from, tokenId, _data) ==\r... */\n      not(0xffffffffffffffffffffffffffffffffffffffffffffffffffffffff)\n      and\n      eq\n        /* \"contracts/token/ERC721/ERC721.sol\":6441:6613  to.code.length == 0 ||\r... */\n    tag_193:\n        /* \"contracts/token/ERC721/ERC721.sol\":6419:6657  require(\r... */\n      tag_200\n      jumpi\n      mload(0x40)\n      0x08c379a000000000000000000000000000000000000000000000000000000000\n      dup2\n      mstore\n      0x04\n      add\n      tag_201\n      swap1\n      tag_167\n      jump\t// in\n    tag_201:\n      mload(0x40)\n      dup1\n      swap2\n      sub\n      swap1\n      revert\n    tag_200:\n        /* \"contracts/token/ERC721/ERC721.sol\":6210:6665  function safeTransferFrom(\r... */\n      pop\n      pop\n      pop\n      pop\n      jump\t// out\n        /* \"contracts/TrippieceNFT.sol\":577:742  function tokenURI(uint256 tokenId)\r... */\n    tag_81:\n        /* \"contracts/TrippieceNFT.sol\":678:691  string memory */\n      0x60\n        /* \"contracts/TrippieceNFT.sol\":716:725  tokenURIs */\n      0x07\n        /* \"contracts/TrippieceNFT.sol\":716:734  tokenURIs[tokenId] */\n      0x00\n        /* \"contracts/TrippieceNFT.sol\":726:733  tokenId */\n      dup4\n        /* \"contracts/TrippieceNFT.sol\":716:734  tokenURIs[tokenId] */\n      dup2\n      mstore\n      0x20\n      add\n      swap1\n      dup2\n      mstore\n      0x20\n      add\n      0x00\n      keccak256\n        /* \"contracts/TrippieceNFT.sol\":709:734  return tokenURIs[tokenId] */\n      dup1\n      sload\n      tag_203\n      swap1\n      tag_93\n      jump\t// in\n    tag_203:\n      dup1\n      0x1f\n      add\n      0x20\n      dup1\n      swap2\n      div\n      mul\n      0x20\n      add\n      mload(0x40)\n      swap1\n      dup2\n      add\n      0x40\n      mstore\n      dup1\n      swap3\n      swap2\n      swap1\n      dup2\n      dup2\n      mstore\n      0x20\n      add\n      dup3\n      dup1\n      sload\n      tag_204\n      swap1\n      tag_93\n      jump\t// in\n    tag_204:\n      dup1\n      iszero\n      tag_205\n      jumpi\n      dup1\n      0x1f\n      lt\n      tag_206\n      jumpi\n      0x0100\n      dup1\n      dup4\n      sload\n      div\n      mul\n      dup4\n      mstore\n      swap2\n      0x20\n      add\n      swap2\n      jump(tag_205)\n    tag_206:\n      dup3\n      add\n      swap2\n      swap1\n      0x00\n      mstore\n      keccak256(0x00, 0x20)\n      swap1\n    tag_207:\n      dup2\n      sload\n      dup2\n      mstore\n      swap1\n      0x01\n      add\n      swap1\n      0x20\n      add\n      dup1\n      dup4\n      gt\n      tag_207\n      jumpi\n      dup3\n      swap1\n      sub\n      0x1f\n      and\n      dup3\n      add\n      swap2\n    tag_205:\n      pop\n      pop\n      pop\n      pop\n      pop\n      swap1\n      pop\n        /* \"contracts/TrippieceNFT.sol\":577:742  function tokenURI(uint256 tokenId)\r... */\n      swap2\n      swap1\n      pop\n      jump\t// out\n        /* \"contracts/token/ERC721/ERC721.sol\":4820:4984  function isApprovedForAll(address owner, address operator) public view virtual override returns (bool) {\r... */\n    tag_86:\n        /* \"contracts/token/ERC721/ERC721.sol\":4917:4921  bool */\n      0x00\n        /* \"contracts/token/ERC721/ERC721.sol\":4941:4959  _operatorApprovals */\n      0x05\n        /* \"contracts/token/ERC721/ERC721.sol\":4941:4966  _operatorApprovals[owner] */\n      0x00\n        /* \"contracts/token/ERC721/ERC721.sol\":4960:4965  owner */\n      dup5\n        /* \"contracts/token/ERC721/ERC721.sol\":4941:4966  _operatorApprovals[owner] */\n      0xffffffffffffffffffffffffffffffffffffffff\n      and\n      0xffffffffffffffffffffffffffffffffffffffff\n      and\n      dup2\n      mstore\n      0x20\n      add\n      swap1\n      dup2\n      mstore\n      0x20\n      add\n      0x00\n      keccak256\n        /* \"contracts/token/ERC721/ERC721.sol\":4941:4976  _operatorApprovals[owner][operator] */\n      0x00\n        /* \"contracts/token/ERC721/ERC721.sol\":4967:4975  operator */\n      dup4\n        /* \"contracts/token/ERC721/ERC721.sol\":4941:4976  _operatorApprovals[owner][operator] */\n      0xffffffffffffffffffffffffffffffffffffffff\n      and\n      0xffffffffffffffffffffffffffffffffffffffff\n      and\n      dup2\n      mstore\n      0x20\n      add\n      swap1\n      dup2\n      mstore\n      0x20\n      add\n      0x00\n      keccak256\n      0x00\n      swap1\n      sload\n      swap1\n      0x0100\n      exp\n      swap1\n      div\n      0xff\n      and\n        /* \"contracts/token/ERC721/ERC721.sol\":4934:4976  return _operatorApprovals[owner][operator] */\n      swap1\n      pop\n        /* \"contracts/token/ERC721/ERC721.sol\":4820:4984  function isApprovedForAll(address owner, address operator) public view virtual override returns (bool) {\r... */\n      swap3\n      swap2\n      pop\n      pop\n      jump\t// out\n        /* \"contracts/utils/Counters.sol\":848:962  function current(Counter storage counter) internal view returns (uint256) {\r... */\n    tag_104:\n        /* \"contracts/utils/Counters.sol\":913:920  uint256 */\n      0x00\n        /* \"contracts/utils/Counters.sol\":940:947  counter */\n      dup2\n        /* \"contracts/utils/Counters.sol\":940:954  counter._value */\n      0x00\n      add\n      sload\n        /* \"contracts/utils/Counters.sol\":933:954  return counter._value */\n      swap1\n      pop\n        /* \"contracts/utils/Counters.sol\":848:962  function current(Counter storage counter) internal view returns (uint256) {\r... */\n      swap2\n      swap1\n      pop\n      jump\t// out\n        /* \"contracts/utils/Counters.sol\":970:1097  function increment(Counter storage counter) internal {\r... */\n    tag_183:\n        /* \"contracts/utils/Counters.sol\":1077:1078  1 */\n      0x01\n        /* \"contracts/utils/Counters.sol\":1059:1066  counter */\n      dup2\n        /* \"contracts/utils/Counters.sol\":1059:1073  counter._value */\n      0x00\n      add\n      0x00\n        /* \"contracts/utils/Counters.sol\":1059:1078  counter._value += 1 */\n      dup3\n      dup3\n      sload\n      add\n      swap3\n      pop\n      pop\n      dup2\n      swap1\n      sstore\n      pop\n        /* \"contracts/utils/Counters.sol\":970:1097  function increment(Counter storage counter) internal {\r... */\n      pop\n      jump\t// out\n        /* \"contracts/token/ERC721/ERC721.sol\":6996:7304  function _mint(address to, uint256 tokenId) internal virtual {\r... */\n    tag_186:\n        /* \"contracts/token/ERC721/ERC721.sol\":7090:7091  0 */\n      0x00\n        /* \"contracts/token/ERC721/ERC721.sol\":7076:7092  to != address(0) */\n      0xffffffffffffffffffffffffffffffffffffffff\n      and\n        /* \"contracts/token/ERC721/ERC721.sol\":7076:7078  to */\n      dup3\n        /* \"contracts/token/ERC721/ERC721.sol\":7076:7092  to != address(0) */\n      0xffffffffffffffffffffffffffffffffffffffff\n      and\n      eq\n      iszero\n        /* \"contracts/token/ERC721/ERC721.sol\":7068:7117  require(to != address(0), \"mint to zero address\") */\n      tag_212\n      jumpi\n      mload(0x40)\n      0x08c379a000000000000000000000000000000000000000000000000000000000\n      dup2\n      mstore\n      0x04\n      add\n      tag_213\n      swap1\n      tag_214\n      jump\t// in\n    tag_213:\n      mload(0x40)\n      dup1\n      swap2\n      sub\n      swap1\n      revert\n    tag_212:\n        /* \"contracts/token/ERC721/ERC721.sol\":7164:7165  0 */\n      0x00\n        /* \"contracts/token/ERC721/ERC721.sol\":7136:7166  _owners[tokenId] == address(0) */\n      0xffffffffffffffffffffffffffffffffffffffff\n      and\n        /* \"contracts/token/ERC721/ERC721.sol\":7136:7143  _owners */\n      0x02\n        /* \"contracts/token/ERC721/ERC721.sol\":7136:7152  _owners[tokenId] */\n      0x00\n        /* \"contracts/token/ERC721/ERC721.sol\":7144:7151  tokenId */\n      dup4\n        /* \"contracts/token/ERC721/ERC721.sol\":7136:7152  _owners[tokenId] */\n      dup2\n      mstore\n      0x20\n      add\n      swap1\n      dup2\n      mstore\n      0x20\n      add\n      0x00\n      keccak256\n      0x00\n      swap1\n      sload\n      swap1\n      0x0100\n      exp\n      swap1\n      div\n      0xffffffffffffffffffffffffffffffffffffffff\n      and\n        /* \"contracts/token/ERC721/ERC721.sol\":7136:7166  _owners[tokenId] == address(0) */\n      0xffffffffffffffffffffffffffffffffffffffff\n      and\n      eq\n        /* \"contracts/token/ERC721/ERC721.sol\":7128:7185  require(_owners[tokenId] == address(0), \"already minted\") */\n      tag_215\n      jumpi\n      mload(0x40)\n      0x08c379a000000000000000000000000000000000000000000000000000000000\n      dup2\n      mstore\n      0x04\n      add\n      tag_216\n      swap1\n      tag_217\n      jump\t// in\n    tag_216:\n      mload(0x40)\n      dup1\n      swap2\n      sub\n      swap1\n      revert\n    tag_215:\n        /* \"contracts/token/ERC721/ERC721.sol\":7198:7207  _balances */\n      0x03\n        /* \"contracts/token/ERC721/ERC721.sol\":7198:7211  _balances[to] */\n      0x00\n        /* \"contracts/token/ERC721/ERC721.sol\":7208:7210  to */\n      dup4\n        /* \"contracts/token/ERC721/ERC721.sol\":7198:7211  _balances[to] */\n      0xffffffffffffffffffffffffffffffffffffffff\n      and\n      0xffffffffffffffffffffffffffffffffffffffff\n      and\n      dup2\n      mstore\n      0x20\n      add\n      swap1\n      dup2\n      mstore\n      0x20\n      add\n      0x00\n      keccak256\n      0x00\n        /* \"contracts/token/ERC721/ERC721.sol\":7198:7213  _balances[to]++ */\n      dup2\n      sload\n      dup1\n      swap3\n      swap2\n      swap1\n      tag_218\n      swap1\n      tag_135\n      jump\t// in\n    tag_218:\n      swap2\n      swap1\n      pop\n      sstore\n      pop\n        /* \"contracts/token/ERC721/ERC721.sol\":7243:7245  to */\n      dup2\n        /* \"contracts/token/ERC721/ERC721.sol\":7224:7231  _owners */\n      0x02\n        /* \"contracts/token/ERC721/ERC721.sol\":7224:7240  _owners[tokenId] */\n      0x00\n        /* \"contracts/token/ERC721/ERC721.sol\":7232:7239  tokenId */\n      dup4\n        /* \"contracts/token/ERC721/ERC721.sol\":7224:7240  _owners[tokenId] */\n      dup2\n      mstore\n      0x20\n      add\n      swap1\n      dup2\n      mstore\n      0x20\n      add\n      0x00\n      keccak256\n      0x00\n        /* \"contracts/token/ERC721/ERC721.sol\":7224:7245  _owners[tokenId] = to */\n      0x0100\n      exp\n      dup2\n      sload\n      dup2\n      0xffffffffffffffffffffffffffffffffffffffff\n      mul\n      not\n      and\n      swap1\n      dup4\n      0xffffffffffffffffffffffffffffffffffffffff\n      and\n      mul\n      or\n      swap1\n      sstore\n      pop\n        /* \"contracts/token/ERC721/ERC721.sol\":7288:7295  tokenId */\n      dup1\n        /* \"contracts/token/ERC721/ERC721.sol\":7284:7286  to */\n      dup3\n        /* \"contracts/token/ERC721/ERC721.sol\":7263:7296  Transfer(address(0), to, tokenId) */\n      0xffffffffffffffffffffffffffffffffffffffff\n      and\n        /* \"contracts/token/ERC721/ERC721.sol\":7280:7281  0 */\n      0x00\n        /* \"contracts/token/ERC721/ERC721.sol\":7263:7296  Transfer(address(0), to, tokenId) */\n      0xffffffffffffffffffffffffffffffffffffffff\n      and\n      0xddf252ad1be2c89b69c2b068fc378daa952ba7f163c4a11628f55a4df523b3ef\n      mload(0x40)\n      mload(0x40)\n      dup1\n      swap2\n      sub\n      swap1\n      log4\n        /* \"contracts/token/ERC721/ERC721.sol\":6996:7304  function _mint(address to, uint256 tokenId) internal virtual {\r... */\n      pop\n      pop\n      jump\t// out\n    tag_116:\n      mload(0x40)\n      dup1\n      0x40\n      add\n      0x40\n      mstore\n      dup1\n      0x00\n      dup2\n      mstore\n      0x20\n      add\n      0x60\n      dup2\n      mstore\n      pop\n      swap1\n      jump\t// out\n    tag_188:\n      dup3\n      dup1\n      sload\n      tag_219\n      swap1\n      tag_93\n      jump\t// in\n    tag_219:\n      swap1\n      0x00\n      mstore\n      keccak256(0x00, 0x20)\n      swap1\n      0x1f\n      add\n      0x20\n      swap1\n      div\n      dup2\n      add\n      swap3\n      dup3\n      tag_221\n      jumpi\n      0x00\n      dup6\n      sstore\n      jump(tag_220)\n    tag_221:\n      dup3\n      0x1f\n      lt\n      tag_222\n      jumpi\n      dup1\n      mload\n      not(0xff)\n      and\n      dup4\n      dup1\n      add\n      or\n      dup6\n      sstore\n      jump(tag_220)\n    tag_222:\n      dup3\n      dup1\n      add\n      0x01\n      add\n      dup6\n      sstore\n      dup3\n      iszero\n      tag_220\n      jumpi\n      swap2\n      dup3\n      add\n    tag_223:\n      dup3\n      dup2\n      gt\n      iszero\n      tag_224\n      jumpi\n      dup3\n      mload\n      dup3\n      sstore\n      swap2\n      0x20\n      add\n      swap2\n      swap1\n      0x01\n      add\n      swap1\n      jump(tag_223)\n    tag_224:\n    tag_220:\n      pop\n      swap1\n      pop\n      tag_225\n      swap2\n      swap1\n      tag_226\n      jump\t// in\n    tag_225:\n      pop\n      swap1\n      jump\t// out\n    tag_226:\n    tag_227:\n      dup1\n      dup3\n      gt\n      iszero\n      tag_228\n      jumpi\n      0x00\n      dup2\n      0x00\n      swap1\n      sstore\n      pop\n      0x01\n      add\n      jump(tag_227)\n    tag_228:\n      pop\n      swap1\n      jump\t// out\n        /* \"#utility.yul\":7:417   */\n    tag_230:\n        /* \"#utility.yul\":84:89   */\n      0x00\n        /* \"#utility.yul\":109:174   */\n      tag_232\n        /* \"#utility.yul\":125:173   */\n      tag_233\n        /* \"#utility.yul\":166:172   */\n      dup5\n        /* \"#utility.yul\":125:173   */\n      tag_234\n      jump\t// in\n    tag_233:\n        /* \"#utility.yul\":109:174   */\n      tag_235\n      jump\t// in\n    tag_232:\n        /* \"#utility.yul\":100:174   */\n      swap1\n      pop\n        /* \"#utility.yul\":197:203   */\n      dup3\n        /* \"#utility.yul\":190:195   */\n      dup2\n        /* \"#utility.yul\":183:204   */\n      mstore\n        /* \"#utility.yul\":235:239   */\n      0x20\n        /* \"#utility.yul\":228:233   */\n      dup2\n        /* \"#utility.yul\":224:240   */\n      add\n        /* \"#utility.yul\":273:276   */\n      dup5\n        /* \"#utility.yul\":264:270   */\n      dup5\n        /* \"#utility.yul\":259:262   */\n      dup5\n        /* \"#utility.yul\":255:271   */\n      add\n        /* \"#utility.yul\":252:277   */\n      gt\n        /* \"#utility.yul\":249:361   */\n      iszero\n      tag_236\n      jumpi\n        /* \"#utility.yul\":280:359   */\n      tag_237\n      tag_238\n      jump\t// in\n    tag_237:\n        /* \"#utility.yul\":249:361   */\n    tag_236:\n        /* \"#utility.yul\":370:411   */\n      tag_239\n        /* \"#utility.yul\":404:410   */\n      dup5\n        /* \"#utility.yul\":399:402   */\n      dup3\n        /* \"#utility.yul\":394:397   */\n      dup6\n        /* \"#utility.yul\":370:411   */\n      tag_240\n      jump\t// in\n    tag_239:\n        /* \"#utility.yul\":90:417   */\n      pop\n        /* \"#utility.yul\":7:417   */\n      swap4\n      swap3\n      pop\n      pop\n      pop\n      jump\t// out\n        /* \"#utility.yul\":423:835   */\n    tag_241:\n        /* \"#utility.yul\":501:506   */\n      0x00\n        /* \"#utility.yul\":526:592   */\n      tag_243\n        /* \"#utility.yul\":542:591   */\n      tag_244\n        /* \"#utility.yul\":584:590   */\n      dup5\n        /* \"#utility.yul\":542:591   */\n      tag_245\n      jump\t// in\n    tag_244:\n        /* \"#utility.yul\":526:592   */\n      tag_235\n      jump\t// in\n    tag_243:\n        /* \"#utility.yul\":517:592   */\n      swap1\n      pop\n        /* \"#utility.yul\":615:621   */\n      dup3\n        /* \"#utility.yul\":608:613   */\n      dup2\n        /* \"#utility.yul\":601:622   */\n      mstore\n        /* \"#utility.yul\":653:657   */\n      0x20\n        /* \"#utility.yul\":646:651   */\n      dup2\n        /* \"#utility.yul\":642:658   */\n      add\n        /* \"#utility.yul\":691:694   */\n      dup5\n        /* \"#utility.yul\":682:688   */\n      dup5\n        /* \"#utility.yul\":677:680   */\n      dup5\n        /* \"#utility.yul\":673:689   */\n      add\n        /* \"#utility.yul\":670:695   */\n      gt\n        /* \"#utility.yul\":667:779   */\n      iszero\n      tag_246\n      jumpi\n        /* \"#utility.yul\":698:777   */\n      tag_247\n      tag_238\n      jump\t// in\n    tag_247:\n        /* \"#utility.yul\":667:779   */\n    tag_246:\n        /* \"#utility.yul\":788:829   */\n      tag_248\n        /* \"#utility.yul\":822:828   */\n      dup5\n        /* \"#utility.yul\":817:820   */\n      dup3\n        /* \"#utility.yul\":812:815   */\n      dup6\n        /* \"#utility.yul\":788:829   */\n      tag_240\n      jump\t// in\n    tag_248:\n        /* \"#utility.yul\":507:835   */\n      pop\n        /* \"#utility.yul\":423:835   */\n      swap4\n      swap3\n      pop\n      pop\n      pop\n      jump\t// out\n        /* \"#utility.yul\":841:980   */\n    tag_249:\n        /* \"#utility.yul\":887:892   */\n      0x00\n        /* \"#utility.yul\":925:931   */\n      dup2\n        /* \"#utility.yul\":912:932   */\n      calldataload\n        /* \"#utility.yul\":903:932   */\n      swap1\n      pop\n        /* \"#utility.yul\":941:974   */\n      tag_251\n        /* \"#utility.yul\":968:973   */\n      dup2\n        /* \"#utility.yul\":941:974   */\n      tag_252\n      jump\t// in\n    tag_251:\n        /* \"#utility.yul\":841:980   */\n      swap3\n      swap2\n      pop\n      pop\n      jump\t// out\n        /* \"#utility.yul\":986:1119   */\n    tag_253:\n        /* \"#utility.yul\":1029:1034   */\n      0x00\n        /* \"#utility.yul\":1067:1073   */\n      dup2\n        /* \"#utility.yul\":1054:1074   */\n      calldataload\n        /* \"#utility.yul\":1045:1074   */\n      swap1\n      pop\n        /* \"#utility.yul\":1083:1113   */\n      tag_255\n        /* \"#utility.yul\":1107:1112   */\n      dup2\n        /* \"#utility.yul\":1083:1113   */\n      tag_256\n      jump\t// in\n    tag_255:\n        /* \"#utility.yul\":986:1119   */\n      swap3\n      swap2\n      pop\n      pop\n      jump\t// out\n        /* \"#utility.yul\":1125:1262   */\n    tag_257:\n        /* \"#utility.yul\":1170:1175   */\n      0x00\n        /* \"#utility.yul\":1208:1214   */\n      dup2\n        /* \"#utility.yul\":1195:1215   */\n      calldataload\n        /* \"#utility.yul\":1186:1215   */\n      swap1\n      pop\n        /* \"#utility.yul\":1224:1256   */\n      tag_259\n        /* \"#utility.yul\":1250:1255   */\n      dup2\n        /* \"#utility.yul\":1224:1256   */\n      tag_260\n      jump\t// in\n    tag_259:\n        /* \"#utility.yul\":1125:1262   */\n      swap3\n      swap2\n      pop\n      pop\n      jump\t// out\n        /* \"#utility.yul\":1268:1409   */\n    tag_261:\n        /* \"#utility.yul\":1324:1329   */\n      0x00\n        /* \"#utility.yul\":1355:1361   */\n      dup2\n        /* \"#utility.yul\":1349:1362   */\n      mload\n        /* \"#utility.yul\":1340:1362   */\n      swap1\n      pop\n        /* \"#utility.yul\":1371:1403   */\n      tag_263\n        /* \"#utility.yul\":1397:1402   */\n      dup2\n        /* \"#utility.yul\":1371:1403   */\n      tag_260\n      jump\t// in\n    tag_263:\n        /* \"#utility.yul\":1268:1409   */\n      swap3\n      swap2\n      pop\n      pop\n      jump\t// out\n        /* \"#utility.yul\":1428:1766   */\n    tag_264:\n        /* \"#utility.yul\":1483:1488   */\n      0x00\n        /* \"#utility.yul\":1532:1535   */\n      dup3\n        /* \"#utility.yul\":1525:1529   */\n      0x1f\n        /* \"#utility.yul\":1517:1523   */\n      dup4\n        /* \"#utility.yul\":1513:1530   */\n      add\n        /* \"#utility.yul\":1509:1536   */\n      slt\n        /* \"#utility.yul\":1499:1621   */\n      tag_266\n      jumpi\n        /* \"#utility.yul\":1540:1619   */\n      tag_267\n      tag_268\n      jump\t// in\n    tag_267:\n        /* \"#utility.yul\":1499:1621   */\n    tag_266:\n        /* \"#utility.yul\":1657:1663   */\n      dup2\n        /* \"#utility.yul\":1644:1664   */\n      calldataload\n        /* \"#utility.yul\":1682:1760   */\n      tag_269\n        /* \"#utility.yul\":1756:1759   */\n      dup5\n        /* \"#utility.yul\":1748:1754   */\n      dup3\n        /* \"#utility.yul\":1741:1745   */\n      0x20\n        /* \"#utility.yul\":1733:1739   */\n      dup7\n        /* \"#utility.yul\":1729:1746   */\n      add\n        /* \"#utility.yul\":1682:1760   */\n      tag_230\n      jump\t// in\n    tag_269:\n        /* \"#utility.yul\":1673:1760   */\n      swap2\n      pop\n        /* \"#utility.yul\":1489:1766   */\n      pop\n        /* \"#utility.yul\":1428:1766   */\n      swap3\n      swap2\n      pop\n      pop\n      jump\t// out\n        /* \"#utility.yul\":1786:2126   */\n    tag_270:\n        /* \"#utility.yul\":1842:1847   */\n      0x00\n        /* \"#utility.yul\":1891:1894   */\n      dup3\n        /* \"#utility.yul\":1884:1888   */\n      0x1f\n        /* \"#utility.yul\":1876:1882   */\n      dup4\n        /* \"#utility.yul\":1872:1889   */\n      add\n        /* \"#utility.yul\":1868:1895   */\n      slt\n        /* \"#utility.yul\":1858:1980   */\n      tag_272\n      jumpi\n        /* \"#utility.yul\":1899:1978   */\n      tag_273\n      tag_268\n      jump\t// in\n    tag_273:\n        /* \"#utility.yul\":1858:1980   */\n    tag_272:\n        /* \"#utility.yul\":2016:2022   */\n      dup2\n        /* \"#utility.yul\":2003:2023   */\n      calldataload\n        /* \"#utility.yul\":2041:2120   */\n      tag_274\n        /* \"#utility.yul\":2116:2119   */\n      dup5\n        /* \"#utility.yul\":2108:2114   */\n      dup3\n        /* \"#utility.yul\":2101:2105   */\n      0x20\n        /* \"#utility.yul\":2093:2099   */\n      dup7\n        /* \"#utility.yul\":2089:2106   */\n      add\n        /* \"#utility.yul\":2041:2120   */\n      tag_241\n      jump\t// in\n    tag_274:\n        /* \"#utility.yul\":2032:2120   */\n      swap2\n      pop\n        /* \"#utility.yul\":1848:2126   */\n      pop\n        /* \"#utility.yul\":1786:2126   */\n      swap3\n      swap2\n      pop\n      pop\n      jump\t// out\n        /* \"#utility.yul\":2132:2271   */\n    tag_275:\n        /* \"#utility.yul\":2178:2183   */\n      0x00\n        /* \"#utility.yul\":2216:2222   */\n      dup2\n        /* \"#utility.yul\":2203:2223   */\n      calldataload\n        /* \"#utility.yul\":2194:2223   */\n      swap1\n      pop\n        /* \"#utility.yul\":2232:2265   */\n      tag_277\n        /* \"#utility.yul\":2259:2264   */\n      dup2\n        /* \"#utility.yul\":2232:2265   */\n      tag_278\n      jump\t// in\n    tag_277:\n        /* \"#utility.yul\":2132:2271   */\n      swap3\n      swap2\n      pop\n      pop\n      jump\t// out\n        /* \"#utility.yul\":2277:2606   */\n    tag_39:\n        /* \"#utility.yul\":2336:2342   */\n      0x00\n        /* \"#utility.yul\":2385:2387   */\n      0x20\n        /* \"#utility.yul\":2373:2382   */\n      dup3\n        /* \"#utility.yul\":2364:2371   */\n      dup5\n        /* \"#utility.yul\":2360:2383   */\n      sub\n        /* \"#utility.yul\":2356:2388   */\n      slt\n        /* \"#utility.yul\":2353:2472   */\n      iszero\n      tag_280\n      jumpi\n        /* \"#utility.yul\":2391:2470   */\n      tag_281\n      tag_282\n      jump\t// in\n    tag_281:\n        /* \"#utility.yul\":2353:2472   */\n    tag_280:\n        /* \"#utility.yul\":2511:2512   */\n      0x00\n        /* \"#utility.yul\":2536:2589   */\n      tag_283\n        /* \"#utility.yul\":2581:2588   */\n      dup5\n        /* \"#utility.yul\":2572:2578   */\n      dup3\n        /* \"#utility.yul\":2561:2570   */\n      dup6\n        /* \"#utility.yul\":2557:2579   */\n      add\n        /* \"#utility.yul\":2536:2589   */\n      tag_249\n      jump\t// in\n    tag_283:\n        /* \"#utility.yul\":2526:2589   */\n      swap2\n      pop\n        /* \"#utility.yul\":2482:2599   */\n      pop\n        /* \"#utility.yul\":2277:2606   */\n      swap3\n      swap2\n      pop\n      pop\n      jump\t// out\n        /* \"#utility.yul\":2612:3086   */\n    tag_85:\n        /* \"#utility.yul\":2680:2686   */\n      0x00\n        /* \"#utility.yul\":2688:2694   */\n      dup1\n        /* \"#utility.yul\":2737:2739   */\n      0x40\n        /* \"#utility.yul\":2725:2734   */\n      dup4\n        /* \"#utility.yul\":2716:2723   */\n      dup6\n        /* \"#utility.yul\":2712:2735   */\n      sub\n        /* \"#utility.yul\":2708:2740   */\n      slt\n        /* \"#utility.yul\":2705:2824   */\n      iszero\n      tag_285\n      jumpi\n        /* \"#utility.yul\":2743:2822   */\n      tag_286\n      tag_282\n      jump\t// in\n    tag_286:\n        /* \"#utility.yul\":2705:2824   */\n    tag_285:\n        /* \"#utility.yul\":2863:2864   */\n      0x00\n        /* \"#utility.yul\":2888:2941   */\n      tag_287\n        /* \"#utility.yul\":2933:2940   */\n      dup6\n        /* \"#utility.yul\":2924:2930   */\n      dup3\n        /* \"#utility.yul\":2913:2922   */\n      dup7\n        /* \"#utility.yul\":2909:2931   */\n      add\n        /* \"#utility.yul\":2888:2941   */\n      tag_249\n      jump\t// in\n    tag_287:\n        /* \"#utility.yul\":2878:2941   */\n      swap3\n      pop\n        /* \"#utility.yul\":2834:2951   */\n      pop\n        /* \"#utility.yul\":2990:2992   */\n      0x20\n        /* \"#utility.yul\":3016:3069   */\n      tag_288\n        /* \"#utility.yul\":3061:3068   */\n      dup6\n        /* \"#utility.yul\":3052:3058   */\n      dup3\n        /* \"#utility.yul\":3041:3050   */\n      dup7\n        /* \"#utility.yul\":3037:3059   */\n      add\n        /* \"#utility.yul\":3016:3069   */\n      tag_249\n      jump\t// in\n    tag_288:\n        /* \"#utility.yul\":3006:3069   */\n      swap2\n      pop\n        /* \"#utility.yul\":2961:3079   */\n      pop\n        /* \"#utility.yul\":2612:3086   */\n      swap3\n      pop\n      swap3\n      swap1\n      pop\n      jump\t// out\n        /* \"#utility.yul\":3092:3711   */\n    tag_49:\n        /* \"#utility.yul\":3169:3175   */\n      0x00\n        /* \"#utility.yul\":3177:3183   */\n      dup1\n        /* \"#utility.yul\":3185:3191   */\n      0x00\n        /* \"#utility.yul\":3234:3236   */\n      0x60\n        /* \"#utility.yul\":3222:3231   */\n      dup5\n        /* \"#utility.yul\":3213:3220   */\n      dup7\n        /* \"#utility.yul\":3209:3232   */\n      sub\n        /* \"#utility.yul\":3205:3237   */\n      slt\n        /* \"#utility.yul\":3202:3321   */\n      iszero\n      tag_290\n      jumpi\n        /* \"#utility.yul\":3240:3319   */\n      tag_291\n      tag_282\n      jump\t// in\n    tag_291:\n        /* \"#utility.yul\":3202:3321   */\n    tag_290:\n        /* \"#utility.yul\":3360:3361   */\n      0x00\n        /* \"#utility.yul\":3385:3438   */\n      tag_292\n        /* \"#utility.yul\":3430:3437   */\n      dup7\n        /* \"#utility.yul\":3421:3427   */\n      dup3\n        /* \"#utility.yul\":3410:3419   */\n      dup8\n        /* \"#utility.yul\":3406:3428   */\n      add\n        /* \"#utility.yul\":3385:3438   */\n      tag_249\n      jump\t// in\n    tag_292:\n        /* \"#utility.yul\":3375:3438   */\n      swap4\n      pop\n        /* \"#utility.yul\":3331:3448   */\n      pop\n        /* \"#utility.yul\":3487:3489   */\n      0x20\n        /* \"#utility.yul\":3513:3566   */\n      tag_293\n        /* \"#utility.yul\":3558:3565   */\n      dup7\n        /* \"#utility.yul\":3549:3555   */\n      dup3\n        /* \"#utility.yul\":3538:3547   */\n      dup8\n        /* \"#utility.yul\":3534:3556   */\n      add\n        /* \"#utility.yul\":3513:3566   */\n      tag_249\n      jump\t// in\n    tag_293:\n        /* \"#utility.yul\":3503:3566   */\n      swap3\n      pop\n        /* \"#utility.yul\":3458:3576   */\n      pop\n        /* \"#utility.yul\":3615:3617   */\n      0x40\n        /* \"#utility.yul\":3641:3694   */\n      tag_294\n        /* \"#utility.yul\":3686:3693   */\n      dup7\n        /* \"#utility.yul\":3677:3683   */\n      dup3\n        /* \"#utility.yul\":3666:3675   */\n      dup8\n        /* \"#utility.yul\":3662:3684   */\n      add\n        /* \"#utility.yul\":3641:3694   */\n      tag_275\n      jump\t// in\n    tag_294:\n        /* \"#utility.yul\":3631:3694   */\n      swap2\n      pop\n        /* \"#utility.yul\":3586:3704   */\n      pop\n        /* \"#utility.yul\":3092:3711   */\n      swap3\n      pop\n      swap3\n      pop\n      swap3\n      jump\t// out\n        /* \"#utility.yul\":3717:4660   */\n    tag_77:\n        /* \"#utility.yul\":3812:3818   */\n      0x00\n        /* \"#utility.yul\":3820:3826   */\n      dup1\n        /* \"#utility.yul\":3828:3834   */\n      0x00\n        /* \"#utility.yul\":3836:3842   */\n      dup1\n        /* \"#utility.yul\":3885:3888   */\n      0x80\n        /* \"#utility.yul\":3873:3882   */\n      dup6\n        /* \"#utility.yul\":3864:3871   */\n      dup8\n        /* \"#utility.yul\":3860:3883   */\n      sub\n        /* \"#utility.yul\":3856:3889   */\n      slt\n        /* \"#utility.yul\":3853:3973   */\n      iszero\n      tag_296\n      jumpi\n        /* \"#utility.yul\":3892:3971   */\n      tag_297\n      tag_282\n      jump\t// in\n    tag_297:\n        /* \"#utility.yul\":3853:3973   */\n    tag_296:\n        /* \"#utility.yul\":4012:4013   */\n      0x00\n        /* \"#utility.yul\":4037:4090   */\n      tag_298\n        /* \"#utility.yul\":4082:4089   */\n      dup8\n        /* \"#utility.yul\":4073:4079   */\n      dup3\n        /* \"#utility.yul\":4062:4071   */\n      dup9\n        /* \"#utility.yul\":4058:4080   */\n      add\n        /* \"#utility.yul\":4037:4090   */\n      tag_249\n      jump\t// in\n    tag_298:\n        /* \"#utility.yul\":4027:4090   */\n      swap5\n      pop\n        /* \"#utility.yul\":3983:4100   */\n      pop\n        /* \"#utility.yul\":4139:4141   */\n      0x20\n        /* \"#utility.yul\":4165:4218   */\n      tag_299\n        /* \"#utility.yul\":4210:4217   */\n      dup8\n        /* \"#utility.yul\":4201:4207   */\n      dup3\n        /* \"#utility.yul\":4190:4199   */\n      dup9\n        /* \"#utility.yul\":4186:4208   */\n      add\n        /* \"#utility.yul\":4165:4218   */\n      tag_249\n      jump\t// in\n    tag_299:\n        /* \"#utility.yul\":4155:4218   */\n      swap4\n      pop\n        /* \"#utility.yul\":4110:4228   */\n      pop\n        /* \"#utility.yul\":4267:4269   */\n      0x40\n        /* \"#utility.yul\":4293:4346   */\n      tag_300\n        /* \"#utility.yul\":4338:4345   */\n      dup8\n        /* \"#utility.yul\":4329:4335   */\n      dup3\n        /* \"#utility.yul\":4318:4327   */\n      dup9\n        /* \"#utility.yul\":4314:4336   */\n      add\n        /* \"#utility.yul\":4293:4346   */\n      tag_275\n      jump\t// in\n    tag_300:\n        /* \"#utility.yul\":4283:4346   */\n      swap3\n      pop\n        /* \"#utility.yul\":4238:4356   */\n      pop\n        /* \"#utility.yul\":4423:4425   */\n      0x60\n        /* \"#utility.yul\":4412:4421   */\n      dup6\n        /* \"#utility.yul\":4408:4426   */\n      add\n        /* \"#utility.yul\":4395:4427   */\n      calldataload\n        /* \"#utility.yul\":4454:4472   */\n      0xffffffffffffffff\n        /* \"#utility.yul\":4446:4452   */\n      dup2\n        /* \"#utility.yul\":4443:4473   */\n      gt\n        /* \"#utility.yul\":4440:4557   */\n      iszero\n      tag_301\n      jumpi\n        /* \"#utility.yul\":4476:4555   */\n      tag_302\n      tag_303\n      jump\t// in\n    tag_302:\n        /* \"#utility.yul\":4440:4557   */\n    tag_301:\n        /* \"#utility.yul\":4581:4643   */\n      tag_304\n        /* \"#utility.yul\":4635:4642   */\n      dup8\n        /* \"#utility.yul\":4626:4632   */\n      dup3\n        /* \"#utility.yul\":4615:4624   */\n      dup9\n        /* \"#utility.yul\":4611:4633   */\n      add\n        /* \"#utility.yul\":4581:4643   */\n      tag_264\n      jump\t// in\n    tag_304:\n        /* \"#utility.yul\":4571:4643   */\n      swap2\n      pop\n        /* \"#utility.yul\":4366:4653   */\n      pop\n        /* \"#utility.yul\":3717:4660   */\n      swap3\n      swap6\n      swap2\n      swap5\n      pop\n      swap3\n      pop\n      jump\t// out\n        /* \"#utility.yul\":4666:5134   */\n    tag_73:\n        /* \"#utility.yul\":4731:4737   */\n      0x00\n        /* \"#utility.yul\":4739:4745   */\n      dup1\n        /* \"#utility.yul\":4788:4790   */\n      0x40\n        /* \"#utility.yul\":4776:4785   */\n      dup4\n        /* \"#utility.yul\":4767:4774   */\n      dup6\n        /* \"#utility.yul\":4763:4786   */\n      sub\n        /* \"#utility.yul\":4759:4791   */\n      slt\n        /* \"#utility.yul\":4756:4875   */\n      iszero\n      tag_306\n      jumpi\n        /* \"#utility.yul\":4794:4873   */\n      tag_307\n      tag_282\n      jump\t// in\n    tag_307:\n        /* \"#utility.yul\":4756:4875   */\n    tag_306:\n        /* \"#utility.yul\":4914:4915   */\n      0x00\n        /* \"#utility.yul\":4939:4992   */\n      tag_308\n        /* \"#utility.yul\":4984:4991   */\n      dup6\n        /* \"#utility.yul\":4975:4981   */\n      dup3\n        /* \"#utility.yul\":4964:4973   */\n      dup7\n        /* \"#utility.yul\":4960:4982   */\n      add\n        /* \"#utility.yul\":4939:4992   */\n      tag_249\n      jump\t// in\n    tag_308:\n        /* \"#utility.yul\":4929:4992   */\n      swap3\n      pop\n        /* \"#utility.yul\":4885:5002   */\n      pop\n        /* \"#utility.yul\":5041:5043   */\n      0x20\n        /* \"#utility.yul\":5067:5117   */\n      tag_309\n        /* \"#utility.yul\":5109:5116   */\n      dup6\n        /* \"#utility.yul\":5100:5106   */\n      dup3\n        /* \"#utility.yul\":5089:5098   */\n      dup7\n        /* \"#utility.yul\":5085:5107   */\n      add\n        /* \"#utility.yul\":5067:5117   */\n      tag_253\n      jump\t// in\n    tag_309:\n        /* \"#utility.yul\":5057:5117   */\n      swap2\n      pop\n        /* \"#utility.yul\":5012:5127   */\n      pop\n        /* \"#utility.yul\":4666:5134   */\n      swap3\n      pop\n      swap3\n      swap1\n      pop\n      jump\t// out\n        /* \"#utility.yul\":5140:5794   */\n    tag_68:\n        /* \"#utility.yul\":5218:5224   */\n      0x00\n        /* \"#utility.yul\":5226:5232   */\n      dup1\n        /* \"#utility.yul\":5275:5277   */\n      0x40\n        /* \"#utility.yul\":5263:5272   */\n      dup4\n        /* \"#utility.yul\":5254:5261   */\n      dup6\n        /* \"#utility.yul\":5250:5273   */\n      sub\n        /* \"#utility.yul\":5246:5278   */\n      slt\n        /* \"#utility.yul\":5243:5362   */\n      iszero\n      tag_311\n      jumpi\n        /* \"#utility.yul\":5281:5360   */\n      tag_312\n      tag_282\n      jump\t// in\n    tag_312:\n        /* \"#utility.yul\":5243:5362   */\n    tag_311:\n        /* \"#utility.yul\":5401:5402   */\n      0x00\n        /* \"#utility.yul\":5426:5479   */\n      tag_313\n        /* \"#utility.yul\":5471:5478   */\n      dup6\n        /* \"#utility.yul\":5462:5468   */\n      dup3\n        /* \"#utility.yul\":5451:5460   */\n      dup7\n        /* \"#utility.yul\":5447:5469   */\n      add\n        /* \"#utility.yul\":5426:5479   */\n      tag_249\n      jump\t// in\n    tag_313:\n        /* \"#utility.yul\":5416:5479   */\n      swap3\n      pop\n        /* \"#utility.yul\":5372:5489   */\n      pop\n        /* \"#utility.yul\":5556:5558   */\n      0x20\n        /* \"#utility.yul\":5545:5554   */\n      dup4\n        /* \"#utility.yul\":5541:5559   */\n      add\n        /* \"#utility.yul\":5528:5560   */\n      calldataload\n        /* \"#utility.yul\":5587:5605   */\n      0xffffffffffffffff\n        /* \"#utility.yul\":5579:5585   */\n      dup2\n        /* \"#utility.yul\":5576:5606   */\n      gt\n        /* \"#utility.yul\":5573:5690   */\n      iszero\n      tag_314\n      jumpi\n        /* \"#utility.yul\":5609:5688   */\n      tag_315\n      tag_303\n      jump\t// in\n    tag_315:\n        /* \"#utility.yul\":5573:5690   */\n    tag_314:\n        /* \"#utility.yul\":5714:5777   */\n      tag_316\n        /* \"#utility.yul\":5769:5776   */\n      dup6\n        /* \"#utility.yul\":5760:5766   */\n      dup3\n        /* \"#utility.yul\":5749:5758   */\n      dup7\n        /* \"#utility.yul\":5745:5767   */\n      add\n        /* \"#utility.yul\":5714:5777   */\n      tag_270\n      jump\t// in\n    tag_316:\n        /* \"#utility.yul\":5704:5777   */\n      swap2\n      pop\n        /* \"#utility.yul\":5499:5787   */\n      pop\n        /* \"#utility.yul\":5140:5794   */\n      swap3\n      pop\n      swap3\n      swap1\n      pop\n      jump\t// out\n        /* \"#utility.yul\":5800:6274   */\n    tag_45:\n        /* \"#utility.yul\":5868:5874   */\n      0x00\n        /* \"#utility.yul\":5876:5882   */\n      dup1\n        /* \"#utility.yul\":5925:5927   */\n      0x40\n        /* \"#utility.yul\":5913:5922   */\n      dup4\n        /* \"#utility.yul\":5904:5911   */\n      dup6\n        /* \"#utility.yul\":5900:5923   */\n      sub\n        /* \"#utility.yul\":5896:5928   */\n      slt\n        /* \"#utility.yul\":5893:6012   */\n      iszero\n      tag_318\n      jumpi\n        /* \"#utility.yul\":5931:6010   */\n      tag_319\n      tag_282\n      jump\t// in\n    tag_319:\n        /* \"#utility.yul\":5893:6012   */\n    tag_318:\n        /* \"#utility.yul\":6051:6052   */\n      0x00\n        /* \"#utility.yul\":6076:6129   */\n      tag_320\n        /* \"#utility.yul\":6121:6128   */\n      dup6\n        /* \"#utility.yul\":6112:6118   */\n      dup3\n        /* \"#utility.yul\":6101:6110   */\n      dup7\n        /* \"#utility.yul\":6097:6119   */\n      add\n        /* \"#utility.yul\":6076:6129   */\n      tag_249\n      jump\t// in\n    tag_320:\n        /* \"#utility.yul\":6066:6129   */\n      swap3\n      pop\n        /* \"#utility.yul\":6022:6139   */\n      pop\n        /* \"#utility.yul\":6178:6180   */\n      0x20\n        /* \"#utility.yul\":6204:6257   */\n      tag_321\n        /* \"#utility.yul\":6249:6256   */\n      dup6\n        /* \"#utility.yul\":6240:6246   */\n      dup3\n        /* \"#utility.yul\":6229:6238   */\n      dup7\n        /* \"#utility.yul\":6225:6247   */\n      add\n        /* \"#utility.yul\":6204:6257   */\n      tag_275\n      jump\t// in\n    tag_321:\n        /* \"#utility.yul\":6194:6257   */\n      swap2\n      pop\n        /* \"#utility.yul\":6149:6267   */\n      pop\n        /* \"#utility.yul\":5800:6274   */\n      swap3\n      pop\n      swap3\n      swap1\n      pop\n      jump\t// out\n        /* \"#utility.yul\":6280:6607   */\n    tag_23:\n        /* \"#utility.yul\":6338:6344   */\n      0x00\n        /* \"#utility.yul\":6387:6389   */\n      0x20\n        /* \"#utility.yul\":6375:6384   */\n      dup3\n        /* \"#utility.yul\":6366:6373   */\n      dup5\n        /* \"#utility.yul\":6362:6385   */\n      sub\n        /* \"#utility.yul\":6358:6390   */\n      slt\n        /* \"#utility.yul\":6355:6474   */\n      iszero\n      tag_323\n      jumpi\n        /* \"#utility.yul\":6393:6472   */\n      tag_324\n      tag_282\n      jump\t// in\n    tag_324:\n        /* \"#utility.yul\":6355:6474   */\n    tag_323:\n        /* \"#utility.yul\":6513:6514   */\n      0x00\n        /* \"#utility.yul\":6538:6590   */\n      tag_325\n        /* \"#utility.yul\":6582:6589   */\n      dup5\n        /* \"#utility.yul\":6573:6579   */\n      dup3\n        /* \"#utility.yul\":6562:6571   */\n      dup6\n        /* \"#utility.yul\":6558:6580   */\n      add\n        /* \"#utility.yul\":6538:6590   */\n      tag_257\n      jump\t// in\n    tag_325:\n        /* \"#utility.yul\":6528:6590   */\n      swap2\n      pop\n        /* \"#utility.yul\":6484:6600   */\n      pop\n        /* \"#utility.yul\":6280:6607   */\n      swap3\n      swap2\n      pop\n      pop\n      jump\t// out\n        /* \"#utility.yul\":6613:6962   */\n    tag_164:\n        /* \"#utility.yul\":6682:6688   */\n      0x00\n        /* \"#utility.yul\":6731:6733   */\n      0x20\n        /* \"#utility.yul\":6719:6728   */\n      dup3\n        /* \"#utility.yul\":6710:6717   */\n      dup5\n        /* \"#utility.yul\":6706:6729   */\n      sub\n        /* \"#utility.yul\":6702:6734   */\n      slt\n        /* \"#utility.yul\":6699:6818   */\n      iszero\n      tag_327\n      jumpi\n        /* \"#utility.yul\":6737:6816   */\n      tag_328\n      tag_282\n      jump\t// in\n    tag_328:\n        /* \"#utility.yul\":6699:6818   */\n    tag_327:\n        /* \"#utility.yul\":6857:6858   */\n      0x00\n        /* \"#utility.yul\":6882:6945   */\n      tag_329\n        /* \"#utility.yul\":6937:6944   */\n      dup5\n        /* \"#utility.yul\":6928:6934   */\n      dup3\n        /* \"#utility.yul\":6917:6926   */\n      dup6\n        /* \"#utility.yul\":6913:6935   */\n      add\n        /* \"#utility.yul\":6882:6945   */\n      tag_261\n      jump\t// in\n    tag_329:\n        /* \"#utility.yul\":6872:6945   */\n      swap2\n      pop\n        /* \"#utility.yul\":6828:6955   */\n      pop\n        /* \"#utility.yul\":6613:6962   */\n      swap3\n      swap2\n      pop\n      pop\n      jump\t// out\n        /* \"#utility.yul\":6968:7297   */\n    tag_33:\n        /* \"#utility.yul\":7027:7033   */\n      0x00\n        /* \"#utility.yul\":7076:7078   */\n      0x20\n        /* \"#utility.yul\":7064:7073   */\n      dup3\n        /* \"#utility.yul\":7055:7062   */\n      dup5\n        /* \"#utility.yul\":7051:7074   */\n      sub\n        /* \"#utility.yul\":7047:7079   */\n      slt\n        /* \"#utility.yul\":7044:7163   */\n      iszero\n      tag_331\n      jumpi\n        /* \"#utility.yul\":7082:7161   */\n      tag_332\n      tag_282\n      jump\t// in\n    tag_332:\n        /* \"#utility.yul\":7044:7163   */\n    tag_331:\n        /* \"#utility.yul\":7202:7203   */\n      0x00\n        /* \"#utility.yul\":7227:7280   */\n      tag_333\n        /* \"#utility.yul\":7272:7279   */\n      dup5\n        /* \"#utility.yul\":7263:7269   */\n      dup3\n        /* \"#utility.yul\":7252:7261   */\n      dup6\n        /* \"#utility.yul\":7248:7270   */\n      add\n        /* \"#utility.yul\":7227:7280   */\n      tag_275\n      jump\t// in\n    tag_333:\n        /* \"#utility.yul\":7217:7280   */\n      swap2\n      pop\n        /* \"#utility.yul\":7173:7290   */\n      pop\n        /* \"#utility.yul\":6968:7297   */\n      swap3\n      swap2\n      pop\n      pop\n      jump\t// out\n        /* \"#utility.yul\":7303:7551   */\n    tag_334:\n        /* \"#utility.yul\":7418:7428   */\n      0x00\n        /* \"#utility.yul\":7453:7545   */\n      tag_336\n        /* \"#utility.yul\":7541:7544   */\n      dup4\n        /* \"#utility.yul\":7533:7539   */\n      dup4\n        /* \"#utility.yul\":7453:7545   */\n      tag_337\n      jump\t// in\n    tag_336:\n        /* \"#utility.yul\":7439:7545   */\n      swap1\n      pop\n        /* \"#utility.yul\":7303:7551   */\n      swap3\n      swap2\n      pop\n      pop\n      jump\t// out\n        /* \"#utility.yul\":7557:7675   */\n    tag_338:\n        /* \"#utility.yul\":7644:7668   */\n      tag_340\n        /* \"#utility.yul\":7662:7667   */\n      dup2\n        /* \"#utility.yul\":7644:7668   */\n      tag_341\n      jump\t// in\n    tag_340:\n        /* \"#utility.yul\":7639:7642   */\n      dup3\n        /* \"#utility.yul\":7632:7669   */\n      mstore\n        /* \"#utility.yul\":7557:7675   */\n      pop\n      pop\n      jump\t// out\n        /* \"#utility.yul\":7751:8846   */\n    tag_342:\n        /* \"#utility.yul\":7916:7919   */\n      0x00\n        /* \"#utility.yul\":7945:8022   */\n      tag_344\n        /* \"#utility.yul\":8016:8021   */\n      dup3\n        /* \"#utility.yul\":7945:8022   */\n      tag_345\n      jump\t// in\n    tag_344:\n        /* \"#utility.yul\":8038:8147   */\n      tag_346\n        /* \"#utility.yul\":8140:8146   */\n      dup2\n        /* \"#utility.yul\":8135:8138   */\n      dup6\n        /* \"#utility.yul\":8038:8147   */\n      tag_347\n      jump\t// in\n    tag_346:\n        /* \"#utility.yul\":8031:8147   */\n      swap4\n      pop\n        /* \"#utility.yul\":8173:8176   */\n      dup4\n        /* \"#utility.yul\":8218:8222   */\n      0x20\n        /* \"#utility.yul\":8210:8216   */\n      dup3\n        /* \"#utility.yul\":8206:8223   */\n      mul\n        /* \"#utility.yul\":8201:8204   */\n      dup6\n        /* \"#utility.yul\":8197:8224   */\n      add\n        /* \"#utility.yul\":8248:8327   */\n      tag_348\n        /* \"#utility.yul\":8321:8326   */\n      dup6\n        /* \"#utility.yul\":8248:8327   */\n      tag_349\n      jump\t// in\n    tag_348:\n        /* \"#utility.yul\":8350:8357   */\n      dup1\n        /* \"#utility.yul\":8381:8382   */\n      0x00\n        /* \"#utility.yul\":8366:8801   */\n    tag_350:\n        /* \"#utility.yul\":8391:8397   */\n      dup6\n        /* \"#utility.yul\":8388:8389   */\n      dup2\n        /* \"#utility.yul\":8385:8398   */\n      lt\n        /* \"#utility.yul\":8366:8801   */\n      iszero\n      tag_352\n      jumpi\n        /* \"#utility.yul\":8462:8471   */\n      dup5\n        /* \"#utility.yul\":8456:8460   */\n      dup5\n        /* \"#utility.yul\":8452:8472   */\n      sub\n        /* \"#utility.yul\":8447:8450   */\n      dup10\n        /* \"#utility.yul\":8440:8473   */\n      mstore\n        /* \"#utility.yul\":8513:8519   */\n      dup2\n        /* \"#utility.yul\":8507:8520   */\n      mload\n        /* \"#utility.yul\":8541:8651   */\n      tag_353\n        /* \"#utility.yul\":8646:8650   */\n      dup6\n        /* \"#utility.yul\":8631:8644   */\n      dup3\n        /* \"#utility.yul\":8541:8651   */\n      tag_334\n      jump\t// in\n    tag_353:\n        /* \"#utility.yul\":8533:8651   */\n      swap5\n      pop\n        /* \"#utility.yul\":8674:8757   */\n      tag_354\n        /* \"#utility.yul\":8750:8756   */\n      dup4\n        /* \"#utility.yul\":8674:8757   */\n      tag_355\n      jump\t// in\n    tag_354:\n        /* \"#utility.yul\":8664:8757   */\n      swap3\n      pop\n        /* \"#utility.yul\":8786:8790   */\n      0x20\n        /* \"#utility.yul\":8781:8784   */\n      dup11\n        /* \"#utility.yul\":8777:8791   */\n      add\n        /* \"#utility.yul\":8770:8791   */\n      swap10\n      pop\n        /* \"#utility.yul\":8426:8801   */\n      pop\n        /* \"#utility.yul\":8413:8414   */\n      0x01\n        /* \"#utility.yul\":8410:8411   */\n      dup2\n        /* \"#utility.yul\":8406:8415   */\n      add\n        /* \"#utility.yul\":8401:8415   */\n      swap1\n      pop\n        /* \"#utility.yul\":8366:8801   */\n      jump(tag_350)\n    tag_352:\n        /* \"#utility.yul\":8370:8384   */\n      pop\n        /* \"#utility.yul\":8817:8821   */\n      dup3\n        /* \"#utility.yul\":8810:8821   */\n      swap8\n      pop\n        /* \"#utility.yul\":8837:8840   */\n      dup8\n        /* \"#utility.yul\":8830:8840   */\n      swap6\n      pop\n        /* \"#utility.yul\":7921:8846   */\n      pop\n      pop\n      pop\n      pop\n      pop\n        /* \"#utility.yul\":7751:8846   */\n      swap3\n      swap2\n      pop\n      pop\n      jump\t// out\n        /* \"#utility.yul\":8852:8961   */\n    tag_356:\n        /* \"#utility.yul\":8933:8954   */\n      tag_358\n        /* \"#utility.yul\":8948:8953   */\n      dup2\n        /* \"#utility.yul\":8933:8954   */\n      tag_359\n      jump\t// in\n    tag_358:\n        /* \"#utility.yul\":8928:8931   */\n      dup3\n        /* \"#utility.yul\":8921:8955   */\n      mstore\n        /* \"#utility.yul\":8852:8961   */\n      pop\n      pop\n      jump\t// out\n        /* \"#utility.yul\":8967:9327   */\n    tag_360:\n        /* \"#utility.yul\":9053:9056   */\n      0x00\n        /* \"#utility.yul\":9081:9119   */\n      tag_362\n        /* \"#utility.yul\":9113:9118   */\n      dup3\n        /* \"#utility.yul\":9081:9119   */\n      tag_363\n      jump\t// in\n    tag_362:\n        /* \"#utility.yul\":9135:9205   */\n      tag_364\n        /* \"#utility.yul\":9198:9204   */\n      dup2\n        /* \"#utility.yul\":9193:9196   */\n      dup6\n        /* \"#utility.yul\":9135:9205   */\n      tag_365\n      jump\t// in\n    tag_364:\n        /* \"#utility.yul\":9128:9205   */\n      swap4\n      pop\n        /* \"#utility.yul\":9214:9266   */\n      tag_366\n        /* \"#utility.yul\":9259:9265   */\n      dup2\n        /* \"#utility.yul\":9254:9257   */\n      dup6\n        /* \"#utility.yul\":9247:9251   */\n      0x20\n        /* \"#utility.yul\":9240:9245   */\n      dup7\n        /* \"#utility.yul\":9236:9252   */\n      add\n        /* \"#utility.yul\":9214:9266   */\n      tag_367\n      jump\t// in\n    tag_366:\n        /* \"#utility.yul\":9291:9320   */\n      tag_368\n        /* \"#utility.yul\":9313:9319   */\n      dup2\n        /* \"#utility.yul\":9291:9320   */\n      tag_369\n      jump\t// in\n    tag_368:\n        /* \"#utility.yul\":9286:9289   */\n      dup5\n        /* \"#utility.yul\":9282:9321   */\n      add\n        /* \"#utility.yul\":9275:9321   */\n      swap2\n      pop\n        /* \"#utility.yul\":9057:9327   */\n      pop\n        /* \"#utility.yul\":8967:9327   */\n      swap3\n      swap2\n      pop\n      pop\n      jump\t// out\n        /* \"#utility.yul\":9333:9677   */\n    tag_370:\n        /* \"#utility.yul\":9411:9414   */\n      0x00\n        /* \"#utility.yul\":9439:9478   */\n      tag_372\n        /* \"#utility.yul\":9472:9477   */\n      dup3\n        /* \"#utility.yul\":9439:9478   */\n      tag_373\n      jump\t// in\n    tag_372:\n        /* \"#utility.yul\":9494:9555   */\n      tag_374\n        /* \"#utility.yul\":9548:9554   */\n      dup2\n        /* \"#utility.yul\":9543:9546   */\n      dup6\n        /* \"#utility.yul\":9494:9555   */\n      tag_375\n      jump\t// in\n    tag_374:\n        /* \"#utility.yul\":9487:9555   */\n      swap4\n      pop\n        /* \"#utility.yul\":9564:9616   */\n      tag_376\n        /* \"#utility.yul\":9609:9615   */\n      dup2\n        /* \"#utility.yul\":9604:9607   */\n      dup6\n        /* \"#utility.yul\":9597:9601   */\n      0x20\n        /* \"#utility.yul\":9590:9595   */\n      dup7\n        /* \"#utility.yul\":9586:9602   */\n      add\n        /* \"#utility.yul\":9564:9616   */\n      tag_367\n      jump\t// in\n    tag_376:\n        /* \"#utility.yul\":9641:9670   */\n      tag_377\n        /* \"#utility.yul\":9663:9669   */\n      dup2\n        /* \"#utility.yul\":9641:9670   */\n      tag_369\n      jump\t// in\n    tag_377:\n        /* \"#utility.yul\":9636:9639   */\n      dup5\n        /* \"#utility.yul\":9632:9671   */\n      add\n        /* \"#utility.yul\":9625:9671   */\n      swap2\n      pop\n        /* \"#utility.yul\":9415:9677   */\n      pop\n        /* \"#utility.yul\":9333:9677   */\n      swap3\n      swap2\n      pop\n      pop\n      jump\t// out\n        /* \"#utility.yul\":9683:10047   */\n    tag_378:\n        /* \"#utility.yul\":9771:9774   */\n      0x00\n        /* \"#utility.yul\":9799:9838   */\n      tag_380\n        /* \"#utility.yul\":9832:9837   */\n      dup3\n        /* \"#utility.yul\":9799:9838   */\n      tag_373\n      jump\t// in\n    tag_380:\n        /* \"#utility.yul\":9854:9925   */\n      tag_381\n        /* \"#utility.yul\":9918:9924   */\n      dup2\n        /* \"#utility.yul\":9913:9916   */\n      dup6\n        /* \"#utility.yul\":9854:9925   */\n      tag_382\n      jump\t// in\n    tag_381:\n        /* \"#utility.yul\":9847:9925   */\n      swap4\n      pop\n        /* \"#utility.yul\":9934:9986   */\n      tag_383\n        /* \"#utility.yul\":9979:9985   */\n      dup2\n        /* \"#utility.yul\":9974:9977   */\n      dup6\n        /* \"#utility.yul\":9967:9971   */\n      0x20\n        /* \"#utility.yul\":9960:9965   */\n      dup7\n        /* \"#utility.yul\":9956:9972   */\n      add\n        /* \"#utility.yul\":9934:9986   */\n      tag_367\n      jump\t// in\n    tag_383:\n        /* \"#utility.yul\":10011:10040   */\n      tag_384\n        /* \"#utility.yul\":10033:10039   */\n      dup2\n        /* \"#utility.yul\":10011:10040   */\n      tag_369\n      jump\t// in\n    tag_384:\n        /* \"#utility.yul\":10006:10009   */\n      dup5\n        /* \"#utility.yul\":10002:10041   */\n      add\n        /* \"#utility.yul\":9995:10041   */\n      swap2\n      pop\n        /* \"#utility.yul\":9775:10047   */\n      pop\n        /* \"#utility.yul\":9683:10047   */\n      swap3\n      swap2\n      pop\n      pop\n      jump\t// out\n        /* \"#utility.yul\":10053:10419   */\n    tag_385:\n        /* \"#utility.yul\":10195:10198   */\n      0x00\n        /* \"#utility.yul\":10216:10283   */\n      tag_387\n        /* \"#utility.yul\":10280:10282   */\n      0x10\n        /* \"#utility.yul\":10275:10278   */\n      dup4\n        /* \"#utility.yul\":10216:10283   */\n      tag_382\n      jump\t// in\n    tag_387:\n        /* \"#utility.yul\":10209:10283   */\n      swap2\n      pop\n        /* \"#utility.yul\":10292:10385   */\n      tag_388\n        /* \"#utility.yul\":10381:10384   */\n      dup3\n        /* \"#utility.yul\":10292:10385   */\n      tag_389\n      jump\t// in\n    tag_388:\n        /* \"#utility.yul\":10410:10412   */\n      0x20\n        /* \"#utility.yul\":10405:10408   */\n      dup3\n        /* \"#utility.yul\":10401:10413   */\n      add\n        /* \"#utility.yul\":10394:10413   */\n      swap1\n      pop\n        /* \"#utility.yul\":10053:10419   */\n      swap2\n      swap1\n      pop\n      jump\t// out\n        /* \"#utility.yul\":10425:10791   */\n    tag_390:\n        /* \"#utility.yul\":10567:10570   */\n      0x00\n        /* \"#utility.yul\":10588:10655   */\n      tag_392\n        /* \"#utility.yul\":10652:10654   */\n      0x14\n        /* \"#utility.yul\":10647:10650   */\n      dup4\n        /* \"#utility.yul\":10588:10655   */\n      tag_382\n      jump\t// in\n    tag_392:\n        /* \"#utility.yul\":10581:10655   */\n      swap2\n      pop\n        /* \"#utility.yul\":10664:10757   */\n      tag_393\n        /* \"#utility.yul\":10753:10756   */\n      dup3\n        /* \"#utility.yul\":10664:10757   */\n      tag_394\n      jump\t// in\n    tag_393:\n        /* \"#utility.yul\":10782:10784   */\n      0x20\n        /* \"#utility.yul\":10777:10780   */\n      dup3\n        /* \"#utility.yul\":10773:10785   */\n      add\n        /* \"#utility.yul\":10766:10785   */\n      swap1\n      pop\n        /* \"#utility.yul\":10425:10791   */\n      swap2\n      swap1\n      pop\n      jump\t// out\n        /* \"#utility.yul\":10797:11163   */\n    tag_395:\n        /* \"#utility.yul\":10939:10942   */\n      0x00\n        /* \"#utility.yul\":10960:11027   */\n      tag_397\n        /* \"#utility.yul\":11024:11026   */\n      0x13\n        /* \"#utility.yul\":11019:11022   */\n      dup4\n        /* \"#utility.yul\":10960:11027   */\n      tag_382\n      jump\t// in\n    tag_397:\n        /* \"#utility.yul\":10953:11027   */\n      swap2\n      pop\n        /* \"#utility.yul\":11036:11129   */\n      tag_398\n        /* \"#utility.yul\":11125:11128   */\n      dup3\n        /* \"#utility.yul\":11036:11129   */\n      tag_399\n      jump\t// in\n    tag_398:\n        /* \"#utility.yul\":11154:11156   */\n      0x20\n        /* \"#utility.yul\":11149:11152   */\n      dup3\n        /* \"#utility.yul\":11145:11157   */\n      add\n        /* \"#utility.yul\":11138:11157   */\n      swap1\n      pop\n        /* \"#utility.yul\":10797:11163   */\n      swap2\n      swap1\n      pop\n      jump\t// out\n        /* \"#utility.yul\":11169:11535   */\n    tag_400:\n        /* \"#utility.yul\":11311:11314   */\n      0x00\n        /* \"#utility.yul\":11332:11399   */\n      tag_402\n        /* \"#utility.yul\":11396:11398   */\n      0x18\n        /* \"#utility.yul\":11391:11394   */\n      dup4\n        /* \"#utility.yul\":11332:11399   */\n      tag_382\n      jump\t// in\n    tag_402:\n        /* \"#utility.yul\":11325:11399   */\n      swap2\n      pop\n        /* \"#utility.yul\":11408:11501   */\n      tag_403\n        /* \"#utility.yul\":11497:11500   */\n      dup3\n        /* \"#utility.yul\":11408:11501   */\n      tag_404\n      jump\t// in\n    tag_403:\n        /* \"#utility.yul\":11526:11528   */\n      0x20\n        /* \"#utility.yul\":11521:11524   */\n      dup3\n        /* \"#utility.yul\":11517:11529   */\n      add\n        /* \"#utility.yul\":11510:11529   */\n      swap1\n      pop\n        /* \"#utility.yul\":11169:11535   */\n      swap2\n      swap1\n      pop\n      jump\t// out\n        /* \"#utility.yul\":11541:11907   */\n    tag_405:\n        /* \"#utility.yul\":11683:11686   */\n      0x00\n        /* \"#utility.yul\":11704:11771   */\n      tag_407\n        /* \"#utility.yul\":11768:11770   */\n      0x14\n        /* \"#utility.yul\":11763:11766   */\n      dup4\n        /* \"#utility.yul\":11704:11771   */\n      tag_382\n      jump\t// in\n    tag_407:\n        /* \"#utility.yul\":11697:11771   */\n      swap2\n      pop\n        /* \"#utility.yul\":11780:11873   */\n      tag_408\n        /* \"#utility.yul\":11869:11872   */\n      dup3\n        /* \"#utility.yul\":11780:11873   */\n      tag_409\n      jump\t// in\n    tag_408:\n        /* \"#utility.yul\":11898:11900   */\n      0x20\n        /* \"#utility.yul\":11893:11896   */\n      dup3\n        /* \"#utility.yul\":11889:11901   */\n      add\n        /* \"#utility.yul\":11882:11901   */\n      swap1\n      pop\n        /* \"#utility.yul\":11541:11907   */\n      swap2\n      swap1\n      pop\n      jump\t// out\n        /* \"#utility.yul\":11913:12279   */\n    tag_410:\n        /* \"#utility.yul\":12055:12058   */\n      0x00\n        /* \"#utility.yul\":12076:12143   */\n      tag_412\n        /* \"#utility.yul\":12140:12142   */\n      0x0e\n        /* \"#utility.yul\":12135:12138   */\n      dup4\n        /* \"#utility.yul\":12076:12143   */\n      tag_382\n      jump\t// in\n    tag_412:\n        /* \"#utility.yul\":12069:12143   */\n      swap2\n      pop\n        /* \"#utility.yul\":12152:12245   */\n      tag_413\n        /* \"#utility.yul\":12241:12244   */\n      dup3\n        /* \"#utility.yul\":12152:12245   */\n      tag_414\n      jump\t// in\n    tag_413:\n        /* \"#utility.yul\":12270:12272   */\n      0x20\n        /* \"#utility.yul\":12265:12268   */\n      dup3\n        /* \"#utility.yul\":12261:12273   */\n      add\n        /* \"#utility.yul\":12254:12273   */\n      swap1\n      pop\n        /* \"#utility.yul\":11913:12279   */\n      swap2\n      swap1\n      pop\n      jump\t// out\n        /* \"#utility.yul\":12285:12647   */\n    tag_415:\n        /* \"#utility.yul\":12426:12429   */\n      0x00\n        /* \"#utility.yul\":12447:12512   */\n      tag_417\n        /* \"#utility.yul\":12510:12511   */\n      0x00\n        /* \"#utility.yul\":12505:12508   */\n      dup4\n        /* \"#utility.yul\":12447:12512   */\n      tag_365\n      jump\t// in\n    tag_417:\n        /* \"#utility.yul\":12440:12512   */\n      swap2\n      pop\n        /* \"#utility.yul\":12521:12614   */\n      tag_418\n        /* \"#utility.yul\":12610:12613   */\n      dup3\n        /* \"#utility.yul\":12521:12614   */\n      tag_419\n      jump\t// in\n    tag_418:\n        /* \"#utility.yul\":12639:12640   */\n      0x00\n        /* \"#utility.yul\":12634:12637   */\n      dup3\n        /* \"#utility.yul\":12630:12641   */\n      add\n        /* \"#utility.yul\":12623:12641   */\n      swap1\n      pop\n        /* \"#utility.yul\":12285:12647   */\n      swap2\n      swap1\n      pop\n      jump\t// out\n        /* \"#utility.yul\":12653:13019   */\n    tag_420:\n        /* \"#utility.yul\":12795:12798   */\n      0x00\n        /* \"#utility.yul\":12816:12883   */\n      tag_422\n        /* \"#utility.yul\":12880:12882   */\n      0x0d\n        /* \"#utility.yul\":12875:12878   */\n      dup4\n        /* \"#utility.yul\":12816:12883   */\n      tag_382\n      jump\t// in\n    tag_422:\n        /* \"#utility.yul\":12809:12883   */\n      swap2\n      pop\n        /* \"#utility.yul\":12892:12985   */\n      tag_423\n        /* \"#utility.yul\":12981:12984   */\n      dup3\n        /* \"#utility.yul\":12892:12985   */\n      tag_424\n      jump\t// in\n    tag_423:\n        /* \"#utility.yul\":13010:13012   */\n      0x20\n        /* \"#utility.yul\":13005:13008   */\n      dup3\n        /* \"#utility.yul\":13001:13013   */\n      add\n        /* \"#utility.yul\":12994:13013   */\n      swap1\n      pop\n        /* \"#utility.yul\":12653:13019   */\n      swap2\n      swap1\n      pop\n      jump\t// out\n        /* \"#utility.yul\":13025:13391   */\n    tag_425:\n        /* \"#utility.yul\":13167:13170   */\n      0x00\n        /* \"#utility.yul\":13188:13255   */\n      tag_427\n        /* \"#utility.yul\":13252:13254   */\n      0x24\n        /* \"#utility.yul\":13247:13250   */\n      dup4\n        /* \"#utility.yul\":13188:13255   */\n      tag_382\n      jump\t// in\n    tag_427:\n        /* \"#utility.yul\":13181:13255   */\n      swap2\n      pop\n        /* \"#utility.yul\":13264:13357   */\n      tag_428\n        /* \"#utility.yul\":13353:13356   */\n      dup3\n        /* \"#utility.yul\":13264:13357   */\n      tag_429\n      jump\t// in\n    tag_428:\n        /* \"#utility.yul\":13382:13384   */\n      0x40\n        /* \"#utility.yul\":13377:13380   */\n      dup3\n        /* \"#utility.yul\":13373:13385   */\n      add\n        /* \"#utility.yul\":13366:13385   */\n      swap1\n      pop\n        /* \"#utility.yul\":13025:13391   */\n      swap2\n      swap1\n      pop\n      jump\t// out\n        /* \"#utility.yul\":13397:13763   */\n    tag_430:\n        /* \"#utility.yul\":13539:13542   */\n      0x00\n        /* \"#utility.yul\":13560:13627   */\n      tag_432\n        /* \"#utility.yul\":13624:13626   */\n      0x0e\n        /* \"#utility.yul\":13619:13622   */\n      dup4\n        /* \"#utility.yul\":13560:13627   */\n      tag_382\n      jump\t// in\n    tag_432:\n        /* \"#utility.yul\":13553:13627   */\n      swap2\n      pop\n        /* \"#utility.yul\":13636:13729   */\n      tag_433\n        /* \"#utility.yul\":13725:13728   */\n      dup3\n        /* \"#utility.yul\":13636:13729   */\n      tag_434\n      jump\t// in\n    tag_433:\n        /* \"#utility.yul\":13754:13756   */\n      0x20\n        /* \"#utility.yul\":13749:13752   */\n      dup3\n        /* \"#utility.yul\":13745:13757   */\n      add\n        /* \"#utility.yul\":13738:13757   */\n      swap1\n      pop\n        /* \"#utility.yul\":13397:13763   */\n      swap2\n      swap1\n      pop\n      jump\t// out\n        /* \"#utility.yul\":13835:14434   */\n    tag_337:\n        /* \"#utility.yul\":13940:13943   */\n      0x00\n        /* \"#utility.yul\":13976:13980   */\n      0x40\n        /* \"#utility.yul\":13971:13974   */\n      dup4\n        /* \"#utility.yul\":13967:13981   */\n      add\n        /* \"#utility.yul\":14066:14070   */\n      0x00\n        /* \"#utility.yul\":14059:14064   */\n      dup4\n        /* \"#utility.yul\":14055:14071   */\n      add\n        /* \"#utility.yul\":14049:14072   */\n      mload\n        /* \"#utility.yul\":14085:14148   */\n      tag_436\n        /* \"#utility.yul\":14142:14146   */\n      0x00\n        /* \"#utility.yul\":14137:14140   */\n      dup7\n        /* \"#utility.yul\":14133:14147   */\n      add\n        /* \"#utility.yul\":14119:14131   */\n      dup3\n        /* \"#utility.yul\":14085:14148   */\n      tag_437\n      jump\t// in\n    tag_436:\n        /* \"#utility.yul\":13991:14158   */\n      pop\n        /* \"#utility.yul\":14244:14248   */\n      0x20\n        /* \"#utility.yul\":14237:14242   */\n      dup4\n        /* \"#utility.yul\":14233:14249   */\n      add\n        /* \"#utility.yul\":14227:14250   */\n      mload\n        /* \"#utility.yul\":14297:14300   */\n      dup5\n        /* \"#utility.yul\":14291:14295   */\n      dup3\n        /* \"#utility.yul\":14287:14301   */\n      sub\n        /* \"#utility.yul\":14280:14284   */\n      0x20\n        /* \"#utility.yul\":14275:14278   */\n      dup7\n        /* \"#utility.yul\":14271:14285   */\n      add\n        /* \"#utility.yul\":14264:14302   */\n      mstore\n        /* \"#utility.yul\":14323:14396   */\n      tag_438\n        /* \"#utility.yul\":14391:14395   */\n      dup3\n        /* \"#utility.yul\":14377:14389   */\n      dup3\n        /* \"#utility.yul\":14323:14396   */\n      tag_370\n      jump\t// in\n    tag_438:\n        /* \"#utility.yul\":14315:14396   */\n      swap2\n      pop\n        /* \"#utility.yul\":14168:14407   */\n      pop\n        /* \"#utility.yul\":14424:14428   */\n      dup1\n        /* \"#utility.yul\":14417:14428   */\n      swap2\n      pop\n        /* \"#utility.yul\":13945:14434   */\n      pop\n        /* \"#utility.yul\":13835:14434   */\n      swap3\n      swap2\n      pop\n      pop\n      jump\t// out\n        /* \"#utility.yul\":14440:14548   */\n    tag_437:\n        /* \"#utility.yul\":14517:14541   */\n      tag_440\n        /* \"#utility.yul\":14535:14540   */\n      dup2\n        /* \"#utility.yul\":14517:14541   */\n      tag_441\n      jump\t// in\n    tag_440:\n        /* \"#utility.yul\":14512:14515   */\n      dup3\n        /* \"#utility.yul\":14505:14542   */\n      mstore\n        /* \"#utility.yul\":14440:14548   */\n      pop\n      pop\n      jump\t// out\n        /* \"#utility.yul\":14554:14672   */\n    tag_442:\n        /* \"#utility.yul\":14641:14665   */\n      tag_444\n        /* \"#utility.yul\":14659:14664   */\n      dup2\n        /* \"#utility.yul\":14641:14665   */\n      tag_441\n      jump\t// in\n    tag_444:\n        /* \"#utility.yul\":14636:14639   */\n      dup3\n        /* \"#utility.yul\":14629:14666   */\n      mstore\n        /* \"#utility.yul\":14554:14672   */\n      pop\n      pop\n      jump\t// out\n        /* \"#utility.yul\":14678:14900   */\n    tag_36:\n        /* \"#utility.yul\":14771:14775   */\n      0x00\n        /* \"#utility.yul\":14809:14811   */\n      0x20\n        /* \"#utility.yul\":14798:14807   */\n      dup3\n        /* \"#utility.yul\":14794:14812   */\n      add\n        /* \"#utility.yul\":14786:14812   */\n      swap1\n      pop\n        /* \"#utility.yul\":14822:14893   */\n      tag_446\n        /* \"#utility.yul\":14890:14891   */\n      0x00\n        /* \"#utility.yul\":14879:14888   */\n      dup4\n        /* \"#utility.yul\":14875:14892   */\n      add\n        /* \"#utility.yul\":14866:14872   */\n      dup5\n        /* \"#utility.yul\":14822:14893   */\n      tag_338\n      jump\t// in\n    tag_446:\n        /* \"#utility.yul\":14678:14900   */\n      swap3\n      swap2\n      pop\n      pop\n      jump\t// out\n        /* \"#utility.yul\":14906:15546   */\n    tag_195:\n        /* \"#utility.yul\":15101:15105   */\n      0x00\n        /* \"#utility.yul\":15139:15142   */\n      0x80\n        /* \"#utility.yul\":15128:15137   */\n      dup3\n        /* \"#utility.yul\":15124:15143   */\n      add\n        /* \"#utility.yul\":15116:15143   */\n      swap1\n      pop\n        /* \"#utility.yul\":15153:15224   */\n      tag_448\n        /* \"#utility.yul\":15221:15222   */\n      0x00\n        /* \"#utility.yul\":15210:15219   */\n      dup4\n        /* \"#utility.yul\":15206:15223   */\n      add\n        /* \"#utility.yul\":15197:15203   */\n      dup8\n        /* \"#utility.yul\":15153:15224   */\n      tag_338\n      jump\t// in\n    tag_448:\n        /* \"#utility.yul\":15234:15306   */\n      tag_449\n        /* \"#utility.yul\":15302:15304   */\n      0x20\n        /* \"#utility.yul\":15291:15300   */\n      dup4\n        /* \"#utility.yul\":15287:15305   */\n      add\n        /* \"#utility.yul\":15278:15284   */\n      dup7\n        /* \"#utility.yul\":15234:15306   */\n      tag_338\n      jump\t// in\n    tag_449:\n        /* \"#utility.yul\":15316:15388   */\n      tag_450\n        /* \"#utility.yul\":15384:15386   */\n      0x40\n        /* \"#utility.yul\":15373:15382   */\n      dup4\n        /* \"#utility.yul\":15369:15387   */\n      add\n        /* \"#utility.yul\":15360:15366   */\n      dup6\n        /* \"#utility.yul\":15316:15388   */\n      tag_442\n      jump\t// in\n    tag_450:\n        /* \"#utility.yul\":15435:15444   */\n      dup2\n        /* \"#utility.yul\":15429:15433   */\n      dup2\n        /* \"#utility.yul\":15425:15445   */\n      sub\n        /* \"#utility.yul\":15420:15422   */\n      0x60\n        /* \"#utility.yul\":15409:15418   */\n      dup4\n        /* \"#utility.yul\":15405:15423   */\n      add\n        /* \"#utility.yul\":15398:15446   */\n      mstore\n        /* \"#utility.yul\":15463:15539   */\n      tag_451\n        /* \"#utility.yul\":15534:15538   */\n      dup2\n        /* \"#utility.yul\":15525:15531   */\n      dup5\n        /* \"#utility.yul\":15463:15539   */\n      tag_360\n      jump\t// in\n    tag_451:\n        /* \"#utility.yul\":15455:15539   */\n      swap1\n      pop\n        /* \"#utility.yul\":14906:15546   */\n      swap6\n      swap5\n      pop\n      pop\n      pop\n      pop\n      pop\n      jump\t// out\n        /* \"#utility.yul\":15552:16300   */\n    tag_159:\n        /* \"#utility.yul\":15801:15805   */\n      0x00\n        /* \"#utility.yul\":15839:15842   */\n      0x80\n        /* \"#utility.yul\":15828:15837   */\n      dup3\n        /* \"#utility.yul\":15824:15843   */\n      add\n        /* \"#utility.yul\":15816:15843   */\n      swap1\n      pop\n        /* \"#utility.yul\":15853:15924   */\n      tag_453\n        /* \"#utility.yul\":15921:15922   */\n      0x00\n        /* \"#utility.yul\":15910:15919   */\n      dup4\n        /* \"#utility.yul\":15906:15923   */\n      add\n        /* \"#utility.yul\":15897:15903   */\n      dup7\n        /* \"#utility.yul\":15853:15924   */\n      tag_338\n      jump\t// in\n    tag_453:\n        /* \"#utility.yul\":15934:16006   */\n      tag_454\n        /* \"#utility.yul\":16002:16004   */\n      0x20\n        /* \"#utility.yul\":15991:16000   */\n      dup4\n        /* \"#utility.yul\":15987:16005   */\n      add\n        /* \"#utility.yul\":15978:15984   */\n      dup6\n        /* \"#utility.yul\":15934:16006   */\n      tag_338\n      jump\t// in\n    tag_454:\n        /* \"#utility.yul\":16016:16088   */\n      tag_455\n        /* \"#utility.yul\":16084:16086   */\n      0x40\n        /* \"#utility.yul\":16073:16082   */\n      dup4\n        /* \"#utility.yul\":16069:16087   */\n      add\n        /* \"#utility.yul\":16060:16066   */\n      dup5\n        /* \"#utility.yul\":16016:16088   */\n      tag_442\n      jump\t// in\n    tag_455:\n        /* \"#utility.yul\":16135:16144   */\n      dup2\n        /* \"#utility.yul\":16129:16133   */\n      dup2\n        /* \"#utility.yul\":16125:16145   */\n      sub\n        /* \"#utility.yul\":16120:16122   */\n      0x60\n        /* \"#utility.yul\":16109:16118   */\n      dup4\n        /* \"#utility.yul\":16105:16123   */\n      add\n        /* \"#utility.yul\":16098:16146   */\n      mstore\n        /* \"#utility.yul\":16163:16293   */\n      tag_456\n        /* \"#utility.yul\":16288:16292   */\n      dup2\n        /* \"#utility.yul\":16163:16293   */\n      tag_415\n      jump\t// in\n    tag_456:\n        /* \"#utility.yul\":16155:16293   */\n      swap1\n      pop\n        /* \"#utility.yul\":15552:16300   */\n      swap5\n      swap4\n      pop\n      pop\n      pop\n      pop\n      jump\t// out\n        /* \"#utility.yul\":16306:16771   */\n    tag_42:\n        /* \"#utility.yul\":16495:16499   */\n      0x00\n        /* \"#utility.yul\":16533:16535   */\n      0x20\n        /* \"#utility.yul\":16522:16531   */\n      dup3\n        /* \"#utility.yul\":16518:16536   */\n      add\n        /* \"#utility.yul\":16510:16536   */\n      swap1\n      pop\n        /* \"#utility.yul\":16582:16591   */\n      dup2\n        /* \"#utility.yul\":16576:16580   */\n      dup2\n        /* \"#utility.yul\":16572:16592   */\n      sub\n        /* \"#utility.yul\":16568:16569   */\n      0x00\n        /* \"#utility.yul\":16557:16566   */\n      dup4\n        /* \"#utility.yul\":16553:16570   */\n      add\n        /* \"#utility.yul\":16546:16593   */\n      mstore\n        /* \"#utility.yul\":16610:16764   */\n      tag_458\n        /* \"#utility.yul\":16759:16763   */\n      dup2\n        /* \"#utility.yul\":16750:16756   */\n      dup5\n        /* \"#utility.yul\":16610:16764   */\n      tag_342\n      jump\t// in\n    tag_458:\n        /* \"#utility.yul\":16602:16764   */\n      swap1\n      pop\n        /* \"#utility.yul\":16306:16771   */\n      swap3\n      swap2\n      pop\n      pop\n      jump\t// out\n        /* \"#utility.yul\":16777:16987   */\n    tag_26:\n        /* \"#utility.yul\":16864:16868   */\n      0x00\n        /* \"#utility.yul\":16902:16904   */\n      0x20\n        /* \"#utility.yul\":16891:16900   */\n      dup3\n        /* \"#utility.yul\":16887:16905   */\n      add\n        /* \"#utility.yul\":16879:16905   */\n      swap1\n      pop\n        /* \"#utility.yul\":16915:16980   */\n      tag_460\n        /* \"#utility.yul\":16977:16978   */\n      0x00\n        /* \"#utility.yul\":16966:16975   */\n      dup4\n        /* \"#utility.yul\":16962:16979   */\n      add\n        /* \"#utility.yul\":16953:16959   */\n      dup5\n        /* \"#utility.yul\":16915:16980   */\n      tag_356\n      jump\t// in\n    tag_460:\n        /* \"#utility.yul\":16777:16987   */\n      swap3\n      swap2\n      pop\n      pop\n      jump\t// out\n        /* \"#utility.yul\":16993:17306   */\n    tag_30:\n        /* \"#utility.yul\":17106:17110   */\n      0x00\n        /* \"#utility.yul\":17144:17146   */\n      0x20\n        /* \"#utility.yul\":17133:17142   */\n      dup3\n        /* \"#utility.yul\":17129:17147   */\n      add\n        /* \"#utility.yul\":17121:17147   */\n      swap1\n      pop\n        /* \"#utility.yul\":17193:17202   */\n      dup2\n        /* \"#utility.yul\":17187:17191   */\n      dup2\n        /* \"#utility.yul\":17183:17203   */\n      sub\n        /* \"#utility.yul\":17179:17180   */\n      0x00\n        /* \"#utility.yul\":17168:17177   */\n      dup4\n        /* \"#utility.yul\":17164:17181   */\n      add\n        /* \"#utility.yul\":17157:17204   */\n      mstore\n        /* \"#utility.yul\":17221:17299   */\n      tag_462\n        /* \"#utility.yul\":17294:17298   */\n      dup2\n        /* \"#utility.yul\":17285:17291   */\n      dup5\n        /* \"#utility.yul\":17221:17299   */\n      tag_378\n      jump\t// in\n    tag_462:\n        /* \"#utility.yul\":17213:17299   */\n      swap1\n      pop\n        /* \"#utility.yul\":16993:17306   */\n      swap3\n      swap2\n      pop\n      pop\n      jump\t// out\n        /* \"#utility.yul\":17312:17731   */\n    tag_167:\n        /* \"#utility.yul\":17478:17482   */\n      0x00\n        /* \"#utility.yul\":17516:17518   */\n      0x20\n        /* \"#utility.yul\":17505:17514   */\n      dup3\n        /* \"#utility.yul\":17501:17519   */\n      add\n        /* \"#utility.yul\":17493:17519   */\n      swap1\n      pop\n        /* \"#utility.yul\":17565:17574   */\n      dup2\n        /* \"#utility.yul\":17559:17563   */\n      dup2\n        /* \"#utility.yul\":17555:17575   */\n      sub\n        /* \"#utility.yul\":17551:17552   */\n      0x00\n        /* \"#utility.yul\":17540:17549   */\n      dup4\n        /* \"#utility.yul\":17536:17553   */\n      add\n        /* \"#utility.yul\":17529:17576   */\n      mstore\n        /* \"#utility.yul\":17593:17724   */\n      tag_464\n        /* \"#utility.yul\":17719:17723   */\n      dup2\n        /* \"#utility.yul\":17593:17724   */\n      tag_385\n      jump\t// in\n    tag_464:\n        /* \"#utility.yul\":17585:17724   */\n      swap1\n      pop\n        /* \"#utility.yul\":17312:17731   */\n      swap2\n      swap1\n      pop\n      jump\t// out\n        /* \"#utility.yul\":17737:18156   */\n    tag_214:\n        /* \"#utility.yul\":17903:17907   */\n      0x00\n        /* \"#utility.yul\":17941:17943   */\n      0x20\n        /* \"#utility.yul\":17930:17939   */\n      dup3\n        /* \"#utility.yul\":17926:17944   */\n      add\n        /* \"#utility.yul\":17918:17944   */\n      swap1\n      pop\n        /* \"#utility.yul\":17990:17999   */\n      dup2\n        /* \"#utility.yul\":17984:17988   */\n      dup2\n        /* \"#utility.yul\":17980:18000   */\n      sub\n        /* \"#utility.yul\":17976:17977   */\n      0x00\n        /* \"#utility.yul\":17965:17974   */\n      dup4\n        /* \"#utility.yul\":17961:17978   */\n      add\n        /* \"#utility.yul\":17954:18001   */\n      mstore\n        /* \"#utility.yul\":18018:18149   */\n      tag_466\n        /* \"#utility.yul\":18144:18148   */\n      dup2\n        /* \"#utility.yul\":18018:18149   */\n      tag_390\n      jump\t// in\n    tag_466:\n        /* \"#utility.yul\":18010:18149   */\n      swap1\n      pop\n        /* \"#utility.yul\":17737:18156   */\n      swap2\n      swap1\n      pop\n      jump\t// out\n        /* \"#utility.yul\":18162:18581   */\n    tag_101:\n        /* \"#utility.yul\":18328:18332   */\n      0x00\n        /* \"#utility.yul\":18366:18368   */\n      0x20\n        /* \"#utility.yul\":18355:18364   */\n      dup3\n        /* \"#utility.yul\":18351:18369   */\n      add\n        /* \"#utility.yul\":18343:18369   */\n      swap1\n      pop\n        /* \"#utility.yul\":18415:18424   */\n      dup2\n        /* \"#utility.yul\":18409:18413   */\n      dup2\n        /* \"#utility.yul\":18405:18425   */\n      sub\n        /* \"#utility.yul\":18401:18402   */\n      0x00\n        /* \"#utility.yul\":18390:18399   */\n      dup4\n        /* \"#utility.yul\":18386:18403   */\n      add\n        /* \"#utility.yul\":18379:18426   */\n      mstore\n        /* \"#utility.yul\":18443:18574   */\n      tag_468\n        /* \"#utility.yul\":18569:18573   */\n      dup2\n        /* \"#utility.yul\":18443:18574   */\n      tag_395\n      jump\t// in\n    tag_468:\n        /* \"#utility.yul\":18435:18574   */\n      swap1\n      pop\n        /* \"#utility.yul\":18162:18581   */\n      swap2\n      swap1\n      pop\n      jump\t// out\n        /* \"#utility.yul\":18587:19006   */\n    tag_147:\n        /* \"#utility.yul\":18753:18757   */\n      0x00\n        /* \"#utility.yul\":18791:18793   */\n      0x20\n        /* \"#utility.yul\":18780:18789   */\n      dup3\n        /* \"#utility.yul\":18776:18794   */\n      add\n        /* \"#utility.yul\":18768:18794   */\n      swap1\n      pop\n        /* \"#utility.yul\":18840:18849   */\n      dup2\n        /* \"#utility.yul\":18834:18838   */\n      dup2\n        /* \"#utility.yul\":18830:18850   */\n      sub\n        /* \"#utility.yul\":18826:18827   */\n      0x00\n        /* \"#utility.yul\":18815:18824   */\n      dup4\n        /* \"#utility.yul\":18811:18828   */\n      add\n        /* \"#utility.yul\":18804:18851   */\n      mstore\n        /* \"#utility.yul\":18868:18999   */\n      tag_470\n        /* \"#utility.yul\":18994:18998   */\n      dup2\n        /* \"#utility.yul\":18868:18999   */\n      tag_400\n      jump\t// in\n    tag_470:\n        /* \"#utility.yul\":18860:18999   */\n      swap1\n      pop\n        /* \"#utility.yul\":18587:19006   */\n      swap2\n      swap1\n      pop\n      jump\t// out\n        /* \"#utility.yul\":19012:19431   */\n    tag_174:\n        /* \"#utility.yul\":19178:19182   */\n      0x00\n        /* \"#utility.yul\":19216:19218   */\n      0x20\n        /* \"#utility.yul\":19205:19214   */\n      dup3\n        /* \"#utility.yul\":19201:19219   */\n      add\n        /* \"#utility.yul\":19193:19219   */\n      swap1\n      pop\n        /* \"#utility.yul\":19265:19274   */\n      dup2\n        /* \"#utility.yul\":19259:19263   */\n      dup2\n        /* \"#utility.yul\":19255:19275   */\n      sub\n        /* \"#utility.yul\":19251:19252   */\n      0x00\n        /* \"#utility.yul\":19240:19249   */\n      dup4\n        /* \"#utility.yul\":19236:19253   */\n      add\n        /* \"#utility.yul\":19229:19276   */\n      mstore\n        /* \"#utility.yul\":19293:19424   */\n      tag_472\n        /* \"#utility.yul\":19419:19423   */\n      dup2\n        /* \"#utility.yul\":19293:19424   */\n      tag_405\n      jump\t// in\n    tag_472:\n        /* \"#utility.yul\":19285:19424   */\n      swap1\n      pop\n        /* \"#utility.yul\":19012:19431   */\n      swap2\n      swap1\n      pop\n      jump\t// out\n        /* \"#utility.yul\":19437:19856   */\n    tag_140:\n        /* \"#utility.yul\":19603:19607   */\n      0x00\n        /* \"#utility.yul\":19641:19643   */\n      0x20\n        /* \"#utility.yul\":19630:19639   */\n      dup3\n        /* \"#utility.yul\":19626:19644   */\n      add\n        /* \"#utility.yul\":19618:19644   */\n      swap1\n      pop\n        /* \"#utility.yul\":19690:19699   */\n      dup2\n        /* \"#utility.yul\":19684:19688   */\n      dup2\n        /* \"#utility.yul\":19680:19700   */\n      sub\n        /* \"#utility.yul\":19676:19677   */\n      0x00\n        /* \"#utility.yul\":19665:19674   */\n      dup4\n        /* \"#utility.yul\":19661:19678   */\n      add\n        /* \"#utility.yul\":19654:19701   */\n      mstore\n        /* \"#utility.yul\":19718:19849   */\n      tag_474\n        /* \"#utility.yul\":19844:19848   */\n      dup2\n        /* \"#utility.yul\":19718:19849   */\n      tag_410\n      jump\t// in\n    tag_474:\n        /* \"#utility.yul\":19710:19849   */\n      swap1\n      pop\n        /* \"#utility.yul\":19437:19856   */\n      swap2\n      swap1\n      pop\n      jump\t// out\n        /* \"#utility.yul\":19862:20281   */\n    tag_144:\n        /* \"#utility.yul\":20028:20032   */\n      0x00\n        /* \"#utility.yul\":20066:20068   */\n      0x20\n        /* \"#utility.yul\":20055:20064   */\n      dup3\n        /* \"#utility.yul\":20051:20069   */\n      add\n        /* \"#utility.yul\":20043:20069   */\n      swap1\n      pop\n        /* \"#utility.yul\":20115:20124   */\n      dup2\n        /* \"#utility.yul\":20109:20113   */\n      dup2\n        /* \"#utility.yul\":20105:20125   */\n      sub\n        /* \"#utility.yul\":20101:20102   */\n      0x00\n        /* \"#utility.yul\":20090:20099   */\n      dup4\n        /* \"#utility.yul\":20086:20103   */\n      add\n        /* \"#utility.yul\":20079:20126   */\n      mstore\n        /* \"#utility.yul\":20143:20274   */\n      tag_476\n        /* \"#utility.yul\":20269:20273   */\n      dup2\n        /* \"#utility.yul\":20143:20274   */\n      tag_420\n      jump\t// in\n    tag_476:\n        /* \"#utility.yul\":20135:20274   */\n      swap1\n      pop\n        /* \"#utility.yul\":19862:20281   */\n      swap2\n      swap1\n      pop\n      jump\t// out\n        /* \"#utility.yul\":20287:20706   */\n    tag_108:\n        /* \"#utility.yul\":20453:20457   */\n      0x00\n        /* \"#utility.yul\":20491:20493   */\n      0x20\n        /* \"#utility.yul\":20480:20489   */\n      dup3\n        /* \"#utility.yul\":20476:20494   */\n      add\n        /* \"#utility.yul\":20468:20494   */\n      swap1\n      pop\n        /* \"#utility.yul\":20540:20549   */\n      dup2\n        /* \"#utility.yul\":20534:20538   */\n      dup2\n        /* \"#utility.yul\":20530:20550   */\n      sub\n        /* \"#utility.yul\":20526:20527   */\n      0x00\n        /* \"#utility.yul\":20515:20524   */\n      dup4\n        /* \"#utility.yul\":20511:20528   */\n      add\n        /* \"#utility.yul\":20504:20551   */\n      mstore\n        /* \"#utility.yul\":20568:20699   */\n      tag_478\n        /* \"#utility.yul\":20694:20698   */\n      dup2\n        /* \"#utility.yul\":20568:20699   */\n      tag_425\n      jump\t// in\n    tag_478:\n        /* \"#utility.yul\":20560:20699   */\n      swap1\n      pop\n        /* \"#utility.yul\":20287:20706   */\n      swap2\n      swap1\n      pop\n      jump\t// out\n        /* \"#utility.yul\":20712:21131   */\n    tag_217:\n        /* \"#utility.yul\":20878:20882   */\n      0x00\n        /* \"#utility.yul\":20916:20918   */\n      0x20\n        /* \"#utility.yul\":20905:20914   */\n      dup3\n        /* \"#utility.yul\":20901:20919   */\n      add\n        /* \"#utility.yul\":20893:20919   */\n      swap1\n      pop\n        /* \"#utility.yul\":20965:20974   */\n      dup2\n        /* \"#utility.yul\":20959:20963   */\n      dup2\n        /* \"#utility.yul\":20955:20975   */\n      sub\n        /* \"#utility.yul\":20951:20952   */\n      0x00\n        /* \"#utility.yul\":20940:20949   */\n      dup4\n        /* \"#utility.yul\":20936:20953   */\n      add\n        /* \"#utility.yul\":20929:20976   */\n      mstore\n        /* \"#utility.yul\":20993:21124   */\n      tag_480\n        /* \"#utility.yul\":21119:21123   */\n      dup2\n        /* \"#utility.yul\":20993:21124   */\n      tag_430\n      jump\t// in\n    tag_480:\n        /* \"#utility.yul\":20985:21124   */\n      swap1\n      pop\n        /* \"#utility.yul\":20712:21131   */\n      swap2\n      swap1\n      pop\n      jump\t// out\n        /* \"#utility.yul\":21137:21359   */\n    tag_62:\n        /* \"#utility.yul\":21230:21234   */\n      0x00\n        /* \"#utility.yul\":21268:21270   */\n      0x20\n        /* \"#utility.yul\":21257:21266   */\n      dup3\n        /* \"#utility.yul\":21253:21271   */\n      add\n        /* \"#utility.yul\":21245:21271   */\n      swap1\n      pop\n        /* \"#utility.yul\":21281:21352   */\n      tag_482\n        /* \"#utility.yul\":21349:21350   */\n      0x00\n        /* \"#utility.yul\":21338:21347   */\n      dup4\n        /* \"#utility.yul\":21334:21351   */\n      add\n        /* \"#utility.yul\":21325:21331   */\n      dup5\n        /* \"#utility.yul\":21281:21352   */\n      tag_442\n      jump\t// in\n    tag_482:\n        /* \"#utility.yul\":21137:21359   */\n      swap3\n      swap2\n      pop\n      pop\n      jump\t// out\n        /* \"#utility.yul\":21365:21494   */\n    tag_235:\n        /* \"#utility.yul\":21399:21405   */\n      0x00\n        /* \"#utility.yul\":21426:21446   */\n      tag_484\n      tag_485\n      jump\t// in\n    tag_484:\n        /* \"#utility.yul\":21416:21446   */\n      swap1\n      pop\n        /* \"#utility.yul\":21455:21488   */\n      tag_486\n        /* \"#utility.yul\":21483:21487   */\n      dup3\n        /* \"#utility.yul\":21475:21481   */\n      dup3\n        /* \"#utility.yul\":21455:21488   */\n      tag_487\n      jump\t// in\n    tag_486:\n        /* \"#utility.yul\":21365:21494   */\n      swap2\n      swap1\n      pop\n      jump\t// out\n        /* \"#utility.yul\":21500:21575   */\n    tag_485:\n        /* \"#utility.yul\":21533:21539   */\n      0x00\n        /* \"#utility.yul\":21566:21568   */\n      0x40\n        /* \"#utility.yul\":21560:21569   */\n      mload\n        /* \"#utility.yul\":21550:21569   */\n      swap1\n      pop\n        /* \"#utility.yul\":21500:21575   */\n      swap1\n      jump\t// out\n        /* \"#utility.yul\":21581:21888   */\n    tag_234:\n        /* \"#utility.yul\":21642:21646   */\n      0x00\n        /* \"#utility.yul\":21732:21750   */\n      0xffffffffffffffff\n        /* \"#utility.yul\":21724:21730   */\n      dup3\n        /* \"#utility.yul\":21721:21751   */\n      gt\n        /* \"#utility.yul\":21718:21774   */\n      iszero\n      tag_490\n      jumpi\n        /* \"#utility.yul\":21754:21772   */\n      tag_491\n      tag_112\n      jump\t// in\n    tag_491:\n        /* \"#utility.yul\":21718:21774   */\n    tag_490:\n        /* \"#utility.yul\":21792:21821   */\n      tag_492\n        /* \"#utility.yul\":21814:21820   */\n      dup3\n        /* \"#utility.yul\":21792:21821   */\n      tag_369\n      jump\t// in\n    tag_492:\n        /* \"#utility.yul\":21784:21821   */\n      swap1\n      pop\n        /* \"#utility.yul\":21876:21880   */\n      0x20\n        /* \"#utility.yul\":21870:21874   */\n      dup2\n        /* \"#utility.yul\":21866:21881   */\n      add\n        /* \"#utility.yul\":21858:21881   */\n      swap1\n      pop\n        /* \"#utility.yul\":21581:21888   */\n      swap2\n      swap1\n      pop\n      jump\t// out\n        /* \"#utility.yul\":21894:22202   */\n    tag_245:\n        /* \"#utility.yul\":21956:21960   */\n      0x00\n        /* \"#utility.yul\":22046:22064   */\n      0xffffffffffffffff\n        /* \"#utility.yul\":22038:22044   */\n      dup3\n        /* \"#utility.yul\":22035:22065   */\n      gt\n        /* \"#utility.yul\":22032:22088   */\n      iszero\n      tag_494\n      jumpi\n        /* \"#utility.yul\":22068:22086   */\n      tag_495\n      tag_112\n      jump\t// in\n    tag_495:\n        /* \"#utility.yul\":22032:22088   */\n    tag_494:\n        /* \"#utility.yul\":22106:22135   */\n      tag_496\n        /* \"#utility.yul\":22128:22134   */\n      dup3\n        /* \"#utility.yul\":22106:22135   */\n      tag_369\n      jump\t// in\n    tag_496:\n        /* \"#utility.yul\":22098:22135   */\n      swap1\n      pop\n        /* \"#utility.yul\":22190:22194   */\n      0x20\n        /* \"#utility.yul\":22184:22188   */\n      dup2\n        /* \"#utility.yul\":22180:22195   */\n      add\n        /* \"#utility.yul\":22172:22195   */\n      swap1\n      pop\n        /* \"#utility.yul\":21894:22202   */\n      swap2\n      swap1\n      pop\n      jump\t// out\n        /* \"#utility.yul\":22208:22363   */\n    tag_349:\n        /* \"#utility.yul\":22298:22302   */\n      0x00\n        /* \"#utility.yul\":22321:22324   */\n      dup2\n        /* \"#utility.yul\":22313:22324   */\n      swap1\n      pop\n        /* \"#utility.yul\":22351:22355   */\n      0x20\n        /* \"#utility.yul\":22346:22349   */\n      dup3\n        /* \"#utility.yul\":22342:22356   */\n      add\n        /* \"#utility.yul\":22334:22356   */\n      swap1\n      pop\n        /* \"#utility.yul\":22208:22363   */\n      swap2\n      swap1\n      pop\n      jump\t// out\n        /* \"#utility.yul\":22369:22506   */\n    tag_345:\n        /* \"#utility.yul\":22459:22465   */\n      0x00\n        /* \"#utility.yul\":22493:22498   */\n      dup2\n        /* \"#utility.yul\":22487:22499   */\n      mload\n        /* \"#utility.yul\":22477:22499   */\n      swap1\n      pop\n        /* \"#utility.yul\":22369:22506   */\n      swap2\n      swap1\n      pop\n      jump\t// out\n        /* \"#utility.yul\":22512:22610   */\n    tag_363:\n        /* \"#utility.yul\":22563:22569   */\n      0x00\n        /* \"#utility.yul\":22597:22602   */\n      dup2\n        /* \"#utility.yul\":22591:22603   */\n      mload\n        /* \"#utility.yul\":22581:22603   */\n      swap1\n      pop\n        /* \"#utility.yul\":22512:22610   */\n      swap2\n      swap1\n      pop\n      jump\t// out\n        /* \"#utility.yul\":22616:22715   */\n    tag_373:\n        /* \"#utility.yul\":22668:22674   */\n      0x00\n        /* \"#utility.yul\":22702:22707   */\n      dup2\n        /* \"#utility.yul\":22696:22708   */\n      mload\n        /* \"#utility.yul\":22686:22708   */\n      swap1\n      pop\n        /* \"#utility.yul\":22616:22715   */\n      swap2\n      swap1\n      pop\n      jump\t// out\n        /* \"#utility.yul\":22721:22857   */\n    tag_355:\n        /* \"#utility.yul\":22814:22818   */\n      0x00\n        /* \"#utility.yul\":22846:22850   */\n      0x20\n        /* \"#utility.yul\":22841:22844   */\n      dup3\n        /* \"#utility.yul\":22837:22851   */\n      add\n        /* \"#utility.yul\":22829:22851   */\n      swap1\n      pop\n        /* \"#utility.yul\":22721:22857   */\n      swap2\n      swap1\n      pop\n      jump\t// out\n        /* \"#utility.yul\":22863:23070   */\n    tag_347:\n        /* \"#utility.yul\":22985:22996   */\n      0x00\n        /* \"#utility.yul\":23019:23025   */\n      dup3\n        /* \"#utility.yul\":23014:23017   */\n      dup3\n        /* \"#utility.yul\":23007:23026   */\n      mstore\n        /* \"#utility.yul\":23059:23063   */\n      0x20\n        /* \"#utility.yul\":23054:23057   */\n      dup3\n        /* \"#utility.yul\":23050:23064   */\n      add\n        /* \"#utility.yul\":23035:23064   */\n      swap1\n      pop\n        /* \"#utility.yul\":22863:23070   */\n      swap3\n      swap2\n      pop\n      pop\n      jump\t// out\n        /* \"#utility.yul\":23076:23244   */\n    tag_365:\n        /* \"#utility.yul\":23159:23170   */\n      0x00\n        /* \"#utility.yul\":23193:23199   */\n      dup3\n        /* \"#utility.yul\":23188:23191   */\n      dup3\n        /* \"#utility.yul\":23181:23200   */\n      mstore\n        /* \"#utility.yul\":23233:23237   */\n      0x20\n        /* \"#utility.yul\":23228:23231   */\n      dup3\n        /* \"#utility.yul\":23224:23238   */\n      add\n        /* \"#utility.yul\":23209:23238   */\n      swap1\n      pop\n        /* \"#utility.yul\":23076:23244   */\n      swap3\n      swap2\n      pop\n      pop\n      jump\t// out\n        /* \"#utility.yul\":23250:23409   */\n    tag_375:\n        /* \"#utility.yul\":23324:23335   */\n      0x00\n        /* \"#utility.yul\":23358:23364   */\n      dup3\n        /* \"#utility.yul\":23353:23356   */\n      dup3\n        /* \"#utility.yul\":23346:23365   */\n      mstore\n        /* \"#utility.yul\":23398:23402   */\n      0x20\n        /* \"#utility.yul\":23393:23396   */\n      dup3\n        /* \"#utility.yul\":23389:23403   */\n      add\n        /* \"#utility.yul\":23374:23403   */\n      swap1\n      pop\n        /* \"#utility.yul\":23250:23409   */\n      swap3\n      swap2\n      pop\n      pop\n      jump\t// out\n        /* \"#utility.yul\":23415:23584   */\n    tag_382:\n        /* \"#utility.yul\":23499:23510   */\n      0x00\n        /* \"#utility.yul\":23533:23539   */\n      dup3\n        /* \"#utility.yul\":23528:23531   */\n      dup3\n        /* \"#utility.yul\":23521:23540   */\n      mstore\n        /* \"#utility.yul\":23573:23577   */\n      0x20\n        /* \"#utility.yul\":23568:23571   */\n      dup3\n        /* \"#utility.yul\":23564:23578   */\n      add\n        /* \"#utility.yul\":23549:23578   */\n      swap1\n      pop\n        /* \"#utility.yul\":23415:23584   */\n      swap3\n      swap2\n      pop\n      pop\n      jump\t// out\n        /* \"#utility.yul\":23590:23895   */\n    tag_133:\n        /* \"#utility.yul\":23630:23633   */\n      0x00\n        /* \"#utility.yul\":23649:23669   */\n      tag_507\n        /* \"#utility.yul\":23667:23668   */\n      dup3\n        /* \"#utility.yul\":23649:23669   */\n      tag_441\n      jump\t// in\n    tag_507:\n        /* \"#utility.yul\":23644:23669   */\n      swap2\n      pop\n        /* \"#utility.yul\":23683:23703   */\n      tag_508\n        /* \"#utility.yul\":23701:23702   */\n      dup4\n        /* \"#utility.yul\":23683:23703   */\n      tag_441\n      jump\t// in\n    tag_508:\n        /* \"#utility.yul\":23678:23703   */\n      swap3\n      pop\n        /* \"#utility.yul\":23837:23838   */\n      dup3\n        /* \"#utility.yul\":23769:23835   */\n      0xffffffffffffffffffffffffffffffffffffffffffffffffffffffffffffffff\n        /* \"#utility.yul\":23765:23839   */\n      sub\n        /* \"#utility.yul\":23762:23763   */\n      dup3\n        /* \"#utility.yul\":23759:23840   */\n      gt\n        /* \"#utility.yul\":23756:23863   */\n      iszero\n      tag_509\n      jumpi\n        /* \"#utility.yul\":23843:23861   */\n      tag_510\n      tag_511\n      jump\t// in\n    tag_510:\n        /* \"#utility.yul\":23756:23863   */\n    tag_509:\n        /* \"#utility.yul\":23887:23888   */\n      dup3\n        /* \"#utility.yul\":23884:23885   */\n      dup3\n        /* \"#utility.yul\":23880:23889   */\n      add\n        /* \"#utility.yul\":23873:23889   */\n      swap1\n      pop\n        /* \"#utility.yul\":23590:23895   */\n      swap3\n      swap2\n      pop\n      pop\n      jump\t// out\n        /* \"#utility.yul\":23901:23997   */\n    tag_341:\n        /* \"#utility.yul\":23938:23945   */\n      0x00\n        /* \"#utility.yul\":23967:23991   */\n      tag_513\n        /* \"#utility.yul\":23985:23990   */\n      dup3\n        /* \"#utility.yul\":23967:23991   */\n      tag_514\n      jump\t// in\n    tag_513:\n        /* \"#utility.yul\":23956:23991   */\n      swap1\n      pop\n        /* \"#utility.yul\":23901:23997   */\n      swap2\n      swap1\n      pop\n      jump\t// out\n        /* \"#utility.yul\":24003:24093   */\n    tag_359:\n        /* \"#utility.yul\":24037:24044   */\n      0x00\n        /* \"#utility.yul\":24080:24085   */\n      dup2\n        /* \"#utility.yul\":24073:24086   */\n      iszero\n        /* \"#utility.yul\":24066:24087   */\n      iszero\n        /* \"#utility.yul\":24055:24087   */\n      swap1\n      pop\n        /* \"#utility.yul\":24003:24093   */\n      swap2\n      swap1\n      pop\n      jump\t// out\n        /* \"#utility.yul\":24099:24248   */\n    tag_516:\n        /* \"#utility.yul\":24135:24142   */\n      0x00\n        /* \"#utility.yul\":24175:24241   */\n      0xffffffff00000000000000000000000000000000000000000000000000000000\n        /* \"#utility.yul\":24168:24173   */\n      dup3\n        /* \"#utility.yul\":24164:24242   */\n      and\n        /* \"#utility.yul\":24153:24242   */\n      swap1\n      pop\n        /* \"#utility.yul\":24099:24248   */\n      swap2\n      swap1\n      pop\n      jump\t// out\n        /* \"#utility.yul\":24254:24380   */\n    tag_514:\n        /* \"#utility.yul\":24291:24298   */\n      0x00\n        /* \"#utility.yul\":24331:24373   */\n      0xffffffffffffffffffffffffffffffffffffffff\n        /* \"#utility.yul\":24324:24329   */\n      dup3\n        /* \"#utility.yul\":24320:24374   */\n      and\n        /* \"#utility.yul\":24309:24374   */\n      swap1\n      pop\n        /* \"#utility.yul\":24254:24380   */\n      swap2\n      swap1\n      pop\n      jump\t// out\n        /* \"#utility.yul\":24386:24463   */\n    tag_441:\n        /* \"#utility.yul\":24423:24430   */\n      0x00\n        /* \"#utility.yul\":24452:24457   */\n      dup2\n        /* \"#utility.yul\":24441:24457   */\n      swap1\n      pop\n        /* \"#utility.yul\":24386:24463   */\n      swap2\n      swap1\n      pop\n      jump\t// out\n        /* \"#utility.yul\":24469:24623   */\n    tag_240:\n        /* \"#utility.yul\":24553:24559   */\n      dup3\n        /* \"#utility.yul\":24548:24551   */\n      dup2\n        /* \"#utility.yul\":24543:24546   */\n      dup4\n        /* \"#utility.yul\":24530:24560   */\n      calldatacopy\n        /* \"#utility.yul\":24615:24616   */\n      0x00\n        /* \"#utility.yul\":24606:24612   */\n      dup4\n        /* \"#utility.yul\":24601:24604   */\n      dup4\n        /* \"#utility.yul\":24597:24613   */\n      add\n        /* \"#utility.yul\":24590:24617   */\n      mstore\n        /* \"#utility.yul\":24469:24623   */\n      pop\n      pop\n      pop\n      jump\t// out\n        /* \"#utility.yul\":24629:24936   */\n    tag_367:\n        /* \"#utility.yul\":24697:24698   */\n      0x00\n        /* \"#utility.yul\":24707:24820   */\n    tag_522:\n        /* \"#utility.yul\":24721:24727   */\n      dup4\n        /* \"#utility.yul\":24718:24719   */\n      dup2\n        /* \"#utility.yul\":24715:24728   */\n      lt\n        /* \"#utility.yul\":24707:24820   */\n      iszero\n      tag_524\n      jumpi\n        /* \"#utility.yul\":24806:24807   */\n      dup1\n        /* \"#utility.yul\":24801:24804   */\n      dup3\n        /* \"#utility.yul\":24797:24808   */\n      add\n        /* \"#utility.yul\":24791:24809   */\n      mload\n        /* \"#utility.yul\":24787:24788   */\n      dup2\n        /* \"#utility.yul\":24782:24785   */\n      dup5\n        /* \"#utility.yul\":24778:24789   */\n      add\n        /* \"#utility.yul\":24771:24810   */\n      mstore\n        /* \"#utility.yul\":24743:24745   */\n      0x20\n        /* \"#utility.yul\":24740:24741   */\n      dup2\n        /* \"#utility.yul\":24736:24746   */\n      add\n        /* \"#utility.yul\":24731:24746   */\n      swap1\n      pop\n        /* \"#utility.yul\":24707:24820   */\n      jump(tag_522)\n    tag_524:\n        /* \"#utility.yul\":24838:24844   */\n      dup4\n        /* \"#utility.yul\":24835:24836   */\n      dup2\n        /* \"#utility.yul\":24832:24845   */\n      gt\n        /* \"#utility.yul\":24829:24930   */\n      iszero\n      tag_525\n      jumpi\n        /* \"#utility.yul\":24918:24919   */\n      0x00\n        /* \"#utility.yul\":24909:24915   */\n      dup5\n        /* \"#utility.yul\":24904:24907   */\n      dup5\n        /* \"#utility.yul\":24900:24916   */\n      add\n        /* \"#utility.yul\":24893:24920   */\n      mstore\n        /* \"#utility.yul\":24829:24930   */\n    tag_525:\n        /* \"#utility.yul\":24678:24936   */\n      pop\n        /* \"#utility.yul\":24629:24936   */\n      pop\n      pop\n      pop\n      jump\t// out\n        /* \"#utility.yul\":24942:25113   */\n    tag_153:\n        /* \"#utility.yul\":24981:24984   */\n      0x00\n        /* \"#utility.yul\":25004:25028   */\n      tag_527\n        /* \"#utility.yul\":25022:25027   */\n      dup3\n        /* \"#utility.yul\":25004:25028   */\n      tag_441\n      jump\t// in\n    tag_527:\n        /* \"#utility.yul\":24995:25028   */\n      swap2\n      pop\n        /* \"#utility.yul\":25050:25054   */\n      0x00\n        /* \"#utility.yul\":25043:25048   */\n      dup3\n        /* \"#utility.yul\":25040:25055   */\n      eq\n        /* \"#utility.yul\":25037:25078   */\n      iszero\n      tag_528\n      jumpi\n        /* \"#utility.yul\":25058:25076   */\n      tag_529\n      tag_511\n      jump\t// in\n    tag_529:\n        /* \"#utility.yul\":25037:25078   */\n    tag_528:\n        /* \"#utility.yul\":25105:25106   */\n      0x01\n        /* \"#utility.yul\":25098:25103   */\n      dup3\n        /* \"#utility.yul\":25094:25107   */\n      sub\n        /* \"#utility.yul\":25087:25107   */\n      swap1\n      pop\n        /* \"#utility.yul\":24942:25113   */\n      swap2\n      swap1\n      pop\n      jump\t// out\n        /* \"#utility.yul\":25119:25439   */\n    tag_93:\n        /* \"#utility.yul\":25163:25169   */\n      0x00\n        /* \"#utility.yul\":25200:25201   */\n      0x02\n        /* \"#utility.yul\":25194:25198   */\n      dup3\n        /* \"#utility.yul\":25190:25202   */\n      div\n        /* \"#utility.yul\":25180:25202   */\n      swap1\n      pop\n        /* \"#utility.yul\":25247:25248   */\n      0x01\n        /* \"#utility.yul\":25241:25245   */\n      dup3\n        /* \"#utility.yul\":25237:25249   */\n      and\n        /* \"#utility.yul\":25268:25286   */\n      dup1\n        /* \"#utility.yul\":25258:25339   */\n      tag_531\n      jumpi\n        /* \"#utility.yul\":25324:25328   */\n      0x7f\n        /* \"#utility.yul\":25316:25322   */\n      dup3\n        /* \"#utility.yul\":25312:25329   */\n      and\n        /* \"#utility.yul\":25302:25329   */\n      swap2\n      pop\n        /* \"#utility.yul\":25258:25339   */\n    tag_531:\n        /* \"#utility.yul\":25386:25388   */\n      0x20\n        /* \"#utility.yul\":25378:25384   */\n      dup3\n        /* \"#utility.yul\":25375:25389   */\n      lt\n        /* \"#utility.yul\":25355:25373   */\n      dup2\n        /* \"#utility.yul\":25352:25390   */\n      eq\n        /* \"#utility.yul\":25349:25433   */\n      iszero\n      tag_532\n      jumpi\n        /* \"#utility.yul\":25405:25423   */\n      tag_533\n      tag_534\n      jump\t// in\n    tag_533:\n        /* \"#utility.yul\":25349:25433   */\n    tag_532:\n        /* \"#utility.yul\":25170:25439   */\n      pop\n        /* \"#utility.yul\":25119:25439   */\n      swap2\n      swap1\n      pop\n      jump\t// out\n        /* \"#utility.yul\":25445:25726   */\n    tag_487:\n        /* \"#utility.yul\":25528:25555   */\n      tag_536\n        /* \"#utility.yul\":25550:25554   */\n      dup3\n        /* \"#utility.yul\":25528:25555   */\n      tag_369\n      jump\t// in\n    tag_536:\n        /* \"#utility.yul\":25520:25526   */\n      dup2\n        /* \"#utility.yul\":25516:25556   */\n      add\n        /* \"#utility.yul\":25658:25664   */\n      dup2\n        /* \"#utility.yul\":25646:25656   */\n      dup2\n        /* \"#utility.yul\":25643:25665   */\n      lt\n        /* \"#utility.yul\":25622:25640   */\n      0xffffffffffffffff\n        /* \"#utility.yul\":25610:25620   */\n      dup3\n        /* \"#utility.yul\":25607:25641   */\n      gt\n        /* \"#utility.yul\":25604:25666   */\n      or\n        /* \"#utility.yul\":25601:25689   */\n      iszero\n      tag_537\n      jumpi\n        /* \"#utility.yul\":25669:25687   */\n      tag_538\n      tag_112\n      jump\t// in\n    tag_538:\n        /* \"#utility.yul\":25601:25689   */\n    tag_537:\n        /* \"#utility.yul\":25709:25719   */\n      dup1\n        /* \"#utility.yul\":25705:25707   */\n      0x40\n        /* \"#utility.yul\":25698:25720   */\n      mstore\n        /* \"#utility.yul\":25488:25726   */\n      pop\n        /* \"#utility.yul\":25445:25726   */\n      pop\n      pop\n      jump\t// out\n        /* \"#utility.yul\":25732:25965   */\n    tag_135:\n        /* \"#utility.yul\":25771:25774   */\n      0x00\n        /* \"#utility.yul\":25794:25818   */\n      tag_540\n        /* \"#utility.yul\":25812:25817   */\n      dup3\n        /* \"#utility.yul\":25794:25818   */\n      tag_441\n      jump\t// in\n    tag_540:\n        /* \"#utility.yul\":25785:25818   */\n      swap2\n      pop\n        /* \"#utility.yul\":25840:25906   */\n      0xffffffffffffffffffffffffffffffffffffffffffffffffffffffffffffffff\n        /* \"#utility.yul\":25833:25838   */\n      dup3\n        /* \"#utility.yul\":25830:25907   */\n      eq\n        /* \"#utility.yul\":25827:25930   */\n      iszero\n      tag_541\n      jumpi\n        /* \"#utility.yul\":25910:25928   */\n      tag_542\n      tag_511\n      jump\t// in\n    tag_542:\n        /* \"#utility.yul\":25827:25930   */\n    tag_541:\n        /* \"#utility.yul\":25957:25958   */\n      0x01\n        /* \"#utility.yul\":25950:25955   */\n      dup3\n        /* \"#utility.yul\":25946:25959   */\n      add\n        /* \"#utility.yul\":25939:25959   */\n      swap1\n      pop\n        /* \"#utility.yul\":25732:25965   */\n      swap2\n      swap1\n      pop\n      jump\t// out\n        /* \"#utility.yul\":25971:26151   */\n    tag_511:\n        /* \"#utility.yul\":26019:26096   */\n      0x4e487b7100000000000000000000000000000000000000000000000000000000\n        /* \"#utility.yul\":26016:26017   */\n      0x00\n        /* \"#utility.yul\":26009:26097   */\n      mstore\n        /* \"#utility.yul\":26116:26120   */\n      0x11\n        /* \"#utility.yul\":26113:26114   */\n      0x04\n        /* \"#utility.yul\":26106:26121   */\n      mstore\n        /* \"#utility.yul\":26140:26144   */\n      0x24\n        /* \"#utility.yul\":26137:26138   */\n      0x00\n        /* \"#utility.yul\":26130:26145   */\n      revert\n        /* \"#utility.yul\":26157:26337   */\n    tag_534:\n        /* \"#utility.yul\":26205:26282   */\n      0x4e487b7100000000000000000000000000000000000000000000000000000000\n        /* \"#utility.yul\":26202:26203   */\n      0x00\n        /* \"#utility.yul\":26195:26283   */\n      mstore\n        /* \"#utility.yul\":26302:26306   */\n      0x22\n        /* \"#utility.yul\":26299:26300   */\n      0x04\n        /* \"#utility.yul\":26292:26307   */\n      mstore\n        /* \"#utility.yul\":26326:26330   */\n      0x24\n        /* \"#utility.yul\":26323:26324   */\n      0x00\n        /* \"#utility.yul\":26316:26331   */\n      revert\n        /* \"#utility.yul\":26343:26523   */\n    tag_124:\n        /* \"#utility.yul\":26391:26468   */\n      0x4e487b7100000000000000000000000000000000000000000000000000000000\n        /* \"#utility.yul\":26388:26389   */\n      0x00\n        /* \"#utility.yul\":26381:26469   */\n      mstore\n        /* \"#utility.yul\":26488:26492   */\n      0x32\n        /* \"#utility.yul\":26485:26486   */\n      0x04\n        /* \"#utility.yul\":26478:26493   */\n      mstore\n        /* \"#utility.yul\":26512:26516   */\n      0x24\n        /* \"#utility.yul\":26509:26510   */\n      0x00\n        /* \"#utility.yul\":26502:26517   */\n      revert\n        /* \"#utility.yul\":26529:26709   */\n    tag_112:\n        /* \"#utility.yul\":26577:26654   */\n      0x4e487b7100000000000000000000000000000000000000000000000000000000\n        /* \"#utility.yul\":26574:26575   */\n      0x00\n        /* \"#utility.yul\":26567:26655   */\n      mstore\n        /* \"#utility.yul\":26674:26678   */\n      0x41\n        /* \"#utility.yul\":26671:26672   */\n      0x04\n        /* \"#utility.yul\":26664:26679   */\n      mstore\n        /* \"#utility.yul\":26698:26702   */\n      0x24\n        /* \"#utility.yul\":26695:26696   */\n      0x00\n        /* \"#utility.yul\":26688:26703   */\n      revert\n        /* \"#utility.yul\":26715:26832   */\n    tag_268:\n        /* \"#utility.yul\":26824:26825   */\n      0x00\n        /* \"#utility.yul\":26821:26822   */\n      dup1\n        /* \"#utility.yul\":26814:26826   */\n      revert\n        /* \"#utility.yul\":26838:26955   */\n    tag_238:\n        /* \"#utility.yul\":26947:26948   */\n      0x00\n        /* \"#utility.yul\":26944:26945   */\n      dup1\n        /* \"#utility.yul\":26937:26949   */\n      revert\n        /* \"#utility.yul\":26961:27078   */\n    tag_303:\n        /* \"#utility.yul\":27070:27071   */\n      0x00\n        /* \"#utility.yul\":27067:27068   */\n      dup1\n        /* \"#utility.yul\":27060:27072   */\n      revert\n        /* \"#utility.yul\":27084:27201   */\n    tag_282:\n        /* \"#utility.yul\":27193:27194   */\n      0x00\n        /* \"#utility.yul\":27190:27191   */\n      dup1\n        /* \"#utility.yul\":27183:27195   */\n      revert\n        /* \"#utility.yul\":27207:27309   */\n    tag_369:\n        /* \"#utility.yul\":27248:27254   */\n      0x00\n        /* \"#utility.yul\":27299:27301   */\n      0x1f\n        /* \"#utility.yul\":27295:27302   */\n      not\n        /* \"#utility.yul\":27290:27292   */\n      0x1f\n        /* \"#utility.yul\":27283:27288   */\n      dup4\n        /* \"#utility.yul\":27279:27293   */\n      add\n        /* \"#utility.yul\":27275:27303   */\n      and\n        /* \"#utility.yul\":27265:27303   */\n      swap1\n      pop\n        /* \"#utility.yul\":27207:27309   */\n      swap2\n      swap1\n      pop\n      jump\t// out\n        /* \"#utility.yul\":27315:27481   */\n    tag_389:\n        /* \"#utility.yul\":27455:27473   */\n      0x756e7361666520726563697069656e7400000000000000000000000000000000\n        /* \"#utility.yul\":27451:27452   */\n      0x00\n        /* \"#utility.yul\":27443:27449   */\n      dup3\n        /* \"#utility.yul\":27439:27453   */\n      add\n        /* \"#utility.yul\":27432:27474   */\n      mstore\n        /* \"#utility.yul\":27315:27481   */\n      pop\n      jump\t// out\n        /* \"#utility.yul\":27487:27657   */\n    tag_394:\n        /* \"#utility.yul\":27627:27649   */\n      0x6d696e7420746f207a65726f2061646472657373000000000000000000000000\n        /* \"#utility.yul\":27623:27624   */\n      0x00\n        /* \"#utility.yul\":27615:27621   */\n      dup3\n        /* \"#utility.yul\":27611:27625   */\n      add\n        /* \"#utility.yul\":27604:27650   */\n      mstore\n        /* \"#utility.yul\":27487:27657   */\n      pop\n      jump\t// out\n        /* \"#utility.yul\":27663:27832   */\n    tag_399:\n        /* \"#utility.yul\":27803:27824   */\n      0x746f6b656e20646f65736e277420657869737400000000000000000000000000\n        /* \"#utility.yul\":27799:27800   */\n      0x00\n        /* \"#utility.yul\":27791:27797   */\n      dup3\n        /* \"#utility.yul\":27787:27801   */\n      add\n        /* \"#utility.yul\":27780:27825   */\n      mstore\n        /* \"#utility.yul\":27663:27832   */\n      pop\n      jump\t// out\n        /* \"#utility.yul\":27838:28012   */\n    tag_404:\n        /* \"#utility.yul\":27978:28004   */\n      0x7472616e7366657220746f207a65726f20616464726573730000000000000000\n        /* \"#utility.yul\":27974:27975   */\n      0x00\n        /* \"#utility.yul\":27966:27972   */\n      dup3\n        /* \"#utility.yul\":27962:27976   */\n      add\n        /* \"#utility.yul\":27955:28005   */\n      mstore\n        /* \"#utility.yul\":27838:28012   */\n      pop\n      jump\t// out\n        /* \"#utility.yul\":28018:28188   */\n    tag_409:\n        /* \"#utility.yul\":28158:28180   */\n      0x6f776e6572203d207a65726f2061646472657373000000000000000000000000\n        /* \"#utility.yul\":28154:28155   */\n      0x00\n        /* \"#utility.yul\":28146:28152   */\n      dup3\n        /* \"#utility.yul\":28142:28156   */\n      add\n        /* \"#utility.yul\":28135:28181   */\n      mstore\n        /* \"#utility.yul\":28018:28188   */\n      pop\n      jump\t// out\n        /* \"#utility.yul\":28194:28358   */\n    tag_414:\n        /* \"#utility.yul\":28334:28350   */\n      0x6e6f7420617574686f72697a6564000000000000000000000000000000000000\n        /* \"#utility.yul\":28330:28331   */\n      0x00\n        /* \"#utility.yul\":28322:28328   */\n      dup3\n        /* \"#utility.yul\":28318:28332   */\n      add\n        /* \"#utility.yul\":28311:28351   */\n      mstore\n        /* \"#utility.yul\":28194:28358   */\n      pop\n      jump\t// out\n        /* \"#utility.yul\":28364:28478   */\n    tag_419:\n      pop\n      jump\t// out\n        /* \"#utility.yul\":28484:28647   */\n    tag_424:\n        /* \"#utility.yul\":28624:28639   */\n      0x66726f6d20213d206f776e657200000000000000000000000000000000000000\n        /* \"#utility.yul\":28620:28621   */\n      0x00\n        /* \"#utility.yul\":28612:28618   */\n      dup3\n        /* \"#utility.yul\":28608:28622   */\n      add\n        /* \"#utility.yul\":28601:28640   */\n      mstore\n        /* \"#utility.yul\":28484:28647   */\n      pop\n      jump\t// out\n        /* \"#utility.yul\":28653:28876   */\n    tag_429:\n        /* \"#utility.yul\":28793:28827   */\n      0x796f7520646f6e2774206861766520616e7920737469636b6572204f6f707369\n        /* \"#utility.yul\":28789:28790   */\n      0x00\n        /* \"#utility.yul\":28781:28787   */\n      dup3\n        /* \"#utility.yul\":28777:28791   */\n      add\n        /* \"#utility.yul\":28770:28828   */\n      mstore\n        /* \"#utility.yul\":28862:28868   */\n      0x6521212100000000000000000000000000000000000000000000000000000000\n        /* \"#utility.yul\":28857:28859   */\n      0x20\n        /* \"#utility.yul\":28849:28855   */\n      dup3\n        /* \"#utility.yul\":28845:28860   */\n      add\n        /* \"#utility.yul\":28838:28869   */\n      mstore\n        /* \"#utility.yul\":28653:28876   */\n      pop\n      jump\t// out\n        /* \"#utility.yul\":28882:29046   */\n    tag_434:\n        /* \"#utility.yul\":29022:29038   */\n      0x616c7265616479206d696e746564000000000000000000000000000000000000\n        /* \"#utility.yul\":29018:29019   */\n      0x00\n        /* \"#utility.yul\":29010:29016   */\n      dup3\n        /* \"#utility.yul\":29006:29020   */\n      add\n        /* \"#utility.yul\":28999:29039   */\n      mstore\n        /* \"#utility.yul\":28882:29046   */\n      pop\n      jump\t// out\n        /* \"#utility.yul\":29052:29174   */\n    tag_252:\n        /* \"#utility.yul\":29125:29149   */\n      tag_563\n        /* \"#utility.yul\":29143:29148   */\n      dup2\n        /* \"#utility.yul\":29125:29149   */\n      tag_341\n      jump\t// in\n    tag_563:\n        /* \"#utility.yul\":29118:29123   */\n      dup2\n        /* \"#utility.yul\":29115:29150   */\n      eq\n        /* \"#utility.yul\":29105:29168   */\n      tag_564\n      jumpi\n        /* \"#utility.yul\":29164:29165   */\n      0x00\n        /* \"#utility.yul\":29161:29162   */\n      dup1\n        /* \"#utility.yul\":29154:29166   */\n      revert\n        /* \"#utility.yul\":29105:29168   */\n    tag_564:\n        /* \"#utility.yul\":29052:29174   */\n      pop\n      jump\t// out\n        /* \"#utility.yul\":29180:29296   */\n    tag_256:\n        /* \"#utility.yul\":29250:29271   */\n      tag_566\n        /* \"#utility.yul\":29265:29270   */\n      dup2\n        /* \"#utility.yul\":29250:29271   */\n      tag_359\n      jump\t// in\n    tag_566:\n        /* \"#utility.yul\":29243:29248   */\n      dup2\n        /* \"#utility.yul\":29240:29272   */\n      eq\n        /* \"#utility.yul\":29230:29290   */\n      tag_567\n      jumpi\n        /* \"#utility.yul\":29286:29287   */\n      0x00\n        /* \"#utility.yul\":29283:29284   */\n      dup1\n        /* \"#utility.yul\":29276:29288   */\n      revert\n        /* \"#utility.yul\":29230:29290   */\n    tag_567:\n        /* \"#utility.yul\":29180:29296   */\n      pop\n      jump\t// out\n        /* \"#utility.yul\":29302:29422   */\n    tag_260:\n        /* \"#utility.yul\":29374:29397   */\n      tag_569\n        /* \"#utility.yul\":29391:29396   */\n      dup2\n        /* \"#utility.yul\":29374:29397   */\n      tag_516\n      jump\t// in\n    tag_569:\n        /* \"#utility.yul\":29367:29372   */\n      dup2\n        /* \"#utility.yul\":29364:29398   */\n      eq\n        /* \"#utility.yul\":29354:29416   */\n      tag_570\n      jumpi\n        /* \"#utility.yul\":29412:29413   */\n      0x00\n        /* \"#utility.yul\":29409:29410   */\n      dup1\n        /* \"#utility.yul\":29402:29414   */\n      revert\n        /* \"#utility.yul\":29354:29416   */\n    tag_570:\n        /* \"#utility.yul\":29302:29422   */\n      pop\n      jump\t// out\n        /* \"#utility.yul\":29428:29550   */\n    tag_278:\n        /* \"#utility.yul\":29501:29525   */\n      tag_572\n        /* \"#utility.yul\":29519:29524   */\n      dup2\n        /* \"#utility.yul\":29501:29525   */\n      tag_441\n      jump\t// in\n    tag_572:\n        /* \"#utility.yul\":29494:29499   */\n      dup2\n        /* \"#utility.yul\":29491:29526   */\n      eq\n        /* \"#utility.yul\":29481:29544   */\n      tag_573\n      jumpi\n        /* \"#utility.yul\":29540:29541   */\n      0x00\n        /* \"#utility.yul\":29537:29538   */\n      dup1\n        /* \"#utility.yul\":29530:29542   */\n      revert\n        /* \"#utility.yul\":29481:29544   */\n    tag_573:\n        /* \"#utility.yul\":29428:29550   */\n      pop\n      jump\t// out\n\n    auxdata: 0xa2646970667358221220edc7dee780c65c5492e6d9b21ee3226ade1ea9d2b1bcffa04ddfb751f0a2620e64736f6c63430008070033\n}\n",
				"bytecode": {
					"linkReferences": {},
					"object": "60806040523480156200001157600080fd5b506040518060400160405280600981526020017f4d79537469636b657200000000000000000000000000000000000000000000008152506040518060400160405280600381526020017f4d534b0000000000000000000000000000000000000000000000000000000000815250816000908051906020019062000096929190620000b8565b508060019080519060200190620000af929190620000b8565b505050620001cd565b828054620000c69062000168565b90600052602060002090601f016020900481019282620000ea576000855562000136565b82601f106200010557805160ff191683800117855562000136565b8280016001018555821562000136579182015b828111156200013557825182559160200191906001019062000118565b5b50905062000145919062000149565b5090565b5b80821115620001645760008160009055506001016200014a565b5090565b600060028204905060018216806200018157607f821691505b602082108114156200019857620001976200019e565b5b50919050565b7f4e487b7100000000000000000000000000000000000000000000000000000000600052602260045260246000fd5b61277580620001dd6000396000f3fe608060405234801561001057600080fd5b50600436106100f55760003560e01c80636352211e11610097578063a22cb46511610066578063a22cb465146102aa578063b88d4fde146102c6578063c87b56dd146102e2578063e985e9c514610312576100f5565b80636352211e146101fc57806370a082311461022c57806395d89b411461025c578063a15ab08d1461027a576100f5565b80630954ecd0116100d35780630954ecd014610178578063095ea7b3146101a857806323b872dd146101c457806342842e0e146101e0576100f5565b806301ffc9a7146100fa57806306fdde031461012a578063081812fc14610148575b600080fd5b610114600480360381019061010f9190611ba0565b610342565b6040516101219190612005565b60405180910390f35b61013261047c565b60405161013f9190612020565b60405180910390f35b610162600480360381019061015d9190611bfa565b61050e565b60405161016f9190611f32565b60405180910390f35b610192600480360381019061018d9190611981565b6105ed565b60405161019f9190611fe3565b60405180910390f35b6101c260048036038101906101bd9190611b60565b610804565b005b6101de60048036038101906101d991906119ee565b6109ed565b005b6101fa60048036038101906101f591906119ee565b610df8565b005b61021660048036038101906102119190611bfa565b610f3f565b6040516102239190611f32565b60405180910390f35b61024660048036038101906102419190611981565b61101e565b6040516102539190612162565b60405180910390f35b6102646110d6565b6040516102719190612020565b60405180910390f35b610294600480360381019061028f9190611b04565b611168565b6040516102a19190612162565b60405180910390f35b6102c460048036038101906102bf9190611ac4565b6111be565b005b6102e060048036038101906102db9190611a41565b6112bb565b005b6102fc60048036038101906102f79190611bfa565b611405565b6040516103099190612020565b60405180910390f35b61032c600480360381019061032791906119ae565b6114aa565b6040516103399190612005565b60405180910390f35b60007f01ffc9a7000000000000000000000000000000000000000000000000000000007bffffffffffffffffffffffffffffffffffffffffffffffffffffffff1916827bffffffffffffffffffffffffffffffffffffffffffffffffffffffff1916148061040d57507f80ac58cd000000000000000000000000000000000000000000000000000000007bffffffffffffffffffffffffffffffffffffffffffffffffffffffff1916827bffffffffffffffffffffffffffffffffffffffffffffffffffffffff1916145b8061047557507f5b5e139f000000000000000000000000000000000000000000000000000000007bffffffffffffffffffffffffffffffffffffffffffffffffffffffff1916827bffffffffffffffffffffffffffffffffffffffffffffffffffffffff1916145b9050919050565b60606000805461048b906123bc565b80601f01602080910402602001604051908101604052809291908181526020018280546104b7906123bc565b80156105045780601f106104d957610100808354040283529160200191610504565b820191906000526020600020905b8154815290600101906020018083116104e757829003601f168201915b5050505050905090565b60008073ffffffffffffffffffffffffffffffffffffffff166002600084815260200190815260200160002060009054906101000a900473ffffffffffffffffffffffffffffffffffffffff1673ffffffffffffffffffffffffffffffffffffffff1614156105b2576040517f08c379a00000000000000000000000000000000000000000000000000000000081526004016105a990612082565b60405180910390fd5b6004600083815260200190815260200160002060009054906101000a900473ffffffffffffffffffffffffffffffffffffffff169050919050565b606060006105fb600661153e565b905060006106088461101e565b11610648576040517f08c379a000000000000000000000000000000000000000000000000000000000815260040161063f90612122565b60405180910390fd5b60006106538461101e565b67ffffffffffffffff81111561066c5761066b6124f5565b5b6040519080825280602002602001820160405280156106a557816020015b61069261177b565b81526020019060019003908161068a5790505b509050600080600190505b8381116107f8578573ffffffffffffffffffffffffffffffffffffffff166106d782610f3f565b73ffffffffffffffffffffffffffffffffffffffff1614156107e55780838381518110610707576107066124c6565b5b60200260200101516000018181525050600760008281526020019081526020016000208054610735906123bc565b80601f0160208091040260200160405190810160405280929190818152602001828054610761906123bc565b80156107ae5780601f10610783576101008083540402835291602001916107ae565b820191906000526020600020905b81548152906001019060200180831161079157829003601f168201915b50505050508383815181106107c6576107c56124c6565b5b6020026020010151602001819052506001826107e29190612286565b91505b80806107f09061241f565b9150506106b0565b50819350505050919050565b60006002600083815260200190815260200160002060009054906101000a900473ffffffffffffffffffffffffffffffffffffffff1690508073ffffffffffffffffffffffffffffffffffffffff163373ffffffffffffffffffffffffffffffffffffffff1614806108fc5750600560008273ffffffffffffffffffffffffffffffffffffffff1673ffffffffffffffffffffffffffffffffffffffff16815260200190815260200160002060003373ffffffffffffffffffffffffffffffffffffffff1673ffffffffffffffffffffffffffffffffffffffff16815260200190815260200160002060009054906101000a900460ff165b61093b576040517f08c379a0000000000000000000000000000000000000000000000000000000008152600401610932906120e2565b60405180910390fd5b826004600084815260200190815260200160002060006101000a81548173ffffffffffffffffffffffffffffffffffffffff021916908373ffffffffffffffffffffffffffffffffffffffff160217905550818373ffffffffffffffffffffffffffffffffffffffff168273ffffffffffffffffffffffffffffffffffffffff167f8c5be1e5ebec7d5bd14f71427d1e84f3dd0314c0f7b2291e5b200ac8c7c3b92560405160405180910390a4505050565b6002600082815260200190815260200160002060009054906101000a900473ffffffffffffffffffffffffffffffffffffffff1673ffffffffffffffffffffffffffffffffffffffff168373ffffffffffffffffffffffffffffffffffffffff1614610a8e576040517f08c379a0000000000000000000000000000000000000000000000000000000008152600401610a8590612102565b60405180910390fd5b600073ffffffffffffffffffffffffffffffffffffffff168273ffffffffffffffffffffffffffffffffffffffff161415610afe576040517f08c379a0000000000000000000000000000000000000000000000000000000008152600401610af5906120a2565b60405180910390fd5b8273ffffffffffffffffffffffffffffffffffffffff163373ffffffffffffffffffffffffffffffffffffffff161480610bbe5750600560008473ffffffffffffffffffffffffffffffffffffffff1673ffffffffffffffffffffffffffffffffffffffff16815260200190815260200160002060003373ffffffffffffffffffffffffffffffffffffffff1673ffffffffffffffffffffffffffffffffffffffff16815260200190815260200160002060009054906101000a900460ff165b80610c2757506004600082815260200190815260200160002060009054906101000a900473ffffffffffffffffffffffffffffffffffffffff1673ffffffffffffffffffffffffffffffffffffffff163373ffffffffffffffffffffffffffffffffffffffff16145b610c66576040517f08c379a0000000000000000000000000000000000000000000000000000000008152600401610c5d906120e2565b60405180910390fd5b600360008473ffffffffffffffffffffffffffffffffffffffff1673ffffffffffffffffffffffffffffffffffffffff1681526020019081526020016000206000815480929190610cb690612392565b9190505550600360008373ffffffffffffffffffffffffffffffffffffffff1673ffffffffffffffffffffffffffffffffffffffff1681526020019081526020016000206000815480929190610d0b9061241f565b9190505550816002600083815260200190815260200160002060006101000a81548173ffffffffffffffffffffffffffffffffffffffff021916908373ffffffffffffffffffffffffffffffffffffffff1602179055506004600082815260200190815260200160002060006101000a81549073ffffffffffffffffffffffffffffffffffffffff0219169055808273ffffffffffffffffffffffffffffffffffffffff168473ffffffffffffffffffffffffffffffffffffffff167fddf252ad1be2c89b69c2b068fc378daa952ba7f163c4a11628f55a4df523b3ef60405160405180910390a4505050565b610e038383836109ed565b60008273ffffffffffffffffffffffffffffffffffffffff163b1480610efb575063150b7a0260e01b7bffffffffffffffffffffffffffffffffffffffffffffffffffffffff19168273ffffffffffffffffffffffffffffffffffffffff1663150b7a023386856040518463ffffffff1660e01b8152600401610e8893929190611f99565b602060405180830381600087803b158015610ea257600080fd5b505af1158015610eb6573d6000803e3d6000fd5b505050506040513d601f19601f82011682018060405250810190610eda9190611bcd565b7bffffffffffffffffffffffffffffffffffffffffffffffffffffffff1916145b610f3a576040517f08c379a0000000000000000000000000000000000000000000000000000000008152600401610f3190612042565b60405180910390fd5b505050565b60008073ffffffffffffffffffffffffffffffffffffffff166002600084815260200190815260200160002060009054906101000a900473ffffffffffffffffffffffffffffffffffffffff1673ffffffffffffffffffffffffffffffffffffffff161415610fe3576040517f08c379a0000000000000000000000000000000000000000000000000000000008152600401610fda90612082565b60405180910390fd5b6002600083815260200190815260200160002060009054906101000a900473ffffffffffffffffffffffffffffffffffffffff169050919050565b60008073ffffffffffffffffffffffffffffffffffffffff168273ffffffffffffffffffffffffffffffffffffffff16141561108f576040517f08c379a0000000000000000000000000000000000000000000000000000000008152600401611086906120c2565b60405180910390fd5b600360008373ffffffffffffffffffffffffffffffffffffffff1673ffffffffffffffffffffffffffffffffffffffff168152602001908152602001600020549050919050565b6060600180546110e5906123bc565b80601f0160208091040260200160405190810160405280929190818152602001828054611111906123bc565b801561115e5780601f106111335761010080835404028352916020019161115e565b820191906000526020600020905b81548152906001019060200180831161114157829003601f168201915b5050505050905090565b6000611174600661154c565b6000611180600661153e565b905061118c8482611562565b826007600083815260200190815260200160002090805190602001906111b3929190611795565b508091505092915050565b80600560003373ffffffffffffffffffffffffffffffffffffffff1673ffffffffffffffffffffffffffffffffffffffff16815260200190815260200160002060008473ffffffffffffffffffffffffffffffffffffffff1673ffffffffffffffffffffffffffffffffffffffff16815260200190815260200160002060006101000a81548160ff0219169083151502179055508173ffffffffffffffffffffffffffffffffffffffff163373ffffffffffffffffffffffffffffffffffffffff167f17307eab39ab6107e8899845ad3d59bd9653f200f220920489ca2b5937696c31836040516112af9190612005565b60405180910390a35050565b6112c68484846109ed565b60008373ffffffffffffffffffffffffffffffffffffffff163b14806113c0575063150b7a0260e01b7bffffffffffffffffffffffffffffffffffffffffffffffffffffffff19168373ffffffffffffffffffffffffffffffffffffffff1663150b7a02338786866040518563ffffffff1660e01b815260040161134d9493929190611f4d565b602060405180830381600087803b15801561136757600080fd5b505af115801561137b573d6000803e3d6000fd5b505050506040513d601f19601f8201168201806040525081019061139f9190611bcd565b7bffffffffffffffffffffffffffffffffffffffffffffffffffffffff1916145b6113ff576040517f08c379a00000000000000000000000000000000000000000000000000000000081526004016113f690612042565b60405180910390fd5b50505050565b6060600760008381526020019081526020016000208054611425906123bc565b80601f0160208091040260200160405190810160405280929190818152602001828054611451906123bc565b801561149e5780601f106114735761010080835404028352916020019161149e565b820191906000526020600020905b81548152906001019060200180831161148157829003601f168201915b50505050509050919050565b6000600560008473ffffffffffffffffffffffffffffffffffffffff1673ffffffffffffffffffffffffffffffffffffffff16815260200190815260200160002060008373ffffffffffffffffffffffffffffffffffffffff1673ffffffffffffffffffffffffffffffffffffffff16815260200190815260200160002060009054906101000a900460ff16905092915050565b600081600001549050919050565b6001816000016000828254019250508190555050565b600073ffffffffffffffffffffffffffffffffffffffff168273ffffffffffffffffffffffffffffffffffffffff1614156115d2576040517f08c379a00000000000000000000000000000000000000000000000000000000081526004016115c990612062565b60405180910390fd5b600073ffffffffffffffffffffffffffffffffffffffff166002600083815260200190815260200160002060009054906101000a900473ffffffffffffffffffffffffffffffffffffffff1673ffffffffffffffffffffffffffffffffffffffff1614611674576040517f08c379a000000000000000000000000000000000000000000000000000000000815260040161166b90612142565b60405180910390fd5b600360008373ffffffffffffffffffffffffffffffffffffffff1673ffffffffffffffffffffffffffffffffffffffff16815260200190815260200160002060008154809291906116c49061241f565b9190505550816002600083815260200190815260200160002060006101000a81548173ffffffffffffffffffffffffffffffffffffffff021916908373ffffffffffffffffffffffffffffffffffffffff160217905550808273ffffffffffffffffffffffffffffffffffffffff16600073ffffffffffffffffffffffffffffffffffffffff167fddf252ad1be2c89b69c2b068fc378daa952ba7f163c4a11628f55a4df523b3ef60405160405180910390a45050565b604051806040016040528060008152602001606081525090565b8280546117a1906123bc565b90600052602060002090601f0160209004810192826117c3576000855561180a565b82601f106117dc57805160ff191683800117855561180a565b8280016001018555821561180a579182015b828111156118095782518255916020019190600101906117ee565b5b509050611817919061181b565b5090565b5b8082111561183457600081600090555060010161181c565b5090565b600061184b611846846121a2565b61217d565b90508281526020810184848401111561186757611866612529565b5b611872848285612350565b509392505050565b600061188d611888846121d3565b61217d565b9050828152602081018484840111156118a9576118a8612529565b5b6118b4848285612350565b509392505050565b6000813590506118cb816126e3565b92915050565b6000813590506118e0816126fa565b92915050565b6000813590506118f581612711565b92915050565b60008151905061190a81612711565b92915050565b600082601f83011261192557611924612524565b5b8135611935848260208601611838565b91505092915050565b600082601f83011261195357611952612524565b5b813561196384826020860161187a565b91505092915050565b60008135905061197b81612728565b92915050565b60006020828403121561199757611996612533565b5b60006119a5848285016118bc565b91505092915050565b600080604083850312156119c5576119c4612533565b5b60006119d3858286016118bc565b92505060206119e4858286016118bc565b9150509250929050565b600080600060608486031215611a0757611a06612533565b5b6000611a15868287016118bc565b9350506020611a26868287016118bc565b9250506040611a378682870161196c565b9150509250925092565b60008060008060808587031215611a5b57611a5a612533565b5b6000611a69878288016118bc565b9450506020611a7a878288016118bc565b9350506040611a8b8782880161196c565b925050606085013567ffffffffffffffff811115611aac57611aab61252e565b5b611ab887828801611910565b91505092959194509250565b60008060408385031215611adb57611ada612533565b5b6000611ae9858286016118bc565b9250506020611afa858286016118d1565b9150509250929050565b60008060408385031215611b1b57611b1a612533565b5b6000611b29858286016118bc565b925050602083013567ffffffffffffffff811115611b4a57611b4961252e565b5b611b568582860161193e565b9150509250929050565b60008060408385031215611b7757611b76612533565b5b6000611b85858286016118bc565b9250506020611b968582860161196c565b9150509250929050565b600060208284031215611bb657611bb5612533565b5b6000611bc4848285016118e6565b91505092915050565b600060208284031215611be357611be2612533565b5b6000611bf1848285016118fb565b91505092915050565b600060208284031215611c1057611c0f612533565b5b6000611c1e8482850161196c565b91505092915050565b6000611c338383611ed7565b905092915050565b611c44816122dc565b82525050565b6000611c5582612214565b611c5f8185612242565b935083602082028501611c7185612204565b8060005b85811015611cad5784840389528151611c8e8582611c27565b9450611c9983612235565b925060208a01995050600181019050611c75565b50829750879550505050505092915050565b611cc8816122ee565b82525050565b6000611cd98261221f565b611ce38185612253565b9350611cf381856020860161235f565b611cfc81612538565b840191505092915050565b6000611d128261222a565b611d1c8185612264565b9350611d2c81856020860161235f565b611d3581612538565b840191505092915050565b6000611d4b8261222a565b611d558185612275565b9350611d6581856020860161235f565b611d6e81612538565b840191505092915050565b6000611d86601083612275565b9150611d9182612549565b602082019050919050565b6000611da9601483612275565b9150611db482612572565b602082019050919050565b6000611dcc601383612275565b9150611dd78261259b565b602082019050919050565b6000611def601883612275565b9150611dfa826125c4565b602082019050919050565b6000611e12601483612275565b9150611e1d826125ed565b602082019050919050565b6000611e35600e83612275565b9150611e4082612616565b602082019050919050565b6000611e58600083612253565b9150611e638261263f565b600082019050919050565b6000611e7b600d83612275565b9150611e8682612642565b602082019050919050565b6000611e9e602483612275565b9150611ea98261266b565b604082019050919050565b6000611ec1600e83612275565b9150611ecc826126ba565b602082019050919050565b6000604083016000830151611eef6000860182611f14565b5060208301518482036020860152611f078282611d07565b9150508091505092915050565b611f1d81612346565b82525050565b611f2c81612346565b82525050565b6000602082019050611f476000830184611c3b565b92915050565b6000608082019050611f626000830187611c3b565b611f6f6020830186611c3b565b611f7c6040830185611f23565b8181036060830152611f8e8184611cce565b905095945050505050565b6000608082019050611fae6000830186611c3b565b611fbb6020830185611c3b565b611fc86040830184611f23565b8181036060830152611fd981611e4b565b9050949350505050565b60006020820190508181036000830152611ffd8184611c4a565b905092915050565b600060208201905061201a6000830184611cbf565b92915050565b6000602082019050818103600083015261203a8184611d40565b905092915050565b6000602082019050818103600083015261205b81611d79565b9050919050565b6000602082019050818103600083015261207b81611d9c565b9050919050565b6000602082019050818103600083015261209b81611dbf565b9050919050565b600060208201905081810360008301526120bb81611de2565b9050919050565b600060208201905081810360008301526120db81611e05565b9050919050565b600060208201905081810360008301526120fb81611e28565b9050919050565b6000602082019050818103600083015261211b81611e6e565b9050919050565b6000602082019050818103600083015261213b81611e91565b9050919050565b6000602082019050818103600083015261215b81611eb4565b9050919050565b60006020820190506121776000830184611f23565b92915050565b6000612187612198565b905061219382826123ee565b919050565b6000604051905090565b600067ffffffffffffffff8211156121bd576121bc6124f5565b5b6121c682612538565b9050602081019050919050565b600067ffffffffffffffff8211156121ee576121ed6124f5565b5b6121f782612538565b9050602081019050919050565b6000819050602082019050919050565b600081519050919050565b600081519050919050565b600081519050919050565b6000602082019050919050565b600082825260208201905092915050565b600082825260208201905092915050565b600082825260208201905092915050565b600082825260208201905092915050565b600061229182612346565b915061229c83612346565b9250827fffffffffffffffffffffffffffffffffffffffffffffffffffffffffffffffff038211156122d1576122d0612468565b5b828201905092915050565b60006122e782612326565b9050919050565b60008115159050919050565b60007fffffffff0000000000000000000000000000000000000000000000000000000082169050919050565b600073ffffffffffffffffffffffffffffffffffffffff82169050919050565b6000819050919050565b82818337600083830152505050565b60005b8381101561237d578082015181840152602081019050612362565b8381111561238c576000848401525b50505050565b600061239d82612346565b915060008214156123b1576123b0612468565b5b600182039050919050565b600060028204905060018216806123d457607f821691505b602082108114156123e8576123e7612497565b5b50919050565b6123f782612538565b810181811067ffffffffffffffff82111715612416576124156124f5565b5b80604052505050565b600061242a82612346565b91507fffffffffffffffffffffffffffffffffffffffffffffffffffffffffffffffff82141561245d5761245c612468565b5b600182019050919050565b7f4e487b7100000000000000000000000000000000000000000000000000000000600052601160045260246000fd5b7f4e487b7100000000000000000000000000000000000000000000000000000000600052602260045260246000fd5b7f4e487b7100000000000000000000000000000000000000000000000000000000600052603260045260246000fd5b7f4e487b7100000000000000000000000000000000000000000000000000000000600052604160045260246000fd5b600080fd5b600080fd5b600080fd5b600080fd5b6000601f19601f8301169050919050565b7f756e7361666520726563697069656e7400000000000000000000000000000000600082015250565b7f6d696e7420746f207a65726f2061646472657373000000000000000000000000600082015250565b7f746f6b656e20646f65736e277420657869737400000000000000000000000000600082015250565b7f7472616e7366657220746f207a65726f20616464726573730000000000000000600082015250565b7f6f776e6572203d207a65726f2061646472657373000000000000000000000000600082015250565b7f6e6f7420617574686f72697a6564000000000000000000000000000000000000600082015250565b50565b7f66726f6d20213d206f776e657200000000000000000000000000000000000000600082015250565b7f796f7520646f6e2774206861766520616e7920737469636b6572204f6f70736960008201527f6521212100000000000000000000000000000000000000000000000000000000602082015250565b7f616c7265616479206d696e746564000000000000000000000000000000000000600082015250565b6126ec816122dc565b81146126f757600080fd5b50565b612703816122ee565b811461270e57600080fd5b50565b61271a816122fa565b811461272557600080fd5b50565b61273181612346565b811461273c57600080fd5b5056fea2646970667358221220edc7dee780c65c5492e6d9b21ee3226ade1ea9d2b1bcffa04ddfb751f0a2620e64736f6c63430008070033",
					"opcodes": "PUSH1 0x80 PUSH1 0x40 MSTORE CALLVALUE DUP1 ISZERO PUSH3 0x11 JUMPI PUSH1 0x0 DUP1 REVERT JUMPDEST POP PUSH1 0x40 MLOAD DUP1 PUSH1 0x40 ADD PUSH1 0x40 MSTORE DUP1 PUSH1 0x9 DUP2 MSTORE PUSH1 0x20 ADD PUSH32 0x4D79537469636B65720000000000000000000000000000000000000000000000 DUP2 MSTORE POP PUSH1 0x40 MLOAD DUP1 PUSH1 0x40 ADD PUSH1 0x40 MSTORE DUP1 PUSH1 0x3 DUP2 MSTORE PUSH1 0x20 ADD PUSH32 0x4D534B0000000000000000000000000000000000000000000000000000000000 DUP2 MSTORE POP DUP2 PUSH1 0x0 SWAP1 DUP1 MLOAD SWAP1 PUSH1 0x20 ADD SWAP1 PUSH3 0x96 SWAP3 SWAP2 SWAP1 PUSH3 0xB8 JUMP JUMPDEST POP DUP1 PUSH1 0x1 SWAP1 DUP1 MLOAD SWAP1 PUSH1 0x20 ADD SWAP1 PUSH3 0xAF SWAP3 SWAP2 SWAP1 PUSH3 0xB8 JUMP JUMPDEST POP POP POP PUSH3 0x1CD JUMP JUMPDEST DUP3 DUP1 SLOAD PUSH3 0xC6 SWAP1 PUSH3 0x168 JUMP JUMPDEST SWAP1 PUSH1 0x0 MSTORE PUSH1 0x20 PUSH1 0x0 KECCAK256 SWAP1 PUSH1 0x1F ADD PUSH1 0x20 SWAP1 DIV DUP2 ADD SWAP3 DUP3 PUSH3 0xEA JUMPI PUSH1 0x0 DUP6 SSTORE PUSH3 0x136 JUMP JUMPDEST DUP3 PUSH1 0x1F LT PUSH3 0x105 JUMPI DUP1 MLOAD PUSH1 0xFF NOT AND DUP4 DUP1 ADD OR DUP6 SSTORE PUSH3 0x136 JUMP JUMPDEST DUP3 DUP1 ADD PUSH1 0x1 ADD DUP6 SSTORE DUP3 ISZERO PUSH3 0x136 JUMPI SWAP2 DUP3 ADD JUMPDEST DUP3 DUP2 GT ISZERO PUSH3 0x135 JUMPI DUP3 MLOAD DUP3 SSTORE SWAP2 PUSH1 0x20 ADD SWAP2 SWAP1 PUSH1 0x1 ADD SWAP1 PUSH3 0x118 JUMP JUMPDEST JUMPDEST POP SWAP1 POP PUSH3 0x145 SWAP2 SWAP1 PUSH3 0x149 JUMP JUMPDEST POP SWAP1 JUMP JUMPDEST JUMPDEST DUP1 DUP3 GT ISZERO PUSH3 0x164 JUMPI PUSH1 0x0 DUP2 PUSH1 0x0 SWAP1 SSTORE POP PUSH1 0x1 ADD PUSH3 0x14A JUMP JUMPDEST POP SWAP1 JUMP JUMPDEST PUSH1 0x0 PUSH1 0x2 DUP3 DIV SWAP1 POP PUSH1 0x1 DUP3 AND DUP1 PUSH3 0x181 JUMPI PUSH1 0x7F DUP3 AND SWAP2 POP JUMPDEST PUSH1 0x20 DUP3 LT DUP2 EQ ISZERO PUSH3 0x198 JUMPI PUSH3 0x197 PUSH3 0x19E JUMP JUMPDEST JUMPDEST POP SWAP2 SWAP1 POP JUMP JUMPDEST PUSH32 0x4E487B7100000000000000000000000000000000000000000000000000000000 PUSH1 0x0 MSTORE PUSH1 0x22 PUSH1 0x4 MSTORE PUSH1 0x24 PUSH1 0x0 REVERT JUMPDEST PUSH2 0x2775 DUP1 PUSH3 0x1DD PUSH1 0x0 CODECOPY PUSH1 0x0 RETURN INVALID PUSH1 0x80 PUSH1 0x40 MSTORE CALLVALUE DUP1 ISZERO PUSH2 0x10 JUMPI PUSH1 0x0 DUP1 REVERT JUMPDEST POP PUSH1 0x4 CALLDATASIZE LT PUSH2 0xF5 JUMPI PUSH1 0x0 CALLDATALOAD PUSH1 0xE0 SHR DUP1 PUSH4 0x6352211E GT PUSH2 0x97 JUMPI DUP1 PUSH4 0xA22CB465 GT PUSH2 0x66 JUMPI DUP1 PUSH4 0xA22CB465 EQ PUSH2 0x2AA JUMPI DUP1 PUSH4 0xB88D4FDE EQ PUSH2 0x2C6 JUMPI DUP1 PUSH4 0xC87B56DD EQ PUSH2 0x2E2 JUMPI DUP1 PUSH4 0xE985E9C5 EQ PUSH2 0x312 JUMPI PUSH2 0xF5 JUMP JUMPDEST DUP1 PUSH4 0x6352211E EQ PUSH2 0x1FC JUMPI DUP1 PUSH4 0x70A08231 EQ PUSH2 0x22C JUMPI DUP1 PUSH4 0x95D89B41 EQ PUSH2 0x25C JUMPI DUP1 PUSH4 0xA15AB08D EQ PUSH2 0x27A JUMPI PUSH2 0xF5 JUMP JUMPDEST DUP1 PUSH4 0x954ECD0 GT PUSH2 0xD3 JUMPI DUP1 PUSH4 0x954ECD0 EQ PUSH2 0x178 JUMPI DUP1 PUSH4 0x95EA7B3 EQ PUSH2 0x1A8 JUMPI DUP1 PUSH4 0x23B872DD EQ PUSH2 0x1C4 JUMPI DUP1 PUSH4 0x42842E0E EQ PUSH2 0x1E0 JUMPI PUSH2 0xF5 JUMP JUMPDEST DUP1 PUSH4 0x1FFC9A7 EQ PUSH2 0xFA JUMPI DUP1 PUSH4 0x6FDDE03 EQ PUSH2 0x12A JUMPI DUP1 PUSH4 0x81812FC EQ PUSH2 0x148 JUMPI JUMPDEST PUSH1 0x0 DUP1 REVERT JUMPDEST PUSH2 0x114 PUSH1 0x4 DUP1 CALLDATASIZE SUB DUP2 ADD SWAP1 PUSH2 0x10F SWAP2 SWAP1 PUSH2 0x1BA0 JUMP JUMPDEST PUSH2 0x342 JUMP JUMPDEST PUSH1 0x40 MLOAD PUSH2 0x121 SWAP2 SWAP1 PUSH2 0x2005 JUMP JUMPDEST PUSH1 0x40 MLOAD DUP1 SWAP2 SUB SWAP1 RETURN JUMPDEST PUSH2 0x132 PUSH2 0x47C JUMP JUMPDEST PUSH1 0x40 MLOAD PUSH2 0x13F SWAP2 SWAP1 PUSH2 0x2020 JUMP JUMPDEST PUSH1 0x40 MLOAD DUP1 SWAP2 SUB SWAP1 RETURN JUMPDEST PUSH2 0x162 PUSH1 0x4 DUP1 CALLDATASIZE SUB DUP2 ADD SWAP1 PUSH2 0x15D SWAP2 SWAP1 PUSH2 0x1BFA JUMP JUMPDEST PUSH2 0x50E JUMP JUMPDEST PUSH1 0x40 MLOAD PUSH2 0x16F SWAP2 SWAP1 PUSH2 0x1F32 JUMP JUMPDEST PUSH1 0x40 MLOAD DUP1 SWAP2 SUB SWAP1 RETURN JUMPDEST PUSH2 0x192 PUSH1 0x4 DUP1 CALLDATASIZE SUB DUP2 ADD SWAP1 PUSH2 0x18D SWAP2 SWAP1 PUSH2 0x1981 JUMP JUMPDEST PUSH2 0x5ED JUMP JUMPDEST PUSH1 0x40 MLOAD PUSH2 0x19F SWAP2 SWAP1 PUSH2 0x1FE3 JUMP JUMPDEST PUSH1 0x40 MLOAD DUP1 SWAP2 SUB SWAP1 RETURN JUMPDEST PUSH2 0x1C2 PUSH1 0x4 DUP1 CALLDATASIZE SUB DUP2 ADD SWAP1 PUSH2 0x1BD SWAP2 SWAP1 PUSH2 0x1B60 JUMP JUMPDEST PUSH2 0x804 JUMP JUMPDEST STOP JUMPDEST PUSH2 0x1DE PUSH1 0x4 DUP1 CALLDATASIZE SUB DUP2 ADD SWAP1 PUSH2 0x1D9 SWAP2 SWAP1 PUSH2 0x19EE JUMP JUMPDEST PUSH2 0x9ED JUMP JUMPDEST STOP JUMPDEST PUSH2 0x1FA PUSH1 0x4 DUP1 CALLDATASIZE SUB DUP2 ADD SWAP1 PUSH2 0x1F5 SWAP2 SWAP1 PUSH2 0x19EE JUMP JUMPDEST PUSH2 0xDF8 JUMP JUMPDEST STOP JUMPDEST PUSH2 0x216 PUSH1 0x4 DUP1 CALLDATASIZE SUB DUP2 ADD SWAP1 PUSH2 0x211 SWAP2 SWAP1 PUSH2 0x1BFA JUMP JUMPDEST PUSH2 0xF3F JUMP JUMPDEST PUSH1 0x40 MLOAD PUSH2 0x223 SWAP2 SWAP1 PUSH2 0x1F32 JUMP JUMPDEST PUSH1 0x40 MLOAD DUP1 SWAP2 SUB SWAP1 RETURN JUMPDEST PUSH2 0x246 PUSH1 0x4 DUP1 CALLDATASIZE SUB DUP2 ADD SWAP1 PUSH2 0x241 SWAP2 SWAP1 PUSH2 0x1981 JUMP JUMPDEST PUSH2 0x101E JUMP JUMPDEST PUSH1 0x40 MLOAD PUSH2 0x253 SWAP2 SWAP1 PUSH2 0x2162 JUMP JUMPDEST PUSH1 0x40 MLOAD DUP1 SWAP2 SUB SWAP1 RETURN JUMPDEST PUSH2 0x264 PUSH2 0x10D6 JUMP JUMPDEST PUSH1 0x40 MLOAD PUSH2 0x271 SWAP2 SWAP1 PUSH2 0x2020 JUMP JUMPDEST PUSH1 0x40 MLOAD DUP1 SWAP2 SUB SWAP1 RETURN JUMPDEST PUSH2 0x294 PUSH1 0x4 DUP1 CALLDATASIZE SUB DUP2 ADD SWAP1 PUSH2 0x28F SWAP2 SWAP1 PUSH2 0x1B04 JUMP JUMPDEST PUSH2 0x1168 JUMP JUMPDEST PUSH1 0x40 MLOAD PUSH2 0x2A1 SWAP2 SWAP1 PUSH2 0x2162 JUMP JUMPDEST PUSH1 0x40 MLOAD DUP1 SWAP2 SUB SWAP1 RETURN JUMPDEST PUSH2 0x2C4 PUSH1 0x4 DUP1 CALLDATASIZE SUB DUP2 ADD SWAP1 PUSH2 0x2BF SWAP2 SWAP1 PUSH2 0x1AC4 JUMP JUMPDEST PUSH2 0x11BE JUMP JUMPDEST STOP JUMPDEST PUSH2 0x2E0 PUSH1 0x4 DUP1 CALLDATASIZE SUB DUP2 ADD SWAP1 PUSH2 0x2DB SWAP2 SWAP1 PUSH2 0x1A41 JUMP JUMPDEST PUSH2 0x12BB JUMP JUMPDEST STOP JUMPDEST PUSH2 0x2FC PUSH1 0x4 DUP1 CALLDATASIZE SUB DUP2 ADD SWAP1 PUSH2 0x2F7 SWAP2 SWAP1 PUSH2 0x1BFA JUMP JUMPDEST PUSH2 0x1405 JUMP JUMPDEST PUSH1 0x40 MLOAD PUSH2 0x309 SWAP2 SWAP1 PUSH2 0x2020 JUMP JUMPDEST PUSH1 0x40 MLOAD DUP1 SWAP2 SUB SWAP1 RETURN JUMPDEST PUSH2 0x32C PUSH1 0x4 DUP1 CALLDATASIZE SUB DUP2 ADD SWAP1 PUSH2 0x327 SWAP2 SWAP1 PUSH2 0x19AE JUMP JUMPDEST PUSH2 0x14AA JUMP JUMPDEST PUSH1 0x40 MLOAD PUSH2 0x339 SWAP2 SWAP1 PUSH2 0x2005 JUMP JUMPDEST PUSH1 0x40 MLOAD DUP1 SWAP2 SUB SWAP1 RETURN JUMPDEST PUSH1 0x0 PUSH32 0x1FFC9A700000000000000000000000000000000000000000000000000000000 PUSH28 0xFFFFFFFFFFFFFFFFFFFFFFFFFFFFFFFFFFFFFFFFFFFFFFFFFFFFFFFF NOT AND DUP3 PUSH28 0xFFFFFFFFFFFFFFFFFFFFFFFFFFFFFFFFFFFFFFFFFFFFFFFFFFFFFFFF NOT AND EQ DUP1 PUSH2 0x40D JUMPI POP PUSH32 0x80AC58CD00000000000000000000000000000000000000000000000000000000 PUSH28 0xFFFFFFFFFFFFFFFFFFFFFFFFFFFFFFFFFFFFFFFFFFFFFFFFFFFFFFFF NOT AND DUP3 PUSH28 0xFFFFFFFFFFFFFFFFFFFFFFFFFFFFFFFFFFFFFFFFFFFFFFFFFFFFFFFF NOT AND EQ JUMPDEST DUP1 PUSH2 0x475 JUMPI POP PUSH32 0x5B5E139F00000000000000000000000000000000000000000000000000000000 PUSH28 0xFFFFFFFFFFFFFFFFFFFFFFFFFFFFFFFFFFFFFFFFFFFFFFFFFFFFFFFF NOT AND DUP3 PUSH28 0xFFFFFFFFFFFFFFFFFFFFFFFFFFFFFFFFFFFFFFFFFFFFFFFFFFFFFFFF NOT AND EQ JUMPDEST SWAP1 POP SWAP2 SWAP1 POP JUMP JUMPDEST PUSH1 0x60 PUSH1 0x0 DUP1 SLOAD PUSH2 0x48B SWAP1 PUSH2 0x23BC JUMP JUMPDEST DUP1 PUSH1 0x1F ADD PUSH1 0x20 DUP1 SWAP2 DIV MUL PUSH1 0x20 ADD PUSH1 0x40 MLOAD SWAP1 DUP2 ADD PUSH1 0x40 MSTORE DUP1 SWAP3 SWAP2 SWAP1 DUP2 DUP2 MSTORE PUSH1 0x20 ADD DUP3 DUP1 SLOAD PUSH2 0x4B7 SWAP1 PUSH2 0x23BC JUMP JUMPDEST DUP1 ISZERO PUSH2 0x504 JUMPI DUP1 PUSH1 0x1F LT PUSH2 0x4D9 JUMPI PUSH2 0x100 DUP1 DUP4 SLOAD DIV MUL DUP4 MSTORE SWAP2 PUSH1 0x20 ADD SWAP2 PUSH2 0x504 JUMP JUMPDEST DUP3 ADD SWAP2 SWAP1 PUSH1 0x0 MSTORE PUSH1 0x20 PUSH1 0x0 KECCAK256 SWAP1 JUMPDEST DUP2 SLOAD DUP2 MSTORE SWAP1 PUSH1 0x1 ADD SWAP1 PUSH1 0x20 ADD DUP1 DUP4 GT PUSH2 0x4E7 JUMPI DUP3 SWAP1 SUB PUSH1 0x1F AND DUP3 ADD SWAP2 JUMPDEST POP POP POP POP POP SWAP1 POP SWAP1 JUMP JUMPDEST PUSH1 0x0 DUP1 PUSH20 0xFFFFFFFFFFFFFFFFFFFFFFFFFFFFFFFFFFFFFFFF AND PUSH1 0x2 PUSH1 0x0 DUP5 DUP2 MSTORE PUSH1 0x20 ADD SWAP1 DUP2 MSTORE PUSH1 0x20 ADD PUSH1 0x0 KECCAK256 PUSH1 0x0 SWAP1 SLOAD SWAP1 PUSH2 0x100 EXP SWAP1 DIV PUSH20 0xFFFFFFFFFFFFFFFFFFFFFFFFFFFFFFFFFFFFFFFF AND PUSH20 0xFFFFFFFFFFFFFFFFFFFFFFFFFFFFFFFFFFFFFFFF AND EQ ISZERO PUSH2 0x5B2 JUMPI PUSH1 0x40 MLOAD PUSH32 0x8C379A000000000000000000000000000000000000000000000000000000000 DUP2 MSTORE PUSH1 0x4 ADD PUSH2 0x5A9 SWAP1 PUSH2 0x2082 JUMP JUMPDEST PUSH1 0x40 MLOAD DUP1 SWAP2 SUB SWAP1 REVERT JUMPDEST PUSH1 0x4 PUSH1 0x0 DUP4 DUP2 MSTORE PUSH1 0x20 ADD SWAP1 DUP2 MSTORE PUSH1 0x20 ADD PUSH1 0x0 KECCAK256 PUSH1 0x0 SWAP1 SLOAD SWAP1 PUSH2 0x100 EXP SWAP1 DIV PUSH20 0xFFFFFFFFFFFFFFFFFFFFFFFFFFFFFFFFFFFFFFFF AND SWAP1 POP SWAP2 SWAP1 POP JUMP JUMPDEST PUSH1 0x60 PUSH1 0x0 PUSH2 0x5FB PUSH1 0x6 PUSH2 0x153E JUMP JUMPDEST SWAP1 POP PUSH1 0x0 PUSH2 0x608 DUP5 PUSH2 0x101E JUMP JUMPDEST GT PUSH2 0x648 JUMPI PUSH1 0x40 MLOAD PUSH32 0x8C379A000000000000000000000000000000000000000000000000000000000 DUP2 MSTORE PUSH1 0x4 ADD PUSH2 0x63F SWAP1 PUSH2 0x2122 JUMP JUMPDEST PUSH1 0x40 MLOAD DUP1 SWAP2 SUB SWAP1 REVERT JUMPDEST PUSH1 0x0 PUSH2 0x653 DUP5 PUSH2 0x101E JUMP JUMPDEST PUSH8 0xFFFFFFFFFFFFFFFF DUP2 GT ISZERO PUSH2 0x66C JUMPI PUSH2 0x66B PUSH2 0x24F5 JUMP JUMPDEST JUMPDEST PUSH1 0x40 MLOAD SWAP1 DUP1 DUP3 MSTORE DUP1 PUSH1 0x20 MUL PUSH1 0x20 ADD DUP3 ADD PUSH1 0x40 MSTORE DUP1 ISZERO PUSH2 0x6A5 JUMPI DUP2 PUSH1 0x20 ADD JUMPDEST PUSH2 0x692 PUSH2 0x177B JUMP JUMPDEST DUP2 MSTORE PUSH1 0x20 ADD SWAP1 PUSH1 0x1 SWAP1 SUB SWAP1 DUP2 PUSH2 0x68A JUMPI SWAP1 POP JUMPDEST POP SWAP1 POP PUSH1 0x0 DUP1 PUSH1 0x1 SWAP1 POP JUMPDEST DUP4 DUP2 GT PUSH2 0x7F8 JUMPI DUP6 PUSH20 0xFFFFFFFFFFFFFFFFFFFFFFFFFFFFFFFFFFFFFFFF AND PUSH2 0x6D7 DUP3 PUSH2 0xF3F JUMP JUMPDEST PUSH20 0xFFFFFFFFFFFFFFFFFFFFFFFFFFFFFFFFFFFFFFFF AND EQ ISZERO PUSH2 0x7E5 JUMPI DUP1 DUP4 DUP4 DUP2 MLOAD DUP2 LT PUSH2 0x707 JUMPI PUSH2 0x706 PUSH2 0x24C6 JUMP JUMPDEST JUMPDEST PUSH1 0x20 MUL PUSH1 0x20 ADD ADD MLOAD PUSH1 0x0 ADD DUP2 DUP2 MSTORE POP POP PUSH1 0x7 PUSH1 0x0 DUP3 DUP2 MSTORE PUSH1 0x20 ADD SWAP1 DUP2 MSTORE PUSH1 0x20 ADD PUSH1 0x0 KECCAK256 DUP1 SLOAD PUSH2 0x735 SWAP1 PUSH2 0x23BC JUMP JUMPDEST DUP1 PUSH1 0x1F ADD PUSH1 0x20 DUP1 SWAP2 DIV MUL PUSH1 0x20 ADD PUSH1 0x40 MLOAD SWAP1 DUP2 ADD PUSH1 0x40 MSTORE DUP1 SWAP3 SWAP2 SWAP1 DUP2 DUP2 MSTORE PUSH1 0x20 ADD DUP3 DUP1 SLOAD PUSH2 0x761 SWAP1 PUSH2 0x23BC JUMP JUMPDEST DUP1 ISZERO PUSH2 0x7AE JUMPI DUP1 PUSH1 0x1F LT PUSH2 0x783 JUMPI PUSH2 0x100 DUP1 DUP4 SLOAD DIV MUL DUP4 MSTORE SWAP2 PUSH1 0x20 ADD SWAP2 PUSH2 0x7AE JUMP JUMPDEST DUP3 ADD SWAP2 SWAP1 PUSH1 0x0 MSTORE PUSH1 0x20 PUSH1 0x0 KECCAK256 SWAP1 JUMPDEST DUP2 SLOAD DUP2 MSTORE SWAP1 PUSH1 0x1 ADD SWAP1 PUSH1 0x20 ADD DUP1 DUP4 GT PUSH2 0x791 JUMPI DUP3 SWAP1 SUB PUSH1 0x1F AND DUP3 ADD SWAP2 JUMPDEST POP POP POP POP POP DUP4 DUP4 DUP2 MLOAD DUP2 LT PUSH2 0x7C6 JUMPI PUSH2 0x7C5 PUSH2 0x24C6 JUMP JUMPDEST JUMPDEST PUSH1 0x20 MUL PUSH1 0x20 ADD ADD MLOAD PUSH1 0x20 ADD DUP2 SWAP1 MSTORE POP PUSH1 0x1 DUP3 PUSH2 0x7E2 SWAP2 SWAP1 PUSH2 0x2286 JUMP JUMPDEST SWAP2 POP JUMPDEST DUP1 DUP1 PUSH2 0x7F0 SWAP1 PUSH2 0x241F JUMP JUMPDEST SWAP2 POP POP PUSH2 0x6B0 JUMP JUMPDEST POP DUP2 SWAP4 POP POP POP POP SWAP2 SWAP1 POP JUMP JUMPDEST PUSH1 0x0 PUSH1 0x2 PUSH1 0x0 DUP4 DUP2 MSTORE PUSH1 0x20 ADD SWAP1 DUP2 MSTORE PUSH1 0x20 ADD PUSH1 0x0 KECCAK256 PUSH1 0x0 SWAP1 SLOAD SWAP1 PUSH2 0x100 EXP SWAP1 DIV PUSH20 0xFFFFFFFFFFFFFFFFFFFFFFFFFFFFFFFFFFFFFFFF AND SWAP1 POP DUP1 PUSH20 0xFFFFFFFFFFFFFFFFFFFFFFFFFFFFFFFFFFFFFFFF AND CALLER PUSH20 0xFFFFFFFFFFFFFFFFFFFFFFFFFFFFFFFFFFFFFFFF AND EQ DUP1 PUSH2 0x8FC JUMPI POP PUSH1 0x5 PUSH1 0x0 DUP3 PUSH20 0xFFFFFFFFFFFFFFFFFFFFFFFFFFFFFFFFFFFFFFFF AND PUSH20 0xFFFFFFFFFFFFFFFFFFFFFFFFFFFFFFFFFFFFFFFF AND DUP2 MSTORE PUSH1 0x20 ADD SWAP1 DUP2 MSTORE PUSH1 0x20 ADD PUSH1 0x0 KECCAK256 PUSH1 0x0 CALLER PUSH20 0xFFFFFFFFFFFFFFFFFFFFFFFFFFFFFFFFFFFFFFFF AND PUSH20 0xFFFFFFFFFFFFFFFFFFFFFFFFFFFFFFFFFFFFFFFF AND DUP2 MSTORE PUSH1 0x20 ADD SWAP1 DUP2 MSTORE PUSH1 0x20 ADD PUSH1 0x0 KECCAK256 PUSH1 0x0 SWAP1 SLOAD SWAP1 PUSH2 0x100 EXP SWAP1 DIV PUSH1 0xFF AND JUMPDEST PUSH2 0x93B JUMPI PUSH1 0x40 MLOAD PUSH32 0x8C379A000000000000000000000000000000000000000000000000000000000 DUP2 MSTORE PUSH1 0x4 ADD PUSH2 0x932 SWAP1 PUSH2 0x20E2 JUMP JUMPDEST PUSH1 0x40 MLOAD DUP1 SWAP2 SUB SWAP1 REVERT JUMPDEST DUP3 PUSH1 0x4 PUSH1 0x0 DUP5 DUP2 MSTORE PUSH1 0x20 ADD SWAP1 DUP2 MSTORE PUSH1 0x20 ADD PUSH1 0x0 KECCAK256 PUSH1 0x0 PUSH2 0x100 EXP DUP2 SLOAD DUP2 PUSH20 0xFFFFFFFFFFFFFFFFFFFFFFFFFFFFFFFFFFFFFFFF MUL NOT AND SWAP1 DUP4 PUSH20 0xFFFFFFFFFFFFFFFFFFFFFFFFFFFFFFFFFFFFFFFF AND MUL OR SWAP1 SSTORE POP DUP2 DUP4 PUSH20 0xFFFFFFFFFFFFFFFFFFFFFFFFFFFFFFFFFFFFFFFF AND DUP3 PUSH20 0xFFFFFFFFFFFFFFFFFFFFFFFFFFFFFFFFFFFFFFFF AND PUSH32 0x8C5BE1E5EBEC7D5BD14F71427D1E84F3DD0314C0F7B2291E5B200AC8C7C3B925 PUSH1 0x40 MLOAD PUSH1 0x40 MLOAD DUP1 SWAP2 SUB SWAP1 LOG4 POP POP POP JUMP JUMPDEST PUSH1 0x2 PUSH1 0x0 DUP3 DUP2 MSTORE PUSH1 0x20 ADD SWAP1 DUP2 MSTORE PUSH1 0x20 ADD PUSH1 0x0 KECCAK256 PUSH1 0x0 SWAP1 SLOAD SWAP1 PUSH2 0x100 EXP SWAP1 DIV PUSH20 0xFFFFFFFFFFFFFFFFFFFFFFFFFFFFFFFFFFFFFFFF AND PUSH20 0xFFFFFFFFFFFFFFFFFFFFFFFFFFFFFFFFFFFFFFFF AND DUP4 PUSH20 0xFFFFFFFFFFFFFFFFFFFFFFFFFFFFFFFFFFFFFFFF AND EQ PUSH2 0xA8E JUMPI PUSH1 0x40 MLOAD PUSH32 0x8C379A000000000000000000000000000000000000000000000000000000000 DUP2 MSTORE PUSH1 0x4 ADD PUSH2 0xA85 SWAP1 PUSH2 0x2102 JUMP JUMPDEST PUSH1 0x40 MLOAD DUP1 SWAP2 SUB SWAP1 REVERT JUMPDEST PUSH1 0x0 PUSH20 0xFFFFFFFFFFFFFFFFFFFFFFFFFFFFFFFFFFFFFFFF AND DUP3 PUSH20 0xFFFFFFFFFFFFFFFFFFFFFFFFFFFFFFFFFFFFFFFF AND EQ ISZERO PUSH2 0xAFE JUMPI PUSH1 0x40 MLOAD PUSH32 0x8C379A000000000000000000000000000000000000000000000000000000000 DUP2 MSTORE PUSH1 0x4 ADD PUSH2 0xAF5 SWAP1 PUSH2 0x20A2 JUMP JUMPDEST PUSH1 0x40 MLOAD DUP1 SWAP2 SUB SWAP1 REVERT JUMPDEST DUP3 PUSH20 0xFFFFFFFFFFFFFFFFFFFFFFFFFFFFFFFFFFFFFFFF AND CALLER PUSH20 0xFFFFFFFFFFFFFFFFFFFFFFFFFFFFFFFFFFFFFFFF AND EQ DUP1 PUSH2 0xBBE JUMPI POP PUSH1 0x5 PUSH1 0x0 DUP5 PUSH20 0xFFFFFFFFFFFFFFFFFFFFFFFFFFFFFFFFFFFFFFFF AND PUSH20 0xFFFFFFFFFFFFFFFFFFFFFFFFFFFFFFFFFFFFFFFF AND DUP2 MSTORE PUSH1 0x20 ADD SWAP1 DUP2 MSTORE PUSH1 0x20 ADD PUSH1 0x0 KECCAK256 PUSH1 0x0 CALLER PUSH20 0xFFFFFFFFFFFFFFFFFFFFFFFFFFFFFFFFFFFFFFFF AND PUSH20 0xFFFFFFFFFFFFFFFFFFFFFFFFFFFFFFFFFFFFFFFF AND DUP2 MSTORE PUSH1 0x20 ADD SWAP1 DUP2 MSTORE PUSH1 0x20 ADD PUSH1 0x0 KECCAK256 PUSH1 0x0 SWAP1 SLOAD SWAP1 PUSH2 0x100 EXP SWAP1 DIV PUSH1 0xFF AND JUMPDEST DUP1 PUSH2 0xC27 JUMPI POP PUSH1 0x4 PUSH1 0x0 DUP3 DUP2 MSTORE PUSH1 0x20 ADD SWAP1 DUP2 MSTORE PUSH1 0x20 ADD PUSH1 0x0 KECCAK256 PUSH1 0x0 SWAP1 SLOAD SWAP1 PUSH2 0x100 EXP SWAP1 DIV PUSH20 0xFFFFFFFFFFFFFFFFFFFFFFFFFFFFFFFFFFFFFFFF AND PUSH20 0xFFFFFFFFFFFFFFFFFFFFFFFFFFFFFFFFFFFFFFFF AND CALLER PUSH20 0xFFFFFFFFFFFFFFFFFFFFFFFFFFFFFFFFFFFFFFFF AND EQ JUMPDEST PUSH2 0xC66 JUMPI PUSH1 0x40 MLOAD PUSH32 0x8C379A000000000000000000000000000000000000000000000000000000000 DUP2 MSTORE PUSH1 0x4 ADD PUSH2 0xC5D SWAP1 PUSH2 0x20E2 JUMP JUMPDEST PUSH1 0x40 MLOAD DUP1 SWAP2 SUB SWAP1 REVERT JUMPDEST PUSH1 0x3 PUSH1 0x0 DUP5 PUSH20 0xFFFFFFFFFFFFFFFFFFFFFFFFFFFFFFFFFFFFFFFF AND PUSH20 0xFFFFFFFFFFFFFFFFFFFFFFFFFFFFFFFFFFFFFFFF AND DUP2 MSTORE PUSH1 0x20 ADD SWAP1 DUP2 MSTORE PUSH1 0x20 ADD PUSH1 0x0 KECCAK256 PUSH1 0x0 DUP2 SLOAD DUP1 SWAP3 SWAP2 SWAP1 PUSH2 0xCB6 SWAP1 PUSH2 0x2392 JUMP JUMPDEST SWAP2 SWAP1 POP SSTORE POP PUSH1 0x3 PUSH1 0x0 DUP4 PUSH20 0xFFFFFFFFFFFFFFFFFFFFFFFFFFFFFFFFFFFFFFFF AND PUSH20 0xFFFFFFFFFFFFFFFFFFFFFFFFFFFFFFFFFFFFFFFF AND DUP2 MSTORE PUSH1 0x20 ADD SWAP1 DUP2 MSTORE PUSH1 0x20 ADD PUSH1 0x0 KECCAK256 PUSH1 0x0 DUP2 SLOAD DUP1 SWAP3 SWAP2 SWAP1 PUSH2 0xD0B SWAP1 PUSH2 0x241F JUMP JUMPDEST SWAP2 SWAP1 POP SSTORE POP DUP2 PUSH1 0x2 PUSH1 0x0 DUP4 DUP2 MSTORE PUSH1 0x20 ADD SWAP1 DUP2 MSTORE PUSH1 0x20 ADD PUSH1 0x0 KECCAK256 PUSH1 0x0 PUSH2 0x100 EXP DUP2 SLOAD DUP2 PUSH20 0xFFFFFFFFFFFFFFFFFFFFFFFFFFFFFFFFFFFFFFFF MUL NOT AND SWAP1 DUP4 PUSH20 0xFFFFFFFFFFFFFFFFFFFFFFFFFFFFFFFFFFFFFFFF AND MUL OR SWAP1 SSTORE POP PUSH1 0x4 PUSH1 0x0 DUP3 DUP2 MSTORE PUSH1 0x20 ADD SWAP1 DUP2 MSTORE PUSH1 0x20 ADD PUSH1 0x0 KECCAK256 PUSH1 0x0 PUSH2 0x100 EXP DUP2 SLOAD SWAP1 PUSH20 0xFFFFFFFFFFFFFFFFFFFFFFFFFFFFFFFFFFFFFFFF MUL NOT AND SWAP1 SSTORE DUP1 DUP3 PUSH20 0xFFFFFFFFFFFFFFFFFFFFFFFFFFFFFFFFFFFFFFFF AND DUP5 PUSH20 0xFFFFFFFFFFFFFFFFFFFFFFFFFFFFFFFFFFFFFFFF AND PUSH32 0xDDF252AD1BE2C89B69C2B068FC378DAA952BA7F163C4A11628F55A4DF523B3EF PUSH1 0x40 MLOAD PUSH1 0x40 MLOAD DUP1 SWAP2 SUB SWAP1 LOG4 POP POP POP JUMP JUMPDEST PUSH2 0xE03 DUP4 DUP4 DUP4 PUSH2 0x9ED JUMP JUMPDEST PUSH1 0x0 DUP3 PUSH20 0xFFFFFFFFFFFFFFFFFFFFFFFFFFFFFFFFFFFFFFFF AND EXTCODESIZE EQ DUP1 PUSH2 0xEFB JUMPI POP PUSH4 0x150B7A02 PUSH1 0xE0 SHL PUSH28 0xFFFFFFFFFFFFFFFFFFFFFFFFFFFFFFFFFFFFFFFFFFFFFFFFFFFFFFFF NOT AND DUP3 PUSH20 0xFFFFFFFFFFFFFFFFFFFFFFFFFFFFFFFFFFFFFFFF AND PUSH4 0x150B7A02 CALLER DUP7 DUP6 PUSH1 0x40 MLOAD DUP5 PUSH4 0xFFFFFFFF AND PUSH1 0xE0 SHL DUP2 MSTORE PUSH1 0x4 ADD PUSH2 0xE88 SWAP4 SWAP3 SWAP2 SWAP1 PUSH2 0x1F99 JUMP JUMPDEST PUSH1 0x20 PUSH1 0x40 MLOAD DUP1 DUP4 SUB DUP2 PUSH1 0x0 DUP8 DUP1 EXTCODESIZE ISZERO DUP1 ISZERO PUSH2 0xEA2 JUMPI PUSH1 0x0 DUP1 REVERT JUMPDEST POP GAS CALL ISZERO DUP1 ISZERO PUSH2 0xEB6 JUMPI RETURNDATASIZE PUSH1 0x0 DUP1 RETURNDATACOPY RETURNDATASIZE PUSH1 0x0 REVERT JUMPDEST POP POP POP POP PUSH1 0x40 MLOAD RETURNDATASIZE PUSH1 0x1F NOT PUSH1 0x1F DUP3 ADD AND DUP3 ADD DUP1 PUSH1 0x40 MSTORE POP DUP2 ADD SWAP1 PUSH2 0xEDA SWAP2 SWAP1 PUSH2 0x1BCD JUMP JUMPDEST PUSH28 0xFFFFFFFFFFFFFFFFFFFFFFFFFFFFFFFFFFFFFFFFFFFFFFFFFFFFFFFF NOT AND EQ JUMPDEST PUSH2 0xF3A JUMPI PUSH1 0x40 MLOAD PUSH32 0x8C379A000000000000000000000000000000000000000000000000000000000 DUP2 MSTORE PUSH1 0x4 ADD PUSH2 0xF31 SWAP1 PUSH2 0x2042 JUMP JUMPDEST PUSH1 0x40 MLOAD DUP1 SWAP2 SUB SWAP1 REVERT JUMPDEST POP POP POP JUMP JUMPDEST PUSH1 0x0 DUP1 PUSH20 0xFFFFFFFFFFFFFFFFFFFFFFFFFFFFFFFFFFFFFFFF AND PUSH1 0x2 PUSH1 0x0 DUP5 DUP2 MSTORE PUSH1 0x20 ADD SWAP1 DUP2 MSTORE PUSH1 0x20 ADD PUSH1 0x0 KECCAK256 PUSH1 0x0 SWAP1 SLOAD SWAP1 PUSH2 0x100 EXP SWAP1 DIV PUSH20 0xFFFFFFFFFFFFFFFFFFFFFFFFFFFFFFFFFFFFFFFF AND PUSH20 0xFFFFFFFFFFFFFFFFFFFFFFFFFFFFFFFFFFFFFFFF AND EQ ISZERO PUSH2 0xFE3 JUMPI PUSH1 0x40 MLOAD PUSH32 0x8C379A000000000000000000000000000000000000000000000000000000000 DUP2 MSTORE PUSH1 0x4 ADD PUSH2 0xFDA SWAP1 PUSH2 0x2082 JUMP JUMPDEST PUSH1 0x40 MLOAD DUP1 SWAP2 SUB SWAP1 REVERT JUMPDEST PUSH1 0x2 PUSH1 0x0 DUP4 DUP2 MSTORE PUSH1 0x20 ADD SWAP1 DUP2 MSTORE PUSH1 0x20 ADD PUSH1 0x0 KECCAK256 PUSH1 0x0 SWAP1 SLOAD SWAP1 PUSH2 0x100 EXP SWAP1 DIV PUSH20 0xFFFFFFFFFFFFFFFFFFFFFFFFFFFFFFFFFFFFFFFF AND SWAP1 POP SWAP2 SWAP1 POP JUMP JUMPDEST PUSH1 0x0 DUP1 PUSH20 0xFFFFFFFFFFFFFFFFFFFFFFFFFFFFFFFFFFFFFFFF AND DUP3 PUSH20 0xFFFFFFFFFFFFFFFFFFFFFFFFFFFFFFFFFFFFFFFF AND EQ ISZERO PUSH2 0x108F JUMPI PUSH1 0x40 MLOAD PUSH32 0x8C379A000000000000000000000000000000000000000000000000000000000 DUP2 MSTORE PUSH1 0x4 ADD PUSH2 0x1086 SWAP1 PUSH2 0x20C2 JUMP JUMPDEST PUSH1 0x40 MLOAD DUP1 SWAP2 SUB SWAP1 REVERT JUMPDEST PUSH1 0x3 PUSH1 0x0 DUP4 PUSH20 0xFFFFFFFFFFFFFFFFFFFFFFFFFFFFFFFFFFFFFFFF AND PUSH20 0xFFFFFFFFFFFFFFFFFFFFFFFFFFFFFFFFFFFFFFFF AND DUP2 MSTORE PUSH1 0x20 ADD SWAP1 DUP2 MSTORE PUSH1 0x20 ADD PUSH1 0x0 KECCAK256 SLOAD SWAP1 POP SWAP2 SWAP1 POP JUMP JUMPDEST PUSH1 0x60 PUSH1 0x1 DUP1 SLOAD PUSH2 0x10E5 SWAP1 PUSH2 0x23BC JUMP JUMPDEST DUP1 PUSH1 0x1F ADD PUSH1 0x20 DUP1 SWAP2 DIV MUL PUSH1 0x20 ADD PUSH1 0x40 MLOAD SWAP1 DUP2 ADD PUSH1 0x40 MSTORE DUP1 SWAP3 SWAP2 SWAP1 DUP2 DUP2 MSTORE PUSH1 0x20 ADD DUP3 DUP1 SLOAD PUSH2 0x1111 SWAP1 PUSH2 0x23BC JUMP JUMPDEST DUP1 ISZERO PUSH2 0x115E JUMPI DUP1 PUSH1 0x1F LT PUSH2 0x1133 JUMPI PUSH2 0x100 DUP1 DUP4 SLOAD DIV MUL DUP4 MSTORE SWAP2 PUSH1 0x20 ADD SWAP2 PUSH2 0x115E JUMP JUMPDEST DUP3 ADD SWAP2 SWAP1 PUSH1 0x0 MSTORE PUSH1 0x20 PUSH1 0x0 KECCAK256 SWAP1 JUMPDEST DUP2 SLOAD DUP2 MSTORE SWAP1 PUSH1 0x1 ADD SWAP1 PUSH1 0x20 ADD DUP1 DUP4 GT PUSH2 0x1141 JUMPI DUP3 SWAP1 SUB PUSH1 0x1F AND DUP3 ADD SWAP2 JUMPDEST POP POP POP POP POP SWAP1 POP SWAP1 JUMP JUMPDEST PUSH1 0x0 PUSH2 0x1174 PUSH1 0x6 PUSH2 0x154C JUMP JUMPDEST PUSH1 0x0 PUSH2 0x1180 PUSH1 0x6 PUSH2 0x153E JUMP JUMPDEST SWAP1 POP PUSH2 0x118C DUP5 DUP3 PUSH2 0x1562 JUMP JUMPDEST DUP3 PUSH1 0x7 PUSH1 0x0 DUP4 DUP2 MSTORE PUSH1 0x20 ADD SWAP1 DUP2 MSTORE PUSH1 0x20 ADD PUSH1 0x0 KECCAK256 SWAP1 DUP1 MLOAD SWAP1 PUSH1 0x20 ADD SWAP1 PUSH2 0x11B3 SWAP3 SWAP2 SWAP1 PUSH2 0x1795 JUMP JUMPDEST POP DUP1 SWAP2 POP POP SWAP3 SWAP2 POP POP JUMP JUMPDEST DUP1 PUSH1 0x5 PUSH1 0x0 CALLER PUSH20 0xFFFFFFFFFFFFFFFFFFFFFFFFFFFFFFFFFFFFFFFF AND PUSH20 0xFFFFFFFFFFFFFFFFFFFFFFFFFFFFFFFFFFFFFFFF AND DUP2 MSTORE PUSH1 0x20 ADD SWAP1 DUP2 MSTORE PUSH1 0x20 ADD PUSH1 0x0 KECCAK256 PUSH1 0x0 DUP5 PUSH20 0xFFFFFFFFFFFFFFFFFFFFFFFFFFFFFFFFFFFFFFFF AND PUSH20 0xFFFFFFFFFFFFFFFFFFFFFFFFFFFFFFFFFFFFFFFF AND DUP2 MSTORE PUSH1 0x20 ADD SWAP1 DUP2 MSTORE PUSH1 0x20 ADD PUSH1 0x0 KECCAK256 PUSH1 0x0 PUSH2 0x100 EXP DUP2 SLOAD DUP2 PUSH1 0xFF MUL NOT AND SWAP1 DUP4 ISZERO ISZERO MUL OR SWAP1 SSTORE POP DUP2 PUSH20 0xFFFFFFFFFFFFFFFFFFFFFFFFFFFFFFFFFFFFFFFF AND CALLER PUSH20 0xFFFFFFFFFFFFFFFFFFFFFFFFFFFFFFFFFFFFFFFF AND PUSH32 0x17307EAB39AB6107E8899845AD3D59BD9653F200F220920489CA2B5937696C31 DUP4 PUSH1 0x40 MLOAD PUSH2 0x12AF SWAP2 SWAP1 PUSH2 0x2005 JUMP JUMPDEST PUSH1 0x40 MLOAD DUP1 SWAP2 SUB SWAP1 LOG3 POP POP JUMP JUMPDEST PUSH2 0x12C6 DUP5 DUP5 DUP5 PUSH2 0x9ED JUMP JUMPDEST PUSH1 0x0 DUP4 PUSH20 0xFFFFFFFFFFFFFFFFFFFFFFFFFFFFFFFFFFFFFFFF AND EXTCODESIZE EQ DUP1 PUSH2 0x13C0 JUMPI POP PUSH4 0x150B7A02 PUSH1 0xE0 SHL PUSH28 0xFFFFFFFFFFFFFFFFFFFFFFFFFFFFFFFFFFFFFFFFFFFFFFFFFFFFFFFF NOT AND DUP4 PUSH20 0xFFFFFFFFFFFFFFFFFFFFFFFFFFFFFFFFFFFFFFFF AND PUSH4 0x150B7A02 CALLER DUP8 DUP7 DUP7 PUSH1 0x40 MLOAD DUP6 PUSH4 0xFFFFFFFF AND PUSH1 0xE0 SHL DUP2 MSTORE PUSH1 0x4 ADD PUSH2 0x134D SWAP5 SWAP4 SWAP3 SWAP2 SWAP1 PUSH2 0x1F4D JUMP JUMPDEST PUSH1 0x20 PUSH1 0x40 MLOAD DUP1 DUP4 SUB DUP2 PUSH1 0x0 DUP8 DUP1 EXTCODESIZE ISZERO DUP1 ISZERO PUSH2 0x1367 JUMPI PUSH1 0x0 DUP1 REVERT JUMPDEST POP GAS CALL ISZERO DUP1 ISZERO PUSH2 0x137B JUMPI RETURNDATASIZE PUSH1 0x0 DUP1 RETURNDATACOPY RETURNDATASIZE PUSH1 0x0 REVERT JUMPDEST POP POP POP POP PUSH1 0x40 MLOAD RETURNDATASIZE PUSH1 0x1F NOT PUSH1 0x1F DUP3 ADD AND DUP3 ADD DUP1 PUSH1 0x40 MSTORE POP DUP2 ADD SWAP1 PUSH2 0x139F SWAP2 SWAP1 PUSH2 0x1BCD JUMP JUMPDEST PUSH28 0xFFFFFFFFFFFFFFFFFFFFFFFFFFFFFFFFFFFFFFFFFFFFFFFFFFFFFFFF NOT AND EQ JUMPDEST PUSH2 0x13FF JUMPI PUSH1 0x40 MLOAD PUSH32 0x8C379A000000000000000000000000000000000000000000000000000000000 DUP2 MSTORE PUSH1 0x4 ADD PUSH2 0x13F6 SWAP1 PUSH2 0x2042 JUMP JUMPDEST PUSH1 0x40 MLOAD DUP1 SWAP2 SUB SWAP1 REVERT JUMPDEST POP POP POP POP JUMP JUMPDEST PUSH1 0x60 PUSH1 0x7 PUSH1 0x0 DUP4 DUP2 MSTORE PUSH1 0x20 ADD SWAP1 DUP2 MSTORE PUSH1 0x20 ADD PUSH1 0x0 KECCAK256 DUP1 SLOAD PUSH2 0x1425 SWAP1 PUSH2 0x23BC JUMP JUMPDEST DUP1 PUSH1 0x1F ADD PUSH1 0x20 DUP1 SWAP2 DIV MUL PUSH1 0x20 ADD PUSH1 0x40 MLOAD SWAP1 DUP2 ADD PUSH1 0x40 MSTORE DUP1 SWAP3 SWAP2 SWAP1 DUP2 DUP2 MSTORE PUSH1 0x20 ADD DUP3 DUP1 SLOAD PUSH2 0x1451 SWAP1 PUSH2 0x23BC JUMP JUMPDEST DUP1 ISZERO PUSH2 0x149E JUMPI DUP1 PUSH1 0x1F LT PUSH2 0x1473 JUMPI PUSH2 0x100 DUP1 DUP4 SLOAD DIV MUL DUP4 MSTORE SWAP2 PUSH1 0x20 ADD SWAP2 PUSH2 0x149E JUMP JUMPDEST DUP3 ADD SWAP2 SWAP1 PUSH1 0x0 MSTORE PUSH1 0x20 PUSH1 0x0 KECCAK256 SWAP1 JUMPDEST DUP2 SLOAD DUP2 MSTORE SWAP1 PUSH1 0x1 ADD SWAP1 PUSH1 0x20 ADD DUP1 DUP4 GT PUSH2 0x1481 JUMPI DUP3 SWAP1 SUB PUSH1 0x1F AND DUP3 ADD SWAP2 JUMPDEST POP POP POP POP POP SWAP1 POP SWAP2 SWAP1 POP JUMP JUMPDEST PUSH1 0x0 PUSH1 0x5 PUSH1 0x0 DUP5 PUSH20 0xFFFFFFFFFFFFFFFFFFFFFFFFFFFFFFFFFFFFFFFF AND PUSH20 0xFFFFFFFFFFFFFFFFFFFFFFFFFFFFFFFFFFFFFFFF AND DUP2 MSTORE PUSH1 0x20 ADD SWAP1 DUP2 MSTORE PUSH1 0x20 ADD PUSH1 0x0 KECCAK256 PUSH1 0x0 DUP4 PUSH20 0xFFFFFFFFFFFFFFFFFFFFFFFFFFFFFFFFFFFFFFFF AND PUSH20 0xFFFFFFFFFFFFFFFFFFFFFFFFFFFFFFFFFFFFFFFF AND DUP2 MSTORE PUSH1 0x20 ADD SWAP1 DUP2 MSTORE PUSH1 0x20 ADD PUSH1 0x0 KECCAK256 PUSH1 0x0 SWAP1 SLOAD SWAP1 PUSH2 0x100 EXP SWAP1 DIV PUSH1 0xFF AND SWAP1 POP SWAP3 SWAP2 POP POP JUMP JUMPDEST PUSH1 0x0 DUP2 PUSH1 0x0 ADD SLOAD SWAP1 POP SWAP2 SWAP1 POP JUMP JUMPDEST PUSH1 0x1 DUP2 PUSH1 0x0 ADD PUSH1 0x0 DUP3 DUP3 SLOAD ADD SWAP3 POP POP DUP2 SWAP1 SSTORE POP POP JUMP JUMPDEST PUSH1 0x0 PUSH20 0xFFFFFFFFFFFFFFFFFFFFFFFFFFFFFFFFFFFFFFFF AND DUP3 PUSH20 0xFFFFFFFFFFFFFFFFFFFFFFFFFFFFFFFFFFFFFFFF AND EQ ISZERO PUSH2 0x15D2 JUMPI PUSH1 0x40 MLOAD PUSH32 0x8C379A000000000000000000000000000000000000000000000000000000000 DUP2 MSTORE PUSH1 0x4 ADD PUSH2 0x15C9 SWAP1 PUSH2 0x2062 JUMP JUMPDEST PUSH1 0x40 MLOAD DUP1 SWAP2 SUB SWAP1 REVERT JUMPDEST PUSH1 0x0 PUSH20 0xFFFFFFFFFFFFFFFFFFFFFFFFFFFFFFFFFFFFFFFF AND PUSH1 0x2 PUSH1 0x0 DUP4 DUP2 MSTORE PUSH1 0x20 ADD SWAP1 DUP2 MSTORE PUSH1 0x20 ADD PUSH1 0x0 KECCAK256 PUSH1 0x0 SWAP1 SLOAD SWAP1 PUSH2 0x100 EXP SWAP1 DIV PUSH20 0xFFFFFFFFFFFFFFFFFFFFFFFFFFFFFFFFFFFFFFFF AND PUSH20 0xFFFFFFFFFFFFFFFFFFFFFFFFFFFFFFFFFFFFFFFF AND EQ PUSH2 0x1674 JUMPI PUSH1 0x40 MLOAD PUSH32 0x8C379A000000000000000000000000000000000000000000000000000000000 DUP2 MSTORE PUSH1 0x4 ADD PUSH2 0x166B SWAP1 PUSH2 0x2142 JUMP JUMPDEST PUSH1 0x40 MLOAD DUP1 SWAP2 SUB SWAP1 REVERT JUMPDEST PUSH1 0x3 PUSH1 0x0 DUP4 PUSH20 0xFFFFFFFFFFFFFFFFFFFFFFFFFFFFFFFFFFFFFFFF AND PUSH20 0xFFFFFFFFFFFFFFFFFFFFFFFFFFFFFFFFFFFFFFFF AND DUP2 MSTORE PUSH1 0x20 ADD SWAP1 DUP2 MSTORE PUSH1 0x20 ADD PUSH1 0x0 KECCAK256 PUSH1 0x0 DUP2 SLOAD DUP1 SWAP3 SWAP2 SWAP1 PUSH2 0x16C4 SWAP1 PUSH2 0x241F JUMP JUMPDEST SWAP2 SWAP1 POP SSTORE POP DUP2 PUSH1 0x2 PUSH1 0x0 DUP4 DUP2 MSTORE PUSH1 0x20 ADD SWAP1 DUP2 MSTORE PUSH1 0x20 ADD PUSH1 0x0 KECCAK256 PUSH1 0x0 PUSH2 0x100 EXP DUP2 SLOAD DUP2 PUSH20 0xFFFFFFFFFFFFFFFFFFFFFFFFFFFFFFFFFFFFFFFF MUL NOT AND SWAP1 DUP4 PUSH20 0xFFFFFFFFFFFFFFFFFFFFFFFFFFFFFFFFFFFFFFFF AND MUL OR SWAP1 SSTORE POP DUP1 DUP3 PUSH20 0xFFFFFFFFFFFFFFFFFFFFFFFFFFFFFFFFFFFFFFFF AND PUSH1 0x0 PUSH20 0xFFFFFFFFFFFFFFFFFFFFFFFFFFFFFFFFFFFFFFFF AND PUSH32 0xDDF252AD1BE2C89B69C2B068FC378DAA952BA7F163C4A11628F55A4DF523B3EF PUSH1 0x40 MLOAD PUSH1 0x40 MLOAD DUP1 SWAP2 SUB SWAP1 LOG4 POP POP JUMP JUMPDEST PUSH1 0x40 MLOAD DUP1 PUSH1 0x40 ADD PUSH1 0x40 MSTORE DUP1 PUSH1 0x0 DUP2 MSTORE PUSH1 0x20 ADD PUSH1 0x60 DUP2 MSTORE POP SWAP1 JUMP JUMPDEST DUP3 DUP1 SLOAD PUSH2 0x17A1 SWAP1 PUSH2 0x23BC JUMP JUMPDEST SWAP1 PUSH1 0x0 MSTORE PUSH1 0x20 PUSH1 0x0 KECCAK256 SWAP1 PUSH1 0x1F ADD PUSH1 0x20 SWAP1 DIV DUP2 ADD SWAP3 DUP3 PUSH2 0x17C3 JUMPI PUSH1 0x0 DUP6 SSTORE PUSH2 0x180A JUMP JUMPDEST DUP3 PUSH1 0x1F LT PUSH2 0x17DC JUMPI DUP1 MLOAD PUSH1 0xFF NOT AND DUP4 DUP1 ADD OR DUP6 SSTORE PUSH2 0x180A JUMP JUMPDEST DUP3 DUP1 ADD PUSH1 0x1 ADD DUP6 SSTORE DUP3 ISZERO PUSH2 0x180A JUMPI SWAP2 DUP3 ADD JUMPDEST DUP3 DUP2 GT ISZERO PUSH2 0x1809 JUMPI DUP3 MLOAD DUP3 SSTORE SWAP2 PUSH1 0x20 ADD SWAP2 SWAP1 PUSH1 0x1 ADD SWAP1 PUSH2 0x17EE JUMP JUMPDEST JUMPDEST POP SWAP1 POP PUSH2 0x1817 SWAP2 SWAP1 PUSH2 0x181B JUMP JUMPDEST POP SWAP1 JUMP JUMPDEST JUMPDEST DUP1 DUP3 GT ISZERO PUSH2 0x1834 JUMPI PUSH1 0x0 DUP2 PUSH1 0x0 SWAP1 SSTORE POP PUSH1 0x1 ADD PUSH2 0x181C JUMP JUMPDEST POP SWAP1 JUMP JUMPDEST PUSH1 0x0 PUSH2 0x184B PUSH2 0x1846 DUP5 PUSH2 0x21A2 JUMP JUMPDEST PUSH2 0x217D JUMP JUMPDEST SWAP1 POP DUP3 DUP2 MSTORE PUSH1 0x20 DUP2 ADD DUP5 DUP5 DUP5 ADD GT ISZERO PUSH2 0x1867 JUMPI PUSH2 0x1866 PUSH2 0x2529 JUMP JUMPDEST JUMPDEST PUSH2 0x1872 DUP5 DUP3 DUP6 PUSH2 0x2350 JUMP JUMPDEST POP SWAP4 SWAP3 POP POP POP JUMP JUMPDEST PUSH1 0x0 PUSH2 0x188D PUSH2 0x1888 DUP5 PUSH2 0x21D3 JUMP JUMPDEST PUSH2 0x217D JUMP JUMPDEST SWAP1 POP DUP3 DUP2 MSTORE PUSH1 0x20 DUP2 ADD DUP5 DUP5 DUP5 ADD GT ISZERO PUSH2 0x18A9 JUMPI PUSH2 0x18A8 PUSH2 0x2529 JUMP JUMPDEST JUMPDEST PUSH2 0x18B4 DUP5 DUP3 DUP6 PUSH2 0x2350 JUMP JUMPDEST POP SWAP4 SWAP3 POP POP POP JUMP JUMPDEST PUSH1 0x0 DUP2 CALLDATALOAD SWAP1 POP PUSH2 0x18CB DUP2 PUSH2 0x26E3 JUMP JUMPDEST SWAP3 SWAP2 POP POP JUMP JUMPDEST PUSH1 0x0 DUP2 CALLDATALOAD SWAP1 POP PUSH2 0x18E0 DUP2 PUSH2 0x26FA JUMP JUMPDEST SWAP3 SWAP2 POP POP JUMP JUMPDEST PUSH1 0x0 DUP2 CALLDATALOAD SWAP1 POP PUSH2 0x18F5 DUP2 PUSH2 0x2711 JUMP JUMPDEST SWAP3 SWAP2 POP POP JUMP JUMPDEST PUSH1 0x0 DUP2 MLOAD SWAP1 POP PUSH2 0x190A DUP2 PUSH2 0x2711 JUMP JUMPDEST SWAP3 SWAP2 POP POP JUMP JUMPDEST PUSH1 0x0 DUP3 PUSH1 0x1F DUP4 ADD SLT PUSH2 0x1925 JUMPI PUSH2 0x1924 PUSH2 0x2524 JUMP JUMPDEST JUMPDEST DUP2 CALLDATALOAD PUSH2 0x1935 DUP5 DUP3 PUSH1 0x20 DUP7 ADD PUSH2 0x1838 JUMP JUMPDEST SWAP2 POP POP SWAP3 SWAP2 POP POP JUMP JUMPDEST PUSH1 0x0 DUP3 PUSH1 0x1F DUP4 ADD SLT PUSH2 0x1953 JUMPI PUSH2 0x1952 PUSH2 0x2524 JUMP JUMPDEST JUMPDEST DUP2 CALLDATALOAD PUSH2 0x1963 DUP5 DUP3 PUSH1 0x20 DUP7 ADD PUSH2 0x187A JUMP JUMPDEST SWAP2 POP POP SWAP3 SWAP2 POP POP JUMP JUMPDEST PUSH1 0x0 DUP2 CALLDATALOAD SWAP1 POP PUSH2 0x197B DUP2 PUSH2 0x2728 JUMP JUMPDEST SWAP3 SWAP2 POP POP JUMP JUMPDEST PUSH1 0x0 PUSH1 0x20 DUP3 DUP5 SUB SLT ISZERO PUSH2 0x1997 JUMPI PUSH2 0x1996 PUSH2 0x2533 JUMP JUMPDEST JUMPDEST PUSH1 0x0 PUSH2 0x19A5 DUP5 DUP3 DUP6 ADD PUSH2 0x18BC JUMP JUMPDEST SWAP2 POP POP SWAP3 SWAP2 POP POP JUMP JUMPDEST PUSH1 0x0 DUP1 PUSH1 0x40 DUP4 DUP6 SUB SLT ISZERO PUSH2 0x19C5 JUMPI PUSH2 0x19C4 PUSH2 0x2533 JUMP JUMPDEST JUMPDEST PUSH1 0x0 PUSH2 0x19D3 DUP6 DUP3 DUP7 ADD PUSH2 0x18BC JUMP JUMPDEST SWAP3 POP POP PUSH1 0x20 PUSH2 0x19E4 DUP6 DUP3 DUP7 ADD PUSH2 0x18BC JUMP JUMPDEST SWAP2 POP POP SWAP3 POP SWAP3 SWAP1 POP JUMP JUMPDEST PUSH1 0x0 DUP1 PUSH1 0x0 PUSH1 0x60 DUP5 DUP7 SUB SLT ISZERO PUSH2 0x1A07 JUMPI PUSH2 0x1A06 PUSH2 0x2533 JUMP JUMPDEST JUMPDEST PUSH1 0x0 PUSH2 0x1A15 DUP7 DUP3 DUP8 ADD PUSH2 0x18BC JUMP JUMPDEST SWAP4 POP POP PUSH1 0x20 PUSH2 0x1A26 DUP7 DUP3 DUP8 ADD PUSH2 0x18BC JUMP JUMPDEST SWAP3 POP POP PUSH1 0x40 PUSH2 0x1A37 DUP7 DUP3 DUP8 ADD PUSH2 0x196C JUMP JUMPDEST SWAP2 POP POP SWAP3 POP SWAP3 POP SWAP3 JUMP JUMPDEST PUSH1 0x0 DUP1 PUSH1 0x0 DUP1 PUSH1 0x80 DUP6 DUP8 SUB SLT ISZERO PUSH2 0x1A5B JUMPI PUSH2 0x1A5A PUSH2 0x2533 JUMP JUMPDEST JUMPDEST PUSH1 0x0 PUSH2 0x1A69 DUP8 DUP3 DUP9 ADD PUSH2 0x18BC JUMP JUMPDEST SWAP5 POP POP PUSH1 0x20 PUSH2 0x1A7A DUP8 DUP3 DUP9 ADD PUSH2 0x18BC JUMP JUMPDEST SWAP4 POP POP PUSH1 0x40 PUSH2 0x1A8B DUP8 DUP3 DUP9 ADD PUSH2 0x196C JUMP JUMPDEST SWAP3 POP POP PUSH1 0x60 DUP6 ADD CALLDATALOAD PUSH8 0xFFFFFFFFFFFFFFFF DUP2 GT ISZERO PUSH2 0x1AAC JUMPI PUSH2 0x1AAB PUSH2 0x252E JUMP JUMPDEST JUMPDEST PUSH2 0x1AB8 DUP8 DUP3 DUP9 ADD PUSH2 0x1910 JUMP JUMPDEST SWAP2 POP POP SWAP3 SWAP6 SWAP2 SWAP5 POP SWAP3 POP JUMP JUMPDEST PUSH1 0x0 DUP1 PUSH1 0x40 DUP4 DUP6 SUB SLT ISZERO PUSH2 0x1ADB JUMPI PUSH2 0x1ADA PUSH2 0x2533 JUMP JUMPDEST JUMPDEST PUSH1 0x0 PUSH2 0x1AE9 DUP6 DUP3 DUP7 ADD PUSH2 0x18BC JUMP JUMPDEST SWAP3 POP POP PUSH1 0x20 PUSH2 0x1AFA DUP6 DUP3 DUP7 ADD PUSH2 0x18D1 JUMP JUMPDEST SWAP2 POP POP SWAP3 POP SWAP3 SWAP1 POP JUMP JUMPDEST PUSH1 0x0 DUP1 PUSH1 0x40 DUP4 DUP6 SUB SLT ISZERO PUSH2 0x1B1B JUMPI PUSH2 0x1B1A PUSH2 0x2533 JUMP JUMPDEST JUMPDEST PUSH1 0x0 PUSH2 0x1B29 DUP6 DUP3 DUP7 ADD PUSH2 0x18BC JUMP JUMPDEST SWAP3 POP POP PUSH1 0x20 DUP4 ADD CALLDATALOAD PUSH8 0xFFFFFFFFFFFFFFFF DUP2 GT ISZERO PUSH2 0x1B4A JUMPI PUSH2 0x1B49 PUSH2 0x252E JUMP JUMPDEST JUMPDEST PUSH2 0x1B56 DUP6 DUP3 DUP7 ADD PUSH2 0x193E JUMP JUMPDEST SWAP2 POP POP SWAP3 POP SWAP3 SWAP1 POP JUMP JUMPDEST PUSH1 0x0 DUP1 PUSH1 0x40 DUP4 DUP6 SUB SLT ISZERO PUSH2 0x1B77 JUMPI PUSH2 0x1B76 PUSH2 0x2533 JUMP JUMPDEST JUMPDEST PUSH1 0x0 PUSH2 0x1B85 DUP6 DUP3 DUP7 ADD PUSH2 0x18BC JUMP JUMPDEST SWAP3 POP POP PUSH1 0x20 PUSH2 0x1B96 DUP6 DUP3 DUP7 ADD PUSH2 0x196C JUMP JUMPDEST SWAP2 POP POP SWAP3 POP SWAP3 SWAP1 POP JUMP JUMPDEST PUSH1 0x0 PUSH1 0x20 DUP3 DUP5 SUB SLT ISZERO PUSH2 0x1BB6 JUMPI PUSH2 0x1BB5 PUSH2 0x2533 JUMP JUMPDEST JUMPDEST PUSH1 0x0 PUSH2 0x1BC4 DUP5 DUP3 DUP6 ADD PUSH2 0x18E6 JUMP JUMPDEST SWAP2 POP POP SWAP3 SWAP2 POP POP JUMP JUMPDEST PUSH1 0x0 PUSH1 0x20 DUP3 DUP5 SUB SLT ISZERO PUSH2 0x1BE3 JUMPI PUSH2 0x1BE2 PUSH2 0x2533 JUMP JUMPDEST JUMPDEST PUSH1 0x0 PUSH2 0x1BF1 DUP5 DUP3 DUP6 ADD PUSH2 0x18FB JUMP JUMPDEST SWAP2 POP POP SWAP3 SWAP2 POP POP JUMP JUMPDEST PUSH1 0x0 PUSH1 0x20 DUP3 DUP5 SUB SLT ISZERO PUSH2 0x1C10 JUMPI PUSH2 0x1C0F PUSH2 0x2533 JUMP JUMPDEST JUMPDEST PUSH1 0x0 PUSH2 0x1C1E DUP5 DUP3 DUP6 ADD PUSH2 0x196C JUMP JUMPDEST SWAP2 POP POP SWAP3 SWAP2 POP POP JUMP JUMPDEST PUSH1 0x0 PUSH2 0x1C33 DUP4 DUP4 PUSH2 0x1ED7 JUMP JUMPDEST SWAP1 POP SWAP3 SWAP2 POP POP JUMP JUMPDEST PUSH2 0x1C44 DUP2 PUSH2 0x22DC JUMP JUMPDEST DUP3 MSTORE POP POP JUMP JUMPDEST PUSH1 0x0 PUSH2 0x1C55 DUP3 PUSH2 0x2214 JUMP JUMPDEST PUSH2 0x1C5F DUP2 DUP6 PUSH2 0x2242 JUMP JUMPDEST SWAP4 POP DUP4 PUSH1 0x20 DUP3 MUL DUP6 ADD PUSH2 0x1C71 DUP6 PUSH2 0x2204 JUMP JUMPDEST DUP1 PUSH1 0x0 JUMPDEST DUP6 DUP2 LT ISZERO PUSH2 0x1CAD JUMPI DUP5 DUP5 SUB DUP10 MSTORE DUP2 MLOAD PUSH2 0x1C8E DUP6 DUP3 PUSH2 0x1C27 JUMP JUMPDEST SWAP5 POP PUSH2 0x1C99 DUP4 PUSH2 0x2235 JUMP JUMPDEST SWAP3 POP PUSH1 0x20 DUP11 ADD SWAP10 POP POP PUSH1 0x1 DUP2 ADD SWAP1 POP PUSH2 0x1C75 JUMP JUMPDEST POP DUP3 SWAP8 POP DUP8 SWAP6 POP POP POP POP POP POP SWAP3 SWAP2 POP POP JUMP JUMPDEST PUSH2 0x1CC8 DUP2 PUSH2 0x22EE JUMP JUMPDEST DUP3 MSTORE POP POP JUMP JUMPDEST PUSH1 0x0 PUSH2 0x1CD9 DUP3 PUSH2 0x221F JUMP JUMPDEST PUSH2 0x1CE3 DUP2 DUP6 PUSH2 0x2253 JUMP JUMPDEST SWAP4 POP PUSH2 0x1CF3 DUP2 DUP6 PUSH1 0x20 DUP7 ADD PUSH2 0x235F JUMP JUMPDEST PUSH2 0x1CFC DUP2 PUSH2 0x2538 JUMP JUMPDEST DUP5 ADD SWAP2 POP POP SWAP3 SWAP2 POP POP JUMP JUMPDEST PUSH1 0x0 PUSH2 0x1D12 DUP3 PUSH2 0x222A JUMP JUMPDEST PUSH2 0x1D1C DUP2 DUP6 PUSH2 0x2264 JUMP JUMPDEST SWAP4 POP PUSH2 0x1D2C DUP2 DUP6 PUSH1 0x20 DUP7 ADD PUSH2 0x235F JUMP JUMPDEST PUSH2 0x1D35 DUP2 PUSH2 0x2538 JUMP JUMPDEST DUP5 ADD SWAP2 POP POP SWAP3 SWAP2 POP POP JUMP JUMPDEST PUSH1 0x0 PUSH2 0x1D4B DUP3 PUSH2 0x222A JUMP JUMPDEST PUSH2 0x1D55 DUP2 DUP6 PUSH2 0x2275 JUMP JUMPDEST SWAP4 POP PUSH2 0x1D65 DUP2 DUP6 PUSH1 0x20 DUP7 ADD PUSH2 0x235F JUMP JUMPDEST PUSH2 0x1D6E DUP2 PUSH2 0x2538 JUMP JUMPDEST DUP5 ADD SWAP2 POP POP SWAP3 SWAP2 POP POP JUMP JUMPDEST PUSH1 0x0 PUSH2 0x1D86 PUSH1 0x10 DUP4 PUSH2 0x2275 JUMP JUMPDEST SWAP2 POP PUSH2 0x1D91 DUP3 PUSH2 0x2549 JUMP JUMPDEST PUSH1 0x20 DUP3 ADD SWAP1 POP SWAP2 SWAP1 POP JUMP JUMPDEST PUSH1 0x0 PUSH2 0x1DA9 PUSH1 0x14 DUP4 PUSH2 0x2275 JUMP JUMPDEST SWAP2 POP PUSH2 0x1DB4 DUP3 PUSH2 0x2572 JUMP JUMPDEST PUSH1 0x20 DUP3 ADD SWAP1 POP SWAP2 SWAP1 POP JUMP JUMPDEST PUSH1 0x0 PUSH2 0x1DCC PUSH1 0x13 DUP4 PUSH2 0x2275 JUMP JUMPDEST SWAP2 POP PUSH2 0x1DD7 DUP3 PUSH2 0x259B JUMP JUMPDEST PUSH1 0x20 DUP3 ADD SWAP1 POP SWAP2 SWAP1 POP JUMP JUMPDEST PUSH1 0x0 PUSH2 0x1DEF PUSH1 0x18 DUP4 PUSH2 0x2275 JUMP JUMPDEST SWAP2 POP PUSH2 0x1DFA DUP3 PUSH2 0x25C4 JUMP JUMPDEST PUSH1 0x20 DUP3 ADD SWAP1 POP SWAP2 SWAP1 POP JUMP JUMPDEST PUSH1 0x0 PUSH2 0x1E12 PUSH1 0x14 DUP4 PUSH2 0x2275 JUMP JUMPDEST SWAP2 POP PUSH2 0x1E1D DUP3 PUSH2 0x25ED JUMP JUMPDEST PUSH1 0x20 DUP3 ADD SWAP1 POP SWAP2 SWAP1 POP JUMP JUMPDEST PUSH1 0x0 PUSH2 0x1E35 PUSH1 0xE DUP4 PUSH2 0x2275 JUMP JUMPDEST SWAP2 POP PUSH2 0x1E40 DUP3 PUSH2 0x2616 JUMP JUMPDEST PUSH1 0x20 DUP3 ADD SWAP1 POP SWAP2 SWAP1 POP JUMP JUMPDEST PUSH1 0x0 PUSH2 0x1E58 PUSH1 0x0 DUP4 PUSH2 0x2253 JUMP JUMPDEST SWAP2 POP PUSH2 0x1E63 DUP3 PUSH2 0x263F JUMP JUMPDEST PUSH1 0x0 DUP3 ADD SWAP1 POP SWAP2 SWAP1 POP JUMP JUMPDEST PUSH1 0x0 PUSH2 0x1E7B PUSH1 0xD DUP4 PUSH2 0x2275 JUMP JUMPDEST SWAP2 POP PUSH2 0x1E86 DUP3 PUSH2 0x2642 JUMP JUMPDEST PUSH1 0x20 DUP3 ADD SWAP1 POP SWAP2 SWAP1 POP JUMP JUMPDEST PUSH1 0x0 PUSH2 0x1E9E PUSH1 0x24 DUP4 PUSH2 0x2275 JUMP JUMPDEST SWAP2 POP PUSH2 0x1EA9 DUP3 PUSH2 0x266B JUMP JUMPDEST PUSH1 0x40 DUP3 ADD SWAP1 POP SWAP2 SWAP1 POP JUMP JUMPDEST PUSH1 0x0 PUSH2 0x1EC1 PUSH1 0xE DUP4 PUSH2 0x2275 JUMP JUMPDEST SWAP2 POP PUSH2 0x1ECC DUP3 PUSH2 0x26BA JUMP JUMPDEST PUSH1 0x20 DUP3 ADD SWAP1 POP SWAP2 SWAP1 POP JUMP JUMPDEST PUSH1 0x0 PUSH1 0x40 DUP4 ADD PUSH1 0x0 DUP4 ADD MLOAD PUSH2 0x1EEF PUSH1 0x0 DUP7 ADD DUP3 PUSH2 0x1F14 JUMP JUMPDEST POP PUSH1 0x20 DUP4 ADD MLOAD DUP5 DUP3 SUB PUSH1 0x20 DUP7 ADD MSTORE PUSH2 0x1F07 DUP3 DUP3 PUSH2 0x1D07 JUMP JUMPDEST SWAP2 POP POP DUP1 SWAP2 POP POP SWAP3 SWAP2 POP POP JUMP JUMPDEST PUSH2 0x1F1D DUP2 PUSH2 0x2346 JUMP JUMPDEST DUP3 MSTORE POP POP JUMP JUMPDEST PUSH2 0x1F2C DUP2 PUSH2 0x2346 JUMP JUMPDEST DUP3 MSTORE POP POP JUMP JUMPDEST PUSH1 0x0 PUSH1 0x20 DUP3 ADD SWAP1 POP PUSH2 0x1F47 PUSH1 0x0 DUP4 ADD DUP5 PUSH2 0x1C3B JUMP JUMPDEST SWAP3 SWAP2 POP POP JUMP JUMPDEST PUSH1 0x0 PUSH1 0x80 DUP3 ADD SWAP1 POP PUSH2 0x1F62 PUSH1 0x0 DUP4 ADD DUP8 PUSH2 0x1C3B JUMP JUMPDEST PUSH2 0x1F6F PUSH1 0x20 DUP4 ADD DUP7 PUSH2 0x1C3B JUMP JUMPDEST PUSH2 0x1F7C PUSH1 0x40 DUP4 ADD DUP6 PUSH2 0x1F23 JUMP JUMPDEST DUP2 DUP2 SUB PUSH1 0x60 DUP4 ADD MSTORE PUSH2 0x1F8E DUP2 DUP5 PUSH2 0x1CCE JUMP JUMPDEST SWAP1 POP SWAP6 SWAP5 POP POP POP POP POP JUMP JUMPDEST PUSH1 0x0 PUSH1 0x80 DUP3 ADD SWAP1 POP PUSH2 0x1FAE PUSH1 0x0 DUP4 ADD DUP7 PUSH2 0x1C3B JUMP JUMPDEST PUSH2 0x1FBB PUSH1 0x20 DUP4 ADD DUP6 PUSH2 0x1C3B JUMP JUMPDEST PUSH2 0x1FC8 PUSH1 0x40 DUP4 ADD DUP5 PUSH2 0x1F23 JUMP JUMPDEST DUP2 DUP2 SUB PUSH1 0x60 DUP4 ADD MSTORE PUSH2 0x1FD9 DUP2 PUSH2 0x1E4B JUMP JUMPDEST SWAP1 POP SWAP5 SWAP4 POP POP POP POP JUMP JUMPDEST PUSH1 0x0 PUSH1 0x20 DUP3 ADD SWAP1 POP DUP2 DUP2 SUB PUSH1 0x0 DUP4 ADD MSTORE PUSH2 0x1FFD DUP2 DUP5 PUSH2 0x1C4A JUMP JUMPDEST SWAP1 POP SWAP3 SWAP2 POP POP JUMP JUMPDEST PUSH1 0x0 PUSH1 0x20 DUP3 ADD SWAP1 POP PUSH2 0x201A PUSH1 0x0 DUP4 ADD DUP5 PUSH2 0x1CBF JUMP JUMPDEST SWAP3 SWAP2 POP POP JUMP JUMPDEST PUSH1 0x0 PUSH1 0x20 DUP3 ADD SWAP1 POP DUP2 DUP2 SUB PUSH1 0x0 DUP4 ADD MSTORE PUSH2 0x203A DUP2 DUP5 PUSH2 0x1D40 JUMP JUMPDEST SWAP1 POP SWAP3 SWAP2 POP POP JUMP JUMPDEST PUSH1 0x0 PUSH1 0x20 DUP3 ADD SWAP1 POP DUP2 DUP2 SUB PUSH1 0x0 DUP4 ADD MSTORE PUSH2 0x205B DUP2 PUSH2 0x1D79 JUMP JUMPDEST SWAP1 POP SWAP2 SWAP1 POP JUMP JUMPDEST PUSH1 0x0 PUSH1 0x20 DUP3 ADD SWAP1 POP DUP2 DUP2 SUB PUSH1 0x0 DUP4 ADD MSTORE PUSH2 0x207B DUP2 PUSH2 0x1D9C JUMP JUMPDEST SWAP1 POP SWAP2 SWAP1 POP JUMP JUMPDEST PUSH1 0x0 PUSH1 0x20 DUP3 ADD SWAP1 POP DUP2 DUP2 SUB PUSH1 0x0 DUP4 ADD MSTORE PUSH2 0x209B DUP2 PUSH2 0x1DBF JUMP JUMPDEST SWAP1 POP SWAP2 SWAP1 POP JUMP JUMPDEST PUSH1 0x0 PUSH1 0x20 DUP3 ADD SWAP1 POP DUP2 DUP2 SUB PUSH1 0x0 DUP4 ADD MSTORE PUSH2 0x20BB DUP2 PUSH2 0x1DE2 JUMP JUMPDEST SWAP1 POP SWAP2 SWAP1 POP JUMP JUMPDEST PUSH1 0x0 PUSH1 0x20 DUP3 ADD SWAP1 POP DUP2 DUP2 SUB PUSH1 0x0 DUP4 ADD MSTORE PUSH2 0x20DB DUP2 PUSH2 0x1E05 JUMP JUMPDEST SWAP1 POP SWAP2 SWAP1 POP JUMP JUMPDEST PUSH1 0x0 PUSH1 0x20 DUP3 ADD SWAP1 POP DUP2 DUP2 SUB PUSH1 0x0 DUP4 ADD MSTORE PUSH2 0x20FB DUP2 PUSH2 0x1E28 JUMP JUMPDEST SWAP1 POP SWAP2 SWAP1 POP JUMP JUMPDEST PUSH1 0x0 PUSH1 0x20 DUP3 ADD SWAP1 POP DUP2 DUP2 SUB PUSH1 0x0 DUP4 ADD MSTORE PUSH2 0x211B DUP2 PUSH2 0x1E6E JUMP JUMPDEST SWAP1 POP SWAP2 SWAP1 POP JUMP JUMPDEST PUSH1 0x0 PUSH1 0x20 DUP3 ADD SWAP1 POP DUP2 DUP2 SUB PUSH1 0x0 DUP4 ADD MSTORE PUSH2 0x213B DUP2 PUSH2 0x1E91 JUMP JUMPDEST SWAP1 POP SWAP2 SWAP1 POP JUMP JUMPDEST PUSH1 0x0 PUSH1 0x20 DUP3 ADD SWAP1 POP DUP2 DUP2 SUB PUSH1 0x0 DUP4 ADD MSTORE PUSH2 0x215B DUP2 PUSH2 0x1EB4 JUMP JUMPDEST SWAP1 POP SWAP2 SWAP1 POP JUMP JUMPDEST PUSH1 0x0 PUSH1 0x20 DUP3 ADD SWAP1 POP PUSH2 0x2177 PUSH1 0x0 DUP4 ADD DUP5 PUSH2 0x1F23 JUMP JUMPDEST SWAP3 SWAP2 POP POP JUMP JUMPDEST PUSH1 0x0 PUSH2 0x2187 PUSH2 0x2198 JUMP JUMPDEST SWAP1 POP PUSH2 0x2193 DUP3 DUP3 PUSH2 0x23EE JUMP JUMPDEST SWAP2 SWAP1 POP JUMP JUMPDEST PUSH1 0x0 PUSH1 0x40 MLOAD SWAP1 POP SWAP1 JUMP JUMPDEST PUSH1 0x0 PUSH8 0xFFFFFFFFFFFFFFFF DUP3 GT ISZERO PUSH2 0x21BD JUMPI PUSH2 0x21BC PUSH2 0x24F5 JUMP JUMPDEST JUMPDEST PUSH2 0x21C6 DUP3 PUSH2 0x2538 JUMP JUMPDEST SWAP1 POP PUSH1 0x20 DUP2 ADD SWAP1 POP SWAP2 SWAP1 POP JUMP JUMPDEST PUSH1 0x0 PUSH8 0xFFFFFFFFFFFFFFFF DUP3 GT ISZERO PUSH2 0x21EE JUMPI PUSH2 0x21ED PUSH2 0x24F5 JUMP JUMPDEST JUMPDEST PUSH2 0x21F7 DUP3 PUSH2 0x2538 JUMP JUMPDEST SWAP1 POP PUSH1 0x20 DUP2 ADD SWAP1 POP SWAP2 SWAP1 POP JUMP JUMPDEST PUSH1 0x0 DUP2 SWAP1 POP PUSH1 0x20 DUP3 ADD SWAP1 POP SWAP2 SWAP1 POP JUMP JUMPDEST PUSH1 0x0 DUP2 MLOAD SWAP1 POP SWAP2 SWAP1 POP JUMP JUMPDEST PUSH1 0x0 DUP2 MLOAD SWAP1 POP SWAP2 SWAP1 POP JUMP JUMPDEST PUSH1 0x0 DUP2 MLOAD SWAP1 POP SWAP2 SWAP1 POP JUMP JUMPDEST PUSH1 0x0 PUSH1 0x20 DUP3 ADD SWAP1 POP SWAP2 SWAP1 POP JUMP JUMPDEST PUSH1 0x0 DUP3 DUP3 MSTORE PUSH1 0x20 DUP3 ADD SWAP1 POP SWAP3 SWAP2 POP POP JUMP JUMPDEST PUSH1 0x0 DUP3 DUP3 MSTORE PUSH1 0x20 DUP3 ADD SWAP1 POP SWAP3 SWAP2 POP POP JUMP JUMPDEST PUSH1 0x0 DUP3 DUP3 MSTORE PUSH1 0x20 DUP3 ADD SWAP1 POP SWAP3 SWAP2 POP POP JUMP JUMPDEST PUSH1 0x0 DUP3 DUP3 MSTORE PUSH1 0x20 DUP3 ADD SWAP1 POP SWAP3 SWAP2 POP POP JUMP JUMPDEST PUSH1 0x0 PUSH2 0x2291 DUP3 PUSH2 0x2346 JUMP JUMPDEST SWAP2 POP PUSH2 0x229C DUP4 PUSH2 0x2346 JUMP JUMPDEST SWAP3 POP DUP3 PUSH32 0xFFFFFFFFFFFFFFFFFFFFFFFFFFFFFFFFFFFFFFFFFFFFFFFFFFFFFFFFFFFFFFFF SUB DUP3 GT ISZERO PUSH2 0x22D1 JUMPI PUSH2 0x22D0 PUSH2 0x2468 JUMP JUMPDEST JUMPDEST DUP3 DUP3 ADD SWAP1 POP SWAP3 SWAP2 POP POP JUMP JUMPDEST PUSH1 0x0 PUSH2 0x22E7 DUP3 PUSH2 0x2326 JUMP JUMPDEST SWAP1 POP SWAP2 SWAP1 POP JUMP JUMPDEST PUSH1 0x0 DUP2 ISZERO ISZERO SWAP1 POP SWAP2 SWAP1 POP JUMP JUMPDEST PUSH1 0x0 PUSH32 0xFFFFFFFF00000000000000000000000000000000000000000000000000000000 DUP3 AND SWAP1 POP SWAP2 SWAP1 POP JUMP JUMPDEST PUSH1 0x0 PUSH20 0xFFFFFFFFFFFFFFFFFFFFFFFFFFFFFFFFFFFFFFFF DUP3 AND SWAP1 POP SWAP2 SWAP1 POP JUMP JUMPDEST PUSH1 0x0 DUP2 SWAP1 POP SWAP2 SWAP1 POP JUMP JUMPDEST DUP3 DUP2 DUP4 CALLDATACOPY PUSH1 0x0 DUP4 DUP4 ADD MSTORE POP POP POP JUMP JUMPDEST PUSH1 0x0 JUMPDEST DUP4 DUP2 LT ISZERO PUSH2 0x237D JUMPI DUP1 DUP3 ADD MLOAD DUP2 DUP5 ADD MSTORE PUSH1 0x20 DUP2 ADD SWAP1 POP PUSH2 0x2362 JUMP JUMPDEST DUP4 DUP2 GT ISZERO PUSH2 0x238C JUMPI PUSH1 0x0 DUP5 DUP5 ADD MSTORE JUMPDEST POP POP POP POP JUMP JUMPDEST PUSH1 0x0 PUSH2 0x239D DUP3 PUSH2 0x2346 JUMP JUMPDEST SWAP2 POP PUSH1 0x0 DUP3 EQ ISZERO PUSH2 0x23B1 JUMPI PUSH2 0x23B0 PUSH2 0x2468 JUMP JUMPDEST JUMPDEST PUSH1 0x1 DUP3 SUB SWAP1 POP SWAP2 SWAP1 POP JUMP JUMPDEST PUSH1 0x0 PUSH1 0x2 DUP3 DIV SWAP1 POP PUSH1 0x1 DUP3 AND DUP1 PUSH2 0x23D4 JUMPI PUSH1 0x7F DUP3 AND SWAP2 POP JUMPDEST PUSH1 0x20 DUP3 LT DUP2 EQ ISZERO PUSH2 0x23E8 JUMPI PUSH2 0x23E7 PUSH2 0x2497 JUMP JUMPDEST JUMPDEST POP SWAP2 SWAP1 POP JUMP JUMPDEST PUSH2 0x23F7 DUP3 PUSH2 0x2538 JUMP JUMPDEST DUP2 ADD DUP2 DUP2 LT PUSH8 0xFFFFFFFFFFFFFFFF DUP3 GT OR ISZERO PUSH2 0x2416 JUMPI PUSH2 0x2415 PUSH2 0x24F5 JUMP JUMPDEST JUMPDEST DUP1 PUSH1 0x40 MSTORE POP POP POP JUMP JUMPDEST PUSH1 0x0 PUSH2 0x242A DUP3 PUSH2 0x2346 JUMP JUMPDEST SWAP2 POP PUSH32 0xFFFFFFFFFFFFFFFFFFFFFFFFFFFFFFFFFFFFFFFFFFFFFFFFFFFFFFFFFFFFFFFF DUP3 EQ ISZERO PUSH2 0x245D JUMPI PUSH2 0x245C PUSH2 0x2468 JUMP JUMPDEST JUMPDEST PUSH1 0x1 DUP3 ADD SWAP1 POP SWAP2 SWAP1 POP JUMP JUMPDEST PUSH32 0x4E487B7100000000000000000000000000000000000000000000000000000000 PUSH1 0x0 MSTORE PUSH1 0x11 PUSH1 0x4 MSTORE PUSH1 0x24 PUSH1 0x0 REVERT JUMPDEST PUSH32 0x4E487B7100000000000000000000000000000000000000000000000000000000 PUSH1 0x0 MSTORE PUSH1 0x22 PUSH1 0x4 MSTORE PUSH1 0x24 PUSH1 0x0 REVERT JUMPDEST PUSH32 0x4E487B7100000000000000000000000000000000000000000000000000000000 PUSH1 0x0 MSTORE PUSH1 0x32 PUSH1 0x4 MSTORE PUSH1 0x24 PUSH1 0x0 REVERT JUMPDEST PUSH32 0x4E487B7100000000000000000000000000000000000000000000000000000000 PUSH1 0x0 MSTORE PUSH1 0x41 PUSH1 0x4 MSTORE PUSH1 0x24 PUSH1 0x0 REVERT JUMPDEST PUSH1 0x0 DUP1 REVERT JUMPDEST PUSH1 0x0 DUP1 REVERT JUMPDEST PUSH1 0x0 DUP1 REVERT JUMPDEST PUSH1 0x0 DUP1 REVERT JUMPDEST PUSH1 0x0 PUSH1 0x1F NOT PUSH1 0x1F DUP4 ADD AND SWAP1 POP SWAP2 SWAP1 POP JUMP JUMPDEST PUSH32 0x756E7361666520726563697069656E7400000000000000000000000000000000 PUSH1 0x0 DUP3 ADD MSTORE POP JUMP JUMPDEST PUSH32 0x6D696E7420746F207A65726F2061646472657373000000000000000000000000 PUSH1 0x0 DUP3 ADD MSTORE POP JUMP JUMPDEST PUSH32 0x746F6B656E20646F65736E277420657869737400000000000000000000000000 PUSH1 0x0 DUP3 ADD MSTORE POP JUMP JUMPDEST PUSH32 0x7472616E7366657220746F207A65726F20616464726573730000000000000000 PUSH1 0x0 DUP3 ADD MSTORE POP JUMP JUMPDEST PUSH32 0x6F776E6572203D207A65726F2061646472657373000000000000000000000000 PUSH1 0x0 DUP3 ADD MSTORE POP JUMP JUMPDEST PUSH32 0x6E6F7420617574686F72697A6564000000000000000000000000000000000000 PUSH1 0x0 DUP3 ADD MSTORE POP JUMP JUMPDEST POP JUMP JUMPDEST PUSH32 0x66726F6D20213D206F776E657200000000000000000000000000000000000000 PUSH1 0x0 DUP3 ADD MSTORE POP JUMP JUMPDEST PUSH32 0x796F7520646F6E2774206861766520616E7920737469636B6572204F6F707369 PUSH1 0x0 DUP3 ADD MSTORE PUSH32 0x6521212100000000000000000000000000000000000000000000000000000000 PUSH1 0x20 DUP3 ADD MSTORE POP JUMP JUMPDEST PUSH32 0x616C7265616479206D696E746564000000000000000000000000000000000000 PUSH1 0x0 DUP3 ADD MSTORE POP JUMP JUMPDEST PUSH2 0x26EC DUP2 PUSH2 0x22DC JUMP JUMPDEST DUP2 EQ PUSH2 0x26F7 JUMPI PUSH1 0x0 DUP1 REVERT JUMPDEST POP JUMP JUMPDEST PUSH2 0x2703 DUP2 PUSH2 0x22EE JUMP JUMPDEST DUP2 EQ PUSH2 0x270E JUMPI PUSH1 0x0 DUP1 REVERT JUMPDEST POP JUMP JUMPDEST PUSH2 0x271A DUP2 PUSH2 0x22FA JUMP JUMPDEST DUP2 EQ PUSH2 0x2725 JUMPI PUSH1 0x0 DUP1 REVERT JUMPDEST POP JUMP JUMPDEST PUSH2 0x2731 DUP2 PUSH2 0x2346 JUMP JUMPDEST DUP2 EQ PUSH2 0x273C JUMPI PUSH1 0x0 DUP1 REVERT JUMPDEST POP JUMP INVALID LOG2 PUSH5 0x6970667358 0x22 SLT KECCAK256 0xED 0xC7 0xDE 0xE7 DUP1 0xC6 0x5C SLOAD SWAP3 0xE6 0xD9 0xB2 0x1E 0xE3 0x22 PUSH11 0xDE1EA9D2B1BCFFA04DDFB7 MLOAD CREATE LOG2 PUSH3 0xE6473 PUSH16 0x6C634300080700330000000000000000 "
				},
				"gasEstimates": {
					"creation": {
						"codeDepositCost": "2020200",
						"executionCost": "infinite",
						"totalCost": "infinite"
					},
					"external": {
						"approve(address,uint256)": "31539",
						"balanceOf(address)": "2924",
						"create(address,string)": "infinite",
						"getApproved(uint256)": "5185",
						"getStickerList(address)": "infinite",
						"isApprovedForAll(address,address)": "infinite",
						"name()": "infinite",
						"ownerOf(uint256)": "5140",
						"safeTransferFrom(address,address,uint256)": "infinite",
						"safeTransferFrom(address,address,uint256,bytes)": "infinite",
						"setApprovalForAll(address,bool)": "infinite",
						"supportsInterface(bytes4)": "754",
						"symbol()": "infinite",
						"tokenURI(uint256)": "infinite",
						"transferFrom(address,address,uint256)": "infinite"
					}
				},
				"methodIdentifiers": {
					"approve(address,uint256)": "095ea7b3",
					"balanceOf(address)": "70a08231",
					"create(address,string)": "a15ab08d",
					"getApproved(uint256)": "081812fc",
					"getStickerList(address)": "0954ecd0",
					"isApprovedForAll(address,address)": "e985e9c5",
					"name()": "06fdde03",
					"ownerOf(uint256)": "6352211e",
					"safeTransferFrom(address,address,uint256)": "42842e0e",
					"safeTransferFrom(address,address,uint256,bytes)": "b88d4fde",
					"setApprovalForAll(address,bool)": "a22cb465",
					"supportsInterface(bytes4)": "01ffc9a7",
					"symbol()": "95d89b41",
					"tokenURI(uint256)": "c87b56dd",
					"transferFrom(address,address,uint256)": "23b872dd"
				}
			},
			"storageLayout": {
				"storage": [
					{
						"astId": 190,
						"contract": "contracts/TrippieceNFT.sol:TrippieceNFT",
						"label": "_name",
						"offset": 0,
						"slot": "0",
						"type": "t_string_storage"
					},
					{
						"astId": 192,
						"contract": "contracts/TrippieceNFT.sol:TrippieceNFT",
						"label": "_symbol",
						"offset": 0,
						"slot": "1",
						"type": "t_string_storage"
					},
					{
						"astId": 196,
						"contract": "contracts/TrippieceNFT.sol:TrippieceNFT",
						"label": "_owners",
						"offset": 0,
						"slot": "2",
						"type": "t_mapping(t_uint256,t_address)"
					},
					{
						"astId": 200,
						"contract": "contracts/TrippieceNFT.sol:TrippieceNFT",
						"label": "_balances",
						"offset": 0,
						"slot": "3",
						"type": "t_mapping(t_address,t_uint256)"
					},
					{
						"astId": 204,
						"contract": "contracts/TrippieceNFT.sol:TrippieceNFT",
						"label": "_tokenApprovals",
						"offset": 0,
						"slot": "4",
						"type": "t_mapping(t_uint256,t_address)"
					},
					{
						"astId": 210,
						"contract": "contracts/TrippieceNFT.sol:TrippieceNFT",
						"label": "_operatorApprovals",
						"offset": 0,
						"slot": "5",
						"type": "t_mapping(t_address,t_mapping(t_address,t_bool))"
					},
					{
						"astId": 18,
						"contract": "contracts/TrippieceNFT.sol:TrippieceNFT",
						"label": "_tokenIds",
						"offset": 0,
						"slot": "6",
						"type": "t_struct(Counter)1270_storage"
					},
					{
						"astId": 22,
						"contract": "contracts/TrippieceNFT.sol:TrippieceNFT",
						"label": "tokenURIs",
						"offset": 0,
						"slot": "7",
						"type": "t_mapping(t_uint256,t_string_storage)"
					}
				],
				"types": {
					"t_address": {
						"encoding": "inplace",
						"label": "address",
						"numberOfBytes": "20"
					},
					"t_bool": {
						"encoding": "inplace",
						"label": "bool",
						"numberOfBytes": "1"
					},
					"t_mapping(t_address,t_bool)": {
						"encoding": "mapping",
						"key": "t_address",
						"label": "mapping(address => bool)",
						"numberOfBytes": "32",
						"value": "t_bool"
					},
					"t_mapping(t_address,t_mapping(t_address,t_bool))": {
						"encoding": "mapping",
						"key": "t_address",
						"label": "mapping(address => mapping(address => bool))",
						"numberOfBytes": "32",
						"value": "t_mapping(t_address,t_bool)"
					},
					"t_mapping(t_address,t_uint256)": {
						"encoding": "mapping",
						"key": "t_address",
						"label": "mapping(address => uint256)",
						"numberOfBytes": "32",
						"value": "t_uint256"
					},
					"t_mapping(t_uint256,t_address)": {
						"encoding": "mapping",
						"key": "t_uint256",
						"label": "mapping(uint256 => address)",
						"numberOfBytes": "32",
						"value": "t_address"
					},
					"t_mapping(t_uint256,t_string_storage)": {
						"encoding": "mapping",
						"key": "t_uint256",
						"label": "mapping(uint256 => string)",
						"numberOfBytes": "32",
						"value": "t_string_storage"
					},
					"t_string_storage": {
						"encoding": "bytes",
						"label": "string",
						"numberOfBytes": "32"
					},
					"t_struct(Counter)1270_storage": {
						"encoding": "inplace",
						"label": "struct Counters.Counter",
						"members": [
							{
								"astId": 1269,
								"contract": "contracts/TrippieceNFT.sol:TrippieceNFT",
								"label": "_value",
								"offset": 0,
								"slot": "0",
								"type": "t_uint256"
							}
						],
						"numberOfBytes": "32"
					},
					"t_uint256": {
						"encoding": "inplace",
						"label": "uint256",
						"numberOfBytes": "32"
					}
				}
			},
			"userdoc": {
				"kind": "user",
				"methods": {},
				"notice": "PJT Ⅰ - 과제 2) NFT Creator 구현 상태 변수나 함수의 시그니처는 구현에 따라 변경할 수 있습니다.",
				"version": 1
			}
		}
	}
}