{
	"data": {
		"bytecode": {
			"linkReferences": {},
			"object": "60806040523480156200001157600080fd5b5060405162000bcc38038062000bcc833981810160405281019062000037919062000245565b600086116200004557600080fd5b866006819055508560048190555084600581905550876000806101000a81548173ffffffffffffffffffffffffffffffffffffffff021916908373ffffffffffffffffffffffffffffffffffffffff16021790555088600160006101000a81548173ffffffffffffffffffffffffffffffffffffffff021916908373ffffffffffffffffffffffffffffffffffffffff160217905550836002819055508260038190555081600760006101000a81548173ffffffffffffffffffffffffffffffffffffffff021916908373ffffffffffffffffffffffffffffffffffffffff16021790555080600860006101000a81548173ffffffffffffffffffffffffffffffffffffffff021916908373ffffffffffffffffffffffffffffffffffffffff1602179055506000600860146101000a81548160ff02191690831515021790555081600b60006101000a81548173ffffffffffffffffffffffffffffffffffffffff021916908373ffffffffffffffffffffffffffffffffffffffff16021790555080600c60006101000a81548173ffffffffffffffffffffffffffffffffffffffff021916908373ffffffffffffffffffffffffffffffffffffffff1602179055505050505050505050506200039b565b600081519050620002288162000367565b92915050565b6000815190506200023f8162000381565b92915050565b60008060008060008060008060006101208a8c0312156200026b576200026a62000362565b5b60006200027b8c828d0162000217565b99505060206200028e8c828d0162000217565b9850506040620002a18c828d016200022e565b9750506060620002b48c828d016200022e565b9650506080620002c78c828d016200022e565b95505060a0620002da8c828d016200022e565b94505060c0620002ed8c828d016200022e565b93505060e0620003008c828d0162000217565b925050610100620003148c828d0162000217565b9150509295985092959850929598565b6000620003318262000338565b9050919050565b600073ffffffffffffffffffffffffffffffffffffffff82169050919050565b6000819050919050565b600080fd5b620003728162000324565b81146200037e57600080fd5b50565b6200038c8162000358565b81146200039857600080fd5b50565b61082180620003ab6000396000f3fe608060405234801561001057600080fd5b50600436106101215760003560e01c8063903e329c116100ad578063db83694c11610071578063db83694c1461028c578063defd6c5f146102b2578063e45be8eb146102d0578063ed338ff1146102ee578063ef0a230e1461030c57610121565b8063903e329c1461020a57806391f9015714610214578063a8f6c91314610232578063c7e284b814610250578063d57bde791461026e57610121565b80631c1cb323116100f45780631c1cb3231461018a5780631cbaee2d146101a8578063454a2ab3146101c65780635bf8633a146101e257806364edfbf01461020057610121565b806308551a53146101265780630a7f463f1461014457806312fa6feb1461014e57806317d70f7c1461016c575b600080fd5b61012e61032a565b60405161013b91906105a3565b60405180910390f35b61014c61034e565b005b610156610350565b60405161016391906105be565b60405180910390f35b610174610363565b604051610181919061062a565b60405180910390f35b610192610369565b60405161019f91906105a3565b60405180910390f35b6101b061038f565b6040516101bd919061062a565b60405180910390f35b6101e060048036038101906101db919061051c565b610395565b005b6101ea610398565b6040516101f791906105a3565b60405180910390f35b6102086103be565b005b6102126103c0565b005b61021c6103c2565b60405161022991906105a3565b60405180910390f35b61023a6103e8565b60405161024791906105d9565b60405180910390f35b61025861040e565b604051610265919061060f565b60405180910390f35b610276610423565b604051610283919061062a565b60405180910390f35b610294610429565b6040516102a999989796959493929190610645565b60405180910390f35b6102ba6104cf565b6040516102c7919061062a565b60405180910390f35b6102d86104d5565b6040516102e5919061062a565b60405180910390f35b6102f66104db565b604051610303919061062a565b60405180910390f35b6103146104e1565b60405161032191906105f4565b60405180910390f35b60008054906101000a900473ffffffffffffffffffffffffffffffffffffffff1681565b565b600860149054906101000a900460ff1681565b60065481565b600760009054906101000a900473ffffffffffffffffffffffffffffffffffffffff1681565b60025481565b50565b600860009054906101000a900473ffffffffffffffffffffffffffffffffffffffff1681565b565b565b600960009054906101000a900473ffffffffffffffffffffffffffffffffffffffff1681565b600b60009054906101000a900473ffffffffffffffffffffffffffffffffffffffff1681565b60004260035461041e91906106d2565b905090565b600a5481565b6000806000806000806000806000600254600354600454600554600654600960009054906101000a900473ffffffffffffffffffffffffffffffffffffffff16600a54600760009054906101000a900473ffffffffffffffffffffffffffffffffffffffff16600860009054906101000a900473ffffffffffffffffffffffffffffffffffffffff16985098509850985098509850985098509850909192939495969798565b60055481565b60045481565b60035481565b600c60009054906101000a900473ffffffffffffffffffffffffffffffffffffffff1681565b600081359050610516816107d4565b92915050565b600060208284031215610532576105316107cf565b5b600061054084828501610507565b91505092915050565b61055281610706565b82525050565b61056181610718565b82525050565b61057081610758565b82525050565b61057f8161076a565b82525050565b61058e81610724565b82525050565b61059d8161074e565b82525050565b60006020820190506105b86000830184610549565b92915050565b60006020820190506105d36000830184610558565b92915050565b60006020820190506105ee6000830184610567565b92915050565b60006020820190506106096000830184610576565b92915050565b60006020820190506106246000830184610585565b92915050565b600060208201905061063f6000830184610594565b92915050565b60006101208201905061065b600083018c610594565b610668602083018b610594565b610675604083018a610594565b6106826060830189610594565b61068f6080830188610594565b61069c60a0830187610549565b6106a960c0830186610594565b6106b660e0830185610549565b6106c4610100830184610549565b9a9950505050505050505050565b60006106dd8261074e565b91506106e88361074e565b9250828210156106fb576106fa6107a0565b5b828203905092915050565b60006107118261072e565b9050919050565b60008115159050919050565b6000819050919050565b600073ffffffffffffffffffffffffffffffffffffffff82169050919050565b6000819050919050565b60006107638261077c565b9050919050565b60006107758261077c565b9050919050565b60006107878261078e565b9050919050565b60006107998261072e565b9050919050565b7f4e487b7100000000000000000000000000000000000000000000000000000000600052601160045260246000fd5b600080fd5b6107dd8161074e565b81146107e857600080fd5b5056fea2646970667358221220a97b89a6594f8e69259d791034ba08682b2188228c17d9d2964a90d48b72de8064736f6c63430008070033",
			"opcodes": "PUSH1 0x80 PUSH1 0x40 MSTORE CALLVALUE DUP1 ISZERO PUSH3 0x11 JUMPI PUSH1 0x0 DUP1 REVERT JUMPDEST POP PUSH1 0x40 MLOAD PUSH3 0xBCC CODESIZE SUB DUP1 PUSH3 0xBCC DUP4 CODECOPY DUP2 DUP2 ADD PUSH1 0x40 MSTORE DUP2 ADD SWAP1 PUSH3 0x37 SWAP2 SWAP1 PUSH3 0x245 JUMP JUMPDEST PUSH1 0x0 DUP7 GT PUSH3 0x45 JUMPI PUSH1 0x0 DUP1 REVERT JUMPDEST DUP7 PUSH1 0x6 DUP2 SWAP1 SSTORE POP DUP6 PUSH1 0x4 DUP2 SWAP1 SSTORE POP DUP5 PUSH1 0x5 DUP2 SWAP1 SSTORE POP DUP8 PUSH1 0x0 DUP1 PUSH2 0x100 EXP DUP2 SLOAD DUP2 PUSH20 0xFFFFFFFFFFFFFFFFFFFFFFFFFFFFFFFFFFFFFFFF MUL NOT AND SWAP1 DUP4 PUSH20 0xFFFFFFFFFFFFFFFFFFFFFFFFFFFFFFFFFFFFFFFF AND MUL OR SWAP1 SSTORE POP DUP9 PUSH1 0x1 PUSH1 0x0 PUSH2 0x100 EXP DUP2 SLOAD DUP2 PUSH20 0xFFFFFFFFFFFFFFFFFFFFFFFFFFFFFFFFFFFFFFFF MUL NOT AND SWAP1 DUP4 PUSH20 0xFFFFFFFFFFFFFFFFFFFFFFFFFFFFFFFFFFFFFFFF AND MUL OR SWAP1 SSTORE POP DUP4 PUSH1 0x2 DUP2 SWAP1 SSTORE POP DUP3 PUSH1 0x3 DUP2 SWAP1 SSTORE POP DUP2 PUSH1 0x7 PUSH1 0x0 PUSH2 0x100 EXP DUP2 SLOAD DUP2 PUSH20 0xFFFFFFFFFFFFFFFFFFFFFFFFFFFFFFFFFFFFFFFF MUL NOT AND SWAP1 DUP4 PUSH20 0xFFFFFFFFFFFFFFFFFFFFFFFFFFFFFFFFFFFFFFFF AND MUL OR SWAP1 SSTORE POP DUP1 PUSH1 0x8 PUSH1 0x0 PUSH2 0x100 EXP DUP2 SLOAD DUP2 PUSH20 0xFFFFFFFFFFFFFFFFFFFFFFFFFFFFFFFFFFFFFFFF MUL NOT AND SWAP1 DUP4 PUSH20 0xFFFFFFFFFFFFFFFFFFFFFFFFFFFFFFFFFFFFFFFF AND MUL OR SWAP1 SSTORE POP PUSH1 0x0 PUSH1 0x8 PUSH1 0x14 PUSH2 0x100 EXP DUP2 SLOAD DUP2 PUSH1 0xFF MUL NOT AND SWAP1 DUP4 ISZERO ISZERO MUL OR SWAP1 SSTORE POP DUP2 PUSH1 0xB PUSH1 0x0 PUSH2 0x100 EXP DUP2 SLOAD DUP2 PUSH20 0xFFFFFFFFFFFFFFFFFFFFFFFFFFFFFFFFFFFFFFFF MUL NOT AND SWAP1 DUP4 PUSH20 0xFFFFFFFFFFFFFFFFFFFFFFFFFFFFFFFFFFFFFFFF AND MUL OR SWAP1 SSTORE POP DUP1 PUSH1 0xC PUSH1 0x0 PUSH2 0x100 EXP DUP2 SLOAD DUP2 PUSH20 0xFFFFFFFFFFFFFFFFFFFFFFFFFFFFFFFFFFFFFFFF MUL NOT AND SWAP1 DUP4 PUSH20 0xFFFFFFFFFFFFFFFFFFFFFFFFFFFFFFFFFFFFFFFF AND MUL OR SWAP1 SSTORE POP POP POP POP POP POP POP POP POP POP PUSH3 0x39B JUMP JUMPDEST PUSH1 0x0 DUP2 MLOAD SWAP1 POP PUSH3 0x228 DUP2 PUSH3 0x367 JUMP JUMPDEST SWAP3 SWAP2 POP POP JUMP JUMPDEST PUSH1 0x0 DUP2 MLOAD SWAP1 POP PUSH3 0x23F DUP2 PUSH3 0x381 JUMP JUMPDEST SWAP3 SWAP2 POP POP JUMP JUMPDEST PUSH1 0x0 DUP1 PUSH1 0x0 DUP1 PUSH1 0x0 DUP1 PUSH1 0x0 DUP1 PUSH1 0x0 PUSH2 0x120 DUP11 DUP13 SUB SLT ISZERO PUSH3 0x26B JUMPI PUSH3 0x26A PUSH3 0x362 JUMP JUMPDEST JUMPDEST PUSH1 0x0 PUSH3 0x27B DUP13 DUP3 DUP14 ADD PUSH3 0x217 JUMP JUMPDEST SWAP10 POP POP PUSH1 0x20 PUSH3 0x28E DUP13 DUP3 DUP14 ADD PUSH3 0x217 JUMP JUMPDEST SWAP9 POP POP PUSH1 0x40 PUSH3 0x2A1 DUP13 DUP3 DUP14 ADD PUSH3 0x22E JUMP JUMPDEST SWAP8 POP POP PUSH1 0x60 PUSH3 0x2B4 DUP13 DUP3 DUP14 ADD PUSH3 0x22E JUMP JUMPDEST SWAP7 POP POP PUSH1 0x80 PUSH3 0x2C7 DUP13 DUP3 DUP14 ADD PUSH3 0x22E JUMP JUMPDEST SWAP6 POP POP PUSH1 0xA0 PUSH3 0x2DA DUP13 DUP3 DUP14 ADD PUSH3 0x22E JUMP JUMPDEST SWAP5 POP POP PUSH1 0xC0 PUSH3 0x2ED DUP13 DUP3 DUP14 ADD PUSH3 0x22E JUMP JUMPDEST SWAP4 POP POP PUSH1 0xE0 PUSH3 0x300 DUP13 DUP3 DUP14 ADD PUSH3 0x217 JUMP JUMPDEST SWAP3 POP POP PUSH2 0x100 PUSH3 0x314 DUP13 DUP3 DUP14 ADD PUSH3 0x217 JUMP JUMPDEST SWAP2 POP POP SWAP3 SWAP6 SWAP9 POP SWAP3 SWAP6 SWAP9 POP SWAP3 SWAP6 SWAP9 JUMP JUMPDEST PUSH1 0x0 PUSH3 0x331 DUP3 PUSH3 0x338 JUMP JUMPDEST SWAP1 POP SWAP2 SWAP1 POP JUMP JUMPDEST PUSH1 0x0 PUSH20 0xFFFFFFFFFFFFFFFFFFFFFFFFFFFFFFFFFFFFFFFF DUP3 AND SWAP1 POP SWAP2 SWAP1 POP JUMP JUMPDEST PUSH1 0x0 DUP2 SWAP1 POP SWAP2 SWAP1 POP JUMP JUMPDEST PUSH1 0x0 DUP1 REVERT JUMPDEST PUSH3 0x372 DUP2 PUSH3 0x324 JUMP JUMPDEST DUP2 EQ PUSH3 0x37E JUMPI PUSH1 0x0 DUP1 REVERT JUMPDEST POP JUMP JUMPDEST PUSH3 0x38C DUP2 PUSH3 0x358 JUMP JUMPDEST DUP2 EQ PUSH3 0x398 JUMPI PUSH1 0x0 DUP1 REVERT JUMPDEST POP JUMP JUMPDEST PUSH2 0x821 DUP1 PUSH3 0x3AB PUSH1 0x0 CODECOPY PUSH1 0x0 RETURN INVALID PUSH1 0x80 PUSH1 0x40 MSTORE CALLVALUE DUP1 ISZERO PUSH2 0x10 JUMPI PUSH1 0x0 DUP1 REVERT JUMPDEST POP PUSH1 0x4 CALLDATASIZE LT PUSH2 0x121 JUMPI PUSH1 0x0 CALLDATALOAD PUSH1 0xE0 SHR DUP1 PUSH4 0x903E329C GT PUSH2 0xAD JUMPI DUP1 PUSH4 0xDB83694C GT PUSH2 0x71 JUMPI DUP1 PUSH4 0xDB83694C EQ PUSH2 0x28C JUMPI DUP1 PUSH4 0xDEFD6C5F EQ PUSH2 0x2B2 JUMPI DUP1 PUSH4 0xE45BE8EB EQ PUSH2 0x2D0 JUMPI DUP1 PUSH4 0xED338FF1 EQ PUSH2 0x2EE JUMPI DUP1 PUSH4 0xEF0A230E EQ PUSH2 0x30C JUMPI PUSH2 0x121 JUMP JUMPDEST DUP1 PUSH4 0x903E329C EQ PUSH2 0x20A JUMPI DUP1 PUSH4 0x91F90157 EQ PUSH2 0x214 JUMPI DUP1 PUSH4 0xA8F6C913 EQ PUSH2 0x232 JUMPI DUP1 PUSH4 0xC7E284B8 EQ PUSH2 0x250 JUMPI DUP1 PUSH4 0xD57BDE79 EQ PUSH2 0x26E JUMPI PUSH2 0x121 JUMP JUMPDEST DUP1 PUSH4 0x1C1CB323 GT PUSH2 0xF4 JUMPI DUP1 PUSH4 0x1C1CB323 EQ PUSH2 0x18A JUMPI DUP1 PUSH4 0x1CBAEE2D EQ PUSH2 0x1A8 JUMPI DUP1 PUSH4 0x454A2AB3 EQ PUSH2 0x1C6 JUMPI DUP1 PUSH4 0x5BF8633A EQ PUSH2 0x1E2 JUMPI DUP1 PUSH4 0x64EDFBF0 EQ PUSH2 0x200 JUMPI PUSH2 0x121 JUMP JUMPDEST DUP1 PUSH4 0x8551A53 EQ PUSH2 0x126 JUMPI DUP1 PUSH4 0xA7F463F EQ PUSH2 0x144 JUMPI DUP1 PUSH4 0x12FA6FEB EQ PUSH2 0x14E JUMPI DUP1 PUSH4 0x17D70F7C EQ PUSH2 0x16C JUMPI JUMPDEST PUSH1 0x0 DUP1 REVERT JUMPDEST PUSH2 0x12E PUSH2 0x32A JUMP JUMPDEST PUSH1 0x40 MLOAD PUSH2 0x13B SWAP2 SWAP1 PUSH2 0x5A3 JUMP JUMPDEST PUSH1 0x40 MLOAD DUP1 SWAP2 SUB SWAP1 RETURN JUMPDEST PUSH2 0x14C PUSH2 0x34E JUMP JUMPDEST STOP JUMPDEST PUSH2 0x156 PUSH2 0x350 JUMP JUMPDEST PUSH1 0x40 MLOAD PUSH2 0x163 SWAP2 SWAP1 PUSH2 0x5BE JUMP JUMPDEST PUSH1 0x40 MLOAD DUP1 SWAP2 SUB SWAP1 RETURN JUMPDEST PUSH2 0x174 PUSH2 0x363 JUMP JUMPDEST PUSH1 0x40 MLOAD PUSH2 0x181 SWAP2 SWAP1 PUSH2 0x62A JUMP JUMPDEST PUSH1 0x40 MLOAD DUP1 SWAP2 SUB SWAP1 RETURN JUMPDEST PUSH2 0x192 PUSH2 0x369 JUMP JUMPDEST PUSH1 0x40 MLOAD PUSH2 0x19F SWAP2 SWAP1 PUSH2 0x5A3 JUMP JUMPDEST PUSH1 0x40 MLOAD DUP1 SWAP2 SUB SWAP1 RETURN JUMPDEST PUSH2 0x1B0 PUSH2 0x38F JUMP JUMPDEST PUSH1 0x40 MLOAD PUSH2 0x1BD SWAP2 SWAP1 PUSH2 0x62A JUMP JUMPDEST PUSH1 0x40 MLOAD DUP1 SWAP2 SUB SWAP1 RETURN JUMPDEST PUSH2 0x1E0 PUSH1 0x4 DUP1 CALLDATASIZE SUB DUP2 ADD SWAP1 PUSH2 0x1DB SWAP2 SWAP1 PUSH2 0x51C JUMP JUMPDEST PUSH2 0x395 JUMP JUMPDEST STOP JUMPDEST PUSH2 0x1EA PUSH2 0x398 JUMP JUMPDEST PUSH1 0x40 MLOAD PUSH2 0x1F7 SWAP2 SWAP1 PUSH2 0x5A3 JUMP JUMPDEST PUSH1 0x40 MLOAD DUP1 SWAP2 SUB SWAP1 RETURN JUMPDEST PUSH2 0x208 PUSH2 0x3BE JUMP JUMPDEST STOP JUMPDEST PUSH2 0x212 PUSH2 0x3C0 JUMP JUMPDEST STOP JUMPDEST PUSH2 0x21C PUSH2 0x3C2 JUMP JUMPDEST PUSH1 0x40 MLOAD PUSH2 0x229 SWAP2 SWAP1 PUSH2 0x5A3 JUMP JUMPDEST PUSH1 0x40 MLOAD DUP1 SWAP2 SUB SWAP1 RETURN JUMPDEST PUSH2 0x23A PUSH2 0x3E8 JUMP JUMPDEST PUSH1 0x40 MLOAD PUSH2 0x247 SWAP2 SWAP1 PUSH2 0x5D9 JUMP JUMPDEST PUSH1 0x40 MLOAD DUP1 SWAP2 SUB SWAP1 RETURN JUMPDEST PUSH2 0x258 PUSH2 0x40E JUMP JUMPDEST PUSH1 0x40 MLOAD PUSH2 0x265 SWAP2 SWAP1 PUSH2 0x60F JUMP JUMPDEST PUSH1 0x40 MLOAD DUP1 SWAP2 SUB SWAP1 RETURN JUMPDEST PUSH2 0x276 PUSH2 0x423 JUMP JUMPDEST PUSH1 0x40 MLOAD PUSH2 0x283 SWAP2 SWAP1 PUSH2 0x62A JUMP JUMPDEST PUSH1 0x40 MLOAD DUP1 SWAP2 SUB SWAP1 RETURN JUMPDEST PUSH2 0x294 PUSH2 0x429 JUMP JUMPDEST PUSH1 0x40 MLOAD PUSH2 0x2A9 SWAP10 SWAP9 SWAP8 SWAP7 SWAP6 SWAP5 SWAP4 SWAP3 SWAP2 SWAP1 PUSH2 0x645 JUMP JUMPDEST PUSH1 0x40 MLOAD DUP1 SWAP2 SUB SWAP1 RETURN JUMPDEST PUSH2 0x2BA PUSH2 0x4CF JUMP JUMPDEST PUSH1 0x40 MLOAD PUSH2 0x2C7 SWAP2 SWAP1 PUSH2 0x62A JUMP JUMPDEST PUSH1 0x40 MLOAD DUP1 SWAP2 SUB SWAP1 RETURN JUMPDEST PUSH2 0x2D8 PUSH2 0x4D5 JUMP JUMPDEST PUSH1 0x40 MLOAD PUSH2 0x2E5 SWAP2 SWAP1 PUSH2 0x62A JUMP JUMPDEST PUSH1 0x40 MLOAD DUP1 SWAP2 SUB SWAP1 RETURN JUMPDEST PUSH2 0x2F6 PUSH2 0x4DB JUMP JUMPDEST PUSH1 0x40 MLOAD PUSH2 0x303 SWAP2 SWAP1 PUSH2 0x62A JUMP JUMPDEST PUSH1 0x40 MLOAD DUP1 SWAP2 SUB SWAP1 RETURN JUMPDEST PUSH2 0x314 PUSH2 0x4E1 JUMP JUMPDEST PUSH1 0x40 MLOAD PUSH2 0x321 SWAP2 SWAP1 PUSH2 0x5F4 JUMP JUMPDEST PUSH1 0x40 MLOAD DUP1 SWAP2 SUB SWAP1 RETURN JUMPDEST PUSH1 0x0 DUP1 SLOAD SWAP1 PUSH2 0x100 EXP SWAP1 DIV PUSH20 0xFFFFFFFFFFFFFFFFFFFFFFFFFFFFFFFFFFFFFFFF AND DUP2 JUMP JUMPDEST JUMP JUMPDEST PUSH1 0x8 PUSH1 0x14 SWAP1 SLOAD SWAP1 PUSH2 0x100 EXP SWAP1 DIV PUSH1 0xFF AND DUP2 JUMP JUMPDEST PUSH1 0x6 SLOAD DUP2 JUMP JUMPDEST PUSH1 0x7 PUSH1 0x0 SWAP1 SLOAD SWAP1 PUSH2 0x100 EXP SWAP1 DIV PUSH20 0xFFFFFFFFFFFFFFFFFFFFFFFFFFFFFFFFFFFFFFFF AND DUP2 JUMP JUMPDEST PUSH1 0x2 SLOAD DUP2 JUMP JUMPDEST POP JUMP JUMPDEST PUSH1 0x8 PUSH1 0x0 SWAP1 SLOAD SWAP1 PUSH2 0x100 EXP SWAP1 DIV PUSH20 0xFFFFFFFFFFFFFFFFFFFFFFFFFFFFFFFFFFFFFFFF AND DUP2 JUMP JUMPDEST JUMP JUMPDEST JUMP JUMPDEST PUSH1 0x9 PUSH1 0x0 SWAP1 SLOAD SWAP1 PUSH2 0x100 EXP SWAP1 DIV PUSH20 0xFFFFFFFFFFFFFFFFFFFFFFFFFFFFFFFFFFFFFFFF AND DUP2 JUMP JUMPDEST PUSH1 0xB PUSH1 0x0 SWAP1 SLOAD SWAP1 PUSH2 0x100 EXP SWAP1 DIV PUSH20 0xFFFFFFFFFFFFFFFFFFFFFFFFFFFFFFFFFFFFFFFF AND DUP2 JUMP JUMPDEST PUSH1 0x0 TIMESTAMP PUSH1 0x3 SLOAD PUSH2 0x41E SWAP2 SWAP1 PUSH2 0x6D2 JUMP JUMPDEST SWAP1 POP SWAP1 JUMP JUMPDEST PUSH1 0xA SLOAD DUP2 JUMP JUMPDEST PUSH1 0x0 DUP1 PUSH1 0x0 DUP1 PUSH1 0x0 DUP1 PUSH1 0x0 DUP1 PUSH1 0x0 PUSH1 0x2 SLOAD PUSH1 0x3 SLOAD PUSH1 0x4 SLOAD PUSH1 0x5 SLOAD PUSH1 0x6 SLOAD PUSH1 0x9 PUSH1 0x0 SWAP1 SLOAD SWAP1 PUSH2 0x100 EXP SWAP1 DIV PUSH20 0xFFFFFFFFFFFFFFFFFFFFFFFFFFFFFFFFFFFFFFFF AND PUSH1 0xA SLOAD PUSH1 0x7 PUSH1 0x0 SWAP1 SLOAD SWAP1 PUSH2 0x100 EXP SWAP1 DIV PUSH20 0xFFFFFFFFFFFFFFFFFFFFFFFFFFFFFFFFFFFFFFFF AND PUSH1 0x8 PUSH1 0x0 SWAP1 SLOAD SWAP1 PUSH2 0x100 EXP SWAP1 DIV PUSH20 0xFFFFFFFFFFFFFFFFFFFFFFFFFFFFFFFFFFFFFFFF AND SWAP9 POP SWAP9 POP SWAP9 POP SWAP9 POP SWAP9 POP SWAP9 POP SWAP9 POP SWAP9 POP SWAP9 POP SWAP1 SWAP2 SWAP3 SWAP4 SWAP5 SWAP6 SWAP7 SWAP8 SWAP9 JUMP JUMPDEST PUSH1 0x5 SLOAD DUP2 JUMP JUMPDEST PUSH1 0x4 SLOAD DUP2 JUMP JUMPDEST PUSH1 0x3 SLOAD DUP2 JUMP JUMPDEST PUSH1 0xC PUSH1 0x0 SWAP1 SLOAD SWAP1 PUSH2 0x100 EXP SWAP1 DIV PUSH20 0xFFFFFFFFFFFFFFFFFFFFFFFFFFFFFFFFFFFFFFFF AND DUP2 JUMP JUMPDEST PUSH1 0x0 DUP2 CALLDATALOAD SWAP1 POP PUSH2 0x516 DUP2 PUSH2 0x7D4 JUMP JUMPDEST SWAP3 SWAP2 POP POP JUMP JUMPDEST PUSH1 0x0 PUSH1 0x20 DUP3 DUP5 SUB SLT ISZERO PUSH2 0x532 JUMPI PUSH2 0x531 PUSH2 0x7CF JUMP JUMPDEST JUMPDEST PUSH1 0x0 PUSH2 0x540 DUP5 DUP3 DUP6 ADD PUSH2 0x507 JUMP JUMPDEST SWAP2 POP POP SWAP3 SWAP2 POP POP JUMP JUMPDEST PUSH2 0x552 DUP2 PUSH2 0x706 JUMP JUMPDEST DUP3 MSTORE POP POP JUMP JUMPDEST PUSH2 0x561 DUP2 PUSH2 0x718 JUMP JUMPDEST DUP3 MSTORE POP POP JUMP JUMPDEST PUSH2 0x570 DUP2 PUSH2 0x758 JUMP JUMPDEST DUP3 MSTORE POP POP JUMP JUMPDEST PUSH2 0x57F DUP2 PUSH2 0x76A JUMP JUMPDEST DUP3 MSTORE POP POP JUMP JUMPDEST PUSH2 0x58E DUP2 PUSH2 0x724 JUMP JUMPDEST DUP3 MSTORE POP POP JUMP JUMPDEST PUSH2 0x59D DUP2 PUSH2 0x74E JUMP JUMPDEST DUP3 MSTORE POP POP JUMP JUMPDEST PUSH1 0x0 PUSH1 0x20 DUP3 ADD SWAP1 POP PUSH2 0x5B8 PUSH1 0x0 DUP4 ADD DUP5 PUSH2 0x549 JUMP JUMPDEST SWAP3 SWAP2 POP POP JUMP JUMPDEST PUSH1 0x0 PUSH1 0x20 DUP3 ADD SWAP1 POP PUSH2 0x5D3 PUSH1 0x0 DUP4 ADD DUP5 PUSH2 0x558 JUMP JUMPDEST SWAP3 SWAP2 POP POP JUMP JUMPDEST PUSH1 0x0 PUSH1 0x20 DUP3 ADD SWAP1 POP PUSH2 0x5EE PUSH1 0x0 DUP4 ADD DUP5 PUSH2 0x567 JUMP JUMPDEST SWAP3 SWAP2 POP POP JUMP JUMPDEST PUSH1 0x0 PUSH1 0x20 DUP3 ADD SWAP1 POP PUSH2 0x609 PUSH1 0x0 DUP4 ADD DUP5 PUSH2 0x576 JUMP JUMPDEST SWAP3 SWAP2 POP POP JUMP JUMPDEST PUSH1 0x0 PUSH1 0x20 DUP3 ADD SWAP1 POP PUSH2 0x624 PUSH1 0x0 DUP4 ADD DUP5 PUSH2 0x585 JUMP JUMPDEST SWAP3 SWAP2 POP POP JUMP JUMPDEST PUSH1 0x0 PUSH1 0x20 DUP3 ADD SWAP1 POP PUSH2 0x63F PUSH1 0x0 DUP4 ADD DUP5 PUSH2 0x594 JUMP JUMPDEST SWAP3 SWAP2 POP POP JUMP JUMPDEST PUSH1 0x0 PUSH2 0x120 DUP3 ADD SWAP1 POP PUSH2 0x65B PUSH1 0x0 DUP4 ADD DUP13 PUSH2 0x594 JUMP JUMPDEST PUSH2 0x668 PUSH1 0x20 DUP4 ADD DUP12 PUSH2 0x594 JUMP JUMPDEST PUSH2 0x675 PUSH1 0x40 DUP4 ADD DUP11 PUSH2 0x594 JUMP JUMPDEST PUSH2 0x682 PUSH1 0x60 DUP4 ADD DUP10 PUSH2 0x594 JUMP JUMPDEST PUSH2 0x68F PUSH1 0x80 DUP4 ADD DUP9 PUSH2 0x594 JUMP JUMPDEST PUSH2 0x69C PUSH1 0xA0 DUP4 ADD DUP8 PUSH2 0x549 JUMP JUMPDEST PUSH2 0x6A9 PUSH1 0xC0 DUP4 ADD DUP7 PUSH2 0x594 JUMP JUMPDEST PUSH2 0x6B6 PUSH1 0xE0 DUP4 ADD DUP6 PUSH2 0x549 JUMP JUMPDEST PUSH2 0x6C4 PUSH2 0x100 DUP4 ADD DUP5 PUSH2 0x549 JUMP JUMPDEST SWAP11 SWAP10 POP POP POP POP POP POP POP POP POP POP JUMP JUMPDEST PUSH1 0x0 PUSH2 0x6DD DUP3 PUSH2 0x74E JUMP JUMPDEST SWAP2 POP PUSH2 0x6E8 DUP4 PUSH2 0x74E JUMP JUMPDEST SWAP3 POP DUP3 DUP3 LT ISZERO PUSH2 0x6FB JUMPI PUSH2 0x6FA PUSH2 0x7A0 JUMP JUMPDEST JUMPDEST DUP3 DUP3 SUB SWAP1 POP SWAP3 SWAP2 POP POP JUMP JUMPDEST PUSH1 0x0 PUSH2 0x711 DUP3 PUSH2 0x72E JUMP JUMPDEST SWAP1 POP SWAP2 SWAP1 POP JUMP JUMPDEST PUSH1 0x0 DUP2 ISZERO ISZERO SWAP1 POP SWAP2 SWAP1 POP JUMP JUMPDEST PUSH1 0x0 DUP2 SWAP1 POP SWAP2 SWAP1 POP JUMP JUMPDEST PUSH1 0x0 PUSH20 0xFFFFFFFFFFFFFFFFFFFFFFFFFFFFFFFFFFFFFFFF DUP3 AND SWAP1 POP SWAP2 SWAP1 POP JUMP JUMPDEST PUSH1 0x0 DUP2 SWAP1 POP SWAP2 SWAP1 POP JUMP JUMPDEST PUSH1 0x0 PUSH2 0x763 DUP3 PUSH2 0x77C JUMP JUMPDEST SWAP1 POP SWAP2 SWAP1 POP JUMP JUMPDEST PUSH1 0x0 PUSH2 0x775 DUP3 PUSH2 0x77C JUMP JUMPDEST SWAP1 POP SWAP2 SWAP1 POP JUMP JUMPDEST PUSH1 0x0 PUSH2 0x787 DUP3 PUSH2 0x78E JUMP JUMPDEST SWAP1 POP SWAP2 SWAP1 POP JUMP JUMPDEST PUSH1 0x0 PUSH2 0x799 DUP3 PUSH2 0x72E JUMP JUMPDEST SWAP1 POP SWAP2 SWAP1 POP JUMP JUMPDEST PUSH32 0x4E487B7100000000000000000000000000000000000000000000000000000000 PUSH1 0x0 MSTORE PUSH1 0x11 PUSH1 0x4 MSTORE PUSH1 0x24 PUSH1 0x0 REVERT JUMPDEST PUSH1 0x0 DUP1 REVERT JUMPDEST PUSH2 0x7DD DUP2 PUSH2 0x74E JUMP JUMPDEST DUP2 EQ PUSH2 0x7E8 JUMPI PUSH1 0x0 DUP1 REVERT JUMPDEST POP JUMP INVALID LOG2 PUSH5 0x6970667358 0x22 SLT KECCAK256 0xA9 PUSH28 0x89A6594F8E69259D791034BA08682B2188228C17D9D2964A90D48B72 0xDE DUP1 PUSH5 0x736F6C6343 STOP ADDMOD SMOD STOP CALLER "
		},
		"gasEstimates": {
			"creation": {
				"codeDepositCost": "416200",
				"executionCost": "infinite",
				"totalCost": "infinite"
			},
			"external": {
				"bid(uint256)": "473",
				"cancelSales()": "167",
				"confirmItem()": "190",
				"currencyAddress()": "2537",
				"ended()": "2589",
				"erc20Contract()": "2667",
				"erc721Constract()": "2710",
				"getSaleInfo()": "infinite",
				"getTimeLeft()": "infinite",
				"highestBid()": "2540",
				"highestBidder()": "2559",
				"minPrice()": "2495",
				"nftAddress()": "2603",
				"purchase()": "255",
				"purchasePrice()": "2473",
				"saleEndTime()": "2517",
				"saleStartTime()": "2474",
				"seller()": "2535",
				"tokenId()": "2519"
			},
			"internal": {
				"_end()": "infinite",
				"_getCurrencyAmount()": "infinite"
			}
		},
		"methodIdentifiers": {
			"bid(uint256)": "454a2ab3",
			"cancelSales()": "903e329c",
			"confirmItem()": "0a7f463f",
			"currencyAddress()": "1c1cb323",
			"ended()": "12fa6feb",
			"erc20Contract()": "a8f6c913",
			"erc721Constract()": "ef0a230e",
			"getSaleInfo()": "db83694c",
			"getTimeLeft()": "c7e284b8",
			"highestBid()": "d57bde79",
			"highestBidder()": "91f90157",
			"minPrice()": "e45be8eb",
			"nftAddress()": "5bf8633a",
			"purchase()": "64edfbf0",
			"purchasePrice()": "defd6c5f",
			"saleEndTime()": "ed338ff1",
			"saleStartTime()": "1cbaee2d",
			"seller()": "08551a53",
			"tokenId()": "17d70f7c"
		}
	},
	"abi": [
		{
			"inputs": [
				{
					"internalType": "address",
					"name": "_admin",
					"type": "address"
				},
				{
					"internalType": "address",
					"name": "_seller",
					"type": "address"
				},
				{
					"internalType": "uint256",
					"name": "_tokenId",
					"type": "uint256"
				},
				{
					"internalType": "uint256",
					"name": "_minPrice",
					"type": "uint256"
				},
				{
					"internalType": "uint256",
					"name": "_purchasePrice",
					"type": "uint256"
				},
				{
					"internalType": "uint256",
					"name": "startTime",
					"type": "uint256"
				},
				{
					"internalType": "uint256",
					"name": "endTime",
					"type": "uint256"
				},
				{
					"internalType": "address",
					"name": "_currencyAddress",
					"type": "address"
				},
				{
					"internalType": "address",
					"name": "_nftAddress",
					"type": "address"
				}
			],
			"stateMutability": "nonpayable",
			"type": "constructor"
		},
		{
			"anonymous": false,
			"inputs": [
				{
					"indexed": false,
					"internalType": "address",
					"name": "bidder",
					"type": "address"
				},
				{
					"indexed": false,
					"internalType": "uint256",
					"name": "amount",
					"type": "uint256"
				}
			],
			"name": "HighestBidIncereased",
			"type": "event"
		},
		{
			"anonymous": false,
			"inputs": [
				{
					"indexed": false,
					"internalType": "address",
					"name": "winner",
					"type": "address"
				},
				{
					"indexed": false,
					"internalType": "uint256",
					"name": "amount",
					"type": "uint256"
				}
			],
			"name": "SaleEnded",
			"type": "event"
		},
		{
			"inputs": [
				{
					"internalType": "uint256",
					"name": "bid_amount",
					"type": "uint256"
				}
			],
			"name": "bid",
			"outputs": [],
			"stateMutability": "nonpayable",
			"type": "function"
		},
		{
			"inputs": [],
			"name": "cancelSales",
			"outputs": [],
			"stateMutability": "nonpayable",
			"type": "function"
		},
		{
			"inputs": [],
			"name": "confirmItem",
			"outputs": [],
			"stateMutability": "nonpayable",
			"type": "function"
		},
		{
			"inputs": [],
			"name": "currencyAddress",
			"outputs": [
				{
					"internalType": "address",
					"name": "",
					"type": "address"
				}
			],
			"stateMutability": "view",
			"type": "function"
		},
		{
			"inputs": [],
			"name": "ended",
			"outputs": [
				{
					"internalType": "bool",
					"name": "",
					"type": "bool"
				}
			],
			"stateMutability": "view",
			"type": "function"
		},
		{
			"inputs": [],
			"name": "erc20Contract",
			"outputs": [
				{
					"internalType": "contract IERC20",
					"name": "",
					"type": "address"
				}
			],
			"stateMutability": "view",
			"type": "function"
		},
		{
			"inputs": [],
			"name": "erc721Constract",
			"outputs": [
				{
					"internalType": "contract IERC721",
					"name": "",
					"type": "address"
				}
			],
			"stateMutability": "view",
			"type": "function"
		},
		{
			"inputs": [],
			"name": "getSaleInfo",
			"outputs": [
				{
					"internalType": "uint256",
					"name": "",
					"type": "uint256"
				},
				{
					"internalType": "uint256",
					"name": "",
					"type": "uint256"
				},
				{
					"internalType": "uint256",
					"name": "",
					"type": "uint256"
				},
				{
					"internalType": "uint256",
					"name": "",
					"type": "uint256"
				},
				{
					"internalType": "uint256",
					"name": "",
					"type": "uint256"
				},
				{
					"internalType": "address",
					"name": "",
					"type": "address"
				},
				{
					"internalType": "uint256",
					"name": "",
					"type": "uint256"
				},
				{
					"internalType": "address",
					"name": "",
					"type": "address"
				},
				{
					"internalType": "address",
					"name": "",
					"type": "address"
				}
			],
			"stateMutability": "view",
			"type": "function"
		},
		{
			"inputs": [],
			"name": "getTimeLeft",
			"outputs": [
				{
					"internalType": "int256",
					"name": "",
					"type": "int256"
				}
			],
			"stateMutability": "view",
			"type": "function"
		},
		{
			"inputs": [],
			"name": "highestBid",
			"outputs": [
				{
					"internalType": "uint256",
					"name": "",
					"type": "uint256"
				}
			],
			"stateMutability": "view",
			"type": "function"
		},
		{
			"inputs": [],
			"name": "highestBidder",
			"outputs": [
				{
					"internalType": "address",
					"name": "",
					"type": "address"
				}
			],
			"stateMutability": "view",
			"type": "function"
		},
		{
			"inputs": [],
			"name": "minPrice",
			"outputs": [
				{
					"internalType": "uint256",
					"name": "",
					"type": "uint256"
				}
			],
			"stateMutability": "view",
			"type": "function"
		},
		{
			"inputs": [],
			"name": "nftAddress",
			"outputs": [
				{
					"internalType": "address",
					"name": "",
					"type": "address"
				}
			],
			"stateMutability": "view",
			"type": "function"
		},
		{
			"inputs": [],
			"name": "purchase",
			"outputs": [],
			"stateMutability": "nonpayable",
			"type": "function"
		},
		{
			"inputs": [],
			"name": "purchasePrice",
			"outputs": [
				{
					"internalType": "uint256",
					"name": "",
					"type": "uint256"
				}
			],
			"stateMutability": "view",
			"type": "function"
		},
		{
			"inputs": [],
			"name": "saleEndTime",
			"outputs": [
				{
					"internalType": "uint256",
					"name": "",
					"type": "uint256"
				}
			],
			"stateMutability": "view",
			"type": "function"
		},
		{
			"inputs": [],
			"name": "saleStartTime",
			"outputs": [
				{
					"internalType": "uint256",
					"name": "",
					"type": "uint256"
				}
			],
			"stateMutability": "view",
			"type": "function"
		},
		{
			"inputs": [],
			"name": "seller",
			"outputs": [
				{
					"internalType": "address",
					"name": "",
					"type": "address"
				}
			],
			"stateMutability": "view",
			"type": "function"
		},
		{
			"inputs": [],
			"name": "tokenId",
			"outputs": [
				{
					"internalType": "uint256",
					"name": "",
					"type": "uint256"
				}
			],
			"stateMutability": "view",
			"type": "function"
		}
	]
}