{
	"data": {
		"bytecode": {
			"linkReferences": {},
			"object": "60806040523480156200001157600080fd5b506040516200109a3803806200109a833981810160405281019062000037919062000095565b806000806101000a81548173ffffffffffffffffffffffffffffffffffffffff021916908373ffffffffffffffffffffffffffffffffffffffff160217905550506200011a565b6000815190506200008f8162000100565b92915050565b600060208284031215620000ae57620000ad620000fb565b5b6000620000be848285016200007e565b91505092915050565b6000620000d482620000db565b9050919050565b600073ffffffffffffffffffffffffffffffffffffffff82169050919050565b600080fd5b6200010b81620000c7565b81146200011757600080fd5b50565b610f70806200012a6000396000f3fe6080604052600436106100555760003560e01c80631f515a591461005a57806351102f5314610083578063bb80de0d146100ae578063c457fb37146100d9578063d625af5714610116578063f91e9aae14610132575b600080fd5b34801561006657600080fd5b50610081600480360381019061007c9190610914565b61016f565b005b34801561008f57600080fd5b50610098610454565b6040516100a59190610ad6565b60405180910390f35b3480156100ba57600080fd5b506100c3610478565b6040516100d09190610bd1565b60405180910390f35b3480156100e557600080fd5b5061010060048036038101906100fb91906108e7565b610485565b60405161010d9190610bd1565b60405180910390f35b610130600480360381019061012b91906108e7565b6104a2565b005b34801561013e57600080fd5b50610159600480360381019061015491906108e7565b61082a565b6040516101669190610bd1565b60405180910390f35b60008060009054906101000a900473ffffffffffffffffffffffffffffffffffffffff1673ffffffffffffffffffffffffffffffffffffffff16636352211e846040518263ffffffff1660e01b81526004016101cb9190610bd1565b60206040518083038186803b1580156101e357600080fd5b505afa1580156101f7573d6000803e3d6000fd5b505050506040513d601f19601f8201168201806040525081019061021b919061088d565b90503373ffffffffffffffffffffffffffffffffffffffff168173ffffffffffffffffffffffffffffffffffffffff161461028b576040517f08c379a000000000000000000000000000000000000000000000000000000000815260040161028290610b31565b60405180910390fd5b600082116102ce576040517f08c379a00000000000000000000000000000000000000000000000000000000081526004016102c590610b91565b60405180910390fd5b6000600160008581526020019081526020016000205414610324576040517f08c379a000000000000000000000000000000000000000000000000000000000815260040161031b90610b51565b60405180910390fd5b60008054906101000a900473ffffffffffffffffffffffffffffffffffffffff1673ffffffffffffffffffffffffffffffffffffffff1663e985e9c582306040518363ffffffff1660e01b815260040161037f929190610a76565b60206040518083038186803b15801561039757600080fd5b505afa1580156103ab573d6000803e3d6000fd5b505050506040513d601f19601f820116820180604052508101906103cf91906108ba565b61040e576040517f08c379a000000000000000000000000000000000000000000000000000000000815260040161040590610af1565b60405180910390fd5b8160016000858152602001908152602001600020819055506002839080600181540180825580915050600190039060005260206000200160009091909190915055505050565b60008054906101000a900473ffffffffffffffffffffffffffffffffffffffff1681565b6000600280549050905090565b600060016000838152602001908152602001600020549050919050565b60006001600083815260200190815260200160002054905060008060009054906101000a900473ffffffffffffffffffffffffffffffffffffffff1673ffffffffffffffffffffffffffffffffffffffff16636352211e846040518263ffffffff1660e01b81526004016105169190610bd1565b60206040518083038186803b15801561052e57600080fd5b505afa158015610542573d6000803e3d6000fd5b505050506040513d601f19601f82011682018060405250810190610566919061088d565b9050600082116105ab576040517f08c379a00000000000000000000000000000000000000000000000000000000081526004016105a290610b71565b60405180910390fd5b348211156105ee576040517f08c379a00000000000000000000000000000000000000000000000000000000081526004016105e590610b11565b60405180910390fd5b3373ffffffffffffffffffffffffffffffffffffffff168173ffffffffffffffffffffffffffffffffffffffff16141561065d576040517f08c379a000000000000000000000000000000000000000000000000000000000815260040161065490610bb1565b60405180910390fd5b8073ffffffffffffffffffffffffffffffffffffffff166108fc349081150290604051600060405180830381858888f193505050501580156106a3573d6000803e3d6000fd5b5060008054906101000a900473ffffffffffffffffffffffffffffffffffffffff1673ffffffffffffffffffffffffffffffffffffffff166342842e0e8233866040518463ffffffff1660e01b815260040161070193929190610a9f565b600060405180830381600087803b15801561071b57600080fd5b505af115801561072f573d6000803e3d6000fd5b505050506000600160008581526020019081526020016000208190555060005b600280549050811015610824576000600160006002848154811061077657610775610d56565b5b9060005260206000200154815260200190815260200160002054141561081157600260016002805490506107aa9190610bfd565b815481106107bb576107ba610d56565b5b9060005260206000200154600282815481106107da576107d9610d56565b5b906000526020600020018190555060028054806107fa576107f9610d27565b5b600190038181906000526020600020016000905590555b808061081c90610caf565b91505061074f565b50505050565b6002818154811061083a57600080fd5b906000526020600020016000915090505481565b60008151905061085d81610ef5565b92915050565b60008151905061087281610f0c565b92915050565b60008135905061088781610f23565b92915050565b6000602082840312156108a3576108a2610d85565b5b60006108b18482850161084e565b91505092915050565b6000602082840312156108d0576108cf610d85565b5b60006108de84828501610863565b91505092915050565b6000602082840312156108fd576108fc610d85565b5b600061090b84828501610878565b91505092915050565b6000806040838503121561092b5761092a610d85565b5b600061093985828601610878565b925050602061094a85828601610878565b9150509250929050565b61095d81610c31565b82525050565b61096c81610c79565b82525050565b600061097f602483610bec565b915061098a82610d8a565b604082019050919050565b60006109a2601d83610bec565b91506109ad82610dd9565b602082019050919050565b60006109c5601c83610bec565b91506109d082610e02565b602082019050919050565b60006109e8602083610bec565b91506109f382610e2b565b602082019050919050565b6000610a0b601a83610bec565b9150610a1682610e54565b602082019050919050565b6000610a2e601783610bec565b9150610a3982610e7d565b602082019050919050565b6000610a51602883610bec565b9150610a5c82610ea6565b604082019050919050565b610a7081610c6f565b82525050565b6000604082019050610a8b6000830185610954565b610a986020830184610954565b9392505050565b6000606082019050610ab46000830186610954565b610ac16020830185610954565b610ace6040830184610a67565b949350505050565b6000602082019050610aeb6000830184610963565b92915050565b60006020820190508181036000830152610b0a81610972565b9050919050565b60006020820190508181036000830152610b2a81610995565b9050919050565b60006020820190508181036000830152610b4a816109b8565b9050919050565b60006020820190508181036000830152610b6a816109db565b9050919050565b60006020820190508181036000830152610b8a816109fe565b9050919050565b60006020820190508181036000830152610baa81610a21565b9050919050565b60006020820190508181036000830152610bca81610a44565b9050919050565b6000602082019050610be66000830184610a67565b92915050565b600082825260208201905092915050565b6000610c0882610c6f565b9150610c1383610c6f565b925082821015610c2657610c25610cf8565b5b828203905092915050565b6000610c3c82610c4f565b9050919050565b60008115159050919050565b600073ffffffffffffffffffffffffffffffffffffffff82169050919050565b6000819050919050565b6000610c8482610c8b565b9050919050565b6000610c9682610c9d565b9050919050565b6000610ca882610c4f565b9050919050565b6000610cba82610c6f565b91507fffffffffffffffffffffffffffffffffffffffffffffffffffffffffffffffff821415610ced57610cec610cf8565b5b600182019050919050565b7f4e487b7100000000000000000000000000000000000000000000000000000000600052601160045260246000fd5b7f4e487b7100000000000000000000000000000000000000000000000000000000600052603160045260246000fd5b7f4e487b7100000000000000000000000000000000000000000000000000000000600052603260045260246000fd5b600080fd5b7f537469636b6572206f776e657220646964206e6f7420617070726f766520746f60008201527f6b656e2e00000000000000000000000000000000000000000000000000000000602082015250565b7f53656e6465722073656e74206c6f776572207468616e2070726963652e000000600082015250565b7f53656e646572206973206e6f7420737469636b6572206f776e65722e00000000600082015250565b7f5468697320737469636b657220697320616c7265616479206f6e2073616c652e600082015250565b7f7468697320746f6b656e206973206e6f74206f6e2073616c652e000000000000600082015250565b7f5072696365206973207a65726f206f72206c6f7765722e000000000000000000600082015250565b7f53656e64657220697320616c7265616479206f776e6572206f6620746869732060008201527f737469636b65722e000000000000000000000000000000000000000000000000602082015250565b610efe81610c31565b8114610f0957600080fd5b50565b610f1581610c43565b8114610f2057600080fd5b50565b610f2c81610c6f565b8114610f3757600080fd5b5056fea26469706673582212201a8e0fc077e25db37eac30795d4bad13111cd2e224669a671c144545f98287df64736f6c63430008070033",
			"opcodes": "PUSH1 0x80 PUSH1 0x40 MSTORE CALLVALUE DUP1 ISZERO PUSH3 0x11 JUMPI PUSH1 0x0 DUP1 REVERT JUMPDEST POP PUSH1 0x40 MLOAD PUSH3 0x109A CODESIZE SUB DUP1 PUSH3 0x109A DUP4 CODECOPY DUP2 DUP2 ADD PUSH1 0x40 MSTORE DUP2 ADD SWAP1 PUSH3 0x37 SWAP2 SWAP1 PUSH3 0x95 JUMP JUMPDEST DUP1 PUSH1 0x0 DUP1 PUSH2 0x100 EXP DUP2 SLOAD DUP2 PUSH20 0xFFFFFFFFFFFFFFFFFFFFFFFFFFFFFFFFFFFFFFFF MUL NOT AND SWAP1 DUP4 PUSH20 0xFFFFFFFFFFFFFFFFFFFFFFFFFFFFFFFFFFFFFFFF AND MUL OR SWAP1 SSTORE POP POP PUSH3 0x11A JUMP JUMPDEST PUSH1 0x0 DUP2 MLOAD SWAP1 POP PUSH3 0x8F DUP2 PUSH3 0x100 JUMP JUMPDEST SWAP3 SWAP2 POP POP JUMP JUMPDEST PUSH1 0x0 PUSH1 0x20 DUP3 DUP5 SUB SLT ISZERO PUSH3 0xAE JUMPI PUSH3 0xAD PUSH3 0xFB JUMP JUMPDEST JUMPDEST PUSH1 0x0 PUSH3 0xBE DUP5 DUP3 DUP6 ADD PUSH3 0x7E JUMP JUMPDEST SWAP2 POP POP SWAP3 SWAP2 POP POP JUMP JUMPDEST PUSH1 0x0 PUSH3 0xD4 DUP3 PUSH3 0xDB JUMP JUMPDEST SWAP1 POP SWAP2 SWAP1 POP JUMP JUMPDEST PUSH1 0x0 PUSH20 0xFFFFFFFFFFFFFFFFFFFFFFFFFFFFFFFFFFFFFFFF DUP3 AND SWAP1 POP SWAP2 SWAP1 POP JUMP JUMPDEST PUSH1 0x0 DUP1 REVERT JUMPDEST PUSH3 0x10B DUP2 PUSH3 0xC7 JUMP JUMPDEST DUP2 EQ PUSH3 0x117 JUMPI PUSH1 0x0 DUP1 REVERT JUMPDEST POP JUMP JUMPDEST PUSH2 0xF70 DUP1 PUSH3 0x12A PUSH1 0x0 CODECOPY PUSH1 0x0 RETURN INVALID PUSH1 0x80 PUSH1 0x40 MSTORE PUSH1 0x4 CALLDATASIZE LT PUSH2 0x55 JUMPI PUSH1 0x0 CALLDATALOAD PUSH1 0xE0 SHR DUP1 PUSH4 0x1F515A59 EQ PUSH2 0x5A JUMPI DUP1 PUSH4 0x51102F53 EQ PUSH2 0x83 JUMPI DUP1 PUSH4 0xBB80DE0D EQ PUSH2 0xAE JUMPI DUP1 PUSH4 0xC457FB37 EQ PUSH2 0xD9 JUMPI DUP1 PUSH4 0xD625AF57 EQ PUSH2 0x116 JUMPI DUP1 PUSH4 0xF91E9AAE EQ PUSH2 0x132 JUMPI JUMPDEST PUSH1 0x0 DUP1 REVERT JUMPDEST CALLVALUE DUP1 ISZERO PUSH2 0x66 JUMPI PUSH1 0x0 DUP1 REVERT JUMPDEST POP PUSH2 0x81 PUSH1 0x4 DUP1 CALLDATASIZE SUB DUP2 ADD SWAP1 PUSH2 0x7C SWAP2 SWAP1 PUSH2 0x914 JUMP JUMPDEST PUSH2 0x16F JUMP JUMPDEST STOP JUMPDEST CALLVALUE DUP1 ISZERO PUSH2 0x8F JUMPI PUSH1 0x0 DUP1 REVERT JUMPDEST POP PUSH2 0x98 PUSH2 0x454 JUMP JUMPDEST PUSH1 0x40 MLOAD PUSH2 0xA5 SWAP2 SWAP1 PUSH2 0xAD6 JUMP JUMPDEST PUSH1 0x40 MLOAD DUP1 SWAP2 SUB SWAP1 RETURN JUMPDEST CALLVALUE DUP1 ISZERO PUSH2 0xBA JUMPI PUSH1 0x0 DUP1 REVERT JUMPDEST POP PUSH2 0xC3 PUSH2 0x478 JUMP JUMPDEST PUSH1 0x40 MLOAD PUSH2 0xD0 SWAP2 SWAP1 PUSH2 0xBD1 JUMP JUMPDEST PUSH1 0x40 MLOAD DUP1 SWAP2 SUB SWAP1 RETURN JUMPDEST CALLVALUE DUP1 ISZERO PUSH2 0xE5 JUMPI PUSH1 0x0 DUP1 REVERT JUMPDEST POP PUSH2 0x100 PUSH1 0x4 DUP1 CALLDATASIZE SUB DUP2 ADD SWAP1 PUSH2 0xFB SWAP2 SWAP1 PUSH2 0x8E7 JUMP JUMPDEST PUSH2 0x485 JUMP JUMPDEST PUSH1 0x40 MLOAD PUSH2 0x10D SWAP2 SWAP1 PUSH2 0xBD1 JUMP JUMPDEST PUSH1 0x40 MLOAD DUP1 SWAP2 SUB SWAP1 RETURN JUMPDEST PUSH2 0x130 PUSH1 0x4 DUP1 CALLDATASIZE SUB DUP2 ADD SWAP1 PUSH2 0x12B SWAP2 SWAP1 PUSH2 0x8E7 JUMP JUMPDEST PUSH2 0x4A2 JUMP JUMPDEST STOP JUMPDEST CALLVALUE DUP1 ISZERO PUSH2 0x13E JUMPI PUSH1 0x0 DUP1 REVERT JUMPDEST POP PUSH2 0x159 PUSH1 0x4 DUP1 CALLDATASIZE SUB DUP2 ADD SWAP1 PUSH2 0x154 SWAP2 SWAP1 PUSH2 0x8E7 JUMP JUMPDEST PUSH2 0x82A JUMP JUMPDEST PUSH1 0x40 MLOAD PUSH2 0x166 SWAP2 SWAP1 PUSH2 0xBD1 JUMP JUMPDEST PUSH1 0x40 MLOAD DUP1 SWAP2 SUB SWAP1 RETURN JUMPDEST PUSH1 0x0 DUP1 PUSH1 0x0 SWAP1 SLOAD SWAP1 PUSH2 0x100 EXP SWAP1 DIV PUSH20 0xFFFFFFFFFFFFFFFFFFFFFFFFFFFFFFFFFFFFFFFF AND PUSH20 0xFFFFFFFFFFFFFFFFFFFFFFFFFFFFFFFFFFFFFFFF AND PUSH4 0x6352211E DUP5 PUSH1 0x40 MLOAD DUP3 PUSH4 0xFFFFFFFF AND PUSH1 0xE0 SHL DUP2 MSTORE PUSH1 0x4 ADD PUSH2 0x1CB SWAP2 SWAP1 PUSH2 0xBD1 JUMP JUMPDEST PUSH1 0x20 PUSH1 0x40 MLOAD DUP1 DUP4 SUB DUP2 DUP7 DUP1 EXTCODESIZE ISZERO DUP1 ISZERO PUSH2 0x1E3 JUMPI PUSH1 0x0 DUP1 REVERT JUMPDEST POP GAS STATICCALL ISZERO DUP1 ISZERO PUSH2 0x1F7 JUMPI RETURNDATASIZE PUSH1 0x0 DUP1 RETURNDATACOPY RETURNDATASIZE PUSH1 0x0 REVERT JUMPDEST POP POP POP POP PUSH1 0x40 MLOAD RETURNDATASIZE PUSH1 0x1F NOT PUSH1 0x1F DUP3 ADD AND DUP3 ADD DUP1 PUSH1 0x40 MSTORE POP DUP2 ADD SWAP1 PUSH2 0x21B SWAP2 SWAP1 PUSH2 0x88D JUMP JUMPDEST SWAP1 POP CALLER PUSH20 0xFFFFFFFFFFFFFFFFFFFFFFFFFFFFFFFFFFFFFFFF AND DUP2 PUSH20 0xFFFFFFFFFFFFFFFFFFFFFFFFFFFFFFFFFFFFFFFF AND EQ PUSH2 0x28B JUMPI PUSH1 0x40 MLOAD PUSH32 0x8C379A000000000000000000000000000000000000000000000000000000000 DUP2 MSTORE PUSH1 0x4 ADD PUSH2 0x282 SWAP1 PUSH2 0xB31 JUMP JUMPDEST PUSH1 0x40 MLOAD DUP1 SWAP2 SUB SWAP1 REVERT JUMPDEST PUSH1 0x0 DUP3 GT PUSH2 0x2CE JUMPI PUSH1 0x40 MLOAD PUSH32 0x8C379A000000000000000000000000000000000000000000000000000000000 DUP2 MSTORE PUSH1 0x4 ADD PUSH2 0x2C5 SWAP1 PUSH2 0xB91 JUMP JUMPDEST PUSH1 0x40 MLOAD DUP1 SWAP2 SUB SWAP1 REVERT JUMPDEST PUSH1 0x0 PUSH1 0x1 PUSH1 0x0 DUP6 DUP2 MSTORE PUSH1 0x20 ADD SWAP1 DUP2 MSTORE PUSH1 0x20 ADD PUSH1 0x0 KECCAK256 SLOAD EQ PUSH2 0x324 JUMPI PUSH1 0x40 MLOAD PUSH32 0x8C379A000000000000000000000000000000000000000000000000000000000 DUP2 MSTORE PUSH1 0x4 ADD PUSH2 0x31B SWAP1 PUSH2 0xB51 JUMP JUMPDEST PUSH1 0x40 MLOAD DUP1 SWAP2 SUB SWAP1 REVERT JUMPDEST PUSH1 0x0 DUP1 SLOAD SWAP1 PUSH2 0x100 EXP SWAP1 DIV PUSH20 0xFFFFFFFFFFFFFFFFFFFFFFFFFFFFFFFFFFFFFFFF AND PUSH20 0xFFFFFFFFFFFFFFFFFFFFFFFFFFFFFFFFFFFFFFFF AND PUSH4 0xE985E9C5 DUP3 ADDRESS PUSH1 0x40 MLOAD DUP4 PUSH4 0xFFFFFFFF AND PUSH1 0xE0 SHL DUP2 MSTORE PUSH1 0x4 ADD PUSH2 0x37F SWAP3 SWAP2 SWAP1 PUSH2 0xA76 JUMP JUMPDEST PUSH1 0x20 PUSH1 0x40 MLOAD DUP1 DUP4 SUB DUP2 DUP7 DUP1 EXTCODESIZE ISZERO DUP1 ISZERO PUSH2 0x397 JUMPI PUSH1 0x0 DUP1 REVERT JUMPDEST POP GAS STATICCALL ISZERO DUP1 ISZERO PUSH2 0x3AB JUMPI RETURNDATASIZE PUSH1 0x0 DUP1 RETURNDATACOPY RETURNDATASIZE PUSH1 0x0 REVERT JUMPDEST POP POP POP POP PUSH1 0x40 MLOAD RETURNDATASIZE PUSH1 0x1F NOT PUSH1 0x1F DUP3 ADD AND DUP3 ADD DUP1 PUSH1 0x40 MSTORE POP DUP2 ADD SWAP1 PUSH2 0x3CF SWAP2 SWAP1 PUSH2 0x8BA JUMP JUMPDEST PUSH2 0x40E JUMPI PUSH1 0x40 MLOAD PUSH32 0x8C379A000000000000000000000000000000000000000000000000000000000 DUP2 MSTORE PUSH1 0x4 ADD PUSH2 0x405 SWAP1 PUSH2 0xAF1 JUMP JUMPDEST PUSH1 0x40 MLOAD DUP1 SWAP2 SUB SWAP1 REVERT JUMPDEST DUP2 PUSH1 0x1 PUSH1 0x0 DUP6 DUP2 MSTORE PUSH1 0x20 ADD SWAP1 DUP2 MSTORE PUSH1 0x20 ADD PUSH1 0x0 KECCAK256 DUP2 SWAP1 SSTORE POP PUSH1 0x2 DUP4 SWAP1 DUP1 PUSH1 0x1 DUP2 SLOAD ADD DUP1 DUP3 SSTORE DUP1 SWAP2 POP POP PUSH1 0x1 SWAP1 SUB SWAP1 PUSH1 0x0 MSTORE PUSH1 0x20 PUSH1 0x0 KECCAK256 ADD PUSH1 0x0 SWAP1 SWAP2 SWAP1 SWAP2 SWAP1 SWAP2 POP SSTORE POP POP POP JUMP JUMPDEST PUSH1 0x0 DUP1 SLOAD SWAP1 PUSH2 0x100 EXP SWAP1 DIV PUSH20 0xFFFFFFFFFFFFFFFFFFFFFFFFFFFFFFFFFFFFFFFF AND DUP2 JUMP JUMPDEST PUSH1 0x0 PUSH1 0x2 DUP1 SLOAD SWAP1 POP SWAP1 POP SWAP1 JUMP JUMPDEST PUSH1 0x0 PUSH1 0x1 PUSH1 0x0 DUP4 DUP2 MSTORE PUSH1 0x20 ADD SWAP1 DUP2 MSTORE PUSH1 0x20 ADD PUSH1 0x0 KECCAK256 SLOAD SWAP1 POP SWAP2 SWAP1 POP JUMP JUMPDEST PUSH1 0x0 PUSH1 0x1 PUSH1 0x0 DUP4 DUP2 MSTORE PUSH1 0x20 ADD SWAP1 DUP2 MSTORE PUSH1 0x20 ADD PUSH1 0x0 KECCAK256 SLOAD SWAP1 POP PUSH1 0x0 DUP1 PUSH1 0x0 SWAP1 SLOAD SWAP1 PUSH2 0x100 EXP SWAP1 DIV PUSH20 0xFFFFFFFFFFFFFFFFFFFFFFFFFFFFFFFFFFFFFFFF AND PUSH20 0xFFFFFFFFFFFFFFFFFFFFFFFFFFFFFFFFFFFFFFFF AND PUSH4 0x6352211E DUP5 PUSH1 0x40 MLOAD DUP3 PUSH4 0xFFFFFFFF AND PUSH1 0xE0 SHL DUP2 MSTORE PUSH1 0x4 ADD PUSH2 0x516 SWAP2 SWAP1 PUSH2 0xBD1 JUMP JUMPDEST PUSH1 0x20 PUSH1 0x40 MLOAD DUP1 DUP4 SUB DUP2 DUP7 DUP1 EXTCODESIZE ISZERO DUP1 ISZERO PUSH2 0x52E JUMPI PUSH1 0x0 DUP1 REVERT JUMPDEST POP GAS STATICCALL ISZERO DUP1 ISZERO PUSH2 0x542 JUMPI RETURNDATASIZE PUSH1 0x0 DUP1 RETURNDATACOPY RETURNDATASIZE PUSH1 0x0 REVERT JUMPDEST POP POP POP POP PUSH1 0x40 MLOAD RETURNDATASIZE PUSH1 0x1F NOT PUSH1 0x1F DUP3 ADD AND DUP3 ADD DUP1 PUSH1 0x40 MSTORE POP DUP2 ADD SWAP1 PUSH2 0x566 SWAP2 SWAP1 PUSH2 0x88D JUMP JUMPDEST SWAP1 POP PUSH1 0x0 DUP3 GT PUSH2 0x5AB JUMPI PUSH1 0x40 MLOAD PUSH32 0x8C379A000000000000000000000000000000000000000000000000000000000 DUP2 MSTORE PUSH1 0x4 ADD PUSH2 0x5A2 SWAP1 PUSH2 0xB71 JUMP JUMPDEST PUSH1 0x40 MLOAD DUP1 SWAP2 SUB SWAP1 REVERT JUMPDEST CALLVALUE DUP3 GT ISZERO PUSH2 0x5EE JUMPI PUSH1 0x40 MLOAD PUSH32 0x8C379A000000000000000000000000000000000000000000000000000000000 DUP2 MSTORE PUSH1 0x4 ADD PUSH2 0x5E5 SWAP1 PUSH2 0xB11 JUMP JUMPDEST PUSH1 0x40 MLOAD DUP1 SWAP2 SUB SWAP1 REVERT JUMPDEST CALLER PUSH20 0xFFFFFFFFFFFFFFFFFFFFFFFFFFFFFFFFFFFFFFFF AND DUP2 PUSH20 0xFFFFFFFFFFFFFFFFFFFFFFFFFFFFFFFFFFFFFFFF AND EQ ISZERO PUSH2 0x65D JUMPI PUSH1 0x40 MLOAD PUSH32 0x8C379A000000000000000000000000000000000000000000000000000000000 DUP2 MSTORE PUSH1 0x4 ADD PUSH2 0x654 SWAP1 PUSH2 0xBB1 JUMP JUMPDEST PUSH1 0x40 MLOAD DUP1 SWAP2 SUB SWAP1 REVERT JUMPDEST DUP1 PUSH20 0xFFFFFFFFFFFFFFFFFFFFFFFFFFFFFFFFFFFFFFFF AND PUSH2 0x8FC CALLVALUE SWAP1 DUP2 ISZERO MUL SWAP1 PUSH1 0x40 MLOAD PUSH1 0x0 PUSH1 0x40 MLOAD DUP1 DUP4 SUB DUP2 DUP6 DUP9 DUP9 CALL SWAP4 POP POP POP POP ISZERO DUP1 ISZERO PUSH2 0x6A3 JUMPI RETURNDATASIZE PUSH1 0x0 DUP1 RETURNDATACOPY RETURNDATASIZE PUSH1 0x0 REVERT JUMPDEST POP PUSH1 0x0 DUP1 SLOAD SWAP1 PUSH2 0x100 EXP SWAP1 DIV PUSH20 0xFFFFFFFFFFFFFFFFFFFFFFFFFFFFFFFFFFFFFFFF AND PUSH20 0xFFFFFFFFFFFFFFFFFFFFFFFFFFFFFFFFFFFFFFFF AND PUSH4 0x42842E0E DUP3 CALLER DUP7 PUSH1 0x40 MLOAD DUP5 PUSH4 0xFFFFFFFF AND PUSH1 0xE0 SHL DUP2 MSTORE PUSH1 0x4 ADD PUSH2 0x701 SWAP4 SWAP3 SWAP2 SWAP1 PUSH2 0xA9F JUMP JUMPDEST PUSH1 0x0 PUSH1 0x40 MLOAD DUP1 DUP4 SUB DUP2 PUSH1 0x0 DUP8 DUP1 EXTCODESIZE ISZERO DUP1 ISZERO PUSH2 0x71B JUMPI PUSH1 0x0 DUP1 REVERT JUMPDEST POP GAS CALL ISZERO DUP1 ISZERO PUSH2 0x72F JUMPI RETURNDATASIZE PUSH1 0x0 DUP1 RETURNDATACOPY RETURNDATASIZE PUSH1 0x0 REVERT JUMPDEST POP POP POP POP PUSH1 0x0 PUSH1 0x1 PUSH1 0x0 DUP6 DUP2 MSTORE PUSH1 0x20 ADD SWAP1 DUP2 MSTORE PUSH1 0x20 ADD PUSH1 0x0 KECCAK256 DUP2 SWAP1 SSTORE POP PUSH1 0x0 JUMPDEST PUSH1 0x2 DUP1 SLOAD SWAP1 POP DUP2 LT ISZERO PUSH2 0x824 JUMPI PUSH1 0x0 PUSH1 0x1 PUSH1 0x0 PUSH1 0x2 DUP5 DUP2 SLOAD DUP2 LT PUSH2 0x776 JUMPI PUSH2 0x775 PUSH2 0xD56 JUMP JUMPDEST JUMPDEST SWAP1 PUSH1 0x0 MSTORE PUSH1 0x20 PUSH1 0x0 KECCAK256 ADD SLOAD DUP2 MSTORE PUSH1 0x20 ADD SWAP1 DUP2 MSTORE PUSH1 0x20 ADD PUSH1 0x0 KECCAK256 SLOAD EQ ISZERO PUSH2 0x811 JUMPI PUSH1 0x2 PUSH1 0x1 PUSH1 0x2 DUP1 SLOAD SWAP1 POP PUSH2 0x7AA SWAP2 SWAP1 PUSH2 0xBFD JUMP JUMPDEST DUP2 SLOAD DUP2 LT PUSH2 0x7BB JUMPI PUSH2 0x7BA PUSH2 0xD56 JUMP JUMPDEST JUMPDEST SWAP1 PUSH1 0x0 MSTORE PUSH1 0x20 PUSH1 0x0 KECCAK256 ADD SLOAD PUSH1 0x2 DUP3 DUP2 SLOAD DUP2 LT PUSH2 0x7DA JUMPI PUSH2 0x7D9 PUSH2 0xD56 JUMP JUMPDEST JUMPDEST SWAP1 PUSH1 0x0 MSTORE PUSH1 0x20 PUSH1 0x0 KECCAK256 ADD DUP2 SWAP1 SSTORE POP PUSH1 0x2 DUP1 SLOAD DUP1 PUSH2 0x7FA JUMPI PUSH2 0x7F9 PUSH2 0xD27 JUMP JUMPDEST JUMPDEST PUSH1 0x1 SWAP1 SUB DUP2 DUP2 SWAP1 PUSH1 0x0 MSTORE PUSH1 0x20 PUSH1 0x0 KECCAK256 ADD PUSH1 0x0 SWAP1 SSTORE SWAP1 SSTORE JUMPDEST DUP1 DUP1 PUSH2 0x81C SWAP1 PUSH2 0xCAF JUMP JUMPDEST SWAP2 POP POP PUSH2 0x74F JUMP JUMPDEST POP POP POP POP JUMP JUMPDEST PUSH1 0x2 DUP2 DUP2 SLOAD DUP2 LT PUSH2 0x83A JUMPI PUSH1 0x0 DUP1 REVERT JUMPDEST SWAP1 PUSH1 0x0 MSTORE PUSH1 0x20 PUSH1 0x0 KECCAK256 ADD PUSH1 0x0 SWAP2 POP SWAP1 POP SLOAD DUP2 JUMP JUMPDEST PUSH1 0x0 DUP2 MLOAD SWAP1 POP PUSH2 0x85D DUP2 PUSH2 0xEF5 JUMP JUMPDEST SWAP3 SWAP2 POP POP JUMP JUMPDEST PUSH1 0x0 DUP2 MLOAD SWAP1 POP PUSH2 0x872 DUP2 PUSH2 0xF0C JUMP JUMPDEST SWAP3 SWAP2 POP POP JUMP JUMPDEST PUSH1 0x0 DUP2 CALLDATALOAD SWAP1 POP PUSH2 0x887 DUP2 PUSH2 0xF23 JUMP JUMPDEST SWAP3 SWAP2 POP POP JUMP JUMPDEST PUSH1 0x0 PUSH1 0x20 DUP3 DUP5 SUB SLT ISZERO PUSH2 0x8A3 JUMPI PUSH2 0x8A2 PUSH2 0xD85 JUMP JUMPDEST JUMPDEST PUSH1 0x0 PUSH2 0x8B1 DUP5 DUP3 DUP6 ADD PUSH2 0x84E JUMP JUMPDEST SWAP2 POP POP SWAP3 SWAP2 POP POP JUMP JUMPDEST PUSH1 0x0 PUSH1 0x20 DUP3 DUP5 SUB SLT ISZERO PUSH2 0x8D0 JUMPI PUSH2 0x8CF PUSH2 0xD85 JUMP JUMPDEST JUMPDEST PUSH1 0x0 PUSH2 0x8DE DUP5 DUP3 DUP6 ADD PUSH2 0x863 JUMP JUMPDEST SWAP2 POP POP SWAP3 SWAP2 POP POP JUMP JUMPDEST PUSH1 0x0 PUSH1 0x20 DUP3 DUP5 SUB SLT ISZERO PUSH2 0x8FD JUMPI PUSH2 0x8FC PUSH2 0xD85 JUMP JUMPDEST JUMPDEST PUSH1 0x0 PUSH2 0x90B DUP5 DUP3 DUP6 ADD PUSH2 0x878 JUMP JUMPDEST SWAP2 POP POP SWAP3 SWAP2 POP POP JUMP JUMPDEST PUSH1 0x0 DUP1 PUSH1 0x40 DUP4 DUP6 SUB SLT ISZERO PUSH2 0x92B JUMPI PUSH2 0x92A PUSH2 0xD85 JUMP JUMPDEST JUMPDEST PUSH1 0x0 PUSH2 0x939 DUP6 DUP3 DUP7 ADD PUSH2 0x878 JUMP JUMPDEST SWAP3 POP POP PUSH1 0x20 PUSH2 0x94A DUP6 DUP3 DUP7 ADD PUSH2 0x878 JUMP JUMPDEST SWAP2 POP POP SWAP3 POP SWAP3 SWAP1 POP JUMP JUMPDEST PUSH2 0x95D DUP2 PUSH2 0xC31 JUMP JUMPDEST DUP3 MSTORE POP POP JUMP JUMPDEST PUSH2 0x96C DUP2 PUSH2 0xC79 JUMP JUMPDEST DUP3 MSTORE POP POP JUMP JUMPDEST PUSH1 0x0 PUSH2 0x97F PUSH1 0x24 DUP4 PUSH2 0xBEC JUMP JUMPDEST SWAP2 POP PUSH2 0x98A DUP3 PUSH2 0xD8A JUMP JUMPDEST PUSH1 0x40 DUP3 ADD SWAP1 POP SWAP2 SWAP1 POP JUMP JUMPDEST PUSH1 0x0 PUSH2 0x9A2 PUSH1 0x1D DUP4 PUSH2 0xBEC JUMP JUMPDEST SWAP2 POP PUSH2 0x9AD DUP3 PUSH2 0xDD9 JUMP JUMPDEST PUSH1 0x20 DUP3 ADD SWAP1 POP SWAP2 SWAP1 POP JUMP JUMPDEST PUSH1 0x0 PUSH2 0x9C5 PUSH1 0x1C DUP4 PUSH2 0xBEC JUMP JUMPDEST SWAP2 POP PUSH2 0x9D0 DUP3 PUSH2 0xE02 JUMP JUMPDEST PUSH1 0x20 DUP3 ADD SWAP1 POP SWAP2 SWAP1 POP JUMP JUMPDEST PUSH1 0x0 PUSH2 0x9E8 PUSH1 0x20 DUP4 PUSH2 0xBEC JUMP JUMPDEST SWAP2 POP PUSH2 0x9F3 DUP3 PUSH2 0xE2B JUMP JUMPDEST PUSH1 0x20 DUP3 ADD SWAP1 POP SWAP2 SWAP1 POP JUMP JUMPDEST PUSH1 0x0 PUSH2 0xA0B PUSH1 0x1A DUP4 PUSH2 0xBEC JUMP JUMPDEST SWAP2 POP PUSH2 0xA16 DUP3 PUSH2 0xE54 JUMP JUMPDEST PUSH1 0x20 DUP3 ADD SWAP1 POP SWAP2 SWAP1 POP JUMP JUMPDEST PUSH1 0x0 PUSH2 0xA2E PUSH1 0x17 DUP4 PUSH2 0xBEC JUMP JUMPDEST SWAP2 POP PUSH2 0xA39 DUP3 PUSH2 0xE7D JUMP JUMPDEST PUSH1 0x20 DUP3 ADD SWAP1 POP SWAP2 SWAP1 POP JUMP JUMPDEST PUSH1 0x0 PUSH2 0xA51 PUSH1 0x28 DUP4 PUSH2 0xBEC JUMP JUMPDEST SWAP2 POP PUSH2 0xA5C DUP3 PUSH2 0xEA6 JUMP JUMPDEST PUSH1 0x40 DUP3 ADD SWAP1 POP SWAP2 SWAP1 POP JUMP JUMPDEST PUSH2 0xA70 DUP2 PUSH2 0xC6F JUMP JUMPDEST DUP3 MSTORE POP POP JUMP JUMPDEST PUSH1 0x0 PUSH1 0x40 DUP3 ADD SWAP1 POP PUSH2 0xA8B PUSH1 0x0 DUP4 ADD DUP6 PUSH2 0x954 JUMP JUMPDEST PUSH2 0xA98 PUSH1 0x20 DUP4 ADD DUP5 PUSH2 0x954 JUMP JUMPDEST SWAP4 SWAP3 POP POP POP JUMP JUMPDEST PUSH1 0x0 PUSH1 0x60 DUP3 ADD SWAP1 POP PUSH2 0xAB4 PUSH1 0x0 DUP4 ADD DUP7 PUSH2 0x954 JUMP JUMPDEST PUSH2 0xAC1 PUSH1 0x20 DUP4 ADD DUP6 PUSH2 0x954 JUMP JUMPDEST PUSH2 0xACE PUSH1 0x40 DUP4 ADD DUP5 PUSH2 0xA67 JUMP JUMPDEST SWAP5 SWAP4 POP POP POP POP JUMP JUMPDEST PUSH1 0x0 PUSH1 0x20 DUP3 ADD SWAP1 POP PUSH2 0xAEB PUSH1 0x0 DUP4 ADD DUP5 PUSH2 0x963 JUMP JUMPDEST SWAP3 SWAP2 POP POP JUMP JUMPDEST PUSH1 0x0 PUSH1 0x20 DUP3 ADD SWAP1 POP DUP2 DUP2 SUB PUSH1 0x0 DUP4 ADD MSTORE PUSH2 0xB0A DUP2 PUSH2 0x972 JUMP JUMPDEST SWAP1 POP SWAP2 SWAP1 POP JUMP JUMPDEST PUSH1 0x0 PUSH1 0x20 DUP3 ADD SWAP1 POP DUP2 DUP2 SUB PUSH1 0x0 DUP4 ADD MSTORE PUSH2 0xB2A DUP2 PUSH2 0x995 JUMP JUMPDEST SWAP1 POP SWAP2 SWAP1 POP JUMP JUMPDEST PUSH1 0x0 PUSH1 0x20 DUP3 ADD SWAP1 POP DUP2 DUP2 SUB PUSH1 0x0 DUP4 ADD MSTORE PUSH2 0xB4A DUP2 PUSH2 0x9B8 JUMP JUMPDEST SWAP1 POP SWAP2 SWAP1 POP JUMP JUMPDEST PUSH1 0x0 PUSH1 0x20 DUP3 ADD SWAP1 POP DUP2 DUP2 SUB PUSH1 0x0 DUP4 ADD MSTORE PUSH2 0xB6A DUP2 PUSH2 0x9DB JUMP JUMPDEST SWAP1 POP SWAP2 SWAP1 POP JUMP JUMPDEST PUSH1 0x0 PUSH1 0x20 DUP3 ADD SWAP1 POP DUP2 DUP2 SUB PUSH1 0x0 DUP4 ADD MSTORE PUSH2 0xB8A DUP2 PUSH2 0x9FE JUMP JUMPDEST SWAP1 POP SWAP2 SWAP1 POP JUMP JUMPDEST PUSH1 0x0 PUSH1 0x20 DUP3 ADD SWAP1 POP DUP2 DUP2 SUB PUSH1 0x0 DUP4 ADD MSTORE PUSH2 0xBAA DUP2 PUSH2 0xA21 JUMP JUMPDEST SWAP1 POP SWAP2 SWAP1 POP JUMP JUMPDEST PUSH1 0x0 PUSH1 0x20 DUP3 ADD SWAP1 POP DUP2 DUP2 SUB PUSH1 0x0 DUP4 ADD MSTORE PUSH2 0xBCA DUP2 PUSH2 0xA44 JUMP JUMPDEST SWAP1 POP SWAP2 SWAP1 POP JUMP JUMPDEST PUSH1 0x0 PUSH1 0x20 DUP3 ADD SWAP1 POP PUSH2 0xBE6 PUSH1 0x0 DUP4 ADD DUP5 PUSH2 0xA67 JUMP JUMPDEST SWAP3 SWAP2 POP POP JUMP JUMPDEST PUSH1 0x0 DUP3 DUP3 MSTORE PUSH1 0x20 DUP3 ADD SWAP1 POP SWAP3 SWAP2 POP POP JUMP JUMPDEST PUSH1 0x0 PUSH2 0xC08 DUP3 PUSH2 0xC6F JUMP JUMPDEST SWAP2 POP PUSH2 0xC13 DUP4 PUSH2 0xC6F JUMP JUMPDEST SWAP3 POP DUP3 DUP3 LT ISZERO PUSH2 0xC26 JUMPI PUSH2 0xC25 PUSH2 0xCF8 JUMP JUMPDEST JUMPDEST DUP3 DUP3 SUB SWAP1 POP SWAP3 SWAP2 POP POP JUMP JUMPDEST PUSH1 0x0 PUSH2 0xC3C DUP3 PUSH2 0xC4F JUMP JUMPDEST SWAP1 POP SWAP2 SWAP1 POP JUMP JUMPDEST PUSH1 0x0 DUP2 ISZERO ISZERO SWAP1 POP SWAP2 SWAP1 POP JUMP JUMPDEST PUSH1 0x0 PUSH20 0xFFFFFFFFFFFFFFFFFFFFFFFFFFFFFFFFFFFFFFFF DUP3 AND SWAP1 POP SWAP2 SWAP1 POP JUMP JUMPDEST PUSH1 0x0 DUP2 SWAP1 POP SWAP2 SWAP1 POP JUMP JUMPDEST PUSH1 0x0 PUSH2 0xC84 DUP3 PUSH2 0xC8B JUMP JUMPDEST SWAP1 POP SWAP2 SWAP1 POP JUMP JUMPDEST PUSH1 0x0 PUSH2 0xC96 DUP3 PUSH2 0xC9D JUMP JUMPDEST SWAP1 POP SWAP2 SWAP1 POP JUMP JUMPDEST PUSH1 0x0 PUSH2 0xCA8 DUP3 PUSH2 0xC4F JUMP JUMPDEST SWAP1 POP SWAP2 SWAP1 POP JUMP JUMPDEST PUSH1 0x0 PUSH2 0xCBA DUP3 PUSH2 0xC6F JUMP JUMPDEST SWAP2 POP PUSH32 0xFFFFFFFFFFFFFFFFFFFFFFFFFFFFFFFFFFFFFFFFFFFFFFFFFFFFFFFFFFFFFFFF DUP3 EQ ISZERO PUSH2 0xCED JUMPI PUSH2 0xCEC PUSH2 0xCF8 JUMP JUMPDEST JUMPDEST PUSH1 0x1 DUP3 ADD SWAP1 POP SWAP2 SWAP1 POP JUMP JUMPDEST PUSH32 0x4E487B7100000000000000000000000000000000000000000000000000000000 PUSH1 0x0 MSTORE PUSH1 0x11 PUSH1 0x4 MSTORE PUSH1 0x24 PUSH1 0x0 REVERT JUMPDEST PUSH32 0x4E487B7100000000000000000000000000000000000000000000000000000000 PUSH1 0x0 MSTORE PUSH1 0x31 PUSH1 0x4 MSTORE PUSH1 0x24 PUSH1 0x0 REVERT JUMPDEST PUSH32 0x4E487B7100000000000000000000000000000000000000000000000000000000 PUSH1 0x0 MSTORE PUSH1 0x32 PUSH1 0x4 MSTORE PUSH1 0x24 PUSH1 0x0 REVERT JUMPDEST PUSH1 0x0 DUP1 REVERT JUMPDEST PUSH32 0x537469636B6572206F776E657220646964206E6F7420617070726F766520746F PUSH1 0x0 DUP3 ADD MSTORE PUSH32 0x6B656E2E00000000000000000000000000000000000000000000000000000000 PUSH1 0x20 DUP3 ADD MSTORE POP JUMP JUMPDEST PUSH32 0x53656E6465722073656E74206C6F776572207468616E2070726963652E000000 PUSH1 0x0 DUP3 ADD MSTORE POP JUMP JUMPDEST PUSH32 0x53656E646572206973206E6F7420737469636B6572206F776E65722E00000000 PUSH1 0x0 DUP3 ADD MSTORE POP JUMP JUMPDEST PUSH32 0x5468697320737469636B657220697320616C7265616479206F6E2073616C652E PUSH1 0x0 DUP3 ADD MSTORE POP JUMP JUMPDEST PUSH32 0x7468697320746F6B656E206973206E6F74206F6E2073616C652E000000000000 PUSH1 0x0 DUP3 ADD MSTORE POP JUMP JUMPDEST PUSH32 0x5072696365206973207A65726F206F72206C6F7765722E000000000000000000 PUSH1 0x0 DUP3 ADD MSTORE POP JUMP JUMPDEST PUSH32 0x53656E64657220697320616C7265616479206F776E6572206F66207468697320 PUSH1 0x0 DUP3 ADD MSTORE PUSH32 0x737469636B65722E000000000000000000000000000000000000000000000000 PUSH1 0x20 DUP3 ADD MSTORE POP JUMP JUMPDEST PUSH2 0xEFE DUP2 PUSH2 0xC31 JUMP JUMPDEST DUP2 EQ PUSH2 0xF09 JUMPI PUSH1 0x0 DUP1 REVERT JUMPDEST POP JUMP JUMPDEST PUSH2 0xF15 DUP2 PUSH2 0xC43 JUMP JUMPDEST DUP2 EQ PUSH2 0xF20 JUMPI PUSH1 0x0 DUP1 REVERT JUMPDEST POP JUMP JUMPDEST PUSH2 0xF2C DUP2 PUSH2 0xC6F JUMP JUMPDEST DUP2 EQ PUSH2 0xF37 JUMPI PUSH1 0x0 DUP1 REVERT JUMPDEST POP JUMP INVALID LOG2 PUSH5 0x6970667358 0x22 SLT KECCAK256 BYTE DUP15 0xF 0xC0 PUSH24 0xE25DB37EAC30795D4BAD13111CD2E224669A671C144545F9 DUP3 DUP8 0xDF PUSH5 0x736F6C6343 STOP ADDMOD SMOD STOP CALLER "
		},
		"gasEstimates": {
			"creation": {
				"codeDepositCost": "790400",
				"executionCost": "infinite",
				"totalCost": "infinite"
			},
			"external": {
				"getOnSaleStickerArrayLength()": "2467",
				"getTokenPrice(uint256)": "infinite",
				"insertIntoMarket(uint256,uint256)": "infinite",
				"onSaleStickerArray(uint256)": "infinite",
				"purchaseSticker(uint256)": "infinite",
				"trippieceNFT()": "2597"
			}
		},
		"methodIdentifiers": {
			"getOnSaleStickerArrayLength()": "bb80de0d",
			"getTokenPrice(uint256)": "c457fb37",
			"insertIntoMarket(uint256,uint256)": "1f515a59",
			"onSaleStickerArray(uint256)": "f91e9aae",
			"purchaseSticker(uint256)": "d625af57",
			"trippieceNFT()": "51102f53"
		}
	},
	"abi": [
		{
			"inputs": [
				{
					"internalType": "address",
					"name": "_tokenAddress",
					"type": "address"
				}
			],
			"stateMutability": "nonpayable",
			"type": "constructor"
		},
		{
			"inputs": [],
			"name": "getOnSaleStickerArrayLength",
			"outputs": [
				{
					"internalType": "uint256",
					"name": "",
					"type": "uint256"
				}
			],
			"stateMutability": "view",
			"type": "function"
		},
		{
			"inputs": [
				{
					"internalType": "uint256",
					"name": "_tokenId",
					"type": "uint256"
				}
			],
			"name": "getTokenPrice",
			"outputs": [
				{
					"internalType": "uint256",
					"name": "",
					"type": "uint256"
				}
			],
			"stateMutability": "view",
			"type": "function"
		},
		{
			"inputs": [
				{
					"internalType": "uint256",
					"name": "_tokenId",
					"type": "uint256"
				},
				{
					"internalType": "uint256",
					"name": "_price",
					"type": "uint256"
				}
			],
			"name": "insertIntoMarket",
			"outputs": [],
			"stateMutability": "nonpayable",
			"type": "function"
		},
		{
			"inputs": [
				{
					"internalType": "uint256",
					"name": "",
					"type": "uint256"
				}
			],
			"name": "onSaleStickerArray",
			"outputs": [
				{
					"internalType": "uint256",
					"name": "",
					"type": "uint256"
				}
			],
			"stateMutability": "view",
			"type": "function"
		},
		{
			"inputs": [
				{
					"internalType": "uint256",
					"name": "_tokenId",
					"type": "uint256"
				}
			],
			"name": "purchaseSticker",
			"outputs": [],
			"stateMutability": "payable",
			"type": "function"
		},
		{
			"inputs": [],
			"name": "trippieceNFT",
			"outputs": [
				{
					"internalType": "contract TrippieceNFT",
					"name": "",
					"type": "address"
				}
			],
			"stateMutability": "view",
			"type": "function"
		}
	]
}